{
  "_format": "hh-sol-artifact-1",
  "contractName": "JPYN",
  "sourceName": "contracts/JPYN.sol",
  "abi": [
    {
      "inputs": [
        {
          "internalType": "address",
          "name": "admin1",
          "type": "address"
        },
        {
          "internalType": "address",
          "name": "admin2",
          "type": "address"
        },
        {
          "internalType": "address",
          "name": "admin3",
          "type": "address"
        },
        {
          "internalType": "address",
          "name": "_jpynOracleAddress",
          "type": "address"
        }
      ],
      "stateMutability": "nonpayable",
      "type": "constructor"
    },
    {
      "inputs": [],
      "name": "AlreadyMinted",
      "type": "error"
    },
    {
      "inputs": [],
      "name": "AlreadyRegistered",
      "type": "error"
    },
    {
      "inputs": [],
      "name": "AlreadyVotedProposedAdmin",
      "type": "error"
    },
    {
      "inputs": [],
      "name": "AlreadyVotedProposedBankBlackList",
      "type": "error"
    },
    {
      "inputs": [],
      "name": "AlreadyVotedProposedBlackListAddress",
      "type": "error"
    },
    {
      "inputs": [],
      "name": "AlreadyVotedProposedRemoveBankBlackList",
      "type": "error"
    },
    {
      "inputs": [],
      "name": "AlreadyVotedProposedRemoveBlackListAddress",
      "type": "error"
    },
    {
      "inputs": [],
      "name": "AlreadyVotedProposedRemovedAdmin",
      "type": "error"
    },
    {
      "inputs": [],
      "name": "AlreadyVotedProposedTransferFee",
      "type": "error"
    },
    {
      "inputs": [],
      "name": "BankAccountFalse",
      "type": "error"
    },
    {
      "inputs": [],
      "name": "BankBlackList",
      "type": "error"
    },
    {
      "inputs": [],
      "name": "BlackListAddress",
      "type": "error"
    },
    {
      "inputs": [
        {
          "internalType": "address",
          "name": "spender",
          "type": "address"
        },
        {
          "internalType": "uint256",
          "name": "allowance",
          "type": "uint256"
        },
        {
          "internalType": "uint256",
          "name": "needed",
          "type": "uint256"
        }
      ],
      "name": "ERC20InsufficientAllowance",
      "type": "error"
    },
    {
      "inputs": [
        {
          "internalType": "address",
          "name": "sender",
          "type": "address"
        },
        {
          "internalType": "uint256",
          "name": "balance",
          "type": "uint256"
        },
        {
          "internalType": "uint256",
          "name": "needed",
          "type": "uint256"
        }
      ],
      "name": "ERC20InsufficientBalance",
      "type": "error"
    },
    {
      "inputs": [
        {
          "internalType": "address",
          "name": "approver",
          "type": "address"
        }
      ],
      "name": "ERC20InvalidApprover",
      "type": "error"
    },
    {
      "inputs": [
        {
          "internalType": "address",
          "name": "receiver",
          "type": "address"
        }
      ],
      "name": "ERC20InvalidReceiver",
      "type": "error"
    },
    {
      "inputs": [
        {
          "internalType": "address",
          "name": "sender",
          "type": "address"
        }
      ],
      "name": "ERC20InvalidSender",
      "type": "error"
    },
    {
      "inputs": [
        {
          "internalType": "address",
          "name": "spender",
          "type": "address"
        }
      ],
      "name": "ERC20InvalidSpender",
      "type": "error"
    },
    {
      "inputs": [],
      "name": "ExistingAdmin",
      "type": "error"
    },
    {
      "inputs": [],
      "name": "NotEnoughAdmins",
      "type": "error"
    },
    {
      "inputs": [],
      "name": "NotExistingAdmin",
      "type": "error"
    },
    {
      "inputs": [],
      "name": "NotRegistered",
      "type": "error"
    },
    {
      "inputs": [],
      "name": "NotYourAddress",
      "type": "error"
    },
    {
      "inputs": [],
      "name": "OnlyAdmin",
      "type": "error"
    },
    {
      "anonymous": false,
      "inputs": [
        {
          "indexed": true,
          "internalType": "address",
          "name": "owner",
          "type": "address"
        },
        {
          "indexed": true,
          "internalType": "address",
          "name": "spender",
          "type": "address"
        },
        {
          "indexed": false,
          "internalType": "uint256",
          "name": "value",
          "type": "uint256"
        }
      ],
      "name": "Approval",
      "type": "event"
    },
    {
      "anonymous": false,
      "inputs": [
        {
          "indexed": true,
          "internalType": "address",
          "name": "from",
          "type": "address"
        },
        {
          "indexed": true,
          "internalType": "address",
          "name": "to",
          "type": "address"
        },
        {
          "indexed": false,
          "internalType": "uint256",
          "name": "value",
          "type": "uint256"
        }
      ],
      "name": "Transfer",
      "type": "event"
    },
    {
      "anonymous": false,
      "inputs": [
        {
          "indexed": false,
          "internalType": "bool",
          "name": "isSafe",
          "type": "bool"
        }
      ],
      "name": "isSafe",
      "type": "event"
    },
    {
      "inputs": [
        {
          "internalType": "address",
          "name": "sender",
          "type": "address"
        }
      ],
      "name": "addOracle",
      "outputs": [],
      "stateMutability": "nonpayable",
      "type": "function"
    },
    {
      "inputs": [
        {
          "internalType": "address",
          "name": "owner",
          "type": "address"
        },
        {
          "internalType": "address",
          "name": "spender",
          "type": "address"
        }
      ],
      "name": "allowance",
      "outputs": [
        {
          "internalType": "uint256",
          "name": "",
          "type": "uint256"
        }
      ],
      "stateMutability": "view",
      "type": "function"
    },
    {
      "inputs": [
        {
          "internalType": "address",
          "name": "spender",
          "type": "address"
        },
        {
          "internalType": "uint256",
          "name": "value",
          "type": "uint256"
        }
      ],
      "name": "approve",
      "outputs": [
        {
          "internalType": "bool",
          "name": "",
          "type": "bool"
        }
      ],
      "stateMutability": "nonpayable",
      "type": "function"
    },
    {
      "inputs": [
        {
          "internalType": "address",
          "name": "account",
          "type": "address"
        }
      ],
      "name": "balanceOf",
      "outputs": [
        {
          "internalType": "uint256",
          "name": "",
          "type": "uint256"
        }
      ],
      "stateMutability": "view",
      "type": "function"
    },
    {
      "inputs": [
        {
          "internalType": "uint256",
          "name": "value",
          "type": "uint256"
        }
      ],
      "name": "burn",
      "outputs": [],
      "stateMutability": "nonpayable",
      "type": "function"
    },
    {
      "inputs": [
        {
          "internalType": "uint256",
          "name": "_type",
          "type": "uint256"
        }
      ],
      "name": "getCurrentBankBlackListId",
      "outputs": [
        {
          "internalType": "uint256",
          "name": "",
          "type": "uint256"
        }
      ],
      "stateMutability": "view",
      "type": "function"
    },
    {
      "inputs": [
        {
          "internalType": "uint256",
          "name": "_type",
          "type": "uint256"
        }
      ],
      "name": "getCurrentBlackListAddressId",
      "outputs": [
        {
          "internalType": "uint256",
          "name": "",
          "type": "uint256"
        }
      ],
      "stateMutability": "view",
      "type": "function"
    },
    {
      "inputs": [
        {
          "internalType": "uint256",
          "name": "_type",
          "type": "uint256"
        }
      ],
      "name": "getCurrentProposedAdminId",
      "outputs": [
        {
          "internalType": "uint256",
          "name": "",
          "type": "uint256"
        }
      ],
      "stateMutability": "view",
      "type": "function"
    },
    {
      "inputs": [],
      "name": "getCurrentProposedTransferFeeId",
      "outputs": [
        {
          "internalType": "uint256",
          "name": "",
          "type": "uint256"
        }
      ],
      "stateMutability": "view",
      "type": "function"
    },
    {
      "inputs": [],
      "name": "getMinApproval",
      "outputs": [
        {
          "internalType": "uint256",
          "name": "",
          "type": "uint256"
        }
      ],
      "stateMutability": "view",
      "type": "function"
    },
    {
      "inputs": [
        {
          "internalType": "address",
          "name": "sender",
          "type": "address"
        }
      ],
      "name": "getMinted",
      "outputs": [
        {
          "internalType": "bool",
          "name": "",
          "type": "bool"
        }
      ],
      "stateMutability": "view",
      "type": "function"
    },
    {
      "inputs": [
        {
          "internalType": "uint256",
          "name": "_id",
          "type": "uint256"
        }
      ],
      "name": "getProposedAdmin",
      "outputs": [
        {
          "components": [
            {
              "internalType": "address",
              "name": "proposedAdmin",
              "type": "address"
            },
            {
              "internalType": "address",
              "name": "proposer",
              "type": "address"
            },
            {
              "internalType": "uint256",
              "name": "approvalCount",
              "type": "uint256"
            },
            {
              "internalType": "uint256",
              "name": "rejectCount",
              "type": "uint256"
            },
            {
              "internalType": "uint256",
              "name": "status",
              "type": "uint256"
            }
          ],
          "internalType": "struct JPYN.ReturnProposedAdmin",
          "name": "",
          "type": "tuple"
        }
      ],
      "stateMutability": "view",
      "type": "function"
    },
    {
      "inputs": [
        {
          "internalType": "uint256",
          "name": "_id",
          "type": "uint256"
        }
      ],
      "name": "getProposedBankBlackList",
      "outputs": [
        {
          "components": [
            {
              "internalType": "string",
              "name": "proposedBankBlackList",
              "type": "string"
            },
            {
              "internalType": "address",
              "name": "proposer",
              "type": "address"
            },
            {
              "internalType": "uint256",
              "name": "approvalCount",
              "type": "uint256"
            },
            {
              "internalType": "uint256",
              "name": "rejectCount",
              "type": "uint256"
            },
            {
              "internalType": "uint256",
              "name": "status",
              "type": "uint256"
            }
          ],
          "internalType": "struct JPYN.ReturnBankBlackList",
          "name": "",
          "type": "tuple"
        }
      ],
      "stateMutability": "view",
      "type": "function"
    },
    {
      "inputs": [
        {
          "internalType": "uint256",
          "name": "_id",
          "type": "uint256"
        }
      ],
      "name": "getProposedBlackListAddress",
      "outputs": [
        {
          "components": [
            {
              "internalType": "address",
              "name": "proposedBlackListAddress",
              "type": "address"
            },
            {
              "internalType": "address",
              "name": "proposer",
              "type": "address"
            },
            {
              "internalType": "uint256",
              "name": "approvalCount",
              "type": "uint256"
            },
            {
              "internalType": "uint256",
              "name": "rejectCount",
              "type": "uint256"
            },
            {
              "internalType": "uint256",
              "name": "status",
              "type": "uint256"
            }
          ],
          "internalType": "struct JPYN.ReturnBlackListAddress",
          "name": "",
          "type": "tuple"
        }
      ],
      "stateMutability": "view",
      "type": "function"
    },
    {
      "inputs": [
        {
          "internalType": "uint256",
          "name": "_id",
          "type": "uint256"
        }
      ],
      "name": "getProposedRemoveBankBlackList",
      "outputs": [
        {
          "components": [
            {
              "internalType": "string",
              "name": "proposedRemoveBankBlackList",
              "type": "string"
            },
            {
              "internalType": "address",
              "name": "proposer",
              "type": "address"
            },
            {
              "internalType": "uint256",
              "name": "approvalCount",
              "type": "uint256"
            },
            {
              "internalType": "uint256",
              "name": "rejectCount",
              "type": "uint256"
            },
            {
              "internalType": "uint256",
              "name": "status",
              "type": "uint256"
            }
          ],
          "internalType": "struct JPYN.ReturnRemoveBankBlackList",
          "name": "",
          "type": "tuple"
        }
      ],
      "stateMutability": "view",
      "type": "function"
    },
    {
      "inputs": [
        {
          "internalType": "uint256",
          "name": "_id",
          "type": "uint256"
        }
      ],
      "name": "getProposedRemoveBlackListAddress",
      "outputs": [
        {
          "components": [
            {
              "internalType": "address",
              "name": "proposedRemoveBlackListAddress",
              "type": "address"
            },
            {
              "internalType": "address",
              "name": "proposer",
              "type": "address"
            },
            {
              "internalType": "uint256",
              "name": "approvalCount",
              "type": "uint256"
            },
            {
              "internalType": "uint256",
              "name": "rejectCount",
              "type": "uint256"
            },
            {
              "internalType": "uint256",
              "name": "status",
              "type": "uint256"
            }
          ],
          "internalType": "struct JPYN.ReturnRemoveBlackListAddress",
          "name": "",
          "type": "tuple"
        }
      ],
      "stateMutability": "view",
      "type": "function"
    },
    {
      "inputs": [
        {
          "internalType": "uint256",
          "name": "_id",
          "type": "uint256"
        }
      ],
      "name": "getProposedRemovedAdmin",
      "outputs": [
        {
          "components": [
            {
              "internalType": "address",
              "name": "proposedRemovedAdmin",
              "type": "address"
            },
            {
              "internalType": "address",
              "name": "proposer",
              "type": "address"
            },
            {
              "internalType": "uint256",
              "name": "approvalCount",
              "type": "uint256"
            },
            {
              "internalType": "uint256",
              "name": "rejectCount",
              "type": "uint256"
            },
            {
              "internalType": "uint256",
              "name": "status",
              "type": "uint256"
            }
          ],
          "internalType": "struct JPYN.ReturnProposedRemovedAdmin",
          "name": "",
          "type": "tuple"
        }
      ],
      "stateMutability": "view",
      "type": "function"
    },
    {
      "inputs": [
        {
          "internalType": "uint256",
          "name": "_id",
          "type": "uint256"
        }
      ],
      "name": "getProposedTransferFee",
      "outputs": [
        {
          "components": [
            {
              "internalType": "uint256",
              "name": "proposedTransferFee",
              "type": "uint256"
            },
            {
              "internalType": "address",
              "name": "proposer",
              "type": "address"
            },
            {
              "internalType": "uint256",
              "name": "approvalCount",
              "type": "uint256"
            },
            {
              "internalType": "uint256",
              "name": "rejectCount",
              "type": "uint256"
            },
            {
              "internalType": "uint256",
              "name": "status",
              "type": "uint256"
            }
          ],
          "internalType": "struct JPYN.ReturnProposedTransferFee",
          "name": "",
          "type": "tuple"
        }
      ],
      "stateMutability": "view",
      "type": "function"
    },
    {
      "inputs": [
        {
          "internalType": "string",
          "name": "_hashedBankAccount",
          "type": "string"
        }
      ],
      "name": "getRequestId",
      "outputs": [
        {
          "internalType": "uint256",
          "name": "",
          "type": "uint256"
        }
      ],
      "stateMutability": "view",
      "type": "function"
    },
    {
      "inputs": [],
      "name": "getTotalVoters",
      "outputs": [
        {
          "internalType": "uint256",
          "name": "",
          "type": "uint256"
        }
      ],
      "stateMutability": "view",
      "type": "function"
    },
    {
      "inputs": [],
      "name": "getTransferFee",
      "outputs": [
        {
          "internalType": "uint256",
          "name": "",
          "type": "uint256"
        }
      ],
      "stateMutability": "view",
      "type": "function"
    },
    {
      "inputs": [
        {
          "internalType": "address",
          "name": "sender",
          "type": "address"
        }
      ],
      "name": "isAdmin",
      "outputs": [
        {
          "internalType": "bool",
          "name": "",
          "type": "bool"
        }
      ],
      "stateMutability": "view",
      "type": "function"
    },
    {
      "inputs": [],
      "name": "isSafeTotalSupply",
      "outputs": [],
      "stateMutability": "nonpayable",
      "type": "function"
    },
    {
      "inputs": [
        {
          "internalType": "string",
          "name": "_hashedBankAccount",
          "type": "string"
        }
      ],
      "name": "mint",
      "outputs": [],
      "stateMutability": "nonpayable",
      "type": "function"
    },
    {
      "inputs": [
        {
          "internalType": "address",
          "name": "_address",
          "type": "address"
        },
        {
          "internalType": "uint256",
          "name": "_type",
          "type": "uint256"
        }
      ],
      "name": "proposeAdmin",
      "outputs": [],
      "stateMutability": "nonpayable",
      "type": "function"
    },
    {
      "inputs": [
        {
          "internalType": "string",
          "name": "_pBankBlackList",
          "type": "string"
        },
        {
          "internalType": "uint256",
          "name": "_type",
          "type": "uint256"
        }
      ],
      "name": "proposeBankBlackList",
      "outputs": [],
      "stateMutability": "nonpayable",
      "type": "function"
    },
    {
      "inputs": [
        {
          "internalType": "address",
          "name": "_blackListAddress",
          "type": "address"
        },
        {
          "internalType": "uint256",
          "name": "_type",
          "type": "uint256"
        }
      ],
      "name": "proposeBlackListAddress",
      "outputs": [],
      "stateMutability": "nonpayable",
      "type": "function"
    },
    {
      "inputs": [
        {
          "internalType": "uint256",
          "name": "_newTransferFee",
          "type": "uint256"
        }
      ],
      "name": "proposeTransferFee",
      "outputs": [],
      "stateMutability": "nonpayable",
      "type": "function"
    },
    {
      "inputs": [
        {
          "internalType": "string",
          "name": "_hashedBankAccount",
          "type": "string"
        }
      ],
      "name": "registerAddressToBank",
      "outputs": [],
      "stateMutability": "nonpayable",
      "type": "function"
    },
    {
      "inputs": [
        {
          "internalType": "address",
          "name": "sender",
          "type": "address"
        }
      ],
      "name": "removeOracle",
      "outputs": [],
      "stateMutability": "nonpayable",
      "type": "function"
    },
    {
      "inputs": [],
      "name": "requestIsSafeTotalSupply",
      "outputs": [],
      "stateMutability": "nonpayable",
      "type": "function"
    },
    {
      "inputs": [],
      "name": "totalSupply",
      "outputs": [
        {
          "internalType": "uint256",
          "name": "",
          "type": "uint256"
        }
      ],
      "stateMutability": "view",
      "type": "function"
    },
    {
      "inputs": [
        {
          "internalType": "address",
          "name": "to",
          "type": "address"
        },
        {
          "internalType": "uint256",
          "name": "value",
          "type": "uint256"
        }
      ],
      "name": "transfer",
      "outputs": [
        {
          "internalType": "bool",
          "name": "",
          "type": "bool"
        }
      ],
      "stateMutability": "nonpayable",
      "type": "function"
    },
    {
      "inputs": [
        {
          "internalType": "address",
          "name": "from",
          "type": "address"
        },
        {
          "internalType": "address",
          "name": "to",
          "type": "address"
        },
        {
          "internalType": "uint256",
          "name": "value",
          "type": "uint256"
        }
      ],
      "name": "transferFrom",
      "outputs": [
        {
          "internalType": "bool",
          "name": "",
          "type": "bool"
        }
      ],
      "stateMutability": "nonpayable",
      "type": "function"
    },
    {
      "inputs": [
        {
          "internalType": "uint256",
          "name": "_id",
          "type": "uint256"
        },
        {
          "internalType": "bool",
          "name": "_vote",
          "type": "bool"
        },
        {
          "internalType": "uint256",
          "name": "_type",
          "type": "uint256"
        }
      ],
      "name": "voteProposedAdmin",
      "outputs": [],
      "stateMutability": "nonpayable",
      "type": "function"
    },
    {
      "inputs": [
        {
          "internalType": "uint256",
          "name": "_id",
          "type": "uint256"
        },
        {
          "internalType": "bool",
          "name": "_vote",
          "type": "bool"
        },
        {
          "internalType": "uint256",
          "name": "_type",
          "type": "uint256"
        }
      ],
      "name": "voteProposedBankBlackList",
      "outputs": [],
      "stateMutability": "nonpayable",
      "type": "function"
    },
    {
      "inputs": [
        {
          "internalType": "uint256",
          "name": "_id",
          "type": "uint256"
        },
        {
          "internalType": "bool",
          "name": "_vote",
          "type": "bool"
        },
        {
          "internalType": "uint256",
          "name": "_type",
          "type": "uint256"
        }
      ],
      "name": "voteProposedBlackListAddress",
      "outputs": [],
      "stateMutability": "nonpayable",
      "type": "function"
    },
    {
      "inputs": [
        {
          "internalType": "uint256",
          "name": "_id",
          "type": "uint256"
        },
        {
          "internalType": "bool",
          "name": "_vote",
          "type": "bool"
        }
      ],
      "name": "voteProposedTransferFee",
      "outputs": [],
      "stateMutability": "nonpayable",
      "type": "function"
    }
  ],
  "bytecode": "0x60806040523480156200001157600080fd5b5060405162006517380380620065178339818101604052810190620000379190620003cd565b6040518060400160405280600481526020017f4a50594e00000000000000000000000000000000000000000000000000000000815250601a90816200007d9190620006b9565b506040518060400160405280600481526020017f4a50594e00000000000000000000000000000000000000000000000000000000815250601b9081620000c49190620006b9565b506003601c60006101000a81548160ff021916908360ff1602179055506003601d819055506003601e819055506002601f819055506003602081905550600a60238190555060006024819055506001600360008673ffffffffffffffffffffffffffffffffffffffff1673ffffffffffffffffffffffffffffffffffffffff16815260200190815260200160002060006101000a81548160ff0219169083151502179055506001600360008573ffffffffffffffffffffffffffffffffffffffff1673ffffffffffffffffffffffffffffffffffffffff16815260200190815260200160002060006101000a81548160ff0219169083151502179055506001600360008473ffffffffffffffffffffffffffffffffffffffff1673ffffffffffffffffffffffffffffffffffffffff16815260200190815260200160002060006101000a81548160ff021916908315150217905550836004600080815260200190815260200160002060006101000a81548173ffffffffffffffffffffffffffffffffffffffff021916908373ffffffffffffffffffffffffffffffffffffffff16021790555082600460006001815260200190815260200160002060006101000a81548173ffffffffffffffffffffffffffffffffffffffff021916908373ffffffffffffffffffffffffffffffffffffffff16021790555081600460006002815260200190815260200160002060006101000a81548173ffffffffffffffffffffffffffffffffffffffff021916908373ffffffffffffffffffffffffffffffffffffffff1602179055506000602281905550806000806101000a81548173ffffffffffffffffffffffffffffffffffffffff021916908373ffffffffffffffffffffffffffffffffffffffff16021790555050505050620007a0565b600080fd5b600073ffffffffffffffffffffffffffffffffffffffff82169050919050565b6000620003958262000368565b9050919050565b620003a78162000388565b8114620003b357600080fd5b50565b600081519050620003c7816200039c565b92915050565b60008060008060808587031215620003ea57620003e962000363565b5b6000620003fa87828801620003b6565b94505060206200040d87828801620003b6565b93505060406200042087828801620003b6565b92505060606200043387828801620003b6565b91505092959194509250565b600081519050919050565b7f4e487b7100000000000000000000000000000000000000000000000000000000600052604160045260246000fd5b7f4e487b7100000000000000000000000000000000000000000000000000000000600052602260045260246000fd5b60006002820490506001821680620004c157607f821691505b602082108103620004d757620004d662000479565b5b50919050565b60008190508160005260206000209050919050565b60006020601f8301049050919050565b600082821b905092915050565b600060088302620005417fffffffffffffffffffffffffffffffffffffffffffffffffffffffffffffffff8262000502565b6200054d868362000502565b95508019841693508086168417925050509392505050565b6000819050919050565b6000819050919050565b60006200059a620005946200058e8462000565565b6200056f565b62000565565b9050919050565b6000819050919050565b620005b68362000579565b620005ce620005c582620005a1565b8484546200050f565b825550505050565b600090565b620005e5620005d6565b620005f2818484620005ab565b505050565b5b818110156200061a576200060e600082620005db565b600181019050620005f8565b5050565b601f82111562000669576200063381620004dd565b6200063e84620004f2565b810160208510156200064e578190505b620006666200065d85620004f2565b830182620005f7565b50505b505050565b600082821c905092915050565b60006200068e600019846008026200066e565b1980831691505092915050565b6000620006a983836200067b565b9150826002028217905092915050565b620006c4826200043f565b67ffffffffffffffff811115620006e057620006df6200044a565b5b620006ec8254620004a8565b620006f98282856200061e565b600060209050601f8311600181146200073157600084156200071c578287015190505b6200072885826200069b565b86555062000798565b601f1984166200074186620004dd565b60005b828110156200076b5784890151825560018201915060208501945060208101905062000744565b868310156200078b578489015162000787601f8916826200067b565b8355505b6001600288020188555050505b505050505050565b615d6780620007b06000396000f3fe608060405234801561001057600080fd5b50600436106102325760003560e01c8063a16511e611610130578063d69e0119116100b8578063df5dd1a51161007c578063df5dd1a5146106f9578063e41f235814610715578063f00f809b14610745578063f573da1214610775578063fdc85fc41461079157610232565b8063d69e011914610631578063d85d3d2714610661578063da13313d1461067d578063dd28597f14610699578063dd62ed3e146106c957610232565b8063ad259190116100ff578063ad25919014610567578063ba0ffef114610597578063c635f2d3146105b5578063ccd72e81146105e5578063cdf8f8da1461061557610232565b8063a16511e6146104e3578063a3f70e5d146104ff578063a9059cbb1461051b578063a9bc2fd81461054b57610232565b806353d516da116101be57806383dce72a1161018257806383dce72a146104175780638f46c7201461044757806396215e9214610477578063987cac33146104a75780639a17d8c1146104c557610232565b806353d516da1461034d578063562a52821461037d57806367e1d2ec146103ad57806370a08231146103c9578063793cf218146103f957610232565b806324d7806c1161020557806324d7806c146102bf57806331601d4a146102ef57806342966c681461030b5780634cbd61aa146103275780634d43f8351461033157610232565b80630824791c14610237578063095ea7b31461024157806318160ddd1461027157806323b872dd1461028f575b600080fd5b61023f6107ad565b005b61025b60048036038101906102569190614df6565b610937565b6040516102689190614e51565b60405180910390f35b610279610953565b6040516102869190614e7b565b60405180910390f35b6102a960048036038101906102a49190614e96565b61095d565b6040516102b69190614e51565b60405180910390f35b6102d960048036038101906102d49190614ee9565b6109fc565b6040516102e69190614e51565b60405180910390f35b6103096004803603810190610304919061505c565b610ad6565b005b610325600480360381019061032091906150a5565b610dbb565b005b61032f610dca565b005b61034b600480360381019061034691906150fe565b610fd1565b005b610367600480360381019061036291906150a5565b6114e3565b60405161037491906151d7565b60405180910390f35b6103976004803603810190610392919061505c565b611635565b6040516103a49190614e7b565b60405180910390f35b6103c760048036038101906103c29190614df6565b61165d565b005b6103e360048036038101906103de9190614ee9565b611918565b6040516103f09190614e7b565b60405180910390f35b610401611961565b60405161040e9190614e7b565b60405180910390f35b610431600480360381019061042c91906150a5565b6119ef565b60405161043e919061525a565b60405180910390f35b610461600480360381019061045c91906150a5565b611b41565b60405161046e9190614e7b565b60405180910390f35b610491600480360381019061048c9190614ee9565b611be4565b60405161049e9190614e51565b60405180910390f35b6104af611c3a565b6040516104bc9190614e7b565b60405180910390f35b6104cd611cc8565b6040516104da9190614e7b565b60405180910390f35b6104fd60048036038101906104f89190614df6565b611d56565b005b610519600480360381019061051491906150fe565b612095565b005b61053560048036038101906105309190614df6565b612509565b6040516105429190614e51565b60405180910390f35b610565600480360381019061056091906150a5565b61261d565b005b610581600480360381019061057c91906150a5565b6127dd565b60405161058e919061536a565b60405180910390f35b61059f612981565b6040516105ac9190614e7b565b60405180910390f35b6105cf60048036038101906105ca91906150a5565b612a0f565b6040516105dc9190614e7b565b60405180910390f35b6105ff60048036038101906105fa91906150a5565b612ab2565b60405161060c91906153f4565b60405180910390f35b61062f600480360381019061062a91906150fe565b612c04565b005b61064b600480360381019061064691906150a5565b613092565b6040516106589190615477565b60405180910390f35b61067b6004803603810190610676919061505c565b6131ae565b005b61069760048036038101906106929190615492565b6135dd565b005b6106b360048036038101906106ae91906150a5565b613836565b6040516106c09190614e7b565b60405180910390f35b6106e360048036038101906106de91906154ee565b6138d9565b6040516106f09190614e7b565b60405180910390f35b610713600480360381019061070e9190614ee9565b613960565b005b61072f600480360381019061072a91906150a5565b613a7b565b60405161073c9190615596565b60405180910390f35b61075f600480360381019061075a91906150a5565b613bcd565b60405161076c9190615627565b60405180910390f35b61078f600480360381019061078a9190615649565b613d71565b005b6107ab60048036038101906107a69190614ee9565b614026565b005b601360003373ffffffffffffffffffffffffffffffffffffffff1673ffffffffffffffffffffffffffffffffffffffff16815260200190815260200160002060009054906101000a900460ff1615610831576040517fad69852600000000000000000000000000000000000000000000000000000000815260040160405180910390fd5b60005b6021548110156109345760008060009054906101000a900473ffffffffffffffffffffffffffffffffffffffff1673ffffffffffffffffffffffffffffffffffffffff16631b146ecf601760008581526020019081526020016000206040518263ffffffff1660e01b81526004016108ac9190615793565b6020604051808303816000875af11580156108cb573d6000803e3d6000fd5b505050506040513d601f19601f820116820180604052508101906108ef91906157ca565b9050806016601760008581526020019081526020016000206040516109149190615885565b908152602001604051809103902081905550508080600101915050610834565b50565b60008033905061094881858561417f565b600191505092915050565b6000601954905090565b60008033905061097285826023548601614191565b6000602354146109e5576109be8160046000602254815260200190815260200160002060009054906101000a900473ffffffffffffffffffffffffffffffffffffffff16602354614225565b602260008154809291906001019190505550602054602254036109e45760006022819055505b5b6109f0858585614225565b60019150509392505050565b6000601360003373ffffffffffffffffffffffffffffffffffffffff1673ffffffffffffffffffffffffffffffffffffffff16815260200190815260200160002060009054906101000a900460ff1615610a82576040517fad69852600000000000000000000000000000000000000000000000000000000815260040160405180910390fd5b600360008373ffffffffffffffffffffffffffffffffffffffff1673ffffffffffffffffffffffffffffffffffffffff16815260200190815260200160002060009054906101000a900460ff169050919050565b601360003373ffffffffffffffffffffffffffffffffffffffff1673ffffffffffffffffffffffffffffffffffffffff16815260200190815260200160002060009054906101000a900460ff1615610b5a576040517fad69852600000000000000000000000000000000000000000000000000000000815260040160405180910390fd5b601481604051610b6a91906158cd565b908152602001604051809103902060009054906101000a900460ff1615610bbd576040517fafcd147f00000000000000000000000000000000000000000000000000000000815260040160405180910390fd5b600073ffffffffffffffffffffffffffffffffffffffff16601582604051610be591906158cd565b908152602001604051809103902060009054906101000a900473ffffffffffffffffffffffffffffffffffffffff1673ffffffffffffffffffffffffffffffffffffffff1614610c61576040517f3a81d6fc00000000000000000000000000000000000000000000000000000000815260040160405180910390fd5b33601582604051610c7291906158cd565b908152602001604051809103902060006101000a81548173ffffffffffffffffffffffffffffffffffffffff021916908373ffffffffffffffffffffffffffffffffffffffff160217905550806017600060215481526020019081526020016000209081610ce09190615a7b565b5060216000815480929190600101919050555060008060009054906101000a900473ffffffffffffffffffffffffffffffffffffffff1673ffffffffffffffffffffffffffffffffffffffff16631b146ecf836040518263ffffffff1660e01b8152600401610d4f9190615b86565b6020604051808303816000875af1158015610d6e573d6000803e3d6000fd5b505050506040513d601f19601f82011682018060405250810190610d9291906157ca565b905080601683604051610da591906158cd565b9081526020016040518091039020819055505050565b610dc733600083614319565b50565b601360003373ffffffffffffffffffffffffffffffffffffffff1673ffffffffffffffffffffffffffffffffffffffff16815260200190815260200160002060009054906101000a900460ff1615610e4e576040517fad69852600000000000000000000000000000000000000000000000000000000815260040160405180910390fd5b6000805b602154811015610f4d5760008060009054906101000a900473ffffffffffffffffffffffffffffffffffffffff1673ffffffffffffffffffffffffffffffffffffffff1663c58343ef601660176000868152602001908152602001600020604051610ebd9190615885565b9081526020016040518091039020546040518263ffffffff1660e01b8152600401610ee89190614e7b565b6060604051808303816000875af1158015610f07573d6000803e3d6000fd5b505050506040513d601f19601f82011682018060405250810190610f2b9190615c11565b9050806040015183610f3d9190615c6d565b9250508080600101915050610e52565b50601954811015610f95577f9c059596d01d852c29f0ac7e96c767201380785bfe760c293ebab95a4832da6b6000604051610f889190614e51565b60405180910390a1610fce565b7f9c059596d01d852c29f0ac7e96c767201380785bfe760c293ebab95a4832da6b6001604051610fc59190614e51565b60405180910390a15b50565b600360003373ffffffffffffffffffffffffffffffffffffffff1673ffffffffffffffffffffffffffffffffffffffff16815260200190815260200160002060009054906101000a900460ff16611054576040517f4755657900000000000000000000000000000000000000000000000000000000815260040160405180910390fd5b601360003373ffffffffffffffffffffffffffffffffffffffff1673ffffffffffffffffffffffffffffffffffffffff16815260200190815260200160002060009054906101000a900460ff16156110d8576040517fad69852600000000000000000000000000000000000000000000000000000000815260040160405180910390fd5b601e54601d541015611116576040517fff7e6cf800000000000000000000000000000000000000000000000000000000815260040160405180910390fd5b600081036113005760006007600085815260200190815260200160002090508060050160003373ffffffffffffffffffffffffffffffffffffffff1673ffffffffffffffffffffffffffffffffffffffff16815260200190815260200160002060009054906101000a900460ff16156111bb576040517f1c24747300000000000000000000000000000000000000000000000000000000815260040160405180910390fd5b82156111da5780600201600081548092919060010191905055506111ef565b80600301600081548092919060010191905055505b60018160050160003373ffffffffffffffffffffffffffffffffffffffff1673ffffffffffffffffffffffffffffffffffffffff16815260200190815260200160002060006101000a81548160ff021916908315150217905550601f548160020154106112e1576001601360008360000160009054906101000a900473ffffffffffffffffffffffffffffffffffffffff1673ffffffffffffffffffffffffffffffffffffffff1673ffffffffffffffffffffffffffffffffffffffff16815260200190815260200160002060006101000a81548160ff021916908315150217905550600181600401819055506112fa565b601f548160030154106112f957600281600401819055505b5b506114de565b60006009600085815260200190815260200160002090508060050160003373ffffffffffffffffffffffffffffffffffffffff1673ffffffffffffffffffffffffffffffffffffffff16815260200190815260200160002060009054906101000a900460ff161561139d576040517fc8518c6b00000000000000000000000000000000000000000000000000000000815260040160405180910390fd5b82156113bc5780600201600081548092919060010191905055506113d1565b80600301600081548092919060010191905055505b60018160050160003373ffffffffffffffffffffffffffffffffffffffff1673ffffffffffffffffffffffffffffffffffffffff16815260200190815260200160002060006101000a81548160ff021916908315150217905550601f548160020154106114c3576000601360008360000160009054906101000a900473ffffffffffffffffffffffffffffffffffffffff1673ffffffffffffffffffffffffffffffffffffffff1673ffffffffffffffffffffffffffffffffffffffff16815260200190815260200160002060006101000a81548160ff021916908315150217905550600181600401819055506114dc565b601f548160030154106114db57600281600401819055505b5b505b505050565b6114eb614b13565b601360003373ffffffffffffffffffffffffffffffffffffffff1673ffffffffffffffffffffffffffffffffffffffff16815260200190815260200160002060009054906101000a900460ff161561156f576040517fad69852600000000000000000000000000000000000000000000000000000000815260040160405180910390fd5b60006009600084815260200190815260200160002090506040518060a001604052808260000160009054906101000a900473ffffffffffffffffffffffffffffffffffffffff1673ffffffffffffffffffffffffffffffffffffffff1681526020018260010160009054906101000a900473ffffffffffffffffffffffffffffffffffffffff1673ffffffffffffffffffffffffffffffffffffffff16815260200182600201548152602001826003015481526020018260040154815250915050919050565b600060168260405161164791906158cd565b9081526020016040518091039020549050919050565b600360003373ffffffffffffffffffffffffffffffffffffffff1673ffffffffffffffffffffffffffffffffffffffff16815260200190815260200160002060009054906101000a900460ff166116e0576040517f4755657900000000000000000000000000000000000000000000000000000000815260040160405180910390fd5b601360003373ffffffffffffffffffffffffffffffffffffffff1673ffffffffffffffffffffffffffffffffffffffff16815260200190815260200160002060009054906101000a900460ff1615611764576040517fad69852600000000000000000000000000000000000000000000000000000000815260040160405180910390fd5b601e54601d5410156117a2576040517fff7e6cf800000000000000000000000000000000000000000000000000000000815260040160405180910390fd5b600081036118615760006007600060085481526020019081526020016000209050828160000160006101000a81548173ffffffffffffffffffffffffffffffffffffffff021916908373ffffffffffffffffffffffffffffffffffffffff160217905550338160010160006101000a81548173ffffffffffffffffffffffffffffffffffffffff021916908373ffffffffffffffffffffffffffffffffffffffff16021790555060086000815480929190600101919050555050611914565b600060096000600a5481526020019081526020016000209050828160000160006101000a81548173ffffffffffffffffffffffffffffffffffffffff021916908373ffffffffffffffffffffffffffffffffffffffff160217905550338160010160006101000a81548173ffffffffffffffffffffffffffffffffffffffff021916908373ffffffffffffffffffffffffffffffffffffffff160217905550600a60008154809291906001019190505550505b5050565b6000600160008373ffffffffffffffffffffffffffffffffffffffff1673ffffffffffffffffffffffffffffffffffffffff168152602001908152602001600020549050919050565b6000601360003373ffffffffffffffffffffffffffffffffffffffff1673ffffffffffffffffffffffffffffffffffffffff16815260200190815260200160002060009054906101000a900460ff16156119e7576040517fad69852600000000000000000000000000000000000000000000000000000000815260040160405180910390fd5b601d54905090565b6119f7614b6e565b601360003373ffffffffffffffffffffffffffffffffffffffff1673ffffffffffffffffffffffffffffffffffffffff16815260200190815260200160002060009054906101000a900460ff1615611a7b576040517fad69852600000000000000000000000000000000000000000000000000000000815260040160405180910390fd5b60006007600084815260200190815260200160002090506040518060a001604052808260000160009054906101000a900473ffffffffffffffffffffffffffffffffffffffff1673ffffffffffffffffffffffffffffffffffffffff1681526020018260010160009054906101000a900473ffffffffffffffffffffffffffffffffffffffff1673ffffffffffffffffffffffffffffffffffffffff16815260200182600201548152602001826003015481526020018260040154815250915050919050565b6000601360003373ffffffffffffffffffffffffffffffffffffffff1673ffffffffffffffffffffffffffffffffffffffff16815260200190815260200160002060009054906101000a900460ff1615611bc7576040517fad69852600000000000000000000000000000000000000000000000000000000815260040160405180910390fd5b60008203611bd957600c549050611bdf565b600e5490505b919050565b6000601860008373ffffffffffffffffffffffffffffffffffffffff1673ffffffffffffffffffffffffffffffffffffffff16815260200190815260200160002060009054906101000a900460ff169050919050565b6000601360003373ffffffffffffffffffffffffffffffffffffffff1673ffffffffffffffffffffffffffffffffffffffff16815260200190815260200160002060009054906101000a900460ff1615611cc0576040517fad69852600000000000000000000000000000000000000000000000000000000815260040160405180910390fd5b601f54905090565b6000601360003373ffffffffffffffffffffffffffffffffffffffff1673ffffffffffffffffffffffffffffffffffffffff16815260200190815260200160002060009054906101000a900460ff1615611d4e576040517fad69852600000000000000000000000000000000000000000000000000000000815260040160405180910390fd5b602354905090565b600360003373ffffffffffffffffffffffffffffffffffffffff1673ffffffffffffffffffffffffffffffffffffffff16815260200190815260200160002060009054906101000a900460ff16611dd9576040517f4755657900000000000000000000000000000000000000000000000000000000815260040160405180910390fd5b601360003373ffffffffffffffffffffffffffffffffffffffff1673ffffffffffffffffffffffffffffffffffffffff16815260200190815260200160002060009054906101000a900460ff1615611e5d576040517fad69852600000000000000000000000000000000000000000000000000000000815260040160405180910390fd5b601e54601d541015611e9b576040517fff7e6cf800000000000000000000000000000000000000000000000000000000815260040160405180910390fd5b60008103611fde57600360008373ffffffffffffffffffffffffffffffffffffffff1673ffffffffffffffffffffffffffffffffffffffff16815260200190815260200160002060009054906101000a900460ff1615611f27576040517f2478fb0400000000000000000000000000000000000000000000000000000000815260040160405180910390fd5b6000600f600060105481526020019081526020016000209050828160000160006101000a81548173ffffffffffffffffffffffffffffffffffffffff021916908373ffffffffffffffffffffffffffffffffffffffff160217905550338160010160006101000a81548173ffffffffffffffffffffffffffffffffffffffff021916908373ffffffffffffffffffffffffffffffffffffffff16021790555060106000815480929190600101919050555050612091565b60006011600060125481526020019081526020016000209050828160000160006101000a81548173ffffffffffffffffffffffffffffffffffffffff021916908373ffffffffffffffffffffffffffffffffffffffff160217905550338160010160006101000a81548173ffffffffffffffffffffffffffffffffffffffff021916908373ffffffffffffffffffffffffffffffffffffffff160217905550601260008154809291906001019190505550505b5050565b600360003373ffffffffffffffffffffffffffffffffffffffff1673ffffffffffffffffffffffffffffffffffffffff16815260200190815260200160002060009054906101000a900460ff16612118576040517f4755657900000000000000000000000000000000000000000000000000000000815260040160405180910390fd5b601360003373ffffffffffffffffffffffffffffffffffffffff1673ffffffffffffffffffffffffffffffffffffffff16815260200190815260200160002060009054906101000a900460ff161561219c576040517fad69852600000000000000000000000000000000000000000000000000000000815260040160405180910390fd5b601e54601d5410156121da576040517fff7e6cf800000000000000000000000000000000000000000000000000000000815260040160405180910390fd5b60008103612375576000600f600085815260200190815260200160002090508060050160003373ffffffffffffffffffffffffffffffffffffffff1673ffffffffffffffffffffffffffffffffffffffff16815260200190815260200160002060009054906101000a900460ff161561227f576040517fea35ba7900000000000000000000000000000000000000000000000000000000815260040160405180910390fd5b821561229e5780600201600081548092919060010191905055506122b3565b80600301600081548092919060010191905055505b60018160050160003373ffffffffffffffffffffffffffffffffffffffff1673ffffffffffffffffffffffffffffffffffffffff16815260200190815260200160002060006101000a81548160ff021916908315150217905550601f54816002015410612356576123478160000160009054906101000a900473ffffffffffffffffffffffffffffffffffffffff16614541565b6001816004018190555061236f565b601f5481600301541061236e57600281600401819055505b5b50612504565b60006011600085815260200190815260200160002090508060050160003373ffffffffffffffffffffffffffffffffffffffff1673ffffffffffffffffffffffffffffffffffffffff16815260200190815260200160002060009054906101000a900460ff1615612412576040517f7fae296600000000000000000000000000000000000000000000000000000000815260040160405180910390fd5b8215612431578060020160008154809291906001019190505550612446565b80600301600081548092919060010191905055505b60018160050160003373ffffffffffffffffffffffffffffffffffffffff1673ffffffffffffffffffffffffffffffffffffffff16815260200190815260200160002060006101000a81548160ff021916908315150217905550601f548160020154106124e9576124da8160000160009054906101000a900473ffffffffffffffffffffffffffffffffffffffff16614752565b60018160040181905550612502565b601f5481600301541061250157600281600401819055505b5b505b505050565b6000601360003373ffffffffffffffffffffffffffffffffffffffff1673ffffffffffffffffffffffffffffffffffffffff16815260200190815260200160002060009054906101000a900460ff161561258f576040517fad69852600000000000000000000000000000000000000000000000000000000815260040160405180910390fd5b6000339050600060235414612607576125e08160046000602254815260200190815260200160002060009054906101000a900473ffffffffffffffffffffffffffffffffffffffff16602354614225565b602260008154809291906001019190505550602054602254036126065760006022819055505b5b612612818585614225565b600191505092915050565b600360003373ffffffffffffffffffffffffffffffffffffffff1673ffffffffffffffffffffffffffffffffffffffff16815260200190815260200160002060009054906101000a900460ff166126a0576040517f4755657900000000000000000000000000000000000000000000000000000000815260040160405180910390fd5b601360003373ffffffffffffffffffffffffffffffffffffffff1673ffffffffffffffffffffffffffffffffffffffff16815260200190815260200160002060009054906101000a900460ff1615612724576040517fad69852600000000000000000000000000000000000000000000000000000000815260040160405180910390fd5b601e54601d541015612762576040517fff7e6cf800000000000000000000000000000000000000000000000000000000815260040160405180910390fd5b60006005600060065481526020019081526020016000209050818160000181905550338160010160006101000a81548173ffffffffffffffffffffffffffffffffffffffff021916908373ffffffffffffffffffffffffffffffffffffffff1602179055506006600081548092919060010191905055505050565b6127e5614bc9565b601360003373ffffffffffffffffffffffffffffffffffffffff1673ffffffffffffffffffffffffffffffffffffffff16815260200190815260200160002060009054906101000a900460ff1615612869576040517fad69852600000000000000000000000000000000000000000000000000000000815260040160405180910390fd5b6000600b600084815260200190815260200160002090506040518060a0016040528082600001805461289a906156b8565b80601f01602080910402602001604051908101604052809291908181526020018280546128c6906156b8565b80156129135780601f106128e857610100808354040283529160200191612913565b820191906000526020600020905b8154815290600101906020018083116128f657829003601f168201915b505050505081526020018260010160009054906101000a900473ffffffffffffffffffffffffffffffffffffffff1673ffffffffffffffffffffffffffffffffffffffff16815260200182600201548152602001826003015481526020018260040154815250915050919050565b6000601360003373ffffffffffffffffffffffffffffffffffffffff1673ffffffffffffffffffffffffffffffffffffffff16815260200190815260200160002060009054906101000a900460ff1615612a07576040517fad69852600000000000000000000000000000000000000000000000000000000815260040160405180910390fd5b600654905090565b6000601360003373ffffffffffffffffffffffffffffffffffffffff1673ffffffffffffffffffffffffffffffffffffffff16815260200190815260200160002060009054906101000a900460ff1615612a95576040517fad69852600000000000000000000000000000000000000000000000000000000815260040160405180910390fd5b60008203612aa7576010549050612aad565b60125490505b919050565b612aba614c0e565b601360003373ffffffffffffffffffffffffffffffffffffffff1673ffffffffffffffffffffffffffffffffffffffff16815260200190815260200160002060009054906101000a900460ff1615612b3e576040517fad69852600000000000000000000000000000000000000000000000000000000815260040160405180910390fd5b60006011600084815260200190815260200160002090506040518060a001604052808260000160009054906101000a900473ffffffffffffffffffffffffffffffffffffffff1673ffffffffffffffffffffffffffffffffffffffff1681526020018260010160009054906101000a900473ffffffffffffffffffffffffffffffffffffffff1673ffffffffffffffffffffffffffffffffffffffff16815260200182600201548152602001826003015481526020018260040154815250915050919050565b600360003373ffffffffffffffffffffffffffffffffffffffff1673ffffffffffffffffffffffffffffffffffffffff16815260200190815260200160002060009054906101000a900460ff16612c87576040517f4755657900000000000000000000000000000000000000000000000000000000815260040160405180910390fd5b601360003373ffffffffffffffffffffffffffffffffffffffff1673ffffffffffffffffffffffffffffffffffffffff16815260200190815260200160002060009054906101000a900460ff1615612d0b576040517fad69852600000000000000000000000000000000000000000000000000000000815260040160405180910390fd5b601e54601d541015612d49576040517fff7e6cf800000000000000000000000000000000000000000000000000000000815260040160405180910390fd5b60008103612ef1576000600b600085815260200190815260200160002090508060050160003373ffffffffffffffffffffffffffffffffffffffff1673ffffffffffffffffffffffffffffffffffffffff16815260200190815260200160002060009054906101000a900460ff1615612dee576040517fa9590e5300000000000000000000000000000000000000000000000000000000815260040160405180910390fd5b8215612e0d578060020160008154809291906001019190505550612e22565b80600301600081548092919060010191905055505b60018160050160003373ffffffffffffffffffffffffffffffffffffffff1673ffffffffffffffffffffffffffffffffffffffff16815260200190815260200160002060006101000a81548160ff021916908315150217905550601f54816002015410612ed2576001601482600001604051612e9e9190615885565b908152602001604051809103902060006101000a81548160ff02191690831515021790555060018160040181905550612eeb565b601f54816003015410612eea57600281600401819055505b5b5061308d565b6000600d600085815260200190815260200160002090508060050160003373ffffffffffffffffffffffffffffffffffffffff1673ffffffffffffffffffffffffffffffffffffffff16815260200190815260200160002060009054906101000a900460ff1615612f8e576040517f7e6c0ae200000000000000000000000000000000000000000000000000000000815260040160405180910390fd5b8215612fad578060020160008154809291906001019190505550612fc2565b80600301600081548092919060010191905055505b60018160050160003373ffffffffffffffffffffffffffffffffffffffff1673ffffffffffffffffffffffffffffffffffffffff16815260200190815260200160002060006101000a81548160ff021916908315150217905550601f5481600201541061307257600060148260000160405161303e9190615885565b908152602001604051809103902060006101000a81548160ff0219169083151502179055506001816004018190555061308b565b601f5481600301541061308a57600281600401819055505b5b505b505050565b61309a614c69565b601360003373ffffffffffffffffffffffffffffffffffffffff1673ffffffffffffffffffffffffffffffffffffffff16815260200190815260200160002060009054906101000a900460ff161561311e576040517fad69852600000000000000000000000000000000000000000000000000000000815260040160405180910390fd5b60006005600084815260200190815260200160002090506040518060a00160405280826000015481526020018260010160009054906101000a900473ffffffffffffffffffffffffffffffffffffffff1673ffffffffffffffffffffffffffffffffffffffff16815260200182600201548152602001826003015481526020018260040154815250915050919050565b6014816040516131be91906158cd565b908152602001604051809103902060009054906101000a900460ff1615613211576040517fafcd147f00000000000000000000000000000000000000000000000000000000815260040160405180910390fd5b600073ffffffffffffffffffffffffffffffffffffffff1660158260405161323991906158cd565b908152602001604051809103902060009054906101000a900473ffffffffffffffffffffffffffffffffffffffff1673ffffffffffffffffffffffffffffffffffffffff16036132b5576040517faba4733900000000000000000000000000000000000000000000000000000000815260040160405180910390fd5b3373ffffffffffffffffffffffffffffffffffffffff166015826040516132dc91906158cd565b908152602001604051809103902060009054906101000a900473ffffffffffffffffffffffffffffffffffffffff1673ffffffffffffffffffffffffffffffffffffffff1614613358576040517f42bb320900000000000000000000000000000000000000000000000000000000815260040160405180910390fd5b60011515601860003373ffffffffffffffffffffffffffffffffffffffff1673ffffffffffffffffffffffffffffffffffffffff16815260200190815260200160002060009054906101000a900460ff161515036133e2576040517fddefae2800000000000000000000000000000000000000000000000000000000815260040160405180910390fd5b60006016826040516133f491906158cd565b908152602001604051809103902054905060008060009054906101000a900473ffffffffffffffffffffffffffffffffffffffff1673ffffffffffffffffffffffffffffffffffffffff1663c58343ef836040518263ffffffff1660e01b81526004016134619190614e7b565b6060604051808303816000875af1158015613480573d6000803e3d6000fd5b505050506040513d601f19601f820116820180604052508101906134a49190615c11565b90506000816020015114806134bd575060028160200151145b156134f4576040517f48a6529400000000000000000000000000000000000000000000000000000000815260040160405180910390fd5b613542600060158560405161350991906158cd565b908152602001604051809103902060009054906101000a900473ffffffffffffffffffffffffffffffffffffffff168360400151614319565b60016018600060158660405161355891906158cd565b908152602001604051809103902060009054906101000a900473ffffffffffffffffffffffffffffffffffffffff1673ffffffffffffffffffffffffffffffffffffffff1673ffffffffffffffffffffffffffffffffffffffff16815260200190815260200160002060006101000a81548160ff021916908315150217905550505050565b600360003373ffffffffffffffffffffffffffffffffffffffff1673ffffffffffffffffffffffffffffffffffffffff16815260200190815260200160002060009054906101000a900460ff16613660576040517f4755657900000000000000000000000000000000000000000000000000000000815260040160405180910390fd5b601360003373ffffffffffffffffffffffffffffffffffffffff1673ffffffffffffffffffffffffffffffffffffffff16815260200190815260200160002060009054906101000a900460ff16156136e4576040517fad69852600000000000000000000000000000000000000000000000000000000815260040160405180910390fd5b601e54601d541015613722576040517fff7e6cf800000000000000000000000000000000000000000000000000000000815260040160405180910390fd5b600081036137b0576000600b6000600c5481526020019081526020016000209050828160000190816137549190615a7b565b50338160010160006101000a81548173ffffffffffffffffffffffffffffffffffffffff021916908373ffffffffffffffffffffffffffffffffffffffff160217905550600c6000815480929190600101919050555050613832565b6000600d6000600e5481526020019081526020016000209050828160000190816137da9190615a7b565b50338160010160006101000a81548173ffffffffffffffffffffffffffffffffffffffff021916908373ffffffffffffffffffffffffffffffffffffffff160217905550600e60008154809291906001019190505550505b5050565b6000601360003373ffffffffffffffffffffffffffffffffffffffff1673ffffffffffffffffffffffffffffffffffffffff16815260200190815260200160002060009054906101000a900460ff16156138bc576040517fad69852600000000000000000000000000000000000000000000000000000000815260040160405180910390fd5b600082036138ce5760085490506138d4565b600a5490505b919050565b6000600260008473ffffffffffffffffffffffffffffffffffffffff1673ffffffffffffffffffffffffffffffffffffffff16815260200190815260200160002060008373ffffffffffffffffffffffffffffffffffffffff1673ffffffffffffffffffffffffffffffffffffffff16815260200190815260200160002054905092915050565b601360003373ffffffffffffffffffffffffffffffffffffffff1673ffffffffffffffffffffffffffffffffffffffff16815260200190815260200160002060009054906101000a900460ff16156139e4576040517fad69852600000000000000000000000000000000000000000000000000000000815260040160405180910390fd5b60008054906101000a900473ffffffffffffffffffffffffffffffffffffffff1673ffffffffffffffffffffffffffffffffffffffff1663df5dd1a5826040518263ffffffff1660e01b8152600401613a3d9190615cb0565b600060405180830381600087803b158015613a5757600080fd5b505af1158015613a6b573d6000803e3d6000fd5b50505050613a7881614541565b50565b613a83614cae565b601360003373ffffffffffffffffffffffffffffffffffffffff1673ffffffffffffffffffffffffffffffffffffffff16815260200190815260200160002060009054906101000a900460ff1615613b07576040517fad69852600000000000000000000000000000000000000000000000000000000815260040160405180910390fd5b6000600f600084815260200190815260200160002090506040518060a001604052808260000160009054906101000a900473ffffffffffffffffffffffffffffffffffffffff1673ffffffffffffffffffffffffffffffffffffffff1681526020018260010160009054906101000a900473ffffffffffffffffffffffffffffffffffffffff1673ffffffffffffffffffffffffffffffffffffffff16815260200182600201548152602001826003015481526020018260040154815250915050919050565b613bd5614d09565b601360003373ffffffffffffffffffffffffffffffffffffffff1673ffffffffffffffffffffffffffffffffffffffff16815260200190815260200160002060009054906101000a900460ff1615613c59576040517fad69852600000000000000000000000000000000000000000000000000000000815260040160405180910390fd5b6000600d600084815260200190815260200160002090506040518060a00160405280826000018054613c8a906156b8565b80601f0160208091040260200160405190810160405280929190818152602001828054613cb6906156b8565b8015613d035780601f10613cd857610100808354040283529160200191613d03565b820191906000526020600020905b815481529060010190602001808311613ce657829003601f168201915b505050505081526020018260010160009054906101000a900473ffffffffffffffffffffffffffffffffffffffff1673ffffffffffffffffffffffffffffffffffffffff16815260200182600201548152602001826003015481526020018260040154815250915050919050565b600360003373ffffffffffffffffffffffffffffffffffffffff1673ffffffffffffffffffffffffffffffffffffffff16815260200190815260200160002060009054906101000a900460ff16613df4576040517f4755657900000000000000000000000000000000000000000000000000000000815260040160405180910390fd5b601360003373ffffffffffffffffffffffffffffffffffffffff1673ffffffffffffffffffffffffffffffffffffffff16815260200190815260200160002060009054906101000a900460ff1615613e78576040517fad69852600000000000000000000000000000000000000000000000000000000815260040160405180910390fd5b601e54601d541015613eb6576040517fff7e6cf800000000000000000000000000000000000000000000000000000000815260040160405180910390fd5b60006005600084815260200190815260200160002090508060050160003373ffffffffffffffffffffffffffffffffffffffff1673ffffffffffffffffffffffffffffffffffffffff16815260200190815260200160002060009054906101000a900460ff1615613f53576040517f1c4be5a700000000000000000000000000000000000000000000000000000000815260040160405180910390fd5b8115613f72578060020160008154809291906001019190505550613f87565b80600301600081548092919060010191905055505b60018160050160003373ffffffffffffffffffffffffffffffffffffffff1673ffffffffffffffffffffffffffffffffffffffff16815260200190815260200160002060006101000a81548160ff021916908315150217905550601f5481600201541061400857806000015460238190555060018160040181905550614021565b601f5481600301541061402057600281600401819055505b5b505050565b601360003373ffffffffffffffffffffffffffffffffffffffff1673ffffffffffffffffffffffffffffffffffffffff16815260200190815260200160002060009054906101000a900460ff16156140aa576040517fad69852600000000000000000000000000000000000000000000000000000000815260040160405180910390fd5b601e54601d5410156140e8576040517fff7e6cf800000000000000000000000000000000000000000000000000000000815260040160405180910390fd5b60008054906101000a900473ffffffffffffffffffffffffffffffffffffffff1673ffffffffffffffffffffffffffffffffffffffff1663fdc85fc4826040518263ffffffff1660e01b81526004016141419190615cb0565b600060405180830381600087803b15801561415b57600080fd5b505af115801561416f573d6000803e3d6000fd5b5050505061417c81614752565b50565b61418c838383600161493c565b505050565b600061419d84846138d9565b90507fffffffffffffffffffffffffffffffffffffffffffffffffffffffffffffffff811461421f578181101561420f578281836040517ffb8f41b200000000000000000000000000000000000000000000000000000000815260040161420693929190615ccb565b60405180910390fd5b61421e8484848403600061493c565b5b50505050565b600073ffffffffffffffffffffffffffffffffffffffff168373ffffffffffffffffffffffffffffffffffffffff16036142975760006040517f96c6fd1e00000000000000000000000000000000000000000000000000000000815260040161428e9190615cb0565b60405180910390fd5b600073ffffffffffffffffffffffffffffffffffffffff168273ffffffffffffffffffffffffffffffffffffffff16036143095760006040517fec442f050000000000000000000000000000000000000000000000000000000081526004016143009190615cb0565b60405180910390fd5b614314838383614319565b505050565b600073ffffffffffffffffffffffffffffffffffffffff168373ffffffffffffffffffffffffffffffffffffffff160361436b57806019600082825461435f9190615c6d565b92505081905550614440565b6000600160008573ffffffffffffffffffffffffffffffffffffffff1673ffffffffffffffffffffffffffffffffffffffff168152602001908152602001600020549050818110156143f8578381836040517fe450d38c0000000000000000000000000000000000000000000000000000000081526004016143ef93929190615ccb565b60405180910390fd5b818103600160008673ffffffffffffffffffffffffffffffffffffffff1673ffffffffffffffffffffffffffffffffffffffff16815260200190815260200160002081905550505b600073ffffffffffffffffffffffffffffffffffffffff168273ffffffffffffffffffffffffffffffffffffffff160361448957806019600082825403925050819055506144d7565b80600160008473ffffffffffffffffffffffffffffffffffffffff1673ffffffffffffffffffffffffffffffffffffffff168152602001908152602001600020600082825401925050819055505b8173ffffffffffffffffffffffffffffffffffffffff168373ffffffffffffffffffffffffffffffffffffffff167fddf252ad1be2c89b69c2b068fc378daa952ba7f163c4a11628f55a4df523b3ef836040516145349190614e7b565b60405180910390a3505050565b601360003373ffffffffffffffffffffffffffffffffffffffff1673ffffffffffffffffffffffffffffffffffffffff16815260200190815260200160002060009054906101000a900460ff16156145c5576040517fad69852600000000000000000000000000000000000000000000000000000000815260040160405180910390fd5b600360008273ffffffffffffffffffffffffffffffffffffffff1673ffffffffffffffffffffffffffffffffffffffff16815260200190815260200160002060009054906101000a900460ff1615614649576040517f2478fb0400000000000000000000000000000000000000000000000000000000815260040160405180910390fd5b6001600360008373ffffffffffffffffffffffffffffffffffffffff1673ffffffffffffffffffffffffffffffffffffffff16815260200190815260200160002060006101000a81548160ff0219169083151502179055508060046000602054815260200190815260200160002060006101000a81548173ffffffffffffffffffffffffffffffffffffffff021916908373ffffffffffffffffffffffffffffffffffffffff160217905550601d60008154809291906001019190505550602060008154809291906001019190505550601e54601d5411614731576002601f8190555061474f565b60016002601d548161474657614745615d02565b5b0401601f819055505b50565b601360003373ffffffffffffffffffffffffffffffffffffffff1673ffffffffffffffffffffffffffffffffffffffff16815260200190815260200160002060009054906101000a900460ff16156147d6576040517fad69852600000000000000000000000000000000000000000000000000000000815260040160405180910390fd5b601e54601d541015614814576040517fff7e6cf800000000000000000000000000000000000000000000000000000000815260040160405180910390fd5b600360008273ffffffffffffffffffffffffffffffffffffffff1673ffffffffffffffffffffffffffffffffffffffff16815260200190815260200160002060009054906101000a900460ff16614897576040517f920432b400000000000000000000000000000000000000000000000000000000815260040160405180910390fd5b6000600360008373ffffffffffffffffffffffffffffffffffffffff1673ffffffffffffffffffffffffffffffffffffffff16815260200190815260200160002060006101000a81548160ff021916908315150217905550601d6000815480929190600190039190505550601e54601d54101561491b576002601f81905550614939565b60016002601d54816149305761492f615d02565b5b0401601f819055505b50565b600073ffffffffffffffffffffffffffffffffffffffff168473ffffffffffffffffffffffffffffffffffffffff16036149ae5760006040517fe602df050000000000000000000000000000000000000000000000000000000081526004016149a59190615cb0565b60405180910390fd5b600073ffffffffffffffffffffffffffffffffffffffff168373ffffffffffffffffffffffffffffffffffffffff1603614a205760006040517f94280d62000000000000000000000000000000000000000000000000000000008152600401614a179190615cb0565b60405180910390fd5b81600260008673ffffffffffffffffffffffffffffffffffffffff1673ffffffffffffffffffffffffffffffffffffffff16815260200190815260200160002060008573ffffffffffffffffffffffffffffffffffffffff1673ffffffffffffffffffffffffffffffffffffffff168152602001908152602001600020819055508015614b0d578273ffffffffffffffffffffffffffffffffffffffff168473ffffffffffffffffffffffffffffffffffffffff167f8c5be1e5ebec7d5bd14f71427d1e84f3dd0314c0f7b2291e5b200ac8c7c3b92584604051614b049190614e7b565b60405180910390a35b50505050565b6040518060a00160405280600073ffffffffffffffffffffffffffffffffffffffff168152602001600073ffffffffffffffffffffffffffffffffffffffff1681526020016000815260200160008152602001600081525090565b6040518060a00160405280600073ffffffffffffffffffffffffffffffffffffffff168152602001600073ffffffffffffffffffffffffffffffffffffffff1681526020016000815260200160008152602001600081525090565b6040518060a0016040528060608152602001600073ffffffffffffffffffffffffffffffffffffffff1681526020016000815260200160008152602001600081525090565b6040518060a00160405280600073ffffffffffffffffffffffffffffffffffffffff168152602001600073ffffffffffffffffffffffffffffffffffffffff1681526020016000815260200160008152602001600081525090565b6040518060a0016040528060008152602001600073ffffffffffffffffffffffffffffffffffffffff1681526020016000815260200160008152602001600081525090565b6040518060a00160405280600073ffffffffffffffffffffffffffffffffffffffff168152602001600073ffffffffffffffffffffffffffffffffffffffff1681526020016000815260200160008152602001600081525090565b6040518060a0016040528060608152602001600073ffffffffffffffffffffffffffffffffffffffff1681526020016000815260200160008152602001600081525090565b6000604051905090565b600080fd5b600080fd5b600073ffffffffffffffffffffffffffffffffffffffff82169050919050565b6000614d8d82614d62565b9050919050565b614d9d81614d82565b8114614da857600080fd5b50565b600081359050614dba81614d94565b92915050565b6000819050919050565b614dd381614dc0565b8114614dde57600080fd5b50565b600081359050614df081614dca565b92915050565b60008060408385031215614e0d57614e0c614d58565b5b6000614e1b85828601614dab565b9250506020614e2c85828601614de1565b9150509250929050565b60008115159050919050565b614e4b81614e36565b82525050565b6000602082019050614e666000830184614e42565b92915050565b614e7581614dc0565b82525050565b6000602082019050614e906000830184614e6c565b92915050565b600080600060608486031215614eaf57614eae614d58565b5b6000614ebd86828701614dab565b9350506020614ece86828701614dab565b9250506040614edf86828701614de1565b9150509250925092565b600060208284031215614eff57614efe614d58565b5b6000614f0d84828501614dab565b91505092915050565b600080fd5b600080fd5b6000601f19601f8301169050919050565b7f4e487b7100000000000000000000000000000000000000000000000000000000600052604160045260246000fd5b614f6982614f20565b810181811067ffffffffffffffff82111715614f8857614f87614f31565b5b80604052505050565b6000614f9b614d4e565b9050614fa78282614f60565b919050565b600067ffffffffffffffff821115614fc757614fc6614f31565b5b614fd082614f20565b9050602081019050919050565b82818337600083830152505050565b6000614fff614ffa84614fac565b614f91565b90508281526020810184848401111561501b5761501a614f1b565b5b615026848285614fdd565b509392505050565b600082601f83011261504357615042614f16565b5b8135615053848260208601614fec565b91505092915050565b60006020828403121561507257615071614d58565b5b600082013567ffffffffffffffff8111156150905761508f614d5d565b5b61509c8482850161502e565b91505092915050565b6000602082840312156150bb576150ba614d58565b5b60006150c984828501614de1565b91505092915050565b6150db81614e36565b81146150e657600080fd5b50565b6000813590506150f8816150d2565b92915050565b60008060006060848603121561511757615116614d58565b5b600061512586828701614de1565b9350506020615136868287016150e9565b925050604061514786828701614de1565b9150509250925092565b61515a81614d82565b82525050565b61516981614dc0565b82525050565b60a0820160008201516151856000850182615151565b5060208201516151986020850182615151565b5060408201516151ab6040850182615160565b5060608201516151be6060850182615160565b5060808201516151d16080850182615160565b50505050565b600060a0820190506151ec600083018461516f565b92915050565b60a0820160008201516152086000850182615151565b50602082015161521b6020850182615151565b50604082015161522e6040850182615160565b5060608201516152416060850182615160565b5060808201516152546080850182615160565b50505050565b600060a08201905061526f60008301846151f2565b92915050565b600081519050919050565b600082825260208201905092915050565b60005b838110156152af578082015181840152602081019050615294565b60008484015250505050565b60006152c682615275565b6152d08185615280565b93506152e0818560208601615291565b6152e981614f20565b840191505092915050565b600060a083016000830151848203600086015261531182826152bb565b91505060208301516153266020860182615151565b5060408301516153396040860182615160565b50606083015161534c6060860182615160565b50608083015161535f6080860182615160565b508091505092915050565b6000602082019050818103600083015261538481846152f4565b905092915050565b60a0820160008201516153a26000850182615151565b5060208201516153b56020850182615151565b5060408201516153c86040850182615160565b5060608201516153db6060850182615160565b5060808201516153ee6080850182615160565b50505050565b600060a082019050615409600083018461538c565b92915050565b60a0820160008201516154256000850182615160565b5060208201516154386020850182615151565b50604082015161544b6040850182615160565b50606082015161545e6060850182615160565b5060808201516154716080850182615160565b50505050565b600060a08201905061548c600083018461540f565b92915050565b600080604083850312156154a9576154a8614d58565b5b600083013567ffffffffffffffff8111156154c7576154c6614d5d565b5b6154d38582860161502e565b92505060206154e485828601614de1565b9150509250929050565b6000806040838503121561550557615504614d58565b5b600061551385828601614dab565b925050602061552485828601614dab565b9150509250929050565b60a0820160008201516155446000850182615151565b5060208201516155576020850182615151565b50604082015161556a6040850182615160565b50606082015161557d6060850182615160565b5060808201516155906080850182615160565b50505050565b600060a0820190506155ab600083018461552e565b92915050565b600060a08301600083015184820360008601526155ce82826152bb565b91505060208301516155e36020860182615151565b5060408301516155f66040860182615160565b5060608301516156096060860182615160565b50608083015161561c6080860182615160565b508091505092915050565b6000602082019050818103600083015261564181846155b1565b905092915050565b600080604083850312156156605761565f614d58565b5b600061566e85828601614de1565b925050602061567f858286016150e9565b9150509250929050565b7f4e487b7100000000000000000000000000000000000000000000000000000000600052602260045260246000fd5b600060028204905060018216806156d057607f821691505b6020821081036156e3576156e2615689565b5b50919050565b600082825260208201905092915050565b60008190508160005260206000209050919050565b6000815461571c816156b8565b61572681866156e9565b9450600182166000811461574157600181146157575761578a565b60ff19831686528115156020028601935061578a565b615760856156fa565b60005b8381101561578257815481890152600182019150602081019050615763565b808801955050505b50505092915050565b600060208201905081810360008301526157ad818461570f565b905092915050565b6000815190506157c481614dca565b92915050565b6000602082840312156157e0576157df614d58565b5b60006157ee848285016157b5565b91505092915050565b600081905092915050565b6000815461580f816156b8565b61581981866157f7565b9450600182166000811461583457600181146158495761587c565b60ff198316865281151582028601935061587c565b615852856156fa565b60005b8381101561587457815481890152600182019150602081019050615855565b838801955050505b50505092915050565b60006158918284615802565b915081905092915050565b60006158a782615275565b6158b181856157f7565b93506158c1818560208601615291565b80840191505092915050565b60006158d9828461589c565b915081905092915050565b60006020601f8301049050919050565b600082821b905092915050565b6000600883026159317fffffffffffffffffffffffffffffffffffffffffffffffffffffffffffffffff826158f4565b61593b86836158f4565b95508019841693508086168417925050509392505050565b6000819050919050565b600061597861597361596e84614dc0565b615953565b614dc0565b9050919050565b6000819050919050565b6159928361595d565b6159a661599e8261597f565b848454615901565b825550505050565b600090565b6159bb6159ae565b6159c6818484615989565b505050565b5b818110156159ea576159df6000826159b3565b6001810190506159cc565b5050565b601f821115615a2f57615a00816156fa565b615a09846158e4565b81016020851015615a18578190505b615a2c615a24856158e4565b8301826159cb565b50505b505050565b600082821c905092915050565b6000615a5260001984600802615a34565b1980831691505092915050565b6000615a6b8383615a41565b9150826002028217905092915050565b615a8482615275565b67ffffffffffffffff811115615a9d57615a9c614f31565b5b615aa782546156b8565b615ab28282856159ee565b600060209050601f831160018114615ae55760008415615ad3578287015190505b615add8582615a5f565b865550615b45565b601f198416615af3866156fa565b60005b82811015615b1b57848901518255600182019150602085019450602081019050615af6565b86831015615b385784890151615b34601f891682615a41565b8355505b6001600288020188555050505b505050505050565b6000615b5882615275565b615b6281856156e9565b9350615b72818560208601615291565b615b7b81614f20565b840191505092915050565b60006020820190508181036000830152615ba08184615b4d565b905092915050565b600080fd5b600060608284031215615bc357615bc2615ba8565b5b615bcd6060614f91565b90506000615bdd848285016157b5565b6000830152506020615bf1848285016157b5565b6020830152506040615c05848285016157b5565b60408301525092915050565b600060608284031215615c2757615c26614d58565b5b6000615c3584828501615bad565b91505092915050565b7f4e487b7100000000000000000000000000000000000000000000000000000000600052601160045260246000fd5b6000615c7882614dc0565b9150615c8383614dc0565b9250828201905080821115615c9b57615c9a615c3e565b5b92915050565b615caa81614d82565b82525050565b6000602082019050615cc56000830184615ca1565b92915050565b6000606082019050615ce06000830186615ca1565b615ced6020830185614e6c565b615cfa6040830184614e6c565b949350505050565b7f4e487b7100000000000000000000000000000000000000000000000000000000600052601260045260246000fdfea2646970667358221220016379845e243bc918cebf8393c2a55777c1b1ac733d2680e573f54f635ee34f64736f6c63430008180033",
  "linkReferences": {},
  "deployedLinkReferences": {}
}