{
  "_format": "hh-sol-artifact-1",
  "contractName": "JPYN",
  "sourceName": "contracts/JPYN.sol",
  "abi": [
    {
      "inputs": [
        {
          "internalType": "address",
          "name": "admin1",
          "type": "address"
        },
        {
          "internalType": "address",
          "name": "admin2",
          "type": "address"
        },
        {
          "internalType": "address",
          "name": "admin3",
          "type": "address"
        },
        {
          "internalType": "address",
          "name": "_jpynOracleAddress",
          "type": "address"
        }
      ],
      "stateMutability": "nonpayable",
      "type": "constructor"
    },
    {
      "inputs": [],
      "name": "AlreadyMinted",
      "type": "error"
    },
    {
      "inputs": [],
      "name": "AlreadyRegistered",
      "type": "error"
    },
    {
      "inputs": [],
      "name": "AlreadyVotedProposedAdmin",
      "type": "error"
    },
    {
      "inputs": [],
      "name": "AlreadyVotedProposedBankBlackList",
      "type": "error"
    },
    {
      "inputs": [],
      "name": "AlreadyVotedProposedBlackListAddress",
      "type": "error"
    },
    {
      "inputs": [],
      "name": "AlreadyVotedProposedRemoveBankBlackList",
      "type": "error"
    },
    {
      "inputs": [],
      "name": "AlreadyVotedProposedRemoveBlackListAddress",
      "type": "error"
    },
    {
      "inputs": [],
      "name": "AlreadyVotedProposedRemovedAdmin",
      "type": "error"
    },
    {
      "inputs": [],
      "name": "AlreadyVotedProposedTransferFee",
      "type": "error"
    },
    {
      "inputs": [],
      "name": "BankAccountFalse",
      "type": "error"
    },
    {
      "inputs": [],
      "name": "BankBlackList",
      "type": "error"
    },
    {
      "inputs": [],
      "name": "BlackListAddress",
      "type": "error"
    },
    {
      "inputs": [
        {
          "internalType": "address",
          "name": "spender",
          "type": "address"
        },
        {
          "internalType": "uint256",
          "name": "allowance",
          "type": "uint256"
        },
        {
          "internalType": "uint256",
          "name": "needed",
          "type": "uint256"
        }
      ],
      "name": "ERC20InsufficientAllowance",
      "type": "error"
    },
    {
      "inputs": [
        {
          "internalType": "address",
          "name": "sender",
          "type": "address"
        },
        {
          "internalType": "uint256",
          "name": "balance",
          "type": "uint256"
        },
        {
          "internalType": "uint256",
          "name": "needed",
          "type": "uint256"
        }
      ],
      "name": "ERC20InsufficientBalance",
      "type": "error"
    },
    {
      "inputs": [
        {
          "internalType": "address",
          "name": "approver",
          "type": "address"
        }
      ],
      "name": "ERC20InvalidApprover",
      "type": "error"
    },
    {
      "inputs": [
        {
          "internalType": "address",
          "name": "receiver",
          "type": "address"
        }
      ],
      "name": "ERC20InvalidReceiver",
      "type": "error"
    },
    {
      "inputs": [
        {
          "internalType": "address",
          "name": "sender",
          "type": "address"
        }
      ],
      "name": "ERC20InvalidSender",
      "type": "error"
    },
    {
      "inputs": [
        {
          "internalType": "address",
          "name": "spender",
          "type": "address"
        }
      ],
      "name": "ERC20InvalidSpender",
      "type": "error"
    },
    {
      "inputs": [],
      "name": "ExistingAdmin",
      "type": "error"
    },
    {
      "inputs": [],
      "name": "NotEnoughAdmins",
      "type": "error"
    },
    {
      "inputs": [],
      "name": "NotExistingAdmin",
      "type": "error"
    },
    {
      "inputs": [],
      "name": "NotRegistered",
      "type": "error"
    },
    {
      "inputs": [],
      "name": "NotYourAddress",
      "type": "error"
    },
    {
      "inputs": [],
      "name": "OnlyAdmin",
      "type": "error"
    },
    {
      "anonymous": false,
      "inputs": [
        {
          "indexed": true,
          "internalType": "address",
          "name": "owner",
          "type": "address"
        },
        {
          "indexed": true,
          "internalType": "address",
          "name": "spender",
          "type": "address"
        },
        {
          "indexed": false,
          "internalType": "uint256",
          "name": "value",
          "type": "uint256"
        }
      ],
      "name": "Approval",
      "type": "event"
    },
    {
      "anonymous": false,
      "inputs": [
        {
          "indexed": true,
          "internalType": "address",
          "name": "from",
          "type": "address"
        },
        {
          "indexed": true,
          "internalType": "address",
          "name": "to",
          "type": "address"
        },
        {
          "indexed": false,
          "internalType": "uint256",
          "name": "value",
          "type": "uint256"
        }
      ],
      "name": "Transfer",
      "type": "event"
    },
    {
      "anonymous": false,
      "inputs": [
        {
          "indexed": false,
          "internalType": "bool",
          "name": "isSafe",
          "type": "bool"
        }
      ],
      "name": "isSafe",
      "type": "event"
    },
    {
      "inputs": [
        {
          "internalType": "address",
          "name": "sender",
          "type": "address"
        }
      ],
      "name": "addOracle",
      "outputs": [],
      "stateMutability": "nonpayable",
      "type": "function"
    },
    {
      "inputs": [
        {
          "internalType": "address",
          "name": "owner",
          "type": "address"
        },
        {
          "internalType": "address",
          "name": "spender",
          "type": "address"
        }
      ],
      "name": "allowance",
      "outputs": [
        {
          "internalType": "uint256",
          "name": "",
          "type": "uint256"
        }
      ],
      "stateMutability": "view",
      "type": "function"
    },
    {
      "inputs": [
        {
          "internalType": "address",
          "name": "spender",
          "type": "address"
        },
        {
          "internalType": "uint256",
          "name": "value",
          "type": "uint256"
        }
      ],
      "name": "approve",
      "outputs": [
        {
          "internalType": "bool",
          "name": "",
          "type": "bool"
        }
      ],
      "stateMutability": "nonpayable",
      "type": "function"
    },
    {
      "inputs": [
        {
          "internalType": "address",
          "name": "account",
          "type": "address"
        }
      ],
      "name": "balanceOf",
      "outputs": [
        {
          "internalType": "uint256",
          "name": "",
          "type": "uint256"
        }
      ],
      "stateMutability": "view",
      "type": "function"
    },
    {
      "inputs": [
        {
          "internalType": "uint256",
          "name": "value",
          "type": "uint256"
        }
      ],
      "name": "burn",
      "outputs": [],
      "stateMutability": "nonpayable",
      "type": "function"
    },
    {
      "inputs": [
        {
          "internalType": "uint256",
          "name": "_type",
          "type": "uint256"
        }
      ],
      "name": "getCurrentBankBlackListId",
      "outputs": [
        {
          "internalType": "uint256",
          "name": "",
          "type": "uint256"
        }
      ],
      "stateMutability": "view",
      "type": "function"
    },
    {
      "inputs": [
        {
          "internalType": "uint256",
          "name": "_type",
          "type": "uint256"
        }
      ],
      "name": "getCurrentBlackListAddressId",
      "outputs": [
        {
          "internalType": "uint256",
          "name": "",
          "type": "uint256"
        }
      ],
      "stateMutability": "view",
      "type": "function"
    },
    {
      "inputs": [
        {
          "internalType": "uint256",
          "name": "_type",
          "type": "uint256"
        }
      ],
      "name": "getCurrentProposedAdminId",
      "outputs": [
        {
          "internalType": "uint256",
          "name": "",
          "type": "uint256"
        }
      ],
      "stateMutability": "view",
      "type": "function"
    },
    {
      "inputs": [],
      "name": "getCurrentProposedTransferFeeId",
      "outputs": [
        {
          "internalType": "uint256",
          "name": "",
          "type": "uint256"
        }
      ],
      "stateMutability": "view",
      "type": "function"
    },
    {
      "inputs": [],
      "name": "getMinApproval",
      "outputs": [
        {
          "internalType": "uint256",
          "name": "",
          "type": "uint256"
        }
      ],
      "stateMutability": "view",
      "type": "function"
    },
    {
      "inputs": [
        {
          "internalType": "address",
          "name": "sender",
          "type": "address"
        }
      ],
      "name": "getMinted",
      "outputs": [
        {
          "internalType": "bool",
          "name": "",
          "type": "bool"
        }
      ],
      "stateMutability": "view",
      "type": "function"
    },
    {
      "inputs": [
        {
          "internalType": "uint256",
          "name": "_id",
          "type": "uint256"
        }
      ],
      "name": "getProposedAdmin",
      "outputs": [
        {
          "components": [
            {
              "internalType": "address",
              "name": "proposedAdmin",
              "type": "address"
            },
            {
              "internalType": "address",
              "name": "proposer",
              "type": "address"
            },
            {
              "internalType": "uint256",
              "name": "approvalCount",
              "type": "uint256"
            },
            {
              "internalType": "uint256",
              "name": "rejectCount",
              "type": "uint256"
            },
            {
              "internalType": "uint256",
              "name": "status",
              "type": "uint256"
            }
          ],
          "internalType": "struct JPYN.ReturnProposedAdmin",
          "name": "",
          "type": "tuple"
        }
      ],
      "stateMutability": "view",
      "type": "function"
    },
    {
      "inputs": [
        {
          "internalType": "uint256",
          "name": "_id",
          "type": "uint256"
        }
      ],
      "name": "getProposedBankBlackList",
      "outputs": [
        {
          "components": [
            {
              "internalType": "string",
              "name": "proposedBankBlackList",
              "type": "string"
            },
            {
              "internalType": "address",
              "name": "proposer",
              "type": "address"
            },
            {
              "internalType": "uint256",
              "name": "approvalCount",
              "type": "uint256"
            },
            {
              "internalType": "uint256",
              "name": "rejectCount",
              "type": "uint256"
            },
            {
              "internalType": "uint256",
              "name": "status",
              "type": "uint256"
            }
          ],
          "internalType": "struct JPYN.ReturnBankBlackList",
          "name": "",
          "type": "tuple"
        }
      ],
      "stateMutability": "view",
      "type": "function"
    },
    {
      "inputs": [
        {
          "internalType": "uint256",
          "name": "_id",
          "type": "uint256"
        }
      ],
      "name": "getProposedBlackListAddress",
      "outputs": [
        {
          "components": [
            {
              "internalType": "address",
              "name": "proposedBlackListAddress",
              "type": "address"
            },
            {
              "internalType": "address",
              "name": "proposer",
              "type": "address"
            },
            {
              "internalType": "uint256",
              "name": "approvalCount",
              "type": "uint256"
            },
            {
              "internalType": "uint256",
              "name": "rejectCount",
              "type": "uint256"
            },
            {
              "internalType": "uint256",
              "name": "status",
              "type": "uint256"
            }
          ],
          "internalType": "struct JPYN.ReturnBlackListAddress",
          "name": "",
          "type": "tuple"
        }
      ],
      "stateMutability": "view",
      "type": "function"
    },
    {
      "inputs": [
        {
          "internalType": "uint256",
          "name": "_id",
          "type": "uint256"
        }
      ],
      "name": "getProposedRemoveBankBlackList",
      "outputs": [
        {
          "components": [
            {
              "internalType": "string",
              "name": "proposedRemoveBankBlackList",
              "type": "string"
            },
            {
              "internalType": "address",
              "name": "proposer",
              "type": "address"
            },
            {
              "internalType": "uint256",
              "name": "approvalCount",
              "type": "uint256"
            },
            {
              "internalType": "uint256",
              "name": "rejectCount",
              "type": "uint256"
            },
            {
              "internalType": "uint256",
              "name": "status",
              "type": "uint256"
            }
          ],
          "internalType": "struct JPYN.ReturnRemoveBankBlackList",
          "name": "",
          "type": "tuple"
        }
      ],
      "stateMutability": "view",
      "type": "function"
    },
    {
      "inputs": [
        {
          "internalType": "uint256",
          "name": "_id",
          "type": "uint256"
        }
      ],
      "name": "getProposedRemoveBlackListAddress",
      "outputs": [
        {
          "components": [
            {
              "internalType": "address",
              "name": "proposedRemoveBlackListAddress",
              "type": "address"
            },
            {
              "internalType": "address",
              "name": "proposer",
              "type": "address"
            },
            {
              "internalType": "uint256",
              "name": "approvalCount",
              "type": "uint256"
            },
            {
              "internalType": "uint256",
              "name": "rejectCount",
              "type": "uint256"
            },
            {
              "internalType": "uint256",
              "name": "status",
              "type": "uint256"
            }
          ],
          "internalType": "struct JPYN.ReturnRemoveBlackListAddress",
          "name": "",
          "type": "tuple"
        }
      ],
      "stateMutability": "view",
      "type": "function"
    },
    {
      "inputs": [
        {
          "internalType": "uint256",
          "name": "_id",
          "type": "uint256"
        }
      ],
      "name": "getProposedRemovedAdmin",
      "outputs": [
        {
          "components": [
            {
              "internalType": "address",
              "name": "proposedRemovedAdmin",
              "type": "address"
            },
            {
              "internalType": "address",
              "name": "proposer",
              "type": "address"
            },
            {
              "internalType": "uint256",
              "name": "approvalCount",
              "type": "uint256"
            },
            {
              "internalType": "uint256",
              "name": "rejectCount",
              "type": "uint256"
            },
            {
              "internalType": "uint256",
              "name": "status",
              "type": "uint256"
            }
          ],
          "internalType": "struct JPYN.ReturnProposedRemovedAdmin",
          "name": "",
          "type": "tuple"
        }
      ],
      "stateMutability": "view",
      "type": "function"
    },
    {
      "inputs": [
        {
          "internalType": "uint256",
          "name": "_id",
          "type": "uint256"
        }
      ],
      "name": "getProposedTransferFee",
      "outputs": [
        {
          "components": [
            {
              "internalType": "uint256",
              "name": "proposedTransferFee",
              "type": "uint256"
            },
            {
              "internalType": "address",
              "name": "proposer",
              "type": "address"
            },
            {
              "internalType": "uint256",
              "name": "approvalCount",
              "type": "uint256"
            },
            {
              "internalType": "uint256",
              "name": "rejectCount",
              "type": "uint256"
            },
            {
              "internalType": "uint256",
              "name": "status",
              "type": "uint256"
            }
          ],
          "internalType": "struct JPYN.ReturnProposedTransferFee",
          "name": "",
          "type": "tuple"
        }
      ],
      "stateMutability": "view",
      "type": "function"
    },
    {
      "inputs": [
        {
          "internalType": "string",
          "name": "_hashedBankAccount",
          "type": "string"
        }
      ],
      "name": "getRequestId",
      "outputs": [
        {
          "internalType": "uint256",
          "name": "",
          "type": "uint256"
        }
      ],
      "stateMutability": "view",
      "type": "function"
    },
    {
      "inputs": [],
      "name": "getTotalVoters",
      "outputs": [
        {
          "internalType": "uint256",
          "name": "",
          "type": "uint256"
        }
      ],
      "stateMutability": "view",
      "type": "function"
    },
    {
      "inputs": [],
      "name": "getTransferFee",
      "outputs": [
        {
          "internalType": "uint256",
          "name": "",
          "type": "uint256"
        }
      ],
      "stateMutability": "view",
      "type": "function"
    },
    {
      "inputs": [
        {
          "internalType": "address",
          "name": "sender",
          "type": "address"
        }
      ],
      "name": "isAdmin",
      "outputs": [
        {
          "internalType": "bool",
          "name": "",
          "type": "bool"
        }
      ],
      "stateMutability": "view",
      "type": "function"
    },
    {
      "inputs": [],
      "name": "isSafeTotalSupply",
      "outputs": [],
      "stateMutability": "nonpayable",
      "type": "function"
    },
    {
      "inputs": [
        {
          "internalType": "string",
          "name": "_hashedBankAccount",
          "type": "string"
        }
      ],
      "name": "mint",
      "outputs": [],
      "stateMutability": "nonpayable",
      "type": "function"
    },
    {
      "inputs": [
        {
          "internalType": "address",
          "name": "_address",
          "type": "address"
        },
        {
          "internalType": "uint256",
          "name": "_type",
          "type": "uint256"
        }
      ],
      "name": "proposeAdmin",
      "outputs": [],
      "stateMutability": "nonpayable",
      "type": "function"
    },
    {
      "inputs": [
        {
          "internalType": "string",
          "name": "_pBankBlackList",
          "type": "string"
        },
        {
          "internalType": "uint256",
          "name": "_type",
          "type": "uint256"
        }
      ],
      "name": "proposeBankBlackList",
      "outputs": [],
      "stateMutability": "nonpayable",
      "type": "function"
    },
    {
      "inputs": [
        {
          "internalType": "address",
          "name": "_blackListAddress",
          "type": "address"
        },
        {
          "internalType": "uint256",
          "name": "_type",
          "type": "uint256"
        }
      ],
      "name": "proposeBlackListAddress",
      "outputs": [],
      "stateMutability": "nonpayable",
      "type": "function"
    },
    {
      "inputs": [
        {
          "internalType": "uint256",
          "name": "_newTransferFee",
          "type": "uint256"
        }
      ],
      "name": "proposeTransferFee",
      "outputs": [],
      "stateMutability": "nonpayable",
      "type": "function"
    },
    {
      "inputs": [
        {
          "internalType": "string",
          "name": "_hashedBankAccount",
          "type": "string"
        }
      ],
      "name": "registerAddressToBank",
      "outputs": [],
      "stateMutability": "nonpayable",
      "type": "function"
    },
    {
      "inputs": [],
      "name": "requestIsSafeTotalSupply",
      "outputs": [],
      "stateMutability": "nonpayable",
      "type": "function"
    },
    {
      "inputs": [],
      "name": "totalSupply",
      "outputs": [
        {
          "internalType": "uint256",
          "name": "",
          "type": "uint256"
        }
      ],
      "stateMutability": "view",
      "type": "function"
    },
    {
      "inputs": [
        {
          "internalType": "address",
          "name": "to",
          "type": "address"
        },
        {
          "internalType": "uint256",
          "name": "value",
          "type": "uint256"
        }
      ],
      "name": "transfer",
      "outputs": [
        {
          "internalType": "bool",
          "name": "",
          "type": "bool"
        }
      ],
      "stateMutability": "nonpayable",
      "type": "function"
    },
    {
      "inputs": [
        {
          "internalType": "address",
          "name": "from",
          "type": "address"
        },
        {
          "internalType": "address",
          "name": "to",
          "type": "address"
        },
        {
          "internalType": "uint256",
          "name": "value",
          "type": "uint256"
        }
      ],
      "name": "transferFrom",
      "outputs": [
        {
          "internalType": "bool",
          "name": "",
          "type": "bool"
        }
      ],
      "stateMutability": "nonpayable",
      "type": "function"
    },
    {
      "inputs": [
        {
          "internalType": "uint256",
          "name": "_id",
          "type": "uint256"
        },
        {
          "internalType": "bool",
          "name": "_vote",
          "type": "bool"
        },
        {
          "internalType": "uint256",
          "name": "_type",
          "type": "uint256"
        }
      ],
      "name": "voteProposedAdmin",
      "outputs": [],
      "stateMutability": "nonpayable",
      "type": "function"
    },
    {
      "inputs": [
        {
          "internalType": "uint256",
          "name": "_id",
          "type": "uint256"
        },
        {
          "internalType": "bool",
          "name": "_vote",
          "type": "bool"
        },
        {
          "internalType": "uint256",
          "name": "_type",
          "type": "uint256"
        }
      ],
      "name": "voteProposedBankBlackList",
      "outputs": [],
      "stateMutability": "nonpayable",
      "type": "function"
    },
    {
      "inputs": [
        {
          "internalType": "uint256",
          "name": "_id",
          "type": "uint256"
        },
        {
          "internalType": "bool",
          "name": "_vote",
          "type": "bool"
        },
        {
          "internalType": "uint256",
          "name": "_type",
          "type": "uint256"
        }
      ],
      "name": "voteProposedBlackListAddress",
      "outputs": [],
      "stateMutability": "nonpayable",
      "type": "function"
    },
    {
      "inputs": [
        {
          "internalType": "uint256",
          "name": "_id",
          "type": "uint256"
        },
        {
          "internalType": "bool",
          "name": "_vote",
          "type": "bool"
        }
      ],
      "name": "voteProposedTransferFee",
      "outputs": [],
      "stateMutability": "nonpayable",
      "type": "function"
    }
  ],
  "bytecode": "0x60806040523480156200001157600080fd5b506040516200661e3803806200661e8339818101604052810190620000379190620003cd565b6040518060400160405280600481526020017f4a50594e00000000000000000000000000000000000000000000000000000000815250601a90816200007d9190620006b9565b506040518060400160405280600481526020017f4a50594e00000000000000000000000000000000000000000000000000000000815250601b9081620000c49190620006b9565b506003601c60006101000a81548160ff021916908360ff1602179055506003601d819055506003601e819055506002601f819055506003602081905550600a60238190555060006024819055506001600360008673ffffffffffffffffffffffffffffffffffffffff1673ffffffffffffffffffffffffffffffffffffffff16815260200190815260200160002060006101000a81548160ff0219169083151502179055506001600360008573ffffffffffffffffffffffffffffffffffffffff1673ffffffffffffffffffffffffffffffffffffffff16815260200190815260200160002060006101000a81548160ff0219169083151502179055506001600360008473ffffffffffffffffffffffffffffffffffffffff1673ffffffffffffffffffffffffffffffffffffffff16815260200190815260200160002060006101000a81548160ff021916908315150217905550836004600080815260200190815260200160002060006101000a81548173ffffffffffffffffffffffffffffffffffffffff021916908373ffffffffffffffffffffffffffffffffffffffff16021790555082600460006001815260200190815260200160002060006101000a81548173ffffffffffffffffffffffffffffffffffffffff021916908373ffffffffffffffffffffffffffffffffffffffff16021790555081600460006002815260200190815260200160002060006101000a81548173ffffffffffffffffffffffffffffffffffffffff021916908373ffffffffffffffffffffffffffffffffffffffff1602179055506000602281905550806000806101000a81548173ffffffffffffffffffffffffffffffffffffffff021916908373ffffffffffffffffffffffffffffffffffffffff16021790555050505050620007a0565b600080fd5b600073ffffffffffffffffffffffffffffffffffffffff82169050919050565b6000620003958262000368565b9050919050565b620003a78162000388565b8114620003b357600080fd5b50565b600081519050620003c7816200039c565b92915050565b60008060008060808587031215620003ea57620003e962000363565b5b6000620003fa87828801620003b6565b94505060206200040d87828801620003b6565b93505060406200042087828801620003b6565b92505060606200043387828801620003b6565b91505092959194509250565b600081519050919050565b7f4e487b7100000000000000000000000000000000000000000000000000000000600052604160045260246000fd5b7f4e487b7100000000000000000000000000000000000000000000000000000000600052602260045260246000fd5b60006002820490506001821680620004c157607f821691505b602082108103620004d757620004d662000479565b5b50919050565b60008190508160005260206000209050919050565b60006020601f8301049050919050565b600082821b905092915050565b600060088302620005417fffffffffffffffffffffffffffffffffffffffffffffffffffffffffffffffff8262000502565b6200054d868362000502565b95508019841693508086168417925050509392505050565b6000819050919050565b6000819050919050565b60006200059a620005946200058e8462000565565b6200056f565b62000565565b9050919050565b6000819050919050565b620005b68362000579565b620005ce620005c582620005a1565b8484546200050f565b825550505050565b600090565b620005e5620005d6565b620005f2818484620005ab565b505050565b5b818110156200061a576200060e600082620005db565b600181019050620005f8565b5050565b601f82111562000669576200063381620004dd565b6200063e84620004f2565b810160208510156200064e578190505b620006666200065d85620004f2565b830182620005f7565b50505b505050565b600082821c905092915050565b60006200068e600019846008026200066e565b1980831691505092915050565b6000620006a983836200067b565b9150826002028217905092915050565b620006c4826200043f565b67ffffffffffffffff811115620006e057620006df6200044a565b5b620006ec8254620004a8565b620006f98282856200061e565b600060209050601f8311600181146200073157600084156200071c578287015190505b6200072885826200069b565b86555062000798565b601f1984166200074186620004dd565b60005b828110156200076b5784890151825560018201915060208501945060208101905062000744565b868310156200078b578489015162000787601f8916826200067b565b8355505b6001600288020188555050505b505050505050565b615e6e80620007b06000396000f3fe608060405234801561001057600080fd5b50600436106102275760003560e01c80639a17d8c111610130578063cdf8f8da116100b8578063dd62ed3e1161007c578063dd62ed3e146106be578063df5dd1a5146106ee578063e41f23581461070a578063f00f809b1461073a578063f573da121461076a57610227565b8063cdf8f8da1461060a578063d69e011914610626578063d85d3d2714610656578063da13313d14610672578063dd28597f1461068e57610227565b8063a9bc2fd8116100ff578063a9bc2fd814610540578063ad2591901461055c578063ba0ffef11461058c578063c635f2d3146105aa578063ccd72e81146105da57610227565b80639a17d8c1146104ba578063a16511e6146104d8578063a3f70e5d146104f4578063a9059cbb1461051057610227565b806353d516da116101b3578063793cf21811610182578063793cf218146103ee57806383dce72a1461040c5780638f46c7201461043c57806396215e921461046c578063987cac331461049c57610227565b806353d516da14610342578063562a52821461037257806367e1d2ec146103a257806370a08231146103be57610227565b806324d7806c116101fa57806324d7806c146102b457806331601d4a146102e457806342966c68146103005780634cbd61aa1461031c5780634d43f8351461032657610227565b80630824791c1461022c578063095ea7b31461023657806318160ddd1461026657806323b872dd14610284575b600080fd5b610234610786565b005b610250600480360381019061024b9190614efd565b610910565b60405161025d9190614f58565b60405180910390f35b61026e61092c565b60405161027b9190614f82565b60405180910390f35b61029e60048036038101906102999190614f9d565b610936565b6040516102ab9190614f58565b60405180910390f35b6102ce60048036038101906102c99190614ff0565b6109d5565b6040516102db9190614f58565b60405180910390f35b6102fe60048036038101906102f99190615163565b610aaf565b005b61031a600480360381019061031591906151ac565b610d94565b005b610324610da3565b005b610340600480360381019061033b9190615205565b610faa565b005b61035c600480360381019061035791906151ac565b6114bc565b60405161036991906152de565b60405180910390f35b61038c60048036038101906103879190615163565b61160e565b6040516103999190614f82565b60405180910390f35b6103bc60048036038101906103b79190614efd565b611636565b005b6103d860048036038101906103d39190614ff0565b6118f1565b6040516103e59190614f82565b60405180910390f35b6103f661193a565b6040516104039190614f82565b60405180910390f35b610426600480360381019061042191906151ac565b6119c8565b6040516104339190615361565b60405180910390f35b610456600480360381019061045191906151ac565b611b1a565b6040516104639190614f82565b60405180910390f35b61048660048036038101906104819190614ff0565b611bbd565b6040516104939190614f58565b60405180910390f35b6104a4611c13565b6040516104b19190614f82565b60405180910390f35b6104c2611ca1565b6040516104cf9190614f82565b60405180910390f35b6104f260048036038101906104ed9190614efd565b611d2f565b005b61050e60048036038101906105099190615205565b61206e565b005b61052a60048036038101906105259190614efd565b6124e2565b6040516105379190614f58565b60405180910390f35b61055a600480360381019061055591906151ac565b6125f6565b005b610576600480360381019061057191906151ac565b6127b6565b6040516105839190615471565b60405180910390f35b61059461295a565b6040516105a19190614f82565b60405180910390f35b6105c460048036038101906105bf91906151ac565b6129e8565b6040516105d19190614f82565b60405180910390f35b6105f460048036038101906105ef91906151ac565b612a8b565b60405161060191906154fb565b60405180910390f35b610624600480360381019061061f9190615205565b612bdd565b005b610640600480360381019061063b91906151ac565b61306b565b60405161064d919061557e565b60405180910390f35b610670600480360381019061066b9190615163565b613187565b005b61068c60048036038101906106879190615599565b6135b6565b005b6106a860048036038101906106a391906151ac565b61380f565b6040516106b59190614f82565b60405180910390f35b6106d860048036038101906106d391906155f5565b6138b2565b6040516106e59190614f82565b60405180910390f35b61070860048036038101906107039190614ff0565b613939565b005b610724600480360381019061071f91906151ac565b613bd5565b604051610731919061569d565b60405180910390f35b610754600480360381019061074f91906151ac565b613d27565b604051610761919061572e565b60405180910390f35b610784600480360381019061077f9190615750565b613ecb565b005b601360003373ffffffffffffffffffffffffffffffffffffffff1673ffffffffffffffffffffffffffffffffffffffff16815260200190815260200160002060009054906101000a900460ff161561080a576040517fad69852600000000000000000000000000000000000000000000000000000000815260040160405180910390fd5b60005b60215481101561090d5760008060009054906101000a900473ffffffffffffffffffffffffffffffffffffffff1673ffffffffffffffffffffffffffffffffffffffff16631b146ecf601760008581526020019081526020016000206040518263ffffffff1660e01b8152600401610885919061589a565b6020604051808303816000875af11580156108a4573d6000803e3d6000fd5b505050506040513d601f19601f820116820180604052508101906108c891906158d1565b9050806016601760008581526020019081526020016000206040516108ed919061598c565b90815260200160405180910390208190555050808060010191505061080d565b50565b600080339050610921818585614180565b600191505092915050565b6000601954905090565b60008033905061094b85826023548601614192565b6000602354146109be576109978160046000602254815260200190815260200160002060009054906101000a900473ffffffffffffffffffffffffffffffffffffffff16602354614226565b602260008154809291906001019190505550602054602254036109bd5760006022819055505b5b6109c9858585614226565b60019150509392505050565b6000601360003373ffffffffffffffffffffffffffffffffffffffff1673ffffffffffffffffffffffffffffffffffffffff16815260200190815260200160002060009054906101000a900460ff1615610a5b576040517fad69852600000000000000000000000000000000000000000000000000000000815260040160405180910390fd5b600360008373ffffffffffffffffffffffffffffffffffffffff1673ffffffffffffffffffffffffffffffffffffffff16815260200190815260200160002060009054906101000a900460ff169050919050565b601360003373ffffffffffffffffffffffffffffffffffffffff1673ffffffffffffffffffffffffffffffffffffffff16815260200190815260200160002060009054906101000a900460ff1615610b33576040517fad69852600000000000000000000000000000000000000000000000000000000815260040160405180910390fd5b601481604051610b4391906159d4565b908152602001604051809103902060009054906101000a900460ff1615610b96576040517fafcd147f00000000000000000000000000000000000000000000000000000000815260040160405180910390fd5b600073ffffffffffffffffffffffffffffffffffffffff16601582604051610bbe91906159d4565b908152602001604051809103902060009054906101000a900473ffffffffffffffffffffffffffffffffffffffff1673ffffffffffffffffffffffffffffffffffffffff1614610c3a576040517f3a81d6fc00000000000000000000000000000000000000000000000000000000815260040160405180910390fd5b33601582604051610c4b91906159d4565b908152602001604051809103902060006101000a81548173ffffffffffffffffffffffffffffffffffffffff021916908373ffffffffffffffffffffffffffffffffffffffff160217905550806017600060215481526020019081526020016000209081610cb99190615b82565b5060216000815480929190600101919050555060008060009054906101000a900473ffffffffffffffffffffffffffffffffffffffff1673ffffffffffffffffffffffffffffffffffffffff16631b146ecf836040518263ffffffff1660e01b8152600401610d289190615c8d565b6020604051808303816000875af1158015610d47573d6000803e3d6000fd5b505050506040513d601f19601f82011682018060405250810190610d6b91906158d1565b905080601683604051610d7e91906159d4565b9081526020016040518091039020819055505050565b610da03360008361431a565b50565b601360003373ffffffffffffffffffffffffffffffffffffffff1673ffffffffffffffffffffffffffffffffffffffff16815260200190815260200160002060009054906101000a900460ff1615610e27576040517fad69852600000000000000000000000000000000000000000000000000000000815260040160405180910390fd5b6000805b602154811015610f265760008060009054906101000a900473ffffffffffffffffffffffffffffffffffffffff1673ffffffffffffffffffffffffffffffffffffffff1663c58343ef601660176000868152602001908152602001600020604051610e96919061598c565b9081526020016040518091039020546040518263ffffffff1660e01b8152600401610ec19190614f82565b6060604051808303816000875af1158015610ee0573d6000803e3d6000fd5b505050506040513d601f19601f82011682018060405250810190610f049190615d18565b9050806040015183610f169190615d74565b9250508080600101915050610e2b565b50601954811015610f6e577f9c059596d01d852c29f0ac7e96c767201380785bfe760c293ebab95a4832da6b6000604051610f619190614f58565b60405180910390a1610fa7565b7f9c059596d01d852c29f0ac7e96c767201380785bfe760c293ebab95a4832da6b6001604051610f9e9190614f58565b60405180910390a15b50565b600360003373ffffffffffffffffffffffffffffffffffffffff1673ffffffffffffffffffffffffffffffffffffffff16815260200190815260200160002060009054906101000a900460ff1661102d576040517f4755657900000000000000000000000000000000000000000000000000000000815260040160405180910390fd5b601360003373ffffffffffffffffffffffffffffffffffffffff1673ffffffffffffffffffffffffffffffffffffffff16815260200190815260200160002060009054906101000a900460ff16156110b1576040517fad69852600000000000000000000000000000000000000000000000000000000815260040160405180910390fd5b601e54601d5410156110ef576040517fff7e6cf800000000000000000000000000000000000000000000000000000000815260040160405180910390fd5b600081036112d95760006007600085815260200190815260200160002090508060050160003373ffffffffffffffffffffffffffffffffffffffff1673ffffffffffffffffffffffffffffffffffffffff16815260200190815260200160002060009054906101000a900460ff1615611194576040517f1c24747300000000000000000000000000000000000000000000000000000000815260040160405180910390fd5b82156111b35780600201600081548092919060010191905055506111c8565b80600301600081548092919060010191905055505b60018160050160003373ffffffffffffffffffffffffffffffffffffffff1673ffffffffffffffffffffffffffffffffffffffff16815260200190815260200160002060006101000a81548160ff021916908315150217905550601f548160020154106112ba576001601360008360000160009054906101000a900473ffffffffffffffffffffffffffffffffffffffff1673ffffffffffffffffffffffffffffffffffffffff1673ffffffffffffffffffffffffffffffffffffffff16815260200190815260200160002060006101000a81548160ff021916908315150217905550600181600401819055506112d3565b601f548160030154106112d257600281600401819055505b5b506114b7565b60006009600085815260200190815260200160002090508060050160003373ffffffffffffffffffffffffffffffffffffffff1673ffffffffffffffffffffffffffffffffffffffff16815260200190815260200160002060009054906101000a900460ff1615611376576040517fc8518c6b00000000000000000000000000000000000000000000000000000000815260040160405180910390fd5b82156113955780600201600081548092919060010191905055506113aa565b80600301600081548092919060010191905055505b60018160050160003373ffffffffffffffffffffffffffffffffffffffff1673ffffffffffffffffffffffffffffffffffffffff16815260200190815260200160002060006101000a81548160ff021916908315150217905550601f5481600201541061149c576000601360008360000160009054906101000a900473ffffffffffffffffffffffffffffffffffffffff1673ffffffffffffffffffffffffffffffffffffffff1673ffffffffffffffffffffffffffffffffffffffff16815260200190815260200160002060006101000a81548160ff021916908315150217905550600181600401819055506114b5565b601f548160030154106114b457600281600401819055505b5b505b505050565b6114c4614c1a565b601360003373ffffffffffffffffffffffffffffffffffffffff1673ffffffffffffffffffffffffffffffffffffffff16815260200190815260200160002060009054906101000a900460ff1615611548576040517fad69852600000000000000000000000000000000000000000000000000000000815260040160405180910390fd5b60006009600084815260200190815260200160002090506040518060a001604052808260000160009054906101000a900473ffffffffffffffffffffffffffffffffffffffff1673ffffffffffffffffffffffffffffffffffffffff1681526020018260010160009054906101000a900473ffffffffffffffffffffffffffffffffffffffff1673ffffffffffffffffffffffffffffffffffffffff16815260200182600201548152602001826003015481526020018260040154815250915050919050565b600060168260405161162091906159d4565b9081526020016040518091039020549050919050565b600360003373ffffffffffffffffffffffffffffffffffffffff1673ffffffffffffffffffffffffffffffffffffffff16815260200190815260200160002060009054906101000a900460ff166116b9576040517f4755657900000000000000000000000000000000000000000000000000000000815260040160405180910390fd5b601360003373ffffffffffffffffffffffffffffffffffffffff1673ffffffffffffffffffffffffffffffffffffffff16815260200190815260200160002060009054906101000a900460ff161561173d576040517fad69852600000000000000000000000000000000000000000000000000000000815260040160405180910390fd5b601e54601d54101561177b576040517fff7e6cf800000000000000000000000000000000000000000000000000000000815260040160405180910390fd5b6000810361183a5760006007600060085481526020019081526020016000209050828160000160006101000a81548173ffffffffffffffffffffffffffffffffffffffff021916908373ffffffffffffffffffffffffffffffffffffffff160217905550338160010160006101000a81548173ffffffffffffffffffffffffffffffffffffffff021916908373ffffffffffffffffffffffffffffffffffffffff160217905550600860008154809291906001019190505550506118ed565b600060096000600a5481526020019081526020016000209050828160000160006101000a81548173ffffffffffffffffffffffffffffffffffffffff021916908373ffffffffffffffffffffffffffffffffffffffff160217905550338160010160006101000a81548173ffffffffffffffffffffffffffffffffffffffff021916908373ffffffffffffffffffffffffffffffffffffffff160217905550600a60008154809291906001019190505550505b5050565b6000600160008373ffffffffffffffffffffffffffffffffffffffff1673ffffffffffffffffffffffffffffffffffffffff168152602001908152602001600020549050919050565b6000601360003373ffffffffffffffffffffffffffffffffffffffff1673ffffffffffffffffffffffffffffffffffffffff16815260200190815260200160002060009054906101000a900460ff16156119c0576040517fad69852600000000000000000000000000000000000000000000000000000000815260040160405180910390fd5b601d54905090565b6119d0614c75565b601360003373ffffffffffffffffffffffffffffffffffffffff1673ffffffffffffffffffffffffffffffffffffffff16815260200190815260200160002060009054906101000a900460ff1615611a54576040517fad69852600000000000000000000000000000000000000000000000000000000815260040160405180910390fd5b60006007600084815260200190815260200160002090506040518060a001604052808260000160009054906101000a900473ffffffffffffffffffffffffffffffffffffffff1673ffffffffffffffffffffffffffffffffffffffff1681526020018260010160009054906101000a900473ffffffffffffffffffffffffffffffffffffffff1673ffffffffffffffffffffffffffffffffffffffff16815260200182600201548152602001826003015481526020018260040154815250915050919050565b6000601360003373ffffffffffffffffffffffffffffffffffffffff1673ffffffffffffffffffffffffffffffffffffffff16815260200190815260200160002060009054906101000a900460ff1615611ba0576040517fad69852600000000000000000000000000000000000000000000000000000000815260040160405180910390fd5b60008203611bb257600c549050611bb8565b600e5490505b919050565b6000601860008373ffffffffffffffffffffffffffffffffffffffff1673ffffffffffffffffffffffffffffffffffffffff16815260200190815260200160002060009054906101000a900460ff169050919050565b6000601360003373ffffffffffffffffffffffffffffffffffffffff1673ffffffffffffffffffffffffffffffffffffffff16815260200190815260200160002060009054906101000a900460ff1615611c99576040517fad69852600000000000000000000000000000000000000000000000000000000815260040160405180910390fd5b601f54905090565b6000601360003373ffffffffffffffffffffffffffffffffffffffff1673ffffffffffffffffffffffffffffffffffffffff16815260200190815260200160002060009054906101000a900460ff1615611d27576040517fad69852600000000000000000000000000000000000000000000000000000000815260040160405180910390fd5b602354905090565b600360003373ffffffffffffffffffffffffffffffffffffffff1673ffffffffffffffffffffffffffffffffffffffff16815260200190815260200160002060009054906101000a900460ff16611db2576040517f4755657900000000000000000000000000000000000000000000000000000000815260040160405180910390fd5b601360003373ffffffffffffffffffffffffffffffffffffffff1673ffffffffffffffffffffffffffffffffffffffff16815260200190815260200160002060009054906101000a900460ff1615611e36576040517fad69852600000000000000000000000000000000000000000000000000000000815260040160405180910390fd5b601e54601d541015611e74576040517fff7e6cf800000000000000000000000000000000000000000000000000000000815260040160405180910390fd5b60008103611fb757600360008373ffffffffffffffffffffffffffffffffffffffff1673ffffffffffffffffffffffffffffffffffffffff16815260200190815260200160002060009054906101000a900460ff1615611f00576040517f2478fb0400000000000000000000000000000000000000000000000000000000815260040160405180910390fd5b6000600f600060105481526020019081526020016000209050828160000160006101000a81548173ffffffffffffffffffffffffffffffffffffffff021916908373ffffffffffffffffffffffffffffffffffffffff160217905550338160010160006101000a81548173ffffffffffffffffffffffffffffffffffffffff021916908373ffffffffffffffffffffffffffffffffffffffff1602179055506010600081548092919060010191905055505061206a565b60006011600060125481526020019081526020016000209050828160000160006101000a81548173ffffffffffffffffffffffffffffffffffffffff021916908373ffffffffffffffffffffffffffffffffffffffff160217905550338160010160006101000a81548173ffffffffffffffffffffffffffffffffffffffff021916908373ffffffffffffffffffffffffffffffffffffffff160217905550601260008154809291906001019190505550505b5050565b600360003373ffffffffffffffffffffffffffffffffffffffff1673ffffffffffffffffffffffffffffffffffffffff16815260200190815260200160002060009054906101000a900460ff166120f1576040517f4755657900000000000000000000000000000000000000000000000000000000815260040160405180910390fd5b601360003373ffffffffffffffffffffffffffffffffffffffff1673ffffffffffffffffffffffffffffffffffffffff16815260200190815260200160002060009054906101000a900460ff1615612175576040517fad69852600000000000000000000000000000000000000000000000000000000815260040160405180910390fd5b601e54601d5410156121b3576040517fff7e6cf800000000000000000000000000000000000000000000000000000000815260040160405180910390fd5b6000810361234e576000600f600085815260200190815260200160002090508060050160003373ffffffffffffffffffffffffffffffffffffffff1673ffffffffffffffffffffffffffffffffffffffff16815260200190815260200160002060009054906101000a900460ff1615612258576040517fea35ba7900000000000000000000000000000000000000000000000000000000815260040160405180910390fd5b821561227757806002016000815480929190600101919050555061228c565b80600301600081548092919060010191905055505b60018160050160003373ffffffffffffffffffffffffffffffffffffffff1673ffffffffffffffffffffffffffffffffffffffff16815260200190815260200160002060006101000a81548160ff021916908315150217905550601f5481600201541061232f576123208160000160009054906101000a900473ffffffffffffffffffffffffffffffffffffffff16614542565b60018160040181905550612348565b601f5481600301541061234757600281600401819055505b5b506124dd565b60006011600085815260200190815260200160002090508060050160003373ffffffffffffffffffffffffffffffffffffffff1673ffffffffffffffffffffffffffffffffffffffff16815260200190815260200160002060009054906101000a900460ff16156123eb576040517f7fae296600000000000000000000000000000000000000000000000000000000815260040160405180910390fd5b821561240a57806002016000815480929190600101919050555061241f565b80600301600081548092919060010191905055505b60018160050160003373ffffffffffffffffffffffffffffffffffffffff1673ffffffffffffffffffffffffffffffffffffffff16815260200190815260200160002060006101000a81548160ff021916908315150217905550601f548160020154106124c2576124b38160000160009054906101000a900473ffffffffffffffffffffffffffffffffffffffff166147d6565b600181600401819055506124db565b601f548160030154106124da57600281600401819055505b5b505b505050565b6000601360003373ffffffffffffffffffffffffffffffffffffffff1673ffffffffffffffffffffffffffffffffffffffff16815260200190815260200160002060009054906101000a900460ff1615612568576040517fad69852600000000000000000000000000000000000000000000000000000000815260040160405180910390fd5b60003390506000602354146125e0576125b98160046000602254815260200190815260200160002060009054906101000a900473ffffffffffffffffffffffffffffffffffffffff16602354614226565b602260008154809291906001019190505550602054602254036125df5760006022819055505b5b6125eb818585614226565b600191505092915050565b600360003373ffffffffffffffffffffffffffffffffffffffff1673ffffffffffffffffffffffffffffffffffffffff16815260200190815260200160002060009054906101000a900460ff16612679576040517f4755657900000000000000000000000000000000000000000000000000000000815260040160405180910390fd5b601360003373ffffffffffffffffffffffffffffffffffffffff1673ffffffffffffffffffffffffffffffffffffffff16815260200190815260200160002060009054906101000a900460ff16156126fd576040517fad69852600000000000000000000000000000000000000000000000000000000815260040160405180910390fd5b601e54601d54101561273b576040517fff7e6cf800000000000000000000000000000000000000000000000000000000815260040160405180910390fd5b60006005600060065481526020019081526020016000209050818160000181905550338160010160006101000a81548173ffffffffffffffffffffffffffffffffffffffff021916908373ffffffffffffffffffffffffffffffffffffffff1602179055506006600081548092919060010191905055505050565b6127be614cd0565b601360003373ffffffffffffffffffffffffffffffffffffffff1673ffffffffffffffffffffffffffffffffffffffff16815260200190815260200160002060009054906101000a900460ff1615612842576040517fad69852600000000000000000000000000000000000000000000000000000000815260040160405180910390fd5b6000600b600084815260200190815260200160002090506040518060a00160405280826000018054612873906157bf565b80601f016020809104026020016040519081016040528092919081815260200182805461289f906157bf565b80156128ec5780601f106128c1576101008083540402835291602001916128ec565b820191906000526020600020905b8154815290600101906020018083116128cf57829003601f168201915b505050505081526020018260010160009054906101000a900473ffffffffffffffffffffffffffffffffffffffff1673ffffffffffffffffffffffffffffffffffffffff16815260200182600201548152602001826003015481526020018260040154815250915050919050565b6000601360003373ffffffffffffffffffffffffffffffffffffffff1673ffffffffffffffffffffffffffffffffffffffff16815260200190815260200160002060009054906101000a900460ff16156129e0576040517fad69852600000000000000000000000000000000000000000000000000000000815260040160405180910390fd5b600654905090565b6000601360003373ffffffffffffffffffffffffffffffffffffffff1673ffffffffffffffffffffffffffffffffffffffff16815260200190815260200160002060009054906101000a900460ff1615612a6e576040517fad69852600000000000000000000000000000000000000000000000000000000815260040160405180910390fd5b60008203612a80576010549050612a86565b60125490505b919050565b612a93614d15565b601360003373ffffffffffffffffffffffffffffffffffffffff1673ffffffffffffffffffffffffffffffffffffffff16815260200190815260200160002060009054906101000a900460ff1615612b17576040517fad69852600000000000000000000000000000000000000000000000000000000815260040160405180910390fd5b60006011600084815260200190815260200160002090506040518060a001604052808260000160009054906101000a900473ffffffffffffffffffffffffffffffffffffffff1673ffffffffffffffffffffffffffffffffffffffff1681526020018260010160009054906101000a900473ffffffffffffffffffffffffffffffffffffffff1673ffffffffffffffffffffffffffffffffffffffff16815260200182600201548152602001826003015481526020018260040154815250915050919050565b600360003373ffffffffffffffffffffffffffffffffffffffff1673ffffffffffffffffffffffffffffffffffffffff16815260200190815260200160002060009054906101000a900460ff16612c60576040517f4755657900000000000000000000000000000000000000000000000000000000815260040160405180910390fd5b601360003373ffffffffffffffffffffffffffffffffffffffff1673ffffffffffffffffffffffffffffffffffffffff16815260200190815260200160002060009054906101000a900460ff1615612ce4576040517fad69852600000000000000000000000000000000000000000000000000000000815260040160405180910390fd5b601e54601d541015612d22576040517fff7e6cf800000000000000000000000000000000000000000000000000000000815260040160405180910390fd5b60008103612eca576000600b600085815260200190815260200160002090508060050160003373ffffffffffffffffffffffffffffffffffffffff1673ffffffffffffffffffffffffffffffffffffffff16815260200190815260200160002060009054906101000a900460ff1615612dc7576040517fa9590e5300000000000000000000000000000000000000000000000000000000815260040160405180910390fd5b8215612de6578060020160008154809291906001019190505550612dfb565b80600301600081548092919060010191905055505b60018160050160003373ffffffffffffffffffffffffffffffffffffffff1673ffffffffffffffffffffffffffffffffffffffff16815260200190815260200160002060006101000a81548160ff021916908315150217905550601f54816002015410612eab576001601482600001604051612e77919061598c565b908152602001604051809103902060006101000a81548160ff02191690831515021790555060018160040181905550612ec4565b601f54816003015410612ec357600281600401819055505b5b50613066565b6000600d600085815260200190815260200160002090508060050160003373ffffffffffffffffffffffffffffffffffffffff1673ffffffffffffffffffffffffffffffffffffffff16815260200190815260200160002060009054906101000a900460ff1615612f67576040517f7e6c0ae200000000000000000000000000000000000000000000000000000000815260040160405180910390fd5b8215612f86578060020160008154809291906001019190505550612f9b565b80600301600081548092919060010191905055505b60018160050160003373ffffffffffffffffffffffffffffffffffffffff1673ffffffffffffffffffffffffffffffffffffffff16815260200190815260200160002060006101000a81548160ff021916908315150217905550601f5481600201541061304b576000601482600001604051613017919061598c565b908152602001604051809103902060006101000a81548160ff02191690831515021790555060018160040181905550613064565b601f5481600301541061306357600281600401819055505b5b505b505050565b613073614d70565b601360003373ffffffffffffffffffffffffffffffffffffffff1673ffffffffffffffffffffffffffffffffffffffff16815260200190815260200160002060009054906101000a900460ff16156130f7576040517fad69852600000000000000000000000000000000000000000000000000000000815260040160405180910390fd5b60006005600084815260200190815260200160002090506040518060a00160405280826000015481526020018260010160009054906101000a900473ffffffffffffffffffffffffffffffffffffffff1673ffffffffffffffffffffffffffffffffffffffff16815260200182600201548152602001826003015481526020018260040154815250915050919050565b60148160405161319791906159d4565b908152602001604051809103902060009054906101000a900460ff16156131ea576040517fafcd147f00000000000000000000000000000000000000000000000000000000815260040160405180910390fd5b600073ffffffffffffffffffffffffffffffffffffffff1660158260405161321291906159d4565b908152602001604051809103902060009054906101000a900473ffffffffffffffffffffffffffffffffffffffff1673ffffffffffffffffffffffffffffffffffffffff160361328e576040517faba4733900000000000000000000000000000000000000000000000000000000815260040160405180910390fd5b3373ffffffffffffffffffffffffffffffffffffffff166015826040516132b591906159d4565b908152602001604051809103902060009054906101000a900473ffffffffffffffffffffffffffffffffffffffff1673ffffffffffffffffffffffffffffffffffffffff1614613331576040517f42bb320900000000000000000000000000000000000000000000000000000000815260040160405180910390fd5b60011515601860003373ffffffffffffffffffffffffffffffffffffffff1673ffffffffffffffffffffffffffffffffffffffff16815260200190815260200160002060009054906101000a900460ff161515036133bb576040517fddefae2800000000000000000000000000000000000000000000000000000000815260040160405180910390fd5b60006016826040516133cd91906159d4565b908152602001604051809103902054905060008060009054906101000a900473ffffffffffffffffffffffffffffffffffffffff1673ffffffffffffffffffffffffffffffffffffffff1663c58343ef836040518263ffffffff1660e01b815260040161343a9190614f82565b6060604051808303816000875af1158015613459573d6000803e3d6000fd5b505050506040513d601f19601f8201168201806040525081019061347d9190615d18565b9050600081602001511480613496575060028160200151145b156134cd576040517f48a6529400000000000000000000000000000000000000000000000000000000815260040160405180910390fd5b61351b60006015856040516134e291906159d4565b908152602001604051809103902060009054906101000a900473ffffffffffffffffffffffffffffffffffffffff16836040015161431a565b60016018600060158660405161353191906159d4565b908152602001604051809103902060009054906101000a900473ffffffffffffffffffffffffffffffffffffffff1673ffffffffffffffffffffffffffffffffffffffff1673ffffffffffffffffffffffffffffffffffffffff16815260200190815260200160002060006101000a81548160ff021916908315150217905550505050565b600360003373ffffffffffffffffffffffffffffffffffffffff1673ffffffffffffffffffffffffffffffffffffffff16815260200190815260200160002060009054906101000a900460ff16613639576040517f4755657900000000000000000000000000000000000000000000000000000000815260040160405180910390fd5b601360003373ffffffffffffffffffffffffffffffffffffffff1673ffffffffffffffffffffffffffffffffffffffff16815260200190815260200160002060009054906101000a900460ff16156136bd576040517fad69852600000000000000000000000000000000000000000000000000000000815260040160405180910390fd5b601e54601d5410156136fb576040517fff7e6cf800000000000000000000000000000000000000000000000000000000815260040160405180910390fd5b60008103613789576000600b6000600c54815260200190815260200160002090508281600001908161372d9190615b82565b50338160010160006101000a81548173ffffffffffffffffffffffffffffffffffffffff021916908373ffffffffffffffffffffffffffffffffffffffff160217905550600c600081548092919060010191905055505061380b565b6000600d6000600e5481526020019081526020016000209050828160000190816137b39190615b82565b50338160010160006101000a81548173ffffffffffffffffffffffffffffffffffffffff021916908373ffffffffffffffffffffffffffffffffffffffff160217905550600e60008154809291906001019190505550505b5050565b6000601360003373ffffffffffffffffffffffffffffffffffffffff1673ffffffffffffffffffffffffffffffffffffffff16815260200190815260200160002060009054906101000a900460ff1615613895576040517fad69852600000000000000000000000000000000000000000000000000000000815260040160405180910390fd5b600082036138a75760085490506138ad565b600a5490505b919050565b6000600260008473ffffffffffffffffffffffffffffffffffffffff1673ffffffffffffffffffffffffffffffffffffffff16815260200190815260200160002060008373ffffffffffffffffffffffffffffffffffffffff1673ffffffffffffffffffffffffffffffffffffffff16815260200190815260200160002054905092915050565b601360003373ffffffffffffffffffffffffffffffffffffffff1673ffffffffffffffffffffffffffffffffffffffff16815260200190815260200160002060009054906101000a900460ff16156139bd576040517fad69852600000000000000000000000000000000000000000000000000000000815260040160405180910390fd5b600360008273ffffffffffffffffffffffffffffffffffffffff1673ffffffffffffffffffffffffffffffffffffffff16815260200190815260200160002060009054906101000a900460ff1615613a41576040517f2478fb0400000000000000000000000000000000000000000000000000000000815260040160405180910390fd5b60008054906101000a900473ffffffffffffffffffffffffffffffffffffffff1673ffffffffffffffffffffffffffffffffffffffff1663df5dd1a5826040518263ffffffff1660e01b8152600401613a9a9190615db7565b600060405180830381600087803b158015613ab457600080fd5b505af1158015613ac8573d6000803e3d6000fd5b505050506001600360008373ffffffffffffffffffffffffffffffffffffffff1673ffffffffffffffffffffffffffffffffffffffff16815260200190815260200160002060006101000a81548160ff0219169083151502179055508060046000602054815260200190815260200160002060006101000a81548173ffffffffffffffffffffffffffffffffffffffff021916908373ffffffffffffffffffffffffffffffffffffffff160217905550601d60008154809291906001019190505550602060008154809291906001019190505550601e54601d5411613bb4576002601f81905550613bd2565b60016002601d5481613bc957613bc8615dd2565b5b0401601f819055505b50565b613bdd614db5565b601360003373ffffffffffffffffffffffffffffffffffffffff1673ffffffffffffffffffffffffffffffffffffffff16815260200190815260200160002060009054906101000a900460ff1615613c61576040517fad69852600000000000000000000000000000000000000000000000000000000815260040160405180910390fd5b6000600f600084815260200190815260200160002090506040518060a001604052808260000160009054906101000a900473ffffffffffffffffffffffffffffffffffffffff1673ffffffffffffffffffffffffffffffffffffffff1681526020018260010160009054906101000a900473ffffffffffffffffffffffffffffffffffffffff1673ffffffffffffffffffffffffffffffffffffffff16815260200182600201548152602001826003015481526020018260040154815250915050919050565b613d2f614e10565b601360003373ffffffffffffffffffffffffffffffffffffffff1673ffffffffffffffffffffffffffffffffffffffff16815260200190815260200160002060009054906101000a900460ff1615613db3576040517fad69852600000000000000000000000000000000000000000000000000000000815260040160405180910390fd5b6000600d600084815260200190815260200160002090506040518060a00160405280826000018054613de4906157bf565b80601f0160208091040260200160405190810160405280929190818152602001828054613e10906157bf565b8015613e5d5780601f10613e3257610100808354040283529160200191613e5d565b820191906000526020600020905b815481529060010190602001808311613e4057829003601f168201915b505050505081526020018260010160009054906101000a900473ffffffffffffffffffffffffffffffffffffffff1673ffffffffffffffffffffffffffffffffffffffff16815260200182600201548152602001826003015481526020018260040154815250915050919050565b600360003373ffffffffffffffffffffffffffffffffffffffff1673ffffffffffffffffffffffffffffffffffffffff16815260200190815260200160002060009054906101000a900460ff16613f4e576040517f4755657900000000000000000000000000000000000000000000000000000000815260040160405180910390fd5b601360003373ffffffffffffffffffffffffffffffffffffffff1673ffffffffffffffffffffffffffffffffffffffff16815260200190815260200160002060009054906101000a900460ff1615613fd2576040517fad69852600000000000000000000000000000000000000000000000000000000815260040160405180910390fd5b601e54601d541015614010576040517fff7e6cf800000000000000000000000000000000000000000000000000000000815260040160405180910390fd5b60006005600084815260200190815260200160002090508060050160003373ffffffffffffffffffffffffffffffffffffffff1673ffffffffffffffffffffffffffffffffffffffff16815260200190815260200160002060009054906101000a900460ff16156140ad576040517f1c4be5a700000000000000000000000000000000000000000000000000000000815260040160405180910390fd5b81156140cc5780600201600081548092919060010191905055506140e1565b80600301600081548092919060010191905055505b60018160050160003373ffffffffffffffffffffffffffffffffffffffff1673ffffffffffffffffffffffffffffffffffffffff16815260200190815260200160002060006101000a81548160ff021916908315150217905550601f548160020154106141625780600001546023819055506001816004018190555061417b565b601f5481600301541061417a57600281600401819055505b5b505050565b61418d8383836001614a43565b505050565b600061419e84846138b2565b90507fffffffffffffffffffffffffffffffffffffffffffffffffffffffffffffffff81146142205781811015614210578281836040517ffb8f41b200000000000000000000000000000000000000000000000000000000815260040161420793929190615e01565b60405180910390fd5b61421f84848484036000614a43565b5b50505050565b600073ffffffffffffffffffffffffffffffffffffffff168373ffffffffffffffffffffffffffffffffffffffff16036142985760006040517f96c6fd1e00000000000000000000000000000000000000000000000000000000815260040161428f9190615db7565b60405180910390fd5b600073ffffffffffffffffffffffffffffffffffffffff168273ffffffffffffffffffffffffffffffffffffffff160361430a5760006040517fec442f050000000000000000000000000000000000000000000000000000000081526004016143019190615db7565b60405180910390fd5b61431583838361431a565b505050565b600073ffffffffffffffffffffffffffffffffffffffff168373ffffffffffffffffffffffffffffffffffffffff160361436c5780601960008282546143609190615d74565b92505081905550614441565b6000600160008573ffffffffffffffffffffffffffffffffffffffff1673ffffffffffffffffffffffffffffffffffffffff168152602001908152602001600020549050818110156143f9578381836040517fe450d38c0000000000000000000000000000000000000000000000000000000081526004016143f093929190615e01565b60405180910390fd5b818103600160008673ffffffffffffffffffffffffffffffffffffffff1673ffffffffffffffffffffffffffffffffffffffff16815260200190815260200160002081905550505b600073ffffffffffffffffffffffffffffffffffffffff168273ffffffffffffffffffffffffffffffffffffffff160361448a57806019600082825403925050819055506144d8565b80600160008473ffffffffffffffffffffffffffffffffffffffff1673ffffffffffffffffffffffffffffffffffffffff168152602001908152602001600020600082825401925050819055505b8173ffffffffffffffffffffffffffffffffffffffff168373ffffffffffffffffffffffffffffffffffffffff167fddf252ad1be2c89b69c2b068fc378daa952ba7f163c4a11628f55a4df523b3ef836040516145359190614f82565b60405180910390a3505050565b600360003373ffffffffffffffffffffffffffffffffffffffff1673ffffffffffffffffffffffffffffffffffffffff16815260200190815260200160002060009054906101000a900460ff166145c5576040517f4755657900000000000000000000000000000000000000000000000000000000815260040160405180910390fd5b601360003373ffffffffffffffffffffffffffffffffffffffff1673ffffffffffffffffffffffffffffffffffffffff16815260200190815260200160002060009054906101000a900460ff1615614649576040517fad69852600000000000000000000000000000000000000000000000000000000815260040160405180910390fd5b600360008273ffffffffffffffffffffffffffffffffffffffff1673ffffffffffffffffffffffffffffffffffffffff16815260200190815260200160002060009054906101000a900460ff16156146cd576040517f2478fb0400000000000000000000000000000000000000000000000000000000815260040160405180910390fd5b6001600360008373ffffffffffffffffffffffffffffffffffffffff1673ffffffffffffffffffffffffffffffffffffffff16815260200190815260200160002060006101000a81548160ff0219169083151502179055508060046000602054815260200190815260200160002060006101000a81548173ffffffffffffffffffffffffffffffffffffffff021916908373ffffffffffffffffffffffffffffffffffffffff160217905550601d60008154809291906001019190505550602060008154809291906001019190505550601e54601d54116147b5576002601f819055506147d3565b60016002601d54816147ca576147c9615dd2565b5b0401601f819055505b50565b600360003373ffffffffffffffffffffffffffffffffffffffff1673ffffffffffffffffffffffffffffffffffffffff16815260200190815260200160002060009054906101000a900460ff16614859576040517f4755657900000000000000000000000000000000000000000000000000000000815260040160405180910390fd5b601360003373ffffffffffffffffffffffffffffffffffffffff1673ffffffffffffffffffffffffffffffffffffffff16815260200190815260200160002060009054906101000a900460ff16156148dd576040517fad69852600000000000000000000000000000000000000000000000000000000815260040160405180910390fd5b601e54601d54101561491b576040517fff7e6cf800000000000000000000000000000000000000000000000000000000815260040160405180910390fd5b600360008273ffffffffffffffffffffffffffffffffffffffff1673ffffffffffffffffffffffffffffffffffffffff16815260200190815260200160002060009054906101000a900460ff1661499e576040517f920432b400000000000000000000000000000000000000000000000000000000815260040160405180910390fd5b6000600360008373ffffffffffffffffffffffffffffffffffffffff1673ffffffffffffffffffffffffffffffffffffffff16815260200190815260200160002060006101000a81548160ff021916908315150217905550601d6000815480929190600190039190505550601e54601d541015614a22576002601f81905550614a40565b60016002601d5481614a3757614a36615dd2565b5b0401601f819055505b50565b600073ffffffffffffffffffffffffffffffffffffffff168473ffffffffffffffffffffffffffffffffffffffff1603614ab55760006040517fe602df05000000000000000000000000000000000000000000000000000000008152600401614aac9190615db7565b60405180910390fd5b600073ffffffffffffffffffffffffffffffffffffffff168373ffffffffffffffffffffffffffffffffffffffff1603614b275760006040517f94280d62000000000000000000000000000000000000000000000000000000008152600401614b1e9190615db7565b60405180910390fd5b81600260008673ffffffffffffffffffffffffffffffffffffffff1673ffffffffffffffffffffffffffffffffffffffff16815260200190815260200160002060008573ffffffffffffffffffffffffffffffffffffffff1673ffffffffffffffffffffffffffffffffffffffff168152602001908152602001600020819055508015614c14578273ffffffffffffffffffffffffffffffffffffffff168473ffffffffffffffffffffffffffffffffffffffff167f8c5be1e5ebec7d5bd14f71427d1e84f3dd0314c0f7b2291e5b200ac8c7c3b92584604051614c0b9190614f82565b60405180910390a35b50505050565b6040518060a00160405280600073ffffffffffffffffffffffffffffffffffffffff168152602001600073ffffffffffffffffffffffffffffffffffffffff1681526020016000815260200160008152602001600081525090565b6040518060a00160405280600073ffffffffffffffffffffffffffffffffffffffff168152602001600073ffffffffffffffffffffffffffffffffffffffff1681526020016000815260200160008152602001600081525090565b6040518060a0016040528060608152602001600073ffffffffffffffffffffffffffffffffffffffff1681526020016000815260200160008152602001600081525090565b6040518060a00160405280600073ffffffffffffffffffffffffffffffffffffffff168152602001600073ffffffffffffffffffffffffffffffffffffffff1681526020016000815260200160008152602001600081525090565b6040518060a0016040528060008152602001600073ffffffffffffffffffffffffffffffffffffffff1681526020016000815260200160008152602001600081525090565b6040518060a00160405280600073ffffffffffffffffffffffffffffffffffffffff168152602001600073ffffffffffffffffffffffffffffffffffffffff1681526020016000815260200160008152602001600081525090565b6040518060a0016040528060608152602001600073ffffffffffffffffffffffffffffffffffffffff1681526020016000815260200160008152602001600081525090565b6000604051905090565b600080fd5b600080fd5b600073ffffffffffffffffffffffffffffffffffffffff82169050919050565b6000614e9482614e69565b9050919050565b614ea481614e89565b8114614eaf57600080fd5b50565b600081359050614ec181614e9b565b92915050565b6000819050919050565b614eda81614ec7565b8114614ee557600080fd5b50565b600081359050614ef781614ed1565b92915050565b60008060408385031215614f1457614f13614e5f565b5b6000614f2285828601614eb2565b9250506020614f3385828601614ee8565b9150509250929050565b60008115159050919050565b614f5281614f3d565b82525050565b6000602082019050614f6d6000830184614f49565b92915050565b614f7c81614ec7565b82525050565b6000602082019050614f976000830184614f73565b92915050565b600080600060608486031215614fb657614fb5614e5f565b5b6000614fc486828701614eb2565b9350506020614fd586828701614eb2565b9250506040614fe686828701614ee8565b9150509250925092565b60006020828403121561500657615005614e5f565b5b600061501484828501614eb2565b91505092915050565b600080fd5b600080fd5b6000601f19601f8301169050919050565b7f4e487b7100000000000000000000000000000000000000000000000000000000600052604160045260246000fd5b61507082615027565b810181811067ffffffffffffffff8211171561508f5761508e615038565b5b80604052505050565b60006150a2614e55565b90506150ae8282615067565b919050565b600067ffffffffffffffff8211156150ce576150cd615038565b5b6150d782615027565b9050602081019050919050565b82818337600083830152505050565b6000615106615101846150b3565b615098565b90508281526020810184848401111561512257615121615022565b5b61512d8482856150e4565b509392505050565b600082601f83011261514a5761514961501d565b5b813561515a8482602086016150f3565b91505092915050565b60006020828403121561517957615178614e5f565b5b600082013567ffffffffffffffff81111561519757615196614e64565b5b6151a384828501615135565b91505092915050565b6000602082840312156151c2576151c1614e5f565b5b60006151d084828501614ee8565b91505092915050565b6151e281614f3d565b81146151ed57600080fd5b50565b6000813590506151ff816151d9565b92915050565b60008060006060848603121561521e5761521d614e5f565b5b600061522c86828701614ee8565b935050602061523d868287016151f0565b925050604061524e86828701614ee8565b9150509250925092565b61526181614e89565b82525050565b61527081614ec7565b82525050565b60a08201600082015161528c6000850182615258565b50602082015161529f6020850182615258565b5060408201516152b26040850182615267565b5060608201516152c56060850182615267565b5060808201516152d86080850182615267565b50505050565b600060a0820190506152f36000830184615276565b92915050565b60a08201600082015161530f6000850182615258565b5060208201516153226020850182615258565b5060408201516153356040850182615267565b5060608201516153486060850182615267565b50608082015161535b6080850182615267565b50505050565b600060a08201905061537660008301846152f9565b92915050565b600081519050919050565b600082825260208201905092915050565b60005b838110156153b657808201518184015260208101905061539b565b60008484015250505050565b60006153cd8261537c565b6153d78185615387565b93506153e7818560208601615398565b6153f081615027565b840191505092915050565b600060a083016000830151848203600086015261541882826153c2565b915050602083015161542d6020860182615258565b5060408301516154406040860182615267565b5060608301516154536060860182615267565b5060808301516154666080860182615267565b508091505092915050565b6000602082019050818103600083015261548b81846153fb565b905092915050565b60a0820160008201516154a96000850182615258565b5060208201516154bc6020850182615258565b5060408201516154cf6040850182615267565b5060608201516154e26060850182615267565b5060808201516154f56080850182615267565b50505050565b600060a0820190506155106000830184615493565b92915050565b60a08201600082015161552c6000850182615267565b50602082015161553f6020850182615258565b5060408201516155526040850182615267565b5060608201516155656060850182615267565b5060808201516155786080850182615267565b50505050565b600060a0820190506155936000830184615516565b92915050565b600080604083850312156155b0576155af614e5f565b5b600083013567ffffffffffffffff8111156155ce576155cd614e64565b5b6155da85828601615135565b92505060206155eb85828601614ee8565b9150509250929050565b6000806040838503121561560c5761560b614e5f565b5b600061561a85828601614eb2565b925050602061562b85828601614eb2565b9150509250929050565b60a08201600082015161564b6000850182615258565b50602082015161565e6020850182615258565b5060408201516156716040850182615267565b5060608201516156846060850182615267565b5060808201516156976080850182615267565b50505050565b600060a0820190506156b26000830184615635565b92915050565b600060a08301600083015184820360008601526156d582826153c2565b91505060208301516156ea6020860182615258565b5060408301516156fd6040860182615267565b5060608301516157106060860182615267565b5060808301516157236080860182615267565b508091505092915050565b6000602082019050818103600083015261574881846156b8565b905092915050565b6000806040838503121561576757615766614e5f565b5b600061577585828601614ee8565b9250506020615786858286016151f0565b9150509250929050565b7f4e487b7100000000000000000000000000000000000000000000000000000000600052602260045260246000fd5b600060028204905060018216806157d757607f821691505b6020821081036157ea576157e9615790565b5b50919050565b600082825260208201905092915050565b60008190508160005260206000209050919050565b60008154615823816157bf565b61582d81866157f0565b94506001821660008114615848576001811461585e57615891565b60ff198316865281151560200286019350615891565b61586785615801565b60005b838110156158895781548189015260018201915060208101905061586a565b808801955050505b50505092915050565b600060208201905081810360008301526158b48184615816565b905092915050565b6000815190506158cb81614ed1565b92915050565b6000602082840312156158e7576158e6614e5f565b5b60006158f5848285016158bc565b91505092915050565b600081905092915050565b60008154615916816157bf565b61592081866158fe565b9450600182166000811461593b576001811461595057615983565b60ff1983168652811515820286019350615983565b61595985615801565b60005b8381101561597b5781548189015260018201915060208101905061595c565b838801955050505b50505092915050565b60006159988284615909565b915081905092915050565b60006159ae8261537c565b6159b881856158fe565b93506159c8818560208601615398565b80840191505092915050565b60006159e082846159a3565b915081905092915050565b60006020601f8301049050919050565b600082821b905092915050565b600060088302615a387fffffffffffffffffffffffffffffffffffffffffffffffffffffffffffffffff826159fb565b615a4286836159fb565b95508019841693508086168417925050509392505050565b6000819050919050565b6000615a7f615a7a615a7584614ec7565b615a5a565b614ec7565b9050919050565b6000819050919050565b615a9983615a64565b615aad615aa582615a86565b848454615a08565b825550505050565b600090565b615ac2615ab5565b615acd818484615a90565b505050565b5b81811015615af157615ae6600082615aba565b600181019050615ad3565b5050565b601f821115615b3657615b0781615801565b615b10846159eb565b81016020851015615b1f578190505b615b33615b2b856159eb565b830182615ad2565b50505b505050565b600082821c905092915050565b6000615b5960001984600802615b3b565b1980831691505092915050565b6000615b728383615b48565b9150826002028217905092915050565b615b8b8261537c565b67ffffffffffffffff811115615ba457615ba3615038565b5b615bae82546157bf565b615bb9828285615af5565b600060209050601f831160018114615bec5760008415615bda578287015190505b615be48582615b66565b865550615c4c565b601f198416615bfa86615801565b60005b82811015615c2257848901518255600182019150602085019450602081019050615bfd565b86831015615c3f5784890151615c3b601f891682615b48565b8355505b6001600288020188555050505b505050505050565b6000615c5f8261537c565b615c6981856157f0565b9350615c79818560208601615398565b615c8281615027565b840191505092915050565b60006020820190508181036000830152615ca78184615c54565b905092915050565b600080fd5b600060608284031215615cca57615cc9615caf565b5b615cd46060615098565b90506000615ce4848285016158bc565b6000830152506020615cf8848285016158bc565b6020830152506040615d0c848285016158bc565b60408301525092915050565b600060608284031215615d2e57615d2d614e5f565b5b6000615d3c84828501615cb4565b91505092915050565b7f4e487b7100000000000000000000000000000000000000000000000000000000600052601160045260246000fd5b6000615d7f82614ec7565b9150615d8a83614ec7565b9250828201905080821115615da257615da1615d45565b5b92915050565b615db181614e89565b82525050565b6000602082019050615dcc6000830184615da8565b92915050565b7f4e487b7100000000000000000000000000000000000000000000000000000000600052601260045260246000fd5b6000606082019050615e166000830186615da8565b615e236020830185614f73565b615e306040830184614f73565b94935050505056fea26469706673582212201c0f3d93b5c2e456b35713e0bd83472758a48794a6329ac2179b0a7410b1584164736f6c63430008180033",
  "linkReferences": {},
  "deployedLinkReferences": {}
}