{
  "_format": "hh-sol-artifact-1",
  "contractName": "JPYN",
  "sourceName": "contracts/JPYN.sol",
  "abi": [
    {
      "inputs": [
        {
          "internalType": "address",
          "name": "admin1",
          "type": "address"
        },
        {
          "internalType": "address",
          "name": "admin2",
          "type": "address"
        },
        {
          "internalType": "address",
          "name": "admin3",
          "type": "address"
        },
        {
          "internalType": "address",
          "name": "_jpynOracleAddress",
          "type": "address"
        }
      ],
      "stateMutability": "nonpayable",
      "type": "constructor"
    },
    {
      "inputs": [],
      "name": "AlreadyRegistered",
      "type": "error"
    },
    {
      "inputs": [],
      "name": "AlreadyVotedProposedAdmin",
      "type": "error"
    },
    {
      "inputs": [],
      "name": "AlreadyVotedProposedBankBlackList",
      "type": "error"
    },
    {
      "inputs": [],
      "name": "AlreadyVotedProposedBlackListAddress",
      "type": "error"
    },
    {
      "inputs": [],
      "name": "AlreadyVotedProposedRemoveBankBlackList",
      "type": "error"
    },
    {
      "inputs": [],
      "name": "AlreadyVotedProposedRemoveBlackListAddress",
      "type": "error"
    },
    {
      "inputs": [],
      "name": "AlreadyVotedProposedRemovedAdmin",
      "type": "error"
    },
    {
      "inputs": [],
      "name": "AlreadyVotedProposedTransferFee",
      "type": "error"
    },
    {
      "inputs": [],
      "name": "BankAccountFalse",
      "type": "error"
    },
    {
      "inputs": [],
      "name": "BankBlackList",
      "type": "error"
    },
    {
      "inputs": [],
      "name": "BlackListAddress",
      "type": "error"
    },
    {
      "inputs": [
        {
          "internalType": "address",
          "name": "spender",
          "type": "address"
        },
        {
          "internalType": "uint256",
          "name": "allowance",
          "type": "uint256"
        },
        {
          "internalType": "uint256",
          "name": "needed",
          "type": "uint256"
        }
      ],
      "name": "ERC20InsufficientAllowance",
      "type": "error"
    },
    {
      "inputs": [
        {
          "internalType": "address",
          "name": "sender",
          "type": "address"
        },
        {
          "internalType": "uint256",
          "name": "balance",
          "type": "uint256"
        },
        {
          "internalType": "uint256",
          "name": "needed",
          "type": "uint256"
        }
      ],
      "name": "ERC20InsufficientBalance",
      "type": "error"
    },
    {
      "inputs": [
        {
          "internalType": "address",
          "name": "approver",
          "type": "address"
        }
      ],
      "name": "ERC20InvalidApprover",
      "type": "error"
    },
    {
      "inputs": [
        {
          "internalType": "address",
          "name": "receiver",
          "type": "address"
        }
      ],
      "name": "ERC20InvalidReceiver",
      "type": "error"
    },
    {
      "inputs": [
        {
          "internalType": "address",
          "name": "sender",
          "type": "address"
        }
      ],
      "name": "ERC20InvalidSender",
      "type": "error"
    },
    {
      "inputs": [
        {
          "internalType": "address",
          "name": "spender",
          "type": "address"
        }
      ],
      "name": "ERC20InvalidSpender",
      "type": "error"
    },
    {
      "inputs": [],
      "name": "ExistingAdmin",
      "type": "error"
    },
    {
      "inputs": [],
      "name": "NotEnoughAdmins",
      "type": "error"
    },
    {
      "inputs": [],
      "name": "NotExistingAdmin",
      "type": "error"
    },
    {
      "inputs": [],
      "name": "NotRegistered",
      "type": "error"
    },
    {
      "inputs": [],
      "name": "NotYourAddress",
      "type": "error"
    },
    {
      "inputs": [],
      "name": "OnlyAdmin",
      "type": "error"
    },
    {
      "anonymous": false,
      "inputs": [
        {
          "indexed": true,
          "internalType": "address",
          "name": "owner",
          "type": "address"
        },
        {
          "indexed": true,
          "internalType": "address",
          "name": "spender",
          "type": "address"
        },
        {
          "indexed": false,
          "internalType": "uint256",
          "name": "value",
          "type": "uint256"
        }
      ],
      "name": "Approval",
      "type": "event"
    },
    {
      "anonymous": false,
      "inputs": [
        {
          "indexed": true,
          "internalType": "address",
          "name": "from",
          "type": "address"
        },
        {
          "indexed": true,
          "internalType": "address",
          "name": "to",
          "type": "address"
        },
        {
          "indexed": false,
          "internalType": "uint256",
          "name": "value",
          "type": "uint256"
        }
      ],
      "name": "Transfer",
      "type": "event"
    },
    {
      "anonymous": false,
      "inputs": [
        {
          "indexed": false,
          "internalType": "bool",
          "name": "isSafe",
          "type": "bool"
        }
      ],
      "name": "isSafe",
      "type": "event"
    },
    {
      "inputs": [
        {
          "internalType": "address",
          "name": "owner",
          "type": "address"
        },
        {
          "internalType": "address",
          "name": "spender",
          "type": "address"
        }
      ],
      "name": "allowance",
      "outputs": [
        {
          "internalType": "uint256",
          "name": "",
          "type": "uint256"
        }
      ],
      "stateMutability": "view",
      "type": "function"
    },
    {
      "inputs": [
        {
          "internalType": "address",
          "name": "spender",
          "type": "address"
        },
        {
          "internalType": "uint256",
          "name": "value",
          "type": "uint256"
        }
      ],
      "name": "approve",
      "outputs": [
        {
          "internalType": "bool",
          "name": "",
          "type": "bool"
        }
      ],
      "stateMutability": "nonpayable",
      "type": "function"
    },
    {
      "inputs": [
        {
          "internalType": "address",
          "name": "account",
          "type": "address"
        }
      ],
      "name": "balanceOf",
      "outputs": [
        {
          "internalType": "uint256",
          "name": "",
          "type": "uint256"
        }
      ],
      "stateMutability": "view",
      "type": "function"
    },
    {
      "inputs": [
        {
          "internalType": "uint256",
          "name": "value",
          "type": "uint256"
        }
      ],
      "name": "burn",
      "outputs": [],
      "stateMutability": "nonpayable",
      "type": "function"
    },
    {
      "inputs": [
        {
          "internalType": "uint256",
          "name": "_type",
          "type": "uint256"
        }
      ],
      "name": "getCurrentBankBlackListId",
      "outputs": [
        {
          "internalType": "uint256",
          "name": "",
          "type": "uint256"
        }
      ],
      "stateMutability": "view",
      "type": "function"
    },
    {
      "inputs": [
        {
          "internalType": "uint256",
          "name": "_type",
          "type": "uint256"
        }
      ],
      "name": "getCurrentBlackListAddressId",
      "outputs": [
        {
          "internalType": "uint256",
          "name": "",
          "type": "uint256"
        }
      ],
      "stateMutability": "view",
      "type": "function"
    },
    {
      "inputs": [
        {
          "internalType": "uint256",
          "name": "_type",
          "type": "uint256"
        }
      ],
      "name": "getCurrentProposedAdminId",
      "outputs": [
        {
          "internalType": "uint256",
          "name": "",
          "type": "uint256"
        }
      ],
      "stateMutability": "view",
      "type": "function"
    },
    {
      "inputs": [],
      "name": "getCurrentProposedTransferFeeId",
      "outputs": [
        {
          "internalType": "uint256",
          "name": "",
          "type": "uint256"
        }
      ],
      "stateMutability": "view",
      "type": "function"
    },
    {
      "inputs": [],
      "name": "getMinApproval",
      "outputs": [
        {
          "internalType": "uint256",
          "name": "",
          "type": "uint256"
        }
      ],
      "stateMutability": "view",
      "type": "function"
    },
    {
      "inputs": [
        {
          "internalType": "uint256",
          "name": "_id",
          "type": "uint256"
        }
      ],
      "name": "getProposedAdmin",
      "outputs": [
        {
          "components": [
            {
              "internalType": "address",
              "name": "proposedAdmin",
              "type": "address"
            },
            {
              "internalType": "address",
              "name": "proposer",
              "type": "address"
            },
            {
              "internalType": "uint256",
              "name": "approvalCount",
              "type": "uint256"
            },
            {
              "internalType": "uint256",
              "name": "rejectCount",
              "type": "uint256"
            },
            {
              "internalType": "uint256",
              "name": "status",
              "type": "uint256"
            }
          ],
          "internalType": "struct JPYN.ReturnProposedAdmin",
          "name": "",
          "type": "tuple"
        }
      ],
      "stateMutability": "view",
      "type": "function"
    },
    {
      "inputs": [
        {
          "internalType": "uint256",
          "name": "_id",
          "type": "uint256"
        }
      ],
      "name": "getProposedBankBlackList",
      "outputs": [
        {
          "components": [
            {
              "internalType": "string",
              "name": "proposedBankBlackList",
              "type": "string"
            },
            {
              "internalType": "address",
              "name": "proposer",
              "type": "address"
            },
            {
              "internalType": "uint256",
              "name": "approvalCount",
              "type": "uint256"
            },
            {
              "internalType": "uint256",
              "name": "rejectCount",
              "type": "uint256"
            },
            {
              "internalType": "uint256",
              "name": "status",
              "type": "uint256"
            }
          ],
          "internalType": "struct JPYN.ReturnBankBlackList",
          "name": "",
          "type": "tuple"
        }
      ],
      "stateMutability": "view",
      "type": "function"
    },
    {
      "inputs": [
        {
          "internalType": "uint256",
          "name": "_id",
          "type": "uint256"
        }
      ],
      "name": "getProposedBlackListAddress",
      "outputs": [
        {
          "components": [
            {
              "internalType": "address",
              "name": "proposedBlackListAddress",
              "type": "address"
            },
            {
              "internalType": "address",
              "name": "proposer",
              "type": "address"
            },
            {
              "internalType": "uint256",
              "name": "approvalCount",
              "type": "uint256"
            },
            {
              "internalType": "uint256",
              "name": "rejectCount",
              "type": "uint256"
            },
            {
              "internalType": "uint256",
              "name": "status",
              "type": "uint256"
            }
          ],
          "internalType": "struct JPYN.ReturnBlackListAddress",
          "name": "",
          "type": "tuple"
        }
      ],
      "stateMutability": "view",
      "type": "function"
    },
    {
      "inputs": [
        {
          "internalType": "uint256",
          "name": "_id",
          "type": "uint256"
        }
      ],
      "name": "getProposedRemoveBankBlackList",
      "outputs": [
        {
          "components": [
            {
              "internalType": "string",
              "name": "proposedRemoveBankBlackList",
              "type": "string"
            },
            {
              "internalType": "address",
              "name": "proposer",
              "type": "address"
            },
            {
              "internalType": "uint256",
              "name": "approvalCount",
              "type": "uint256"
            },
            {
              "internalType": "uint256",
              "name": "rejectCount",
              "type": "uint256"
            },
            {
              "internalType": "uint256",
              "name": "status",
              "type": "uint256"
            }
          ],
          "internalType": "struct JPYN.ReturnRemoveBankBlackList",
          "name": "",
          "type": "tuple"
        }
      ],
      "stateMutability": "view",
      "type": "function"
    },
    {
      "inputs": [
        {
          "internalType": "uint256",
          "name": "_id",
          "type": "uint256"
        }
      ],
      "name": "getProposedRemoveBlackListAddress",
      "outputs": [
        {
          "components": [
            {
              "internalType": "address",
              "name": "proposedRemoveBlackListAddress",
              "type": "address"
            },
            {
              "internalType": "address",
              "name": "proposer",
              "type": "address"
            },
            {
              "internalType": "uint256",
              "name": "approvalCount",
              "type": "uint256"
            },
            {
              "internalType": "uint256",
              "name": "rejectCount",
              "type": "uint256"
            },
            {
              "internalType": "uint256",
              "name": "status",
              "type": "uint256"
            }
          ],
          "internalType": "struct JPYN.ReturnRemoveBlackListAddress",
          "name": "",
          "type": "tuple"
        }
      ],
      "stateMutability": "view",
      "type": "function"
    },
    {
      "inputs": [
        {
          "internalType": "uint256",
          "name": "_id",
          "type": "uint256"
        }
      ],
      "name": "getProposedRemovedAdmin",
      "outputs": [
        {
          "components": [
            {
              "internalType": "address",
              "name": "proposedRemovedAdmin",
              "type": "address"
            },
            {
              "internalType": "address",
              "name": "proposer",
              "type": "address"
            },
            {
              "internalType": "uint256",
              "name": "approvalCount",
              "type": "uint256"
            },
            {
              "internalType": "uint256",
              "name": "rejectCount",
              "type": "uint256"
            },
            {
              "internalType": "uint256",
              "name": "status",
              "type": "uint256"
            }
          ],
          "internalType": "struct JPYN.ReturnProposedRemovedAdmin",
          "name": "",
          "type": "tuple"
        }
      ],
      "stateMutability": "view",
      "type": "function"
    },
    {
      "inputs": [
        {
          "internalType": "uint256",
          "name": "_id",
          "type": "uint256"
        }
      ],
      "name": "getProposedTransferFee",
      "outputs": [
        {
          "components": [
            {
              "internalType": "uint256",
              "name": "proposedTransferFee",
              "type": "uint256"
            },
            {
              "internalType": "address",
              "name": "proposer",
              "type": "address"
            },
            {
              "internalType": "uint256",
              "name": "approvalCount",
              "type": "uint256"
            },
            {
              "internalType": "uint256",
              "name": "rejectCount",
              "type": "uint256"
            },
            {
              "internalType": "uint256",
              "name": "status",
              "type": "uint256"
            }
          ],
          "internalType": "struct JPYN.ReturnProposedTransferFee",
          "name": "",
          "type": "tuple"
        }
      ],
      "stateMutability": "view",
      "type": "function"
    },
    {
      "inputs": [],
      "name": "getTotalVoters",
      "outputs": [
        {
          "internalType": "uint256",
          "name": "",
          "type": "uint256"
        }
      ],
      "stateMutability": "view",
      "type": "function"
    },
    {
      "inputs": [],
      "name": "getTransferFee",
      "outputs": [
        {
          "internalType": "uint256",
          "name": "",
          "type": "uint256"
        }
      ],
      "stateMutability": "view",
      "type": "function"
    },
    {
      "inputs": [
        {
          "internalType": "address",
          "name": "sender",
          "type": "address"
        }
      ],
      "name": "isAdmin",
      "outputs": [
        {
          "internalType": "bool",
          "name": "",
          "type": "bool"
        }
      ],
      "stateMutability": "view",
      "type": "function"
    },
    {
      "inputs": [],
      "name": "isSafeTotalSupply",
      "outputs": [],
      "stateMutability": "nonpayable",
      "type": "function"
    },
    {
      "inputs": [
        {
          "internalType": "string",
          "name": "_hashedBankAccount",
          "type": "string"
        }
      ],
      "name": "mint",
      "outputs": [],
      "stateMutability": "nonpayable",
      "type": "function"
    },
    {
      "inputs": [
        {
          "internalType": "address",
          "name": "_address",
          "type": "address"
        },
        {
          "internalType": "uint256",
          "name": "_type",
          "type": "uint256"
        }
      ],
      "name": "proposeAdmin",
      "outputs": [],
      "stateMutability": "nonpayable",
      "type": "function"
    },
    {
      "inputs": [
        {
          "internalType": "string",
          "name": "_pBankBlackList",
          "type": "string"
        },
        {
          "internalType": "uint256",
          "name": "_type",
          "type": "uint256"
        }
      ],
      "name": "proposeBankBlackList",
      "outputs": [],
      "stateMutability": "nonpayable",
      "type": "function"
    },
    {
      "inputs": [
        {
          "internalType": "address",
          "name": "_blackListAddress",
          "type": "address"
        },
        {
          "internalType": "uint256",
          "name": "_type",
          "type": "uint256"
        }
      ],
      "name": "proposeBlackListAddress",
      "outputs": [],
      "stateMutability": "nonpayable",
      "type": "function"
    },
    {
      "inputs": [
        {
          "internalType": "uint256",
          "name": "_newTransferFee",
          "type": "uint256"
        }
      ],
      "name": "proposeTransferFee",
      "outputs": [],
      "stateMutability": "nonpayable",
      "type": "function"
    },
    {
      "inputs": [
        {
          "internalType": "string",
          "name": "_hashedBankAccount",
          "type": "string"
        }
      ],
      "name": "registerAddressToBank",
      "outputs": [],
      "stateMutability": "nonpayable",
      "type": "function"
    },
    {
      "inputs": [],
      "name": "requestIsSafeTotalSupply",
      "outputs": [],
      "stateMutability": "nonpayable",
      "type": "function"
    },
    {
      "inputs": [],
      "name": "totalSupply",
      "outputs": [
        {
          "internalType": "uint256",
          "name": "",
          "type": "uint256"
        }
      ],
      "stateMutability": "view",
      "type": "function"
    },
    {
      "inputs": [
        {
          "internalType": "address",
          "name": "to",
          "type": "address"
        },
        {
          "internalType": "uint256",
          "name": "value",
          "type": "uint256"
        }
      ],
      "name": "transfer",
      "outputs": [
        {
          "internalType": "bool",
          "name": "",
          "type": "bool"
        }
      ],
      "stateMutability": "nonpayable",
      "type": "function"
    },
    {
      "inputs": [
        {
          "internalType": "address",
          "name": "from",
          "type": "address"
        },
        {
          "internalType": "address",
          "name": "to",
          "type": "address"
        },
        {
          "internalType": "uint256",
          "name": "value",
          "type": "uint256"
        }
      ],
      "name": "transferFrom",
      "outputs": [
        {
          "internalType": "bool",
          "name": "",
          "type": "bool"
        }
      ],
      "stateMutability": "nonpayable",
      "type": "function"
    },
    {
      "inputs": [
        {
          "internalType": "uint256",
          "name": "_id",
          "type": "uint256"
        },
        {
          "internalType": "bool",
          "name": "_vote",
          "type": "bool"
        },
        {
          "internalType": "uint256",
          "name": "_type",
          "type": "uint256"
        }
      ],
      "name": "voteProposedAdmin",
      "outputs": [],
      "stateMutability": "nonpayable",
      "type": "function"
    },
    {
      "inputs": [
        {
          "internalType": "uint256",
          "name": "_id",
          "type": "uint256"
        },
        {
          "internalType": "bool",
          "name": "_vote",
          "type": "bool"
        },
        {
          "internalType": "uint256",
          "name": "_type",
          "type": "uint256"
        }
      ],
      "name": "voteProposedBankBlackList",
      "outputs": [],
      "stateMutability": "nonpayable",
      "type": "function"
    },
    {
      "inputs": [
        {
          "internalType": "uint256",
          "name": "_id",
          "type": "uint256"
        },
        {
          "internalType": "bool",
          "name": "_vote",
          "type": "bool"
        },
        {
          "internalType": "uint256",
          "name": "_type",
          "type": "uint256"
        }
      ],
      "name": "voteProposedBlackListAddress",
      "outputs": [],
      "stateMutability": "nonpayable",
      "type": "function"
    },
    {
      "inputs": [
        {
          "internalType": "uint256",
          "name": "_id",
          "type": "uint256"
        },
        {
          "internalType": "bool",
          "name": "_vote",
          "type": "bool"
        }
      ],
      "name": "voteProposedTransferFee",
      "outputs": [],
      "stateMutability": "nonpayable",
      "type": "function"
    }
  ],
  "bytecode": "0x60806040523480156200001157600080fd5b5060405162006147380380620061478339818101604052810190620000379190620003cd565b6040518060400160405280600481526020017f4a50594e00000000000000000000000000000000000000000000000000000000815250601990816200007d9190620006b9565b506040518060400160405280600481526020017f4a50594e00000000000000000000000000000000000000000000000000000000815250601a9081620000c49190620006b9565b506003601b60006101000a81548160ff021916908360ff1602179055506003601c819055506003601d819055506002601e819055506003601f81905550600a60228190555060006023819055506001600360008673ffffffffffffffffffffffffffffffffffffffff1673ffffffffffffffffffffffffffffffffffffffff16815260200190815260200160002060006101000a81548160ff0219169083151502179055506001600360008573ffffffffffffffffffffffffffffffffffffffff1673ffffffffffffffffffffffffffffffffffffffff16815260200190815260200160002060006101000a81548160ff0219169083151502179055506001600360008473ffffffffffffffffffffffffffffffffffffffff1673ffffffffffffffffffffffffffffffffffffffff16815260200190815260200160002060006101000a81548160ff021916908315150217905550836004600080815260200190815260200160002060006101000a81548173ffffffffffffffffffffffffffffffffffffffff021916908373ffffffffffffffffffffffffffffffffffffffff16021790555082600460006001815260200190815260200160002060006101000a81548173ffffffffffffffffffffffffffffffffffffffff021916908373ffffffffffffffffffffffffffffffffffffffff16021790555081600460006002815260200190815260200160002060006101000a81548173ffffffffffffffffffffffffffffffffffffffff021916908373ffffffffffffffffffffffffffffffffffffffff1602179055506000602181905550806000806101000a81548173ffffffffffffffffffffffffffffffffffffffff021916908373ffffffffffffffffffffffffffffffffffffffff16021790555050505050620007a0565b600080fd5b600073ffffffffffffffffffffffffffffffffffffffff82169050919050565b6000620003958262000368565b9050919050565b620003a78162000388565b8114620003b357600080fd5b50565b600081519050620003c7816200039c565b92915050565b60008060008060808587031215620003ea57620003e962000363565b5b6000620003fa87828801620003b6565b94505060206200040d87828801620003b6565b93505060406200042087828801620003b6565b92505060606200043387828801620003b6565b91505092959194509250565b600081519050919050565b7f4e487b7100000000000000000000000000000000000000000000000000000000600052604160045260246000fd5b7f4e487b7100000000000000000000000000000000000000000000000000000000600052602260045260246000fd5b60006002820490506001821680620004c157607f821691505b602082108103620004d757620004d662000479565b5b50919050565b60008190508160005260206000209050919050565b60006020601f8301049050919050565b600082821b905092915050565b600060088302620005417fffffffffffffffffffffffffffffffffffffffffffffffffffffffffffffffff8262000502565b6200054d868362000502565b95508019841693508086168417925050509392505050565b6000819050919050565b6000819050919050565b60006200059a620005946200058e8462000565565b6200056f565b62000565565b9050919050565b6000819050919050565b620005b68362000579565b620005ce620005c582620005a1565b8484546200050f565b825550505050565b600090565b620005e5620005d6565b620005f2818484620005ab565b505050565b5b818110156200061a576200060e600082620005db565b600181019050620005f8565b5050565b601f82111562000669576200063381620004dd565b6200063e84620004f2565b810160208510156200064e578190505b620006666200065d85620004f2565b830182620005f7565b50505b505050565b600082821c905092915050565b60006200068e600019846008026200066e565b1980831691505092915050565b6000620006a983836200067b565b9150826002028217905092915050565b620006c4826200043f565b67ffffffffffffffff811115620006e057620006df6200044a565b5b620006ec8254620004a8565b620006f98282856200061e565b600060209050601f8311600181146200073157600084156200071c578287015190505b6200072885826200069b565b86555062000798565b601f1984166200074186620004dd565b60005b828110156200076b5784890151825560018201915060208501945060208101905062000744565b868310156200078b578489015162000787601f8916826200067b565b8355505b6001600288020188555050505b505050505050565b61599780620007b06000396000f3fe608060405234801561001057600080fd5b50600436106102065760003560e01c8063a16511e61161011a578063cdf8f8da116100ad578063dd28597f1161007c578063dd28597f1461060d578063dd62ed3e1461063d578063e41f23581461066d578063f00f809b1461069d578063f573da12146106cd57610206565b8063cdf8f8da14610589578063d69e0119146105a5578063d85d3d27146105d5578063da13313d146105f157610206565b8063ad259190116100e9578063ad259190146104db578063ba0ffef11461050b578063c635f2d314610529578063ccd72e811461055957610206565b8063a16511e614610457578063a3f70e5d14610473578063a9059cbb1461048f578063a9bc2fd8146104bf57610206565b80634d43f8351161019d578063793cf2181161016c578063793cf2181461039d57806383dce72a146103bb5780638f46c720146103eb578063987cac331461041b5780639a17d8c11461043957610206565b80634d43f8351461030557806353d516da1461032157806367e1d2ec1461035157806370a082311461036d57610206565b806324d7806c116101d957806324d7806c1461029357806331601d4a146102c357806342966c68146102df5780634cbd61aa146102fb57610206565b80630824791c1461020b578063095ea7b31461021557806318160ddd1461024557806323b872dd14610263575b600080fd5b6102136106e9565b005b61022f600480360381019061022a9190614a26565b610873565b60405161023c9190614a81565b60405180910390f35b61024d61088f565b60405161025a9190614aab565b60405180910390f35b61027d60048036038101906102789190614ac6565b610899565b60405161028a9190614a81565b60405180910390f35b6102ad60048036038101906102a89190614b19565b610938565b6040516102ba9190614a81565b60405180910390f35b6102dd60048036038101906102d89190614c8c565b610a12565b005b6102f960048036038101906102f49190614cd5565b610cf7565b005b610303610d06565b005b61031f600480360381019061031a9190614d2e565b610f0d565b005b61033b60048036038101906103369190614cd5565b61141f565b6040516103489190614e07565b60405180910390f35b61036b60048036038101906103669190614a26565b611571565b005b61038760048036038101906103829190614b19565b61182c565b6040516103949190614aab565b60405180910390f35b6103a5611875565b6040516103b29190614aab565b60405180910390f35b6103d560048036038101906103d09190614cd5565b611903565b6040516103e29190614e8a565b60405180910390f35b61040560048036038101906104009190614cd5565b611a55565b6040516104129190614aab565b60405180910390f35b610423611af8565b6040516104309190614aab565b60405180910390f35b610441611b86565b60405161044e9190614aab565b60405180910390f35b610471600480360381019061046c9190614a26565b611c14565b005b61048d60048036038101906104889190614d2e565b611f53565b005b6104a960048036038101906104a49190614a26565b6123c7565b6040516104b69190614a81565b60405180910390f35b6104d960048036038101906104d49190614cd5565b6124db565b005b6104f560048036038101906104f09190614cd5565b61269b565b6040516105029190614f9a565b60405180910390f35b61051361283f565b6040516105209190614aab565b60405180910390f35b610543600480360381019061053e9190614cd5565b6128cd565b6040516105509190614aab565b60405180910390f35b610573600480360381019061056e9190614cd5565b612970565b6040516105809190615024565b60405180910390f35b6105a3600480360381019061059e9190614d2e565b612ac2565b005b6105bf60048036038101906105ba9190614cd5565b612f50565b6040516105cc91906150a7565b60405180910390f35b6105ef60048036038101906105ea9190614c8c565b61306c565b005b61060b600480360381019061060691906150c2565b61337b565b005b61062760048036038101906106229190614cd5565b6135d4565b6040516106349190614aab565b60405180910390f35b6106576004803603810190610652919061511e565b613677565b6040516106649190614aab565b60405180910390f35b61068760048036038101906106829190614cd5565b6136fe565b60405161069491906151c6565b60405180910390f35b6106b760048036038101906106b29190614cd5565b613850565b6040516106c49190615257565b60405180910390f35b6106e760048036038101906106e29190615279565b6139f4565b005b601360003373ffffffffffffffffffffffffffffffffffffffff1673ffffffffffffffffffffffffffffffffffffffff16815260200190815260200160002060009054906101000a900460ff161561076d576040517fad69852600000000000000000000000000000000000000000000000000000000815260040160405180910390fd5b60005b6020548110156108705760008060009054906101000a900473ffffffffffffffffffffffffffffffffffffffff1673ffffffffffffffffffffffffffffffffffffffff16631b146ecf601760008581526020019081526020016000206040518263ffffffff1660e01b81526004016107e891906153c3565b6020604051808303816000875af1158015610807573d6000803e3d6000fd5b505050506040513d601f19601f8201168201806040525081019061082b91906153fa565b90508060166017600085815260200190815260200160002060405161085091906154b5565b908152602001604051809103902081905550508080600101915050610770565b50565b600080339050610884818585613ca9565b600191505092915050565b6000601854905090565b6000803390506108ae85826022548601613cbb565b600060225414610921576108fa8160046000602154815260200190815260200160002060009054906101000a900473ffffffffffffffffffffffffffffffffffffffff16602254613d4f565b602160008154809291906001019190505550601f54602154036109205760006021819055505b5b61092c858585613d4f565b60019150509392505050565b6000601360003373ffffffffffffffffffffffffffffffffffffffff1673ffffffffffffffffffffffffffffffffffffffff16815260200190815260200160002060009054906101000a900460ff16156109be576040517fad69852600000000000000000000000000000000000000000000000000000000815260040160405180910390fd5b600360008373ffffffffffffffffffffffffffffffffffffffff1673ffffffffffffffffffffffffffffffffffffffff16815260200190815260200160002060009054906101000a900460ff169050919050565b601360003373ffffffffffffffffffffffffffffffffffffffff1673ffffffffffffffffffffffffffffffffffffffff16815260200190815260200160002060009054906101000a900460ff1615610a96576040517fad69852600000000000000000000000000000000000000000000000000000000815260040160405180910390fd5b601481604051610aa691906154fd565b908152602001604051809103902060009054906101000a900460ff1615610af9576040517fafcd147f00000000000000000000000000000000000000000000000000000000815260040160405180910390fd5b600073ffffffffffffffffffffffffffffffffffffffff16601582604051610b2191906154fd565b908152602001604051809103902060009054906101000a900473ffffffffffffffffffffffffffffffffffffffff1673ffffffffffffffffffffffffffffffffffffffff1614610b9d576040517f3a81d6fc00000000000000000000000000000000000000000000000000000000815260040160405180910390fd5b33601582604051610bae91906154fd565b908152602001604051809103902060006101000a81548173ffffffffffffffffffffffffffffffffffffffff021916908373ffffffffffffffffffffffffffffffffffffffff160217905550806017600060205481526020019081526020016000209081610c1c91906156ab565b5060206000815480929190600101919050555060008060009054906101000a900473ffffffffffffffffffffffffffffffffffffffff1673ffffffffffffffffffffffffffffffffffffffff16631b146ecf836040518263ffffffff1660e01b8152600401610c8b91906157b6565b6020604051808303816000875af1158015610caa573d6000803e3d6000fd5b505050506040513d601f19601f82011682018060405250810190610cce91906153fa565b905080601683604051610ce191906154fd565b9081526020016040518091039020819055505050565b610d0333600083613e43565b50565b601360003373ffffffffffffffffffffffffffffffffffffffff1673ffffffffffffffffffffffffffffffffffffffff16815260200190815260200160002060009054906101000a900460ff1615610d8a576040517fad69852600000000000000000000000000000000000000000000000000000000815260040160405180910390fd5b6000805b602054811015610e895760008060009054906101000a900473ffffffffffffffffffffffffffffffffffffffff1673ffffffffffffffffffffffffffffffffffffffff1663c58343ef601660176000868152602001908152602001600020604051610df991906154b5565b9081526020016040518091039020546040518263ffffffff1660e01b8152600401610e249190614aab565b6060604051808303816000875af1158015610e43573d6000803e3d6000fd5b505050506040513d601f19601f82011682018060405250810190610e679190615841565b9050806040015183610e79919061589d565b9250508080600101915050610d8e565b50601854811015610ed1577f9c059596d01d852c29f0ac7e96c767201380785bfe760c293ebab95a4832da6b6000604051610ec49190614a81565b60405180910390a1610f0a565b7f9c059596d01d852c29f0ac7e96c767201380785bfe760c293ebab95a4832da6b6001604051610f019190614a81565b60405180910390a15b50565b600360003373ffffffffffffffffffffffffffffffffffffffff1673ffffffffffffffffffffffffffffffffffffffff16815260200190815260200160002060009054906101000a900460ff16610f90576040517f4755657900000000000000000000000000000000000000000000000000000000815260040160405180910390fd5b601360003373ffffffffffffffffffffffffffffffffffffffff1673ffffffffffffffffffffffffffffffffffffffff16815260200190815260200160002060009054906101000a900460ff1615611014576040517fad69852600000000000000000000000000000000000000000000000000000000815260040160405180910390fd5b601d54601c541015611052576040517fff7e6cf800000000000000000000000000000000000000000000000000000000815260040160405180910390fd5b6000810361123c5760006007600085815260200190815260200160002090508060050160003373ffffffffffffffffffffffffffffffffffffffff1673ffffffffffffffffffffffffffffffffffffffff16815260200190815260200160002060009054906101000a900460ff16156110f7576040517f1c24747300000000000000000000000000000000000000000000000000000000815260040160405180910390fd5b821561111657806002016000815480929190600101919050555061112b565b80600301600081548092919060010191905055505b60018160050160003373ffffffffffffffffffffffffffffffffffffffff1673ffffffffffffffffffffffffffffffffffffffff16815260200190815260200160002060006101000a81548160ff021916908315150217905550601e5481600201541061121d576001601360008360000160009054906101000a900473ffffffffffffffffffffffffffffffffffffffff1673ffffffffffffffffffffffffffffffffffffffff1673ffffffffffffffffffffffffffffffffffffffff16815260200190815260200160002060006101000a81548160ff02191690831515021790555060018160040181905550611236565b601e5481600301541061123557600281600401819055505b5b5061141a565b60006009600085815260200190815260200160002090508060050160003373ffffffffffffffffffffffffffffffffffffffff1673ffffffffffffffffffffffffffffffffffffffff16815260200190815260200160002060009054906101000a900460ff16156112d9576040517fc8518c6b00000000000000000000000000000000000000000000000000000000815260040160405180910390fd5b82156112f857806002016000815480929190600101919050555061130d565b80600301600081548092919060010191905055505b60018160050160003373ffffffffffffffffffffffffffffffffffffffff1673ffffffffffffffffffffffffffffffffffffffff16815260200190815260200160002060006101000a81548160ff021916908315150217905550601e548160020154106113ff576000601360008360000160009054906101000a900473ffffffffffffffffffffffffffffffffffffffff1673ffffffffffffffffffffffffffffffffffffffff1673ffffffffffffffffffffffffffffffffffffffff16815260200190815260200160002060006101000a81548160ff02191690831515021790555060018160040181905550611418565b601e5481600301541061141757600281600401819055505b5b505b505050565b611427614743565b601360003373ffffffffffffffffffffffffffffffffffffffff1673ffffffffffffffffffffffffffffffffffffffff16815260200190815260200160002060009054906101000a900460ff16156114ab576040517fad69852600000000000000000000000000000000000000000000000000000000815260040160405180910390fd5b60006009600084815260200190815260200160002090506040518060a001604052808260000160009054906101000a900473ffffffffffffffffffffffffffffffffffffffff1673ffffffffffffffffffffffffffffffffffffffff1681526020018260010160009054906101000a900473ffffffffffffffffffffffffffffffffffffffff1673ffffffffffffffffffffffffffffffffffffffff16815260200182600201548152602001826003015481526020018260040154815250915050919050565b600360003373ffffffffffffffffffffffffffffffffffffffff1673ffffffffffffffffffffffffffffffffffffffff16815260200190815260200160002060009054906101000a900460ff166115f4576040517f4755657900000000000000000000000000000000000000000000000000000000815260040160405180910390fd5b601360003373ffffffffffffffffffffffffffffffffffffffff1673ffffffffffffffffffffffffffffffffffffffff16815260200190815260200160002060009054906101000a900460ff1615611678576040517fad69852600000000000000000000000000000000000000000000000000000000815260040160405180910390fd5b601d54601c5410156116b6576040517fff7e6cf800000000000000000000000000000000000000000000000000000000815260040160405180910390fd5b600081036117755760006007600060085481526020019081526020016000209050828160000160006101000a81548173ffffffffffffffffffffffffffffffffffffffff021916908373ffffffffffffffffffffffffffffffffffffffff160217905550338160010160006101000a81548173ffffffffffffffffffffffffffffffffffffffff021916908373ffffffffffffffffffffffffffffffffffffffff16021790555060086000815480929190600101919050555050611828565b600060096000600a5481526020019081526020016000209050828160000160006101000a81548173ffffffffffffffffffffffffffffffffffffffff021916908373ffffffffffffffffffffffffffffffffffffffff160217905550338160010160006101000a81548173ffffffffffffffffffffffffffffffffffffffff021916908373ffffffffffffffffffffffffffffffffffffffff160217905550600a60008154809291906001019190505550505b5050565b6000600160008373ffffffffffffffffffffffffffffffffffffffff1673ffffffffffffffffffffffffffffffffffffffff168152602001908152602001600020549050919050565b6000601360003373ffffffffffffffffffffffffffffffffffffffff1673ffffffffffffffffffffffffffffffffffffffff16815260200190815260200160002060009054906101000a900460ff16156118fb576040517fad69852600000000000000000000000000000000000000000000000000000000815260040160405180910390fd5b601c54905090565b61190b61479e565b601360003373ffffffffffffffffffffffffffffffffffffffff1673ffffffffffffffffffffffffffffffffffffffff16815260200190815260200160002060009054906101000a900460ff161561198f576040517fad69852600000000000000000000000000000000000000000000000000000000815260040160405180910390fd5b60006007600084815260200190815260200160002090506040518060a001604052808260000160009054906101000a900473ffffffffffffffffffffffffffffffffffffffff1673ffffffffffffffffffffffffffffffffffffffff1681526020018260010160009054906101000a900473ffffffffffffffffffffffffffffffffffffffff1673ffffffffffffffffffffffffffffffffffffffff16815260200182600201548152602001826003015481526020018260040154815250915050919050565b6000601360003373ffffffffffffffffffffffffffffffffffffffff1673ffffffffffffffffffffffffffffffffffffffff16815260200190815260200160002060009054906101000a900460ff1615611adb576040517fad69852600000000000000000000000000000000000000000000000000000000815260040160405180910390fd5b60008203611aed57600c549050611af3565b600e5490505b919050565b6000601360003373ffffffffffffffffffffffffffffffffffffffff1673ffffffffffffffffffffffffffffffffffffffff16815260200190815260200160002060009054906101000a900460ff1615611b7e576040517fad69852600000000000000000000000000000000000000000000000000000000815260040160405180910390fd5b601e54905090565b6000601360003373ffffffffffffffffffffffffffffffffffffffff1673ffffffffffffffffffffffffffffffffffffffff16815260200190815260200160002060009054906101000a900460ff1615611c0c576040517fad69852600000000000000000000000000000000000000000000000000000000815260040160405180910390fd5b602254905090565b600360003373ffffffffffffffffffffffffffffffffffffffff1673ffffffffffffffffffffffffffffffffffffffff16815260200190815260200160002060009054906101000a900460ff16611c97576040517f4755657900000000000000000000000000000000000000000000000000000000815260040160405180910390fd5b601360003373ffffffffffffffffffffffffffffffffffffffff1673ffffffffffffffffffffffffffffffffffffffff16815260200190815260200160002060009054906101000a900460ff1615611d1b576040517fad69852600000000000000000000000000000000000000000000000000000000815260040160405180910390fd5b601d54601c541015611d59576040517fff7e6cf800000000000000000000000000000000000000000000000000000000815260040160405180910390fd5b60008103611e9c57600360008373ffffffffffffffffffffffffffffffffffffffff1673ffffffffffffffffffffffffffffffffffffffff16815260200190815260200160002060009054906101000a900460ff1615611de5576040517f2478fb0400000000000000000000000000000000000000000000000000000000815260040160405180910390fd5b6000600f600060105481526020019081526020016000209050828160000160006101000a81548173ffffffffffffffffffffffffffffffffffffffff021916908373ffffffffffffffffffffffffffffffffffffffff160217905550338160010160006101000a81548173ffffffffffffffffffffffffffffffffffffffff021916908373ffffffffffffffffffffffffffffffffffffffff16021790555060106000815480929190600101919050555050611f4f565b60006011600060125481526020019081526020016000209050828160000160006101000a81548173ffffffffffffffffffffffffffffffffffffffff021916908373ffffffffffffffffffffffffffffffffffffffff160217905550338160010160006101000a81548173ffffffffffffffffffffffffffffffffffffffff021916908373ffffffffffffffffffffffffffffffffffffffff160217905550601260008154809291906001019190505550505b5050565b600360003373ffffffffffffffffffffffffffffffffffffffff1673ffffffffffffffffffffffffffffffffffffffff16815260200190815260200160002060009054906101000a900460ff16611fd6576040517f4755657900000000000000000000000000000000000000000000000000000000815260040160405180910390fd5b601360003373ffffffffffffffffffffffffffffffffffffffff1673ffffffffffffffffffffffffffffffffffffffff16815260200190815260200160002060009054906101000a900460ff161561205a576040517fad69852600000000000000000000000000000000000000000000000000000000815260040160405180910390fd5b601d54601c541015612098576040517fff7e6cf800000000000000000000000000000000000000000000000000000000815260040160405180910390fd5b60008103612233576000600f600085815260200190815260200160002090508060050160003373ffffffffffffffffffffffffffffffffffffffff1673ffffffffffffffffffffffffffffffffffffffff16815260200190815260200160002060009054906101000a900460ff161561213d576040517fea35ba7900000000000000000000000000000000000000000000000000000000815260040160405180910390fd5b821561215c578060020160008154809291906001019190505550612171565b80600301600081548092919060010191905055505b60018160050160003373ffffffffffffffffffffffffffffffffffffffff1673ffffffffffffffffffffffffffffffffffffffff16815260200190815260200160002060006101000a81548160ff021916908315150217905550601e54816002015410612214576122058160000160009054906101000a900473ffffffffffffffffffffffffffffffffffffffff1661406b565b6001816004018190555061222d565b601e5481600301541061222c57600281600401819055505b5b506123c2565b60006011600085815260200190815260200160002090508060050160003373ffffffffffffffffffffffffffffffffffffffff1673ffffffffffffffffffffffffffffffffffffffff16815260200190815260200160002060009054906101000a900460ff16156122d0576040517f7fae296600000000000000000000000000000000000000000000000000000000815260040160405180910390fd5b82156122ef578060020160008154809291906001019190505550612304565b80600301600081548092919060010191905055505b60018160050160003373ffffffffffffffffffffffffffffffffffffffff1673ffffffffffffffffffffffffffffffffffffffff16815260200190815260200160002060006101000a81548160ff021916908315150217905550601e548160020154106123a7576123988160000160009054906101000a900473ffffffffffffffffffffffffffffffffffffffff166142ff565b600181600401819055506123c0565b601e548160030154106123bf57600281600401819055505b5b505b505050565b6000601360003373ffffffffffffffffffffffffffffffffffffffff1673ffffffffffffffffffffffffffffffffffffffff16815260200190815260200160002060009054906101000a900460ff161561244d576040517fad69852600000000000000000000000000000000000000000000000000000000815260040160405180910390fd5b60003390506000602254146124c55761249e8160046000602154815260200190815260200160002060009054906101000a900473ffffffffffffffffffffffffffffffffffffffff16602254613d4f565b602160008154809291906001019190505550601f54602154036124c45760006021819055505b5b6124d0818585613d4f565b600191505092915050565b600360003373ffffffffffffffffffffffffffffffffffffffff1673ffffffffffffffffffffffffffffffffffffffff16815260200190815260200160002060009054906101000a900460ff1661255e576040517f4755657900000000000000000000000000000000000000000000000000000000815260040160405180910390fd5b601360003373ffffffffffffffffffffffffffffffffffffffff1673ffffffffffffffffffffffffffffffffffffffff16815260200190815260200160002060009054906101000a900460ff16156125e2576040517fad69852600000000000000000000000000000000000000000000000000000000815260040160405180910390fd5b601d54601c541015612620576040517fff7e6cf800000000000000000000000000000000000000000000000000000000815260040160405180910390fd5b60006005600060065481526020019081526020016000209050818160000181905550338160010160006101000a81548173ffffffffffffffffffffffffffffffffffffffff021916908373ffffffffffffffffffffffffffffffffffffffff1602179055506006600081548092919060010191905055505050565b6126a36147f9565b601360003373ffffffffffffffffffffffffffffffffffffffff1673ffffffffffffffffffffffffffffffffffffffff16815260200190815260200160002060009054906101000a900460ff1615612727576040517fad69852600000000000000000000000000000000000000000000000000000000815260040160405180910390fd5b6000600b600084815260200190815260200160002090506040518060a00160405280826000018054612758906152e8565b80601f0160208091040260200160405190810160405280929190818152602001828054612784906152e8565b80156127d15780601f106127a6576101008083540402835291602001916127d1565b820191906000526020600020905b8154815290600101906020018083116127b457829003601f168201915b505050505081526020018260010160009054906101000a900473ffffffffffffffffffffffffffffffffffffffff1673ffffffffffffffffffffffffffffffffffffffff16815260200182600201548152602001826003015481526020018260040154815250915050919050565b6000601360003373ffffffffffffffffffffffffffffffffffffffff1673ffffffffffffffffffffffffffffffffffffffff16815260200190815260200160002060009054906101000a900460ff16156128c5576040517fad69852600000000000000000000000000000000000000000000000000000000815260040160405180910390fd5b600654905090565b6000601360003373ffffffffffffffffffffffffffffffffffffffff1673ffffffffffffffffffffffffffffffffffffffff16815260200190815260200160002060009054906101000a900460ff1615612953576040517fad69852600000000000000000000000000000000000000000000000000000000815260040160405180910390fd5b6000820361296557601054905061296b565b60125490505b919050565b61297861483e565b601360003373ffffffffffffffffffffffffffffffffffffffff1673ffffffffffffffffffffffffffffffffffffffff16815260200190815260200160002060009054906101000a900460ff16156129fc576040517fad69852600000000000000000000000000000000000000000000000000000000815260040160405180910390fd5b60006011600084815260200190815260200160002090506040518060a001604052808260000160009054906101000a900473ffffffffffffffffffffffffffffffffffffffff1673ffffffffffffffffffffffffffffffffffffffff1681526020018260010160009054906101000a900473ffffffffffffffffffffffffffffffffffffffff1673ffffffffffffffffffffffffffffffffffffffff16815260200182600201548152602001826003015481526020018260040154815250915050919050565b600360003373ffffffffffffffffffffffffffffffffffffffff1673ffffffffffffffffffffffffffffffffffffffff16815260200190815260200160002060009054906101000a900460ff16612b45576040517f4755657900000000000000000000000000000000000000000000000000000000815260040160405180910390fd5b601360003373ffffffffffffffffffffffffffffffffffffffff1673ffffffffffffffffffffffffffffffffffffffff16815260200190815260200160002060009054906101000a900460ff1615612bc9576040517fad69852600000000000000000000000000000000000000000000000000000000815260040160405180910390fd5b601d54601c541015612c07576040517fff7e6cf800000000000000000000000000000000000000000000000000000000815260040160405180910390fd5b60008103612daf576000600b600085815260200190815260200160002090508060050160003373ffffffffffffffffffffffffffffffffffffffff1673ffffffffffffffffffffffffffffffffffffffff16815260200190815260200160002060009054906101000a900460ff1615612cac576040517fa9590e5300000000000000000000000000000000000000000000000000000000815260040160405180910390fd5b8215612ccb578060020160008154809291906001019190505550612ce0565b80600301600081548092919060010191905055505b60018160050160003373ffffffffffffffffffffffffffffffffffffffff1673ffffffffffffffffffffffffffffffffffffffff16815260200190815260200160002060006101000a81548160ff021916908315150217905550601e54816002015410612d90576001601482600001604051612d5c91906154b5565b908152602001604051809103902060006101000a81548160ff02191690831515021790555060018160040181905550612da9565b601e54816003015410612da857600281600401819055505b5b50612f4b565b6000600d600085815260200190815260200160002090508060050160003373ffffffffffffffffffffffffffffffffffffffff1673ffffffffffffffffffffffffffffffffffffffff16815260200190815260200160002060009054906101000a900460ff1615612e4c576040517f7e6c0ae200000000000000000000000000000000000000000000000000000000815260040160405180910390fd5b8215612e6b578060020160008154809291906001019190505550612e80565b80600301600081548092919060010191905055505b60018160050160003373ffffffffffffffffffffffffffffffffffffffff1673ffffffffffffffffffffffffffffffffffffffff16815260200190815260200160002060006101000a81548160ff021916908315150217905550601e54816002015410612f30576000601482600001604051612efc91906154b5565b908152602001604051809103902060006101000a81548160ff02191690831515021790555060018160040181905550612f49565b601e54816003015410612f4857600281600401819055505b5b505b505050565b612f58614899565b601360003373ffffffffffffffffffffffffffffffffffffffff1673ffffffffffffffffffffffffffffffffffffffff16815260200190815260200160002060009054906101000a900460ff1615612fdc576040517fad69852600000000000000000000000000000000000000000000000000000000815260040160405180910390fd5b60006005600084815260200190815260200160002090506040518060a00160405280826000015481526020018260010160009054906101000a900473ffffffffffffffffffffffffffffffffffffffff1673ffffffffffffffffffffffffffffffffffffffff16815260200182600201548152602001826003015481526020018260040154815250915050919050565b60148160405161307c91906154fd565b908152602001604051809103902060009054906101000a900460ff16156130cf576040517fafcd147f00000000000000000000000000000000000000000000000000000000815260040160405180910390fd5b600073ffffffffffffffffffffffffffffffffffffffff166015826040516130f791906154fd565b908152602001604051809103902060009054906101000a900473ffffffffffffffffffffffffffffffffffffffff1673ffffffffffffffffffffffffffffffffffffffff1603613173576040517faba4733900000000000000000000000000000000000000000000000000000000815260040160405180910390fd5b3373ffffffffffffffffffffffffffffffffffffffff1660158260405161319a91906154fd565b908152602001604051809103902060009054906101000a900473ffffffffffffffffffffffffffffffffffffffff1673ffffffffffffffffffffffffffffffffffffffff1614613216576040517f42bb320900000000000000000000000000000000000000000000000000000000815260040160405180910390fd5b600060168260405161322891906154fd565b908152602001604051809103902054905060008060009054906101000a900473ffffffffffffffffffffffffffffffffffffffff1673ffffffffffffffffffffffffffffffffffffffff1663c58343ef836040518263ffffffff1660e01b81526004016132959190614aab565b6060604051808303816000875af11580156132b4573d6000803e3d6000fd5b505050506040513d601f19601f820116820180604052508101906132d89190615841565b90506000816020015114806132f1575060028160200151145b15613328576040517f48a6529400000000000000000000000000000000000000000000000000000000815260040160405180910390fd5b613376600060158560405161333d91906154fd565b908152602001604051809103902060009054906101000a900473ffffffffffffffffffffffffffffffffffffffff168360400151613e43565b505050565b600360003373ffffffffffffffffffffffffffffffffffffffff1673ffffffffffffffffffffffffffffffffffffffff16815260200190815260200160002060009054906101000a900460ff166133fe576040517f4755657900000000000000000000000000000000000000000000000000000000815260040160405180910390fd5b601360003373ffffffffffffffffffffffffffffffffffffffff1673ffffffffffffffffffffffffffffffffffffffff16815260200190815260200160002060009054906101000a900460ff1615613482576040517fad69852600000000000000000000000000000000000000000000000000000000815260040160405180910390fd5b601d54601c5410156134c0576040517fff7e6cf800000000000000000000000000000000000000000000000000000000815260040160405180910390fd5b6000810361354e576000600b6000600c5481526020019081526020016000209050828160000190816134f291906156ab565b50338160010160006101000a81548173ffffffffffffffffffffffffffffffffffffffff021916908373ffffffffffffffffffffffffffffffffffffffff160217905550600c60008154809291906001019190505550506135d0565b6000600d6000600e54815260200190815260200160002090508281600001908161357891906156ab565b50338160010160006101000a81548173ffffffffffffffffffffffffffffffffffffffff021916908373ffffffffffffffffffffffffffffffffffffffff160217905550600e60008154809291906001019190505550505b5050565b6000601360003373ffffffffffffffffffffffffffffffffffffffff1673ffffffffffffffffffffffffffffffffffffffff16815260200190815260200160002060009054906101000a900460ff161561365a576040517fad69852600000000000000000000000000000000000000000000000000000000815260040160405180910390fd5b6000820361366c576008549050613672565b600a5490505b919050565b6000600260008473ffffffffffffffffffffffffffffffffffffffff1673ffffffffffffffffffffffffffffffffffffffff16815260200190815260200160002060008373ffffffffffffffffffffffffffffffffffffffff1673ffffffffffffffffffffffffffffffffffffffff16815260200190815260200160002054905092915050565b6137066148de565b601360003373ffffffffffffffffffffffffffffffffffffffff1673ffffffffffffffffffffffffffffffffffffffff16815260200190815260200160002060009054906101000a900460ff161561378a576040517fad69852600000000000000000000000000000000000000000000000000000000815260040160405180910390fd5b6000600f600084815260200190815260200160002090506040518060a001604052808260000160009054906101000a900473ffffffffffffffffffffffffffffffffffffffff1673ffffffffffffffffffffffffffffffffffffffff1681526020018260010160009054906101000a900473ffffffffffffffffffffffffffffffffffffffff1673ffffffffffffffffffffffffffffffffffffffff16815260200182600201548152602001826003015481526020018260040154815250915050919050565b613858614939565b601360003373ffffffffffffffffffffffffffffffffffffffff1673ffffffffffffffffffffffffffffffffffffffff16815260200190815260200160002060009054906101000a900460ff16156138dc576040517fad69852600000000000000000000000000000000000000000000000000000000815260040160405180910390fd5b6000600d600084815260200190815260200160002090506040518060a0016040528082600001805461390d906152e8565b80601f0160208091040260200160405190810160405280929190818152602001828054613939906152e8565b80156139865780601f1061395b57610100808354040283529160200191613986565b820191906000526020600020905b81548152906001019060200180831161396957829003601f168201915b505050505081526020018260010160009054906101000a900473ffffffffffffffffffffffffffffffffffffffff1673ffffffffffffffffffffffffffffffffffffffff16815260200182600201548152602001826003015481526020018260040154815250915050919050565b600360003373ffffffffffffffffffffffffffffffffffffffff1673ffffffffffffffffffffffffffffffffffffffff16815260200190815260200160002060009054906101000a900460ff16613a77576040517f4755657900000000000000000000000000000000000000000000000000000000815260040160405180910390fd5b601360003373ffffffffffffffffffffffffffffffffffffffff1673ffffffffffffffffffffffffffffffffffffffff16815260200190815260200160002060009054906101000a900460ff1615613afb576040517fad69852600000000000000000000000000000000000000000000000000000000815260040160405180910390fd5b601d54601c541015613b39576040517fff7e6cf800000000000000000000000000000000000000000000000000000000815260040160405180910390fd5b60006005600084815260200190815260200160002090508060050160003373ffffffffffffffffffffffffffffffffffffffff1673ffffffffffffffffffffffffffffffffffffffff16815260200190815260200160002060009054906101000a900460ff1615613bd6576040517f1c4be5a700000000000000000000000000000000000000000000000000000000815260040160405180910390fd5b8115613bf5578060020160008154809291906001019190505550613c0a565b80600301600081548092919060010191905055505b60018160050160003373ffffffffffffffffffffffffffffffffffffffff1673ffffffffffffffffffffffffffffffffffffffff16815260200190815260200160002060006101000a81548160ff021916908315150217905550601e54816002015410613c8b57806000015460228190555060018160040181905550613ca4565b601e54816003015410613ca357600281600401819055505b5b505050565b613cb6838383600161456c565b505050565b6000613cc78484613677565b90507fffffffffffffffffffffffffffffffffffffffffffffffffffffffffffffffff8114613d495781811015613d39578281836040517ffb8f41b2000000000000000000000000000000000000000000000000000000008152600401613d30939291906158e0565b60405180910390fd5b613d488484848403600061456c565b5b50505050565b600073ffffffffffffffffffffffffffffffffffffffff168373ffffffffffffffffffffffffffffffffffffffff1603613dc15760006040517f96c6fd1e000000000000000000000000000000000000000000000000000000008152600401613db89190615917565b60405180910390fd5b600073ffffffffffffffffffffffffffffffffffffffff168273ffffffffffffffffffffffffffffffffffffffff1603613e335760006040517fec442f05000000000000000000000000000000000000000000000000000000008152600401613e2a9190615917565b60405180910390fd5b613e3e838383613e43565b505050565b600073ffffffffffffffffffffffffffffffffffffffff168373ffffffffffffffffffffffffffffffffffffffff1603613e95578060186000828254613e89919061589d565b92505081905550613f6a565b6000600160008573ffffffffffffffffffffffffffffffffffffffff1673ffffffffffffffffffffffffffffffffffffffff16815260200190815260200160002054905081811015613f22578381836040517fe450d38c000000000000000000000000000000000000000000000000000000008152600401613f19939291906158e0565b60405180910390fd5b818103600160008673ffffffffffffffffffffffffffffffffffffffff1673ffffffffffffffffffffffffffffffffffffffff16815260200190815260200160002081905550505b600073ffffffffffffffffffffffffffffffffffffffff168273ffffffffffffffffffffffffffffffffffffffff1603613fb35780601860008282540392505081905550614001565b80600160008473ffffffffffffffffffffffffffffffffffffffff1673ffffffffffffffffffffffffffffffffffffffff168152602001908152602001600020600082825401925050819055505b8173ffffffffffffffffffffffffffffffffffffffff168373ffffffffffffffffffffffffffffffffffffffff167fddf252ad1be2c89b69c2b068fc378daa952ba7f163c4a11628f55a4df523b3ef8360405161405e9190614aab565b60405180910390a3505050565b600360003373ffffffffffffffffffffffffffffffffffffffff1673ffffffffffffffffffffffffffffffffffffffff16815260200190815260200160002060009054906101000a900460ff166140ee576040517f4755657900000000000000000000000000000000000000000000000000000000815260040160405180910390fd5b601360003373ffffffffffffffffffffffffffffffffffffffff1673ffffffffffffffffffffffffffffffffffffffff16815260200190815260200160002060009054906101000a900460ff1615614172576040517fad69852600000000000000000000000000000000000000000000000000000000815260040160405180910390fd5b600360008273ffffffffffffffffffffffffffffffffffffffff1673ffffffffffffffffffffffffffffffffffffffff16815260200190815260200160002060009054906101000a900460ff16156141f6576040517f2478fb0400000000000000000000000000000000000000000000000000000000815260040160405180910390fd5b6001600360008373ffffffffffffffffffffffffffffffffffffffff1673ffffffffffffffffffffffffffffffffffffffff16815260200190815260200160002060006101000a81548160ff0219169083151502179055508060046000601f54815260200190815260200160002060006101000a81548173ffffffffffffffffffffffffffffffffffffffff021916908373ffffffffffffffffffffffffffffffffffffffff160217905550601c60008154809291906001019190505550601f60008154809291906001019190505550601d54601c54116142de576002601e819055506142fc565b60016002601c54816142f3576142f2615932565b5b0401601e819055505b50565b600360003373ffffffffffffffffffffffffffffffffffffffff1673ffffffffffffffffffffffffffffffffffffffff16815260200190815260200160002060009054906101000a900460ff16614382576040517f4755657900000000000000000000000000000000000000000000000000000000815260040160405180910390fd5b601360003373ffffffffffffffffffffffffffffffffffffffff1673ffffffffffffffffffffffffffffffffffffffff16815260200190815260200160002060009054906101000a900460ff1615614406576040517fad69852600000000000000000000000000000000000000000000000000000000815260040160405180910390fd5b601d54601c541015614444576040517fff7e6cf800000000000000000000000000000000000000000000000000000000815260040160405180910390fd5b600360008273ffffffffffffffffffffffffffffffffffffffff1673ffffffffffffffffffffffffffffffffffffffff16815260200190815260200160002060009054906101000a900460ff166144c7576040517f920432b400000000000000000000000000000000000000000000000000000000815260040160405180910390fd5b6000600360008373ffffffffffffffffffffffffffffffffffffffff1673ffffffffffffffffffffffffffffffffffffffff16815260200190815260200160002060006101000a81548160ff021916908315150217905550601c6000815480929190600190039190505550601d54601c54101561454b576002601e81905550614569565b60016002601c54816145605761455f615932565b5b0401601e819055505b50565b600073ffffffffffffffffffffffffffffffffffffffff168473ffffffffffffffffffffffffffffffffffffffff16036145de5760006040517fe602df050000000000000000000000000000000000000000000000000000000081526004016145d59190615917565b60405180910390fd5b600073ffffffffffffffffffffffffffffffffffffffff168373ffffffffffffffffffffffffffffffffffffffff16036146505760006040517f94280d620000000000000000000000000000000000000000000000000000000081526004016146479190615917565b60405180910390fd5b81600260008673ffffffffffffffffffffffffffffffffffffffff1673ffffffffffffffffffffffffffffffffffffffff16815260200190815260200160002060008573ffffffffffffffffffffffffffffffffffffffff1673ffffffffffffffffffffffffffffffffffffffff16815260200190815260200160002081905550801561473d578273ffffffffffffffffffffffffffffffffffffffff168473ffffffffffffffffffffffffffffffffffffffff167f8c5be1e5ebec7d5bd14f71427d1e84f3dd0314c0f7b2291e5b200ac8c7c3b925846040516147349190614aab565b60405180910390a35b50505050565b6040518060a00160405280600073ffffffffffffffffffffffffffffffffffffffff168152602001600073ffffffffffffffffffffffffffffffffffffffff1681526020016000815260200160008152602001600081525090565b6040518060a00160405280600073ffffffffffffffffffffffffffffffffffffffff168152602001600073ffffffffffffffffffffffffffffffffffffffff1681526020016000815260200160008152602001600081525090565b6040518060a0016040528060608152602001600073ffffffffffffffffffffffffffffffffffffffff1681526020016000815260200160008152602001600081525090565b6040518060a00160405280600073ffffffffffffffffffffffffffffffffffffffff168152602001600073ffffffffffffffffffffffffffffffffffffffff1681526020016000815260200160008152602001600081525090565b6040518060a0016040528060008152602001600073ffffffffffffffffffffffffffffffffffffffff1681526020016000815260200160008152602001600081525090565b6040518060a00160405280600073ffffffffffffffffffffffffffffffffffffffff168152602001600073ffffffffffffffffffffffffffffffffffffffff1681526020016000815260200160008152602001600081525090565b6040518060a0016040528060608152602001600073ffffffffffffffffffffffffffffffffffffffff1681526020016000815260200160008152602001600081525090565b6000604051905090565b600080fd5b600080fd5b600073ffffffffffffffffffffffffffffffffffffffff82169050919050565b60006149bd82614992565b9050919050565b6149cd816149b2565b81146149d857600080fd5b50565b6000813590506149ea816149c4565b92915050565b6000819050919050565b614a03816149f0565b8114614a0e57600080fd5b50565b600081359050614a20816149fa565b92915050565b60008060408385031215614a3d57614a3c614988565b5b6000614a4b858286016149db565b9250506020614a5c85828601614a11565b9150509250929050565b60008115159050919050565b614a7b81614a66565b82525050565b6000602082019050614a966000830184614a72565b92915050565b614aa5816149f0565b82525050565b6000602082019050614ac06000830184614a9c565b92915050565b600080600060608486031215614adf57614ade614988565b5b6000614aed868287016149db565b9350506020614afe868287016149db565b9250506040614b0f86828701614a11565b9150509250925092565b600060208284031215614b2f57614b2e614988565b5b6000614b3d848285016149db565b91505092915050565b600080fd5b600080fd5b6000601f19601f8301169050919050565b7f4e487b7100000000000000000000000000000000000000000000000000000000600052604160045260246000fd5b614b9982614b50565b810181811067ffffffffffffffff82111715614bb857614bb7614b61565b5b80604052505050565b6000614bcb61497e565b9050614bd78282614b90565b919050565b600067ffffffffffffffff821115614bf757614bf6614b61565b5b614c0082614b50565b9050602081019050919050565b82818337600083830152505050565b6000614c2f614c2a84614bdc565b614bc1565b905082815260208101848484011115614c4b57614c4a614b4b565b5b614c56848285614c0d565b509392505050565b600082601f830112614c7357614c72614b46565b5b8135614c83848260208601614c1c565b91505092915050565b600060208284031215614ca257614ca1614988565b5b600082013567ffffffffffffffff811115614cc057614cbf61498d565b5b614ccc84828501614c5e565b91505092915050565b600060208284031215614ceb57614cea614988565b5b6000614cf984828501614a11565b91505092915050565b614d0b81614a66565b8114614d1657600080fd5b50565b600081359050614d2881614d02565b92915050565b600080600060608486031215614d4757614d46614988565b5b6000614d5586828701614a11565b9350506020614d6686828701614d19565b9250506040614d7786828701614a11565b9150509250925092565b614d8a816149b2565b82525050565b614d99816149f0565b82525050565b60a082016000820151614db56000850182614d81565b506020820151614dc86020850182614d81565b506040820151614ddb6040850182614d90565b506060820151614dee6060850182614d90565b506080820151614e016080850182614d90565b50505050565b600060a082019050614e1c6000830184614d9f565b92915050565b60a082016000820151614e386000850182614d81565b506020820151614e4b6020850182614d81565b506040820151614e5e6040850182614d90565b506060820151614e716060850182614d90565b506080820151614e846080850182614d90565b50505050565b600060a082019050614e9f6000830184614e22565b92915050565b600081519050919050565b600082825260208201905092915050565b60005b83811015614edf578082015181840152602081019050614ec4565b60008484015250505050565b6000614ef682614ea5565b614f008185614eb0565b9350614f10818560208601614ec1565b614f1981614b50565b840191505092915050565b600060a0830160008301518482036000860152614f418282614eeb565b9150506020830151614f566020860182614d81565b506040830151614f696040860182614d90565b506060830151614f7c6060860182614d90565b506080830151614f8f6080860182614d90565b508091505092915050565b60006020820190508181036000830152614fb48184614f24565b905092915050565b60a082016000820151614fd26000850182614d81565b506020820151614fe56020850182614d81565b506040820151614ff86040850182614d90565b50606082015161500b6060850182614d90565b50608082015161501e6080850182614d90565b50505050565b600060a0820190506150396000830184614fbc565b92915050565b60a0820160008201516150556000850182614d90565b5060208201516150686020850182614d81565b50604082015161507b6040850182614d90565b50606082015161508e6060850182614d90565b5060808201516150a16080850182614d90565b50505050565b600060a0820190506150bc600083018461503f565b92915050565b600080604083850312156150d9576150d8614988565b5b600083013567ffffffffffffffff8111156150f7576150f661498d565b5b61510385828601614c5e565b925050602061511485828601614a11565b9150509250929050565b6000806040838503121561513557615134614988565b5b6000615143858286016149db565b9250506020615154858286016149db565b9150509250929050565b60a0820160008201516151746000850182614d81565b5060208201516151876020850182614d81565b50604082015161519a6040850182614d90565b5060608201516151ad6060850182614d90565b5060808201516151c06080850182614d90565b50505050565b600060a0820190506151db600083018461515e565b92915050565b600060a08301600083015184820360008601526151fe8282614eeb565b91505060208301516152136020860182614d81565b5060408301516152266040860182614d90565b5060608301516152396060860182614d90565b50608083015161524c6080860182614d90565b508091505092915050565b6000602082019050818103600083015261527181846151e1565b905092915050565b600080604083850312156152905761528f614988565b5b600061529e85828601614a11565b92505060206152af85828601614d19565b9150509250929050565b7f4e487b7100000000000000000000000000000000000000000000000000000000600052602260045260246000fd5b6000600282049050600182168061530057607f821691505b602082108103615313576153126152b9565b5b50919050565b600082825260208201905092915050565b60008190508160005260206000209050919050565b6000815461534c816152e8565b6153568186615319565b945060018216600081146153715760018114615387576153ba565b60ff1983168652811515602002860193506153ba565b6153908561532a565b60005b838110156153b257815481890152600182019150602081019050615393565b808801955050505b50505092915050565b600060208201905081810360008301526153dd818461533f565b905092915050565b6000815190506153f4816149fa565b92915050565b6000602082840312156154105761540f614988565b5b600061541e848285016153e5565b91505092915050565b600081905092915050565b6000815461543f816152e8565b6154498186615427565b945060018216600081146154645760018114615479576154ac565b60ff19831686528115158202860193506154ac565b6154828561532a565b60005b838110156154a457815481890152600182019150602081019050615485565b838801955050505b50505092915050565b60006154c18284615432565b915081905092915050565b60006154d782614ea5565b6154e18185615427565b93506154f1818560208601614ec1565b80840191505092915050565b600061550982846154cc565b915081905092915050565b60006020601f8301049050919050565b600082821b905092915050565b6000600883026155617fffffffffffffffffffffffffffffffffffffffffffffffffffffffffffffffff82615524565b61556b8683615524565b95508019841693508086168417925050509392505050565b6000819050919050565b60006155a86155a361559e846149f0565b615583565b6149f0565b9050919050565b6000819050919050565b6155c28361558d565b6155d66155ce826155af565b848454615531565b825550505050565b600090565b6155eb6155de565b6155f68184846155b9565b505050565b5b8181101561561a5761560f6000826155e3565b6001810190506155fc565b5050565b601f82111561565f576156308161532a565b61563984615514565b81016020851015615648578190505b61565c61565485615514565b8301826155fb565b50505b505050565b600082821c905092915050565b600061568260001984600802615664565b1980831691505092915050565b600061569b8383615671565b9150826002028217905092915050565b6156b482614ea5565b67ffffffffffffffff8111156156cd576156cc614b61565b5b6156d782546152e8565b6156e282828561561e565b600060209050601f8311600181146157155760008415615703578287015190505b61570d858261568f565b865550615775565b601f1984166157238661532a565b60005b8281101561574b57848901518255600182019150602085019450602081019050615726565b868310156157685784890151615764601f891682615671565b8355505b6001600288020188555050505b505050505050565b600061578882614ea5565b6157928185615319565b93506157a2818560208601614ec1565b6157ab81614b50565b840191505092915050565b600060208201905081810360008301526157d0818461577d565b905092915050565b600080fd5b6000606082840312156157f3576157f26157d8565b5b6157fd6060614bc1565b9050600061580d848285016153e5565b6000830152506020615821848285016153e5565b6020830152506040615835848285016153e5565b60408301525092915050565b60006060828403121561585757615856614988565b5b6000615865848285016157dd565b91505092915050565b7f4e487b7100000000000000000000000000000000000000000000000000000000600052601160045260246000fd5b60006158a8826149f0565b91506158b3836149f0565b92508282019050808211156158cb576158ca61586e565b5b92915050565b6158da816149b2565b82525050565b60006060820190506158f560008301866158d1565b6159026020830185614a9c565b61590f6040830184614a9c565b949350505050565b600060208201905061592c60008301846158d1565b92915050565b7f4e487b7100000000000000000000000000000000000000000000000000000000600052601260045260246000fdfea26469706673582212201333bc598d5428da02cee4eafca832b640ad390a049434cfb29020fc85c6b53f64736f6c63430008180033",
  "linkReferences": {},
  "deployedLinkReferences": {}
}