{
  "_format": "hh-sol-artifact-1",
  "contractName": "JPYN",
  "sourceName": "contracts/JPYN.sol",
  "abi": [
    {
      "inputs": [
        {
          "internalType": "address",
          "name": "admin1",
          "type": "address"
        },
        {
          "internalType": "address",
          "name": "admin2",
          "type": "address"
        },
        {
          "internalType": "address",
          "name": "admin3",
          "type": "address"
        },
        {
          "internalType": "address",
          "name": "_jpynOracleAddress",
          "type": "address"
        }
      ],
      "stateMutability": "nonpayable",
      "type": "constructor"
    },
    {
      "inputs": [],
      "name": "AlreadyMinted",
      "type": "error"
    },
    {
      "inputs": [],
      "name": "AlreadyRegistered",
      "type": "error"
    },
    {
      "inputs": [],
      "name": "AlreadyVotedProposedAdmin",
      "type": "error"
    },
    {
      "inputs": [],
      "name": "AlreadyVotedProposedBankBlackList",
      "type": "error"
    },
    {
      "inputs": [],
      "name": "AlreadyVotedProposedBlackListAddress",
      "type": "error"
    },
    {
      "inputs": [],
      "name": "AlreadyVotedProposedRemoveBankBlackList",
      "type": "error"
    },
    {
      "inputs": [],
      "name": "AlreadyVotedProposedRemoveBlackListAddress",
      "type": "error"
    },
    {
      "inputs": [],
      "name": "AlreadyVotedProposedRemovedAdmin",
      "type": "error"
    },
    {
      "inputs": [],
      "name": "AlreadyVotedProposedTransferFee",
      "type": "error"
    },
    {
      "inputs": [],
      "name": "BankAccountFalse",
      "type": "error"
    },
    {
      "inputs": [],
      "name": "BankBlackList",
      "type": "error"
    },
    {
      "inputs": [],
      "name": "BlackListAddress",
      "type": "error"
    },
    {
      "inputs": [
        {
          "internalType": "address",
          "name": "spender",
          "type": "address"
        },
        {
          "internalType": "uint256",
          "name": "allowance",
          "type": "uint256"
        },
        {
          "internalType": "uint256",
          "name": "needed",
          "type": "uint256"
        }
      ],
      "name": "ERC20InsufficientAllowance",
      "type": "error"
    },
    {
      "inputs": [
        {
          "internalType": "address",
          "name": "sender",
          "type": "address"
        },
        {
          "internalType": "uint256",
          "name": "balance",
          "type": "uint256"
        },
        {
          "internalType": "uint256",
          "name": "needed",
          "type": "uint256"
        }
      ],
      "name": "ERC20InsufficientBalance",
      "type": "error"
    },
    {
      "inputs": [
        {
          "internalType": "address",
          "name": "approver",
          "type": "address"
        }
      ],
      "name": "ERC20InvalidApprover",
      "type": "error"
    },
    {
      "inputs": [
        {
          "internalType": "address",
          "name": "receiver",
          "type": "address"
        }
      ],
      "name": "ERC20InvalidReceiver",
      "type": "error"
    },
    {
      "inputs": [
        {
          "internalType": "address",
          "name": "sender",
          "type": "address"
        }
      ],
      "name": "ERC20InvalidSender",
      "type": "error"
    },
    {
      "inputs": [
        {
          "internalType": "address",
          "name": "spender",
          "type": "address"
        }
      ],
      "name": "ERC20InvalidSpender",
      "type": "error"
    },
    {
      "inputs": [],
      "name": "ExistingAdmin",
      "type": "error"
    },
    {
      "inputs": [],
      "name": "NotEnoughAdmins",
      "type": "error"
    },
    {
      "inputs": [],
      "name": "NotExistingAdmin",
      "type": "error"
    },
    {
      "inputs": [],
      "name": "NotRegistered",
      "type": "error"
    },
    {
      "inputs": [],
      "name": "NotYourAddress",
      "type": "error"
    },
    {
      "inputs": [],
      "name": "OnlyAdmin",
      "type": "error"
    },
    {
      "anonymous": false,
      "inputs": [
        {
          "indexed": true,
          "internalType": "address",
          "name": "owner",
          "type": "address"
        },
        {
          "indexed": true,
          "internalType": "address",
          "name": "spender",
          "type": "address"
        },
        {
          "indexed": false,
          "internalType": "uint256",
          "name": "value",
          "type": "uint256"
        }
      ],
      "name": "Approval",
      "type": "event"
    },
    {
      "anonymous": false,
      "inputs": [
        {
          "indexed": true,
          "internalType": "address",
          "name": "from",
          "type": "address"
        },
        {
          "indexed": true,
          "internalType": "address",
          "name": "to",
          "type": "address"
        },
        {
          "indexed": false,
          "internalType": "uint256",
          "name": "value",
          "type": "uint256"
        }
      ],
      "name": "Transfer",
      "type": "event"
    },
    {
      "anonymous": false,
      "inputs": [
        {
          "indexed": false,
          "internalType": "bool",
          "name": "isSafe",
          "type": "bool"
        }
      ],
      "name": "isSafe",
      "type": "event"
    },
    {
      "inputs": [
        {
          "internalType": "address",
          "name": "sender",
          "type": "address"
        }
      ],
      "name": "addOracle",
      "outputs": [],
      "stateMutability": "nonpayable",
      "type": "function"
    },
    {
      "inputs": [
        {
          "internalType": "address",
          "name": "owner",
          "type": "address"
        },
        {
          "internalType": "address",
          "name": "spender",
          "type": "address"
        }
      ],
      "name": "allowance",
      "outputs": [
        {
          "internalType": "uint256",
          "name": "",
          "type": "uint256"
        }
      ],
      "stateMutability": "view",
      "type": "function"
    },
    {
      "inputs": [
        {
          "internalType": "address",
          "name": "spender",
          "type": "address"
        },
        {
          "internalType": "uint256",
          "name": "value",
          "type": "uint256"
        }
      ],
      "name": "approve",
      "outputs": [
        {
          "internalType": "bool",
          "name": "",
          "type": "bool"
        }
      ],
      "stateMutability": "nonpayable",
      "type": "function"
    },
    {
      "inputs": [
        {
          "internalType": "address",
          "name": "account",
          "type": "address"
        }
      ],
      "name": "balanceOf",
      "outputs": [
        {
          "internalType": "uint256",
          "name": "",
          "type": "uint256"
        }
      ],
      "stateMutability": "view",
      "type": "function"
    },
    {
      "inputs": [
        {
          "internalType": "uint256",
          "name": "value",
          "type": "uint256"
        }
      ],
      "name": "burn",
      "outputs": [],
      "stateMutability": "nonpayable",
      "type": "function"
    },
    {
      "inputs": [
        {
          "internalType": "uint256",
          "name": "_type",
          "type": "uint256"
        }
      ],
      "name": "getCurrentBankBlackListId",
      "outputs": [
        {
          "internalType": "uint256",
          "name": "",
          "type": "uint256"
        }
      ],
      "stateMutability": "view",
      "type": "function"
    },
    {
      "inputs": [
        {
          "internalType": "uint256",
          "name": "_type",
          "type": "uint256"
        }
      ],
      "name": "getCurrentBlackListAddressId",
      "outputs": [
        {
          "internalType": "uint256",
          "name": "",
          "type": "uint256"
        }
      ],
      "stateMutability": "view",
      "type": "function"
    },
    {
      "inputs": [
        {
          "internalType": "uint256",
          "name": "_type",
          "type": "uint256"
        }
      ],
      "name": "getCurrentProposedAdminId",
      "outputs": [
        {
          "internalType": "uint256",
          "name": "",
          "type": "uint256"
        }
      ],
      "stateMutability": "view",
      "type": "function"
    },
    {
      "inputs": [],
      "name": "getCurrentProposedTransferFeeId",
      "outputs": [
        {
          "internalType": "uint256",
          "name": "",
          "type": "uint256"
        }
      ],
      "stateMutability": "view",
      "type": "function"
    },
    {
      "inputs": [],
      "name": "getMinApproval",
      "outputs": [
        {
          "internalType": "uint256",
          "name": "",
          "type": "uint256"
        }
      ],
      "stateMutability": "view",
      "type": "function"
    },
    {
      "inputs": [
        {
          "internalType": "address",
          "name": "sender",
          "type": "address"
        }
      ],
      "name": "getMinted",
      "outputs": [
        {
          "internalType": "bool",
          "name": "",
          "type": "bool"
        }
      ],
      "stateMutability": "view",
      "type": "function"
    },
    {
      "inputs": [
        {
          "internalType": "uint256",
          "name": "_id",
          "type": "uint256"
        }
      ],
      "name": "getProposedAdmin",
      "outputs": [
        {
          "components": [
            {
              "internalType": "address",
              "name": "proposedAdmin",
              "type": "address"
            },
            {
              "internalType": "address",
              "name": "proposer",
              "type": "address"
            },
            {
              "internalType": "uint256",
              "name": "approvalCount",
              "type": "uint256"
            },
            {
              "internalType": "uint256",
              "name": "rejectCount",
              "type": "uint256"
            },
            {
              "internalType": "uint256",
              "name": "status",
              "type": "uint256"
            }
          ],
          "internalType": "struct JPYN.ReturnProposedAdmin",
          "name": "",
          "type": "tuple"
        }
      ],
      "stateMutability": "view",
      "type": "function"
    },
    {
      "inputs": [
        {
          "internalType": "uint256",
          "name": "_id",
          "type": "uint256"
        }
      ],
      "name": "getProposedBankBlackList",
      "outputs": [
        {
          "components": [
            {
              "internalType": "string",
              "name": "proposedBankBlackList",
              "type": "string"
            },
            {
              "internalType": "address",
              "name": "proposer",
              "type": "address"
            },
            {
              "internalType": "uint256",
              "name": "approvalCount",
              "type": "uint256"
            },
            {
              "internalType": "uint256",
              "name": "rejectCount",
              "type": "uint256"
            },
            {
              "internalType": "uint256",
              "name": "status",
              "type": "uint256"
            }
          ],
          "internalType": "struct JPYN.ReturnBankBlackList",
          "name": "",
          "type": "tuple"
        }
      ],
      "stateMutability": "view",
      "type": "function"
    },
    {
      "inputs": [
        {
          "internalType": "uint256",
          "name": "_id",
          "type": "uint256"
        }
      ],
      "name": "getProposedBlackListAddress",
      "outputs": [
        {
          "components": [
            {
              "internalType": "address",
              "name": "proposedBlackListAddress",
              "type": "address"
            },
            {
              "internalType": "address",
              "name": "proposer",
              "type": "address"
            },
            {
              "internalType": "uint256",
              "name": "approvalCount",
              "type": "uint256"
            },
            {
              "internalType": "uint256",
              "name": "rejectCount",
              "type": "uint256"
            },
            {
              "internalType": "uint256",
              "name": "status",
              "type": "uint256"
            }
          ],
          "internalType": "struct JPYN.ReturnBlackListAddress",
          "name": "",
          "type": "tuple"
        }
      ],
      "stateMutability": "view",
      "type": "function"
    },
    {
      "inputs": [
        {
          "internalType": "uint256",
          "name": "_id",
          "type": "uint256"
        }
      ],
      "name": "getProposedRemoveBankBlackList",
      "outputs": [
        {
          "components": [
            {
              "internalType": "string",
              "name": "proposedRemoveBankBlackList",
              "type": "string"
            },
            {
              "internalType": "address",
              "name": "proposer",
              "type": "address"
            },
            {
              "internalType": "uint256",
              "name": "approvalCount",
              "type": "uint256"
            },
            {
              "internalType": "uint256",
              "name": "rejectCount",
              "type": "uint256"
            },
            {
              "internalType": "uint256",
              "name": "status",
              "type": "uint256"
            }
          ],
          "internalType": "struct JPYN.ReturnRemoveBankBlackList",
          "name": "",
          "type": "tuple"
        }
      ],
      "stateMutability": "view",
      "type": "function"
    },
    {
      "inputs": [
        {
          "internalType": "uint256",
          "name": "_id",
          "type": "uint256"
        }
      ],
      "name": "getProposedRemoveBlackListAddress",
      "outputs": [
        {
          "components": [
            {
              "internalType": "address",
              "name": "proposedRemoveBlackListAddress",
              "type": "address"
            },
            {
              "internalType": "address",
              "name": "proposer",
              "type": "address"
            },
            {
              "internalType": "uint256",
              "name": "approvalCount",
              "type": "uint256"
            },
            {
              "internalType": "uint256",
              "name": "rejectCount",
              "type": "uint256"
            },
            {
              "internalType": "uint256",
              "name": "status",
              "type": "uint256"
            }
          ],
          "internalType": "struct JPYN.ReturnRemoveBlackListAddress",
          "name": "",
          "type": "tuple"
        }
      ],
      "stateMutability": "view",
      "type": "function"
    },
    {
      "inputs": [
        {
          "internalType": "uint256",
          "name": "_id",
          "type": "uint256"
        }
      ],
      "name": "getProposedRemovedAdmin",
      "outputs": [
        {
          "components": [
            {
              "internalType": "address",
              "name": "proposedRemovedAdmin",
              "type": "address"
            },
            {
              "internalType": "address",
              "name": "proposer",
              "type": "address"
            },
            {
              "internalType": "uint256",
              "name": "approvalCount",
              "type": "uint256"
            },
            {
              "internalType": "uint256",
              "name": "rejectCount",
              "type": "uint256"
            },
            {
              "internalType": "uint256",
              "name": "status",
              "type": "uint256"
            }
          ],
          "internalType": "struct JPYN.ReturnProposedRemovedAdmin",
          "name": "",
          "type": "tuple"
        }
      ],
      "stateMutability": "view",
      "type": "function"
    },
    {
      "inputs": [
        {
          "internalType": "uint256",
          "name": "_id",
          "type": "uint256"
        }
      ],
      "name": "getProposedTransferFee",
      "outputs": [
        {
          "components": [
            {
              "internalType": "uint256",
              "name": "proposedTransferFee",
              "type": "uint256"
            },
            {
              "internalType": "address",
              "name": "proposer",
              "type": "address"
            },
            {
              "internalType": "uint256",
              "name": "approvalCount",
              "type": "uint256"
            },
            {
              "internalType": "uint256",
              "name": "rejectCount",
              "type": "uint256"
            },
            {
              "internalType": "uint256",
              "name": "status",
              "type": "uint256"
            }
          ],
          "internalType": "struct JPYN.ReturnProposedTransferFee",
          "name": "",
          "type": "tuple"
        }
      ],
      "stateMutability": "view",
      "type": "function"
    },
    {
      "inputs": [
        {
          "internalType": "string",
          "name": "_hashedBankAccount",
          "type": "string"
        }
      ],
      "name": "getRequestId",
      "outputs": [
        {
          "internalType": "uint256",
          "name": "",
          "type": "uint256"
        }
      ],
      "stateMutability": "view",
      "type": "function"
    },
    {
      "inputs": [],
      "name": "getTotalVoters",
      "outputs": [
        {
          "internalType": "uint256",
          "name": "",
          "type": "uint256"
        }
      ],
      "stateMutability": "view",
      "type": "function"
    },
    {
      "inputs": [],
      "name": "getTransferFee",
      "outputs": [
        {
          "internalType": "uint256",
          "name": "",
          "type": "uint256"
        }
      ],
      "stateMutability": "view",
      "type": "function"
    },
    {
      "inputs": [
        {
          "internalType": "address",
          "name": "sender",
          "type": "address"
        }
      ],
      "name": "isAdmin",
      "outputs": [
        {
          "internalType": "bool",
          "name": "",
          "type": "bool"
        }
      ],
      "stateMutability": "view",
      "type": "function"
    },
    {
      "inputs": [],
      "name": "isSafeTotalSupply",
      "outputs": [],
      "stateMutability": "nonpayable",
      "type": "function"
    },
    {
      "inputs": [
        {
          "internalType": "string",
          "name": "_hashedBankAccount",
          "type": "string"
        }
      ],
      "name": "mint",
      "outputs": [],
      "stateMutability": "nonpayable",
      "type": "function"
    },
    {
      "inputs": [
        {
          "internalType": "address",
          "name": "_address",
          "type": "address"
        },
        {
          "internalType": "uint256",
          "name": "_type",
          "type": "uint256"
        }
      ],
      "name": "proposeAdmin",
      "outputs": [],
      "stateMutability": "nonpayable",
      "type": "function"
    },
    {
      "inputs": [
        {
          "internalType": "string",
          "name": "_pBankBlackList",
          "type": "string"
        },
        {
          "internalType": "uint256",
          "name": "_type",
          "type": "uint256"
        }
      ],
      "name": "proposeBankBlackList",
      "outputs": [],
      "stateMutability": "nonpayable",
      "type": "function"
    },
    {
      "inputs": [
        {
          "internalType": "address",
          "name": "_blackListAddress",
          "type": "address"
        },
        {
          "internalType": "uint256",
          "name": "_type",
          "type": "uint256"
        }
      ],
      "name": "proposeBlackListAddress",
      "outputs": [],
      "stateMutability": "nonpayable",
      "type": "function"
    },
    {
      "inputs": [
        {
          "internalType": "uint256",
          "name": "_newTransferFee",
          "type": "uint256"
        }
      ],
      "name": "proposeTransferFee",
      "outputs": [],
      "stateMutability": "nonpayable",
      "type": "function"
    },
    {
      "inputs": [
        {
          "internalType": "string",
          "name": "_hashedBankAccount",
          "type": "string"
        }
      ],
      "name": "registerAddressToBank",
      "outputs": [],
      "stateMutability": "nonpayable",
      "type": "function"
    },
    {
      "inputs": [
        {
          "internalType": "address",
          "name": "sender",
          "type": "address"
        }
      ],
      "name": "removeOracle",
      "outputs": [],
      "stateMutability": "nonpayable",
      "type": "function"
    },
    {
      "inputs": [],
      "name": "requestIsSafeTotalSupply",
      "outputs": [],
      "stateMutability": "nonpayable",
      "type": "function"
    },
    {
      "inputs": [],
      "name": "totalSupply",
      "outputs": [
        {
          "internalType": "uint256",
          "name": "",
          "type": "uint256"
        }
      ],
      "stateMutability": "view",
      "type": "function"
    },
    {
      "inputs": [
        {
          "internalType": "address",
          "name": "to",
          "type": "address"
        },
        {
          "internalType": "uint256",
          "name": "value",
          "type": "uint256"
        }
      ],
      "name": "transfer",
      "outputs": [
        {
          "internalType": "bool",
          "name": "",
          "type": "bool"
        }
      ],
      "stateMutability": "nonpayable",
      "type": "function"
    },
    {
      "inputs": [
        {
          "internalType": "address",
          "name": "from",
          "type": "address"
        },
        {
          "internalType": "address",
          "name": "to",
          "type": "address"
        },
        {
          "internalType": "uint256",
          "name": "value",
          "type": "uint256"
        }
      ],
      "name": "transferFrom",
      "outputs": [
        {
          "internalType": "bool",
          "name": "",
          "type": "bool"
        }
      ],
      "stateMutability": "nonpayable",
      "type": "function"
    },
    {
      "inputs": [
        {
          "internalType": "uint256",
          "name": "_id",
          "type": "uint256"
        },
        {
          "internalType": "bool",
          "name": "_vote",
          "type": "bool"
        },
        {
          "internalType": "uint256",
          "name": "_type",
          "type": "uint256"
        }
      ],
      "name": "voteProposedAdmin",
      "outputs": [],
      "stateMutability": "nonpayable",
      "type": "function"
    },
    {
      "inputs": [
        {
          "internalType": "uint256",
          "name": "_id",
          "type": "uint256"
        },
        {
          "internalType": "bool",
          "name": "_vote",
          "type": "bool"
        },
        {
          "internalType": "uint256",
          "name": "_type",
          "type": "uint256"
        }
      ],
      "name": "voteProposedBankBlackList",
      "outputs": [],
      "stateMutability": "nonpayable",
      "type": "function"
    },
    {
      "inputs": [
        {
          "internalType": "uint256",
          "name": "_id",
          "type": "uint256"
        },
        {
          "internalType": "bool",
          "name": "_vote",
          "type": "bool"
        },
        {
          "internalType": "uint256",
          "name": "_type",
          "type": "uint256"
        }
      ],
      "name": "voteProposedBlackListAddress",
      "outputs": [],
      "stateMutability": "nonpayable",
      "type": "function"
    },
    {
      "inputs": [
        {
          "internalType": "uint256",
          "name": "_id",
          "type": "uint256"
        },
        {
          "internalType": "bool",
          "name": "_vote",
          "type": "bool"
        }
      ],
      "name": "voteProposedTransferFee",
      "outputs": [],
      "stateMutability": "nonpayable",
      "type": "function"
    }
  ],
  "bytecode": "0x60806040523480156200001157600080fd5b506040516200661d3803806200661d8339818101604052810190620000379190620003cd565b6040518060400160405280600481526020017f4a50594e00000000000000000000000000000000000000000000000000000000815250601a90816200007d9190620006b9565b506040518060400160405280600481526020017f4a50594e00000000000000000000000000000000000000000000000000000000815250601b9081620000c49190620006b9565b506003601c60006101000a81548160ff021916908360ff1602179055506003601d819055506003601e819055506002601f819055506003602081905550600a60238190555060006024819055506001600360008673ffffffffffffffffffffffffffffffffffffffff1673ffffffffffffffffffffffffffffffffffffffff16815260200190815260200160002060006101000a81548160ff0219169083151502179055506001600360008573ffffffffffffffffffffffffffffffffffffffff1673ffffffffffffffffffffffffffffffffffffffff16815260200190815260200160002060006101000a81548160ff0219169083151502179055506001600360008473ffffffffffffffffffffffffffffffffffffffff1673ffffffffffffffffffffffffffffffffffffffff16815260200190815260200160002060006101000a81548160ff021916908315150217905550836004600080815260200190815260200160002060006101000a81548173ffffffffffffffffffffffffffffffffffffffff021916908373ffffffffffffffffffffffffffffffffffffffff16021790555082600460006001815260200190815260200160002060006101000a81548173ffffffffffffffffffffffffffffffffffffffff021916908373ffffffffffffffffffffffffffffffffffffffff16021790555081600460006002815260200190815260200160002060006101000a81548173ffffffffffffffffffffffffffffffffffffffff021916908373ffffffffffffffffffffffffffffffffffffffff1602179055506000602281905550806000806101000a81548173ffffffffffffffffffffffffffffffffffffffff021916908373ffffffffffffffffffffffffffffffffffffffff16021790555050505050620007a0565b600080fd5b600073ffffffffffffffffffffffffffffffffffffffff82169050919050565b6000620003958262000368565b9050919050565b620003a78162000388565b8114620003b357600080fd5b50565b600081519050620003c7816200039c565b92915050565b60008060008060808587031215620003ea57620003e962000363565b5b6000620003fa87828801620003b6565b94505060206200040d87828801620003b6565b93505060406200042087828801620003b6565b92505060606200043387828801620003b6565b91505092959194509250565b600081519050919050565b7f4e487b7100000000000000000000000000000000000000000000000000000000600052604160045260246000fd5b7f4e487b7100000000000000000000000000000000000000000000000000000000600052602260045260246000fd5b60006002820490506001821680620004c157607f821691505b602082108103620004d757620004d662000479565b5b50919050565b60008190508160005260206000209050919050565b60006020601f8301049050919050565b600082821b905092915050565b600060088302620005417fffffffffffffffffffffffffffffffffffffffffffffffffffffffffffffffff8262000502565b6200054d868362000502565b95508019841693508086168417925050509392505050565b6000819050919050565b6000819050919050565b60006200059a620005946200058e8462000565565b6200056f565b62000565565b9050919050565b6000819050919050565b620005b68362000579565b620005ce620005c582620005a1565b8484546200050f565b825550505050565b600090565b620005e5620005d6565b620005f2818484620005ab565b505050565b5b818110156200061a576200060e600082620005db565b600181019050620005f8565b5050565b601f82111562000669576200063381620004dd565b6200063e84620004f2565b810160208510156200064e578190505b620006666200065d85620004f2565b830182620005f7565b50505b505050565b600082821c905092915050565b60006200068e600019846008026200066e565b1980831691505092915050565b6000620006a983836200067b565b9150826002028217905092915050565b620006c4826200043f565b67ffffffffffffffff811115620006e057620006df6200044a565b5b620006ec8254620004a8565b620006f98282856200061e565b600060209050601f8311600181146200073157600084156200071c578287015190505b6200072885826200069b565b86555062000798565b601f1984166200074186620004dd565b60005b828110156200076b5784890151825560018201915060208501945060208101905062000744565b868310156200078b578489015162000787601f8916826200067b565b8355505b6001600288020188555050505b505050505050565b615e6d80620007b06000396000f3fe608060405234801561001057600080fd5b50600436106102325760003560e01c8063a16511e611610130578063d69e0119116100b8578063df5dd1a51161007c578063df5dd1a5146106f9578063e41f235814610715578063f00f809b14610745578063f573da1214610775578063fdc85fc41461079157610232565b8063d69e011914610631578063d85d3d2714610661578063da13313d1461067d578063dd28597f14610699578063dd62ed3e146106c957610232565b8063ad259190116100ff578063ad25919014610567578063ba0ffef114610597578063c635f2d3146105b5578063ccd72e81146105e5578063cdf8f8da1461061557610232565b8063a16511e6146104e3578063a3f70e5d146104ff578063a9059cbb1461051b578063a9bc2fd81461054b57610232565b806353d516da116101be57806383dce72a1161018257806383dce72a146104175780638f46c7201461044757806396215e9214610477578063987cac33146104a75780639a17d8c1146104c557610232565b806353d516da1461034d578063562a52821461037d57806367e1d2ec146103ad57806370a08231146103c9578063793cf218146103f957610232565b806324d7806c1161020557806324d7806c146102bf57806331601d4a146102ef57806342966c681461030b5780634cbd61aa146103275780634d43f8351461033157610232565b80630824791c14610237578063095ea7b31461024157806318160ddd1461027157806323b872dd1461028f575b600080fd5b61023f6107ad565b005b61025b60048036038101906102569190614efc565b610937565b6040516102689190614f57565b60405180910390f35b610279610953565b6040516102869190614f81565b60405180910390f35b6102a960048036038101906102a49190614f9c565b61095d565b6040516102b69190614f57565b60405180910390f35b6102d960048036038101906102d49190614fef565b6109fc565b6040516102e69190614f57565b60405180910390f35b61030960048036038101906103049190615162565b610ad6565b005b610325600480360381019061032091906151ab565b610dbb565b005b61032f610dca565b005b61034b60048036038101906103469190615204565b610fd1565b005b610367600480360381019061036291906151ab565b6114e3565b60405161037491906152dd565b60405180910390f35b61039760048036038101906103929190615162565b611635565b6040516103a49190614f81565b60405180910390f35b6103c760048036038101906103c29190614efc565b61165d565b005b6103e360048036038101906103de9190614fef565b611918565b6040516103f09190614f81565b60405180910390f35b610401611961565b60405161040e9190614f81565b60405180910390f35b610431600480360381019061042c91906151ab565b6119ef565b60405161043e9190615360565b60405180910390f35b610461600480360381019061045c91906151ab565b611b41565b60405161046e9190614f81565b60405180910390f35b610491600480360381019061048c9190614fef565b611be4565b60405161049e9190614f57565b60405180910390f35b6104af611c3a565b6040516104bc9190614f81565b60405180910390f35b6104cd611cc8565b6040516104da9190614f81565b60405180910390f35b6104fd60048036038101906104f89190614efc565b611d56565b005b61051960048036038101906105149190615204565b612095565b005b61053560048036038101906105309190614efc565b612509565b6040516105429190614f57565b60405180910390f35b610565600480360381019061056091906151ab565b61261d565b005b610581600480360381019061057c91906151ab565b6127dd565b60405161058e9190615470565b60405180910390f35b61059f612981565b6040516105ac9190614f81565b60405180910390f35b6105cf60048036038101906105ca91906151ab565b612a0f565b6040516105dc9190614f81565b60405180910390f35b6105ff60048036038101906105fa91906151ab565b612ab2565b60405161060c91906154fa565b60405180910390f35b61062f600480360381019061062a9190615204565b612c04565b005b61064b600480360381019061064691906151ab565b613092565b604051610658919061557d565b60405180910390f35b61067b60048036038101906106769190615162565b6131ae565b005b61069760048036038101906106929190615598565b6135dd565b005b6106b360048036038101906106ae91906151ab565b613836565b6040516106c09190614f81565b60405180910390f35b6106e360048036038101906106de91906155f4565b6138d9565b6040516106f09190614f81565b60405180910390f35b610713600480360381019061070e9190614fef565b613960565b005b61072f600480360381019061072a91906151ab565b613a7b565b60405161073c919061569c565b60405180910390f35b61075f600480360381019061075a91906151ab565b613bcd565b60405161076c919061572d565b60405180910390f35b61078f600480360381019061078a919061574f565b613d71565b005b6107ab60048036038101906107a69190614fef565b614026565b005b601360003373ffffffffffffffffffffffffffffffffffffffff1673ffffffffffffffffffffffffffffffffffffffff16815260200190815260200160002060009054906101000a900460ff1615610831576040517fad69852600000000000000000000000000000000000000000000000000000000815260040160405180910390fd5b60005b6021548110156109345760008060009054906101000a900473ffffffffffffffffffffffffffffffffffffffff1673ffffffffffffffffffffffffffffffffffffffff16631b146ecf601760008581526020019081526020016000206040518263ffffffff1660e01b81526004016108ac9190615899565b6020604051808303816000875af11580156108cb573d6000803e3d6000fd5b505050506040513d601f19601f820116820180604052508101906108ef91906158d0565b905080601660176000858152602001908152602001600020604051610914919061598b565b908152602001604051809103902081905550508080600101915050610834565b50565b60008033905061094881858561417f565b600191505092915050565b6000601954905090565b60008033905061097285826023548601614191565b6000602354146109e5576109be8160046000602254815260200190815260200160002060009054906101000a900473ffffffffffffffffffffffffffffffffffffffff16602354614225565b602260008154809291906001019190505550602054602254036109e45760006022819055505b5b6109f0858585614225565b60019150509392505050565b6000601360003373ffffffffffffffffffffffffffffffffffffffff1673ffffffffffffffffffffffffffffffffffffffff16815260200190815260200160002060009054906101000a900460ff1615610a82576040517fad69852600000000000000000000000000000000000000000000000000000000815260040160405180910390fd5b600360008373ffffffffffffffffffffffffffffffffffffffff1673ffffffffffffffffffffffffffffffffffffffff16815260200190815260200160002060009054906101000a900460ff169050919050565b601360003373ffffffffffffffffffffffffffffffffffffffff1673ffffffffffffffffffffffffffffffffffffffff16815260200190815260200160002060009054906101000a900460ff1615610b5a576040517fad69852600000000000000000000000000000000000000000000000000000000815260040160405180910390fd5b601481604051610b6a91906159d3565b908152602001604051809103902060009054906101000a900460ff1615610bbd576040517fafcd147f00000000000000000000000000000000000000000000000000000000815260040160405180910390fd5b600073ffffffffffffffffffffffffffffffffffffffff16601582604051610be591906159d3565b908152602001604051809103902060009054906101000a900473ffffffffffffffffffffffffffffffffffffffff1673ffffffffffffffffffffffffffffffffffffffff1614610c61576040517f3a81d6fc00000000000000000000000000000000000000000000000000000000815260040160405180910390fd5b33601582604051610c7291906159d3565b908152602001604051809103902060006101000a81548173ffffffffffffffffffffffffffffffffffffffff021916908373ffffffffffffffffffffffffffffffffffffffff160217905550806017600060215481526020019081526020016000209081610ce09190615b81565b5060216000815480929190600101919050555060008060009054906101000a900473ffffffffffffffffffffffffffffffffffffffff1673ffffffffffffffffffffffffffffffffffffffff16631b146ecf836040518263ffffffff1660e01b8152600401610d4f9190615c8c565b6020604051808303816000875af1158015610d6e573d6000803e3d6000fd5b505050506040513d601f19601f82011682018060405250810190610d9291906158d0565b905080601683604051610da591906159d3565b9081526020016040518091039020819055505050565b610dc733600083614319565b50565b601360003373ffffffffffffffffffffffffffffffffffffffff1673ffffffffffffffffffffffffffffffffffffffff16815260200190815260200160002060009054906101000a900460ff1615610e4e576040517fad69852600000000000000000000000000000000000000000000000000000000815260040160405180910390fd5b6000805b602154811015610f4d5760008060009054906101000a900473ffffffffffffffffffffffffffffffffffffffff1673ffffffffffffffffffffffffffffffffffffffff1663c58343ef601660176000868152602001908152602001600020604051610ebd919061598b565b9081526020016040518091039020546040518263ffffffff1660e01b8152600401610ee89190614f81565b6060604051808303816000875af1158015610f07573d6000803e3d6000fd5b505050506040513d601f19601f82011682018060405250810190610f2b9190615d17565b9050806040015183610f3d9190615d73565b9250508080600101915050610e52565b50601954811015610f95577f9c059596d01d852c29f0ac7e96c767201380785bfe760c293ebab95a4832da6b6000604051610f889190614f57565b60405180910390a1610fce565b7f9c059596d01d852c29f0ac7e96c767201380785bfe760c293ebab95a4832da6b6001604051610fc59190614f57565b60405180910390a15b50565b600360003373ffffffffffffffffffffffffffffffffffffffff1673ffffffffffffffffffffffffffffffffffffffff16815260200190815260200160002060009054906101000a900460ff16611054576040517f4755657900000000000000000000000000000000000000000000000000000000815260040160405180910390fd5b601360003373ffffffffffffffffffffffffffffffffffffffff1673ffffffffffffffffffffffffffffffffffffffff16815260200190815260200160002060009054906101000a900460ff16156110d8576040517fad69852600000000000000000000000000000000000000000000000000000000815260040160405180910390fd5b601e54601d541015611116576040517fff7e6cf800000000000000000000000000000000000000000000000000000000815260040160405180910390fd5b600081036113005760006007600085815260200190815260200160002090508060050160003373ffffffffffffffffffffffffffffffffffffffff1673ffffffffffffffffffffffffffffffffffffffff16815260200190815260200160002060009054906101000a900460ff16156111bb576040517f1c24747300000000000000000000000000000000000000000000000000000000815260040160405180910390fd5b82156111da5780600201600081548092919060010191905055506111ef565b80600301600081548092919060010191905055505b60018160050160003373ffffffffffffffffffffffffffffffffffffffff1673ffffffffffffffffffffffffffffffffffffffff16815260200190815260200160002060006101000a81548160ff021916908315150217905550601f548160020154106112e1576001601360008360000160009054906101000a900473ffffffffffffffffffffffffffffffffffffffff1673ffffffffffffffffffffffffffffffffffffffff1673ffffffffffffffffffffffffffffffffffffffff16815260200190815260200160002060006101000a81548160ff021916908315150217905550600181600401819055506112fa565b601f548160030154106112f957600281600401819055505b5b506114de565b60006009600085815260200190815260200160002090508060050160003373ffffffffffffffffffffffffffffffffffffffff1673ffffffffffffffffffffffffffffffffffffffff16815260200190815260200160002060009054906101000a900460ff161561139d576040517fc8518c6b00000000000000000000000000000000000000000000000000000000815260040160405180910390fd5b82156113bc5780600201600081548092919060010191905055506113d1565b80600301600081548092919060010191905055505b60018160050160003373ffffffffffffffffffffffffffffffffffffffff1673ffffffffffffffffffffffffffffffffffffffff16815260200190815260200160002060006101000a81548160ff021916908315150217905550601f548160020154106114c3576000601360008360000160009054906101000a900473ffffffffffffffffffffffffffffffffffffffff1673ffffffffffffffffffffffffffffffffffffffff1673ffffffffffffffffffffffffffffffffffffffff16815260200190815260200160002060006101000a81548160ff021916908315150217905550600181600401819055506114dc565b601f548160030154106114db57600281600401819055505b5b505b505050565b6114eb614c19565b601360003373ffffffffffffffffffffffffffffffffffffffff1673ffffffffffffffffffffffffffffffffffffffff16815260200190815260200160002060009054906101000a900460ff161561156f576040517fad69852600000000000000000000000000000000000000000000000000000000815260040160405180910390fd5b60006009600084815260200190815260200160002090506040518060a001604052808260000160009054906101000a900473ffffffffffffffffffffffffffffffffffffffff1673ffffffffffffffffffffffffffffffffffffffff1681526020018260010160009054906101000a900473ffffffffffffffffffffffffffffffffffffffff1673ffffffffffffffffffffffffffffffffffffffff16815260200182600201548152602001826003015481526020018260040154815250915050919050565b600060168260405161164791906159d3565b9081526020016040518091039020549050919050565b600360003373ffffffffffffffffffffffffffffffffffffffff1673ffffffffffffffffffffffffffffffffffffffff16815260200190815260200160002060009054906101000a900460ff166116e0576040517f4755657900000000000000000000000000000000000000000000000000000000815260040160405180910390fd5b601360003373ffffffffffffffffffffffffffffffffffffffff1673ffffffffffffffffffffffffffffffffffffffff16815260200190815260200160002060009054906101000a900460ff1615611764576040517fad69852600000000000000000000000000000000000000000000000000000000815260040160405180910390fd5b601e54601d5410156117a2576040517fff7e6cf800000000000000000000000000000000000000000000000000000000815260040160405180910390fd5b600081036118615760006007600060085481526020019081526020016000209050828160000160006101000a81548173ffffffffffffffffffffffffffffffffffffffff021916908373ffffffffffffffffffffffffffffffffffffffff160217905550338160010160006101000a81548173ffffffffffffffffffffffffffffffffffffffff021916908373ffffffffffffffffffffffffffffffffffffffff16021790555060086000815480929190600101919050555050611914565b600060096000600a5481526020019081526020016000209050828160000160006101000a81548173ffffffffffffffffffffffffffffffffffffffff021916908373ffffffffffffffffffffffffffffffffffffffff160217905550338160010160006101000a81548173ffffffffffffffffffffffffffffffffffffffff021916908373ffffffffffffffffffffffffffffffffffffffff160217905550600a60008154809291906001019190505550505b5050565b6000600160008373ffffffffffffffffffffffffffffffffffffffff1673ffffffffffffffffffffffffffffffffffffffff168152602001908152602001600020549050919050565b6000601360003373ffffffffffffffffffffffffffffffffffffffff1673ffffffffffffffffffffffffffffffffffffffff16815260200190815260200160002060009054906101000a900460ff16156119e7576040517fad69852600000000000000000000000000000000000000000000000000000000815260040160405180910390fd5b601d54905090565b6119f7614c74565b601360003373ffffffffffffffffffffffffffffffffffffffff1673ffffffffffffffffffffffffffffffffffffffff16815260200190815260200160002060009054906101000a900460ff1615611a7b576040517fad69852600000000000000000000000000000000000000000000000000000000815260040160405180910390fd5b60006007600084815260200190815260200160002090506040518060a001604052808260000160009054906101000a900473ffffffffffffffffffffffffffffffffffffffff1673ffffffffffffffffffffffffffffffffffffffff1681526020018260010160009054906101000a900473ffffffffffffffffffffffffffffffffffffffff1673ffffffffffffffffffffffffffffffffffffffff16815260200182600201548152602001826003015481526020018260040154815250915050919050565b6000601360003373ffffffffffffffffffffffffffffffffffffffff1673ffffffffffffffffffffffffffffffffffffffff16815260200190815260200160002060009054906101000a900460ff1615611bc7576040517fad69852600000000000000000000000000000000000000000000000000000000815260040160405180910390fd5b60008203611bd957600c549050611bdf565b600e5490505b919050565b6000601860008373ffffffffffffffffffffffffffffffffffffffff1673ffffffffffffffffffffffffffffffffffffffff16815260200190815260200160002060009054906101000a900460ff169050919050565b6000601360003373ffffffffffffffffffffffffffffffffffffffff1673ffffffffffffffffffffffffffffffffffffffff16815260200190815260200160002060009054906101000a900460ff1615611cc0576040517fad69852600000000000000000000000000000000000000000000000000000000815260040160405180910390fd5b601f54905090565b6000601360003373ffffffffffffffffffffffffffffffffffffffff1673ffffffffffffffffffffffffffffffffffffffff16815260200190815260200160002060009054906101000a900460ff1615611d4e576040517fad69852600000000000000000000000000000000000000000000000000000000815260040160405180910390fd5b602354905090565b600360003373ffffffffffffffffffffffffffffffffffffffff1673ffffffffffffffffffffffffffffffffffffffff16815260200190815260200160002060009054906101000a900460ff16611dd9576040517f4755657900000000000000000000000000000000000000000000000000000000815260040160405180910390fd5b601360003373ffffffffffffffffffffffffffffffffffffffff1673ffffffffffffffffffffffffffffffffffffffff16815260200190815260200160002060009054906101000a900460ff1615611e5d576040517fad69852600000000000000000000000000000000000000000000000000000000815260040160405180910390fd5b601e54601d541015611e9b576040517fff7e6cf800000000000000000000000000000000000000000000000000000000815260040160405180910390fd5b60008103611fde57600360008373ffffffffffffffffffffffffffffffffffffffff1673ffffffffffffffffffffffffffffffffffffffff16815260200190815260200160002060009054906101000a900460ff1615611f27576040517f2478fb0400000000000000000000000000000000000000000000000000000000815260040160405180910390fd5b6000600f600060105481526020019081526020016000209050828160000160006101000a81548173ffffffffffffffffffffffffffffffffffffffff021916908373ffffffffffffffffffffffffffffffffffffffff160217905550338160010160006101000a81548173ffffffffffffffffffffffffffffffffffffffff021916908373ffffffffffffffffffffffffffffffffffffffff16021790555060106000815480929190600101919050555050612091565b60006011600060125481526020019081526020016000209050828160000160006101000a81548173ffffffffffffffffffffffffffffffffffffffff021916908373ffffffffffffffffffffffffffffffffffffffff160217905550338160010160006101000a81548173ffffffffffffffffffffffffffffffffffffffff021916908373ffffffffffffffffffffffffffffffffffffffff160217905550601260008154809291906001019190505550505b5050565b600360003373ffffffffffffffffffffffffffffffffffffffff1673ffffffffffffffffffffffffffffffffffffffff16815260200190815260200160002060009054906101000a900460ff16612118576040517f4755657900000000000000000000000000000000000000000000000000000000815260040160405180910390fd5b601360003373ffffffffffffffffffffffffffffffffffffffff1673ffffffffffffffffffffffffffffffffffffffff16815260200190815260200160002060009054906101000a900460ff161561219c576040517fad69852600000000000000000000000000000000000000000000000000000000815260040160405180910390fd5b601e54601d5410156121da576040517fff7e6cf800000000000000000000000000000000000000000000000000000000815260040160405180910390fd5b60008103612375576000600f600085815260200190815260200160002090508060050160003373ffffffffffffffffffffffffffffffffffffffff1673ffffffffffffffffffffffffffffffffffffffff16815260200190815260200160002060009054906101000a900460ff161561227f576040517fea35ba7900000000000000000000000000000000000000000000000000000000815260040160405180910390fd5b821561229e5780600201600081548092919060010191905055506122b3565b80600301600081548092919060010191905055505b60018160050160003373ffffffffffffffffffffffffffffffffffffffff1673ffffffffffffffffffffffffffffffffffffffff16815260200190815260200160002060006101000a81548160ff021916908315150217905550601f54816002015410612356576123478160000160009054906101000a900473ffffffffffffffffffffffffffffffffffffffff16614541565b6001816004018190555061236f565b601f5481600301541061236e57600281600401819055505b5b50612504565b60006011600085815260200190815260200160002090508060050160003373ffffffffffffffffffffffffffffffffffffffff1673ffffffffffffffffffffffffffffffffffffffff16815260200190815260200160002060009054906101000a900460ff1615612412576040517f7fae296600000000000000000000000000000000000000000000000000000000815260040160405180910390fd5b8215612431578060020160008154809291906001019190505550612446565b80600301600081548092919060010191905055505b60018160050160003373ffffffffffffffffffffffffffffffffffffffff1673ffffffffffffffffffffffffffffffffffffffff16815260200190815260200160002060006101000a81548160ff021916908315150217905550601f548160020154106124e9576124da8160000160009054906101000a900473ffffffffffffffffffffffffffffffffffffffff166147d5565b60018160040181905550612502565b601f5481600301541061250157600281600401819055505b5b505b505050565b6000601360003373ffffffffffffffffffffffffffffffffffffffff1673ffffffffffffffffffffffffffffffffffffffff16815260200190815260200160002060009054906101000a900460ff161561258f576040517fad69852600000000000000000000000000000000000000000000000000000000815260040160405180910390fd5b6000339050600060235414612607576125e08160046000602254815260200190815260200160002060009054906101000a900473ffffffffffffffffffffffffffffffffffffffff16602354614225565b602260008154809291906001019190505550602054602254036126065760006022819055505b5b612612818585614225565b600191505092915050565b600360003373ffffffffffffffffffffffffffffffffffffffff1673ffffffffffffffffffffffffffffffffffffffff16815260200190815260200160002060009054906101000a900460ff166126a0576040517f4755657900000000000000000000000000000000000000000000000000000000815260040160405180910390fd5b601360003373ffffffffffffffffffffffffffffffffffffffff1673ffffffffffffffffffffffffffffffffffffffff16815260200190815260200160002060009054906101000a900460ff1615612724576040517fad69852600000000000000000000000000000000000000000000000000000000815260040160405180910390fd5b601e54601d541015612762576040517fff7e6cf800000000000000000000000000000000000000000000000000000000815260040160405180910390fd5b60006005600060065481526020019081526020016000209050818160000181905550338160010160006101000a81548173ffffffffffffffffffffffffffffffffffffffff021916908373ffffffffffffffffffffffffffffffffffffffff1602179055506006600081548092919060010191905055505050565b6127e5614ccf565b601360003373ffffffffffffffffffffffffffffffffffffffff1673ffffffffffffffffffffffffffffffffffffffff16815260200190815260200160002060009054906101000a900460ff1615612869576040517fad69852600000000000000000000000000000000000000000000000000000000815260040160405180910390fd5b6000600b600084815260200190815260200160002090506040518060a0016040528082600001805461289a906157be565b80601f01602080910402602001604051908101604052809291908181526020018280546128c6906157be565b80156129135780601f106128e857610100808354040283529160200191612913565b820191906000526020600020905b8154815290600101906020018083116128f657829003601f168201915b505050505081526020018260010160009054906101000a900473ffffffffffffffffffffffffffffffffffffffff1673ffffffffffffffffffffffffffffffffffffffff16815260200182600201548152602001826003015481526020018260040154815250915050919050565b6000601360003373ffffffffffffffffffffffffffffffffffffffff1673ffffffffffffffffffffffffffffffffffffffff16815260200190815260200160002060009054906101000a900460ff1615612a07576040517fad69852600000000000000000000000000000000000000000000000000000000815260040160405180910390fd5b600654905090565b6000601360003373ffffffffffffffffffffffffffffffffffffffff1673ffffffffffffffffffffffffffffffffffffffff16815260200190815260200160002060009054906101000a900460ff1615612a95576040517fad69852600000000000000000000000000000000000000000000000000000000815260040160405180910390fd5b60008203612aa7576010549050612aad565b60125490505b919050565b612aba614d14565b601360003373ffffffffffffffffffffffffffffffffffffffff1673ffffffffffffffffffffffffffffffffffffffff16815260200190815260200160002060009054906101000a900460ff1615612b3e576040517fad69852600000000000000000000000000000000000000000000000000000000815260040160405180910390fd5b60006011600084815260200190815260200160002090506040518060a001604052808260000160009054906101000a900473ffffffffffffffffffffffffffffffffffffffff1673ffffffffffffffffffffffffffffffffffffffff1681526020018260010160009054906101000a900473ffffffffffffffffffffffffffffffffffffffff1673ffffffffffffffffffffffffffffffffffffffff16815260200182600201548152602001826003015481526020018260040154815250915050919050565b600360003373ffffffffffffffffffffffffffffffffffffffff1673ffffffffffffffffffffffffffffffffffffffff16815260200190815260200160002060009054906101000a900460ff16612c87576040517f4755657900000000000000000000000000000000000000000000000000000000815260040160405180910390fd5b601360003373ffffffffffffffffffffffffffffffffffffffff1673ffffffffffffffffffffffffffffffffffffffff16815260200190815260200160002060009054906101000a900460ff1615612d0b576040517fad69852600000000000000000000000000000000000000000000000000000000815260040160405180910390fd5b601e54601d541015612d49576040517fff7e6cf800000000000000000000000000000000000000000000000000000000815260040160405180910390fd5b60008103612ef1576000600b600085815260200190815260200160002090508060050160003373ffffffffffffffffffffffffffffffffffffffff1673ffffffffffffffffffffffffffffffffffffffff16815260200190815260200160002060009054906101000a900460ff1615612dee576040517fa9590e5300000000000000000000000000000000000000000000000000000000815260040160405180910390fd5b8215612e0d578060020160008154809291906001019190505550612e22565b80600301600081548092919060010191905055505b60018160050160003373ffffffffffffffffffffffffffffffffffffffff1673ffffffffffffffffffffffffffffffffffffffff16815260200190815260200160002060006101000a81548160ff021916908315150217905550601f54816002015410612ed2576001601482600001604051612e9e919061598b565b908152602001604051809103902060006101000a81548160ff02191690831515021790555060018160040181905550612eeb565b601f54816003015410612eea57600281600401819055505b5b5061308d565b6000600d600085815260200190815260200160002090508060050160003373ffffffffffffffffffffffffffffffffffffffff1673ffffffffffffffffffffffffffffffffffffffff16815260200190815260200160002060009054906101000a900460ff1615612f8e576040517f7e6c0ae200000000000000000000000000000000000000000000000000000000815260040160405180910390fd5b8215612fad578060020160008154809291906001019190505550612fc2565b80600301600081548092919060010191905055505b60018160050160003373ffffffffffffffffffffffffffffffffffffffff1673ffffffffffffffffffffffffffffffffffffffff16815260200190815260200160002060006101000a81548160ff021916908315150217905550601f5481600201541061307257600060148260000160405161303e919061598b565b908152602001604051809103902060006101000a81548160ff0219169083151502179055506001816004018190555061308b565b601f5481600301541061308a57600281600401819055505b5b505b505050565b61309a614d6f565b601360003373ffffffffffffffffffffffffffffffffffffffff1673ffffffffffffffffffffffffffffffffffffffff16815260200190815260200160002060009054906101000a900460ff161561311e576040517fad69852600000000000000000000000000000000000000000000000000000000815260040160405180910390fd5b60006005600084815260200190815260200160002090506040518060a00160405280826000015481526020018260010160009054906101000a900473ffffffffffffffffffffffffffffffffffffffff1673ffffffffffffffffffffffffffffffffffffffff16815260200182600201548152602001826003015481526020018260040154815250915050919050565b6014816040516131be91906159d3565b908152602001604051809103902060009054906101000a900460ff1615613211576040517fafcd147f00000000000000000000000000000000000000000000000000000000815260040160405180910390fd5b600073ffffffffffffffffffffffffffffffffffffffff1660158260405161323991906159d3565b908152602001604051809103902060009054906101000a900473ffffffffffffffffffffffffffffffffffffffff1673ffffffffffffffffffffffffffffffffffffffff16036132b5576040517faba4733900000000000000000000000000000000000000000000000000000000815260040160405180910390fd5b3373ffffffffffffffffffffffffffffffffffffffff166015826040516132dc91906159d3565b908152602001604051809103902060009054906101000a900473ffffffffffffffffffffffffffffffffffffffff1673ffffffffffffffffffffffffffffffffffffffff1614613358576040517f42bb320900000000000000000000000000000000000000000000000000000000815260040160405180910390fd5b60011515601860003373ffffffffffffffffffffffffffffffffffffffff1673ffffffffffffffffffffffffffffffffffffffff16815260200190815260200160002060009054906101000a900460ff161515036133e2576040517fddefae2800000000000000000000000000000000000000000000000000000000815260040160405180910390fd5b60006016826040516133f491906159d3565b908152602001604051809103902054905060008060009054906101000a900473ffffffffffffffffffffffffffffffffffffffff1673ffffffffffffffffffffffffffffffffffffffff1663c58343ef836040518263ffffffff1660e01b81526004016134619190614f81565b6060604051808303816000875af1158015613480573d6000803e3d6000fd5b505050506040513d601f19601f820116820180604052508101906134a49190615d17565b90506000816020015114806134bd575060028160200151145b156134f4576040517f48a6529400000000000000000000000000000000000000000000000000000000815260040160405180910390fd5b613542600060158560405161350991906159d3565b908152602001604051809103902060009054906101000a900473ffffffffffffffffffffffffffffffffffffffff168360400151614319565b60016018600060158660405161355891906159d3565b908152602001604051809103902060009054906101000a900473ffffffffffffffffffffffffffffffffffffffff1673ffffffffffffffffffffffffffffffffffffffff1673ffffffffffffffffffffffffffffffffffffffff16815260200190815260200160002060006101000a81548160ff021916908315150217905550505050565b600360003373ffffffffffffffffffffffffffffffffffffffff1673ffffffffffffffffffffffffffffffffffffffff16815260200190815260200160002060009054906101000a900460ff16613660576040517f4755657900000000000000000000000000000000000000000000000000000000815260040160405180910390fd5b601360003373ffffffffffffffffffffffffffffffffffffffff1673ffffffffffffffffffffffffffffffffffffffff16815260200190815260200160002060009054906101000a900460ff16156136e4576040517fad69852600000000000000000000000000000000000000000000000000000000815260040160405180910390fd5b601e54601d541015613722576040517fff7e6cf800000000000000000000000000000000000000000000000000000000815260040160405180910390fd5b600081036137b0576000600b6000600c5481526020019081526020016000209050828160000190816137549190615b81565b50338160010160006101000a81548173ffffffffffffffffffffffffffffffffffffffff021916908373ffffffffffffffffffffffffffffffffffffffff160217905550600c6000815480929190600101919050555050613832565b6000600d6000600e5481526020019081526020016000209050828160000190816137da9190615b81565b50338160010160006101000a81548173ffffffffffffffffffffffffffffffffffffffff021916908373ffffffffffffffffffffffffffffffffffffffff160217905550600e60008154809291906001019190505550505b5050565b6000601360003373ffffffffffffffffffffffffffffffffffffffff1673ffffffffffffffffffffffffffffffffffffffff16815260200190815260200160002060009054906101000a900460ff16156138bc576040517fad69852600000000000000000000000000000000000000000000000000000000815260040160405180910390fd5b600082036138ce5760085490506138d4565b600a5490505b919050565b6000600260008473ffffffffffffffffffffffffffffffffffffffff1673ffffffffffffffffffffffffffffffffffffffff16815260200190815260200160002060008373ffffffffffffffffffffffffffffffffffffffff1673ffffffffffffffffffffffffffffffffffffffff16815260200190815260200160002054905092915050565b601360003373ffffffffffffffffffffffffffffffffffffffff1673ffffffffffffffffffffffffffffffffffffffff16815260200190815260200160002060009054906101000a900460ff16156139e4576040517fad69852600000000000000000000000000000000000000000000000000000000815260040160405180910390fd5b60008054906101000a900473ffffffffffffffffffffffffffffffffffffffff1673ffffffffffffffffffffffffffffffffffffffff1663df5dd1a5826040518263ffffffff1660e01b8152600401613a3d9190615db6565b600060405180830381600087803b158015613a5757600080fd5b505af1158015613a6b573d6000803e3d6000fd5b50505050613a7881614541565b50565b613a83614db4565b601360003373ffffffffffffffffffffffffffffffffffffffff1673ffffffffffffffffffffffffffffffffffffffff16815260200190815260200160002060009054906101000a900460ff1615613b07576040517fad69852600000000000000000000000000000000000000000000000000000000815260040160405180910390fd5b6000600f600084815260200190815260200160002090506040518060a001604052808260000160009054906101000a900473ffffffffffffffffffffffffffffffffffffffff1673ffffffffffffffffffffffffffffffffffffffff1681526020018260010160009054906101000a900473ffffffffffffffffffffffffffffffffffffffff1673ffffffffffffffffffffffffffffffffffffffff16815260200182600201548152602001826003015481526020018260040154815250915050919050565b613bd5614e0f565b601360003373ffffffffffffffffffffffffffffffffffffffff1673ffffffffffffffffffffffffffffffffffffffff16815260200190815260200160002060009054906101000a900460ff1615613c59576040517fad69852600000000000000000000000000000000000000000000000000000000815260040160405180910390fd5b6000600d600084815260200190815260200160002090506040518060a00160405280826000018054613c8a906157be565b80601f0160208091040260200160405190810160405280929190818152602001828054613cb6906157be565b8015613d035780601f10613cd857610100808354040283529160200191613d03565b820191906000526020600020905b815481529060010190602001808311613ce657829003601f168201915b505050505081526020018260010160009054906101000a900473ffffffffffffffffffffffffffffffffffffffff1673ffffffffffffffffffffffffffffffffffffffff16815260200182600201548152602001826003015481526020018260040154815250915050919050565b600360003373ffffffffffffffffffffffffffffffffffffffff1673ffffffffffffffffffffffffffffffffffffffff16815260200190815260200160002060009054906101000a900460ff16613df4576040517f4755657900000000000000000000000000000000000000000000000000000000815260040160405180910390fd5b601360003373ffffffffffffffffffffffffffffffffffffffff1673ffffffffffffffffffffffffffffffffffffffff16815260200190815260200160002060009054906101000a900460ff1615613e78576040517fad69852600000000000000000000000000000000000000000000000000000000815260040160405180910390fd5b601e54601d541015613eb6576040517fff7e6cf800000000000000000000000000000000000000000000000000000000815260040160405180910390fd5b60006005600084815260200190815260200160002090508060050160003373ffffffffffffffffffffffffffffffffffffffff1673ffffffffffffffffffffffffffffffffffffffff16815260200190815260200160002060009054906101000a900460ff1615613f53576040517f1c4be5a700000000000000000000000000000000000000000000000000000000815260040160405180910390fd5b8115613f72578060020160008154809291906001019190505550613f87565b80600301600081548092919060010191905055505b60018160050160003373ffffffffffffffffffffffffffffffffffffffff1673ffffffffffffffffffffffffffffffffffffffff16815260200190815260200160002060006101000a81548160ff021916908315150217905550601f5481600201541061400857806000015460238190555060018160040181905550614021565b601f5481600301541061402057600281600401819055505b5b505050565b601360003373ffffffffffffffffffffffffffffffffffffffff1673ffffffffffffffffffffffffffffffffffffffff16815260200190815260200160002060009054906101000a900460ff16156140aa576040517fad69852600000000000000000000000000000000000000000000000000000000815260040160405180910390fd5b601e54601d5410156140e8576040517fff7e6cf800000000000000000000000000000000000000000000000000000000815260040160405180910390fd5b60008054906101000a900473ffffffffffffffffffffffffffffffffffffffff1673ffffffffffffffffffffffffffffffffffffffff1663fdc85fc4826040518263ffffffff1660e01b81526004016141419190615db6565b600060405180830381600087803b15801561415b57600080fd5b505af115801561416f573d6000803e3d6000fd5b5050505061417c816147d5565b50565b61418c8383836001614a42565b505050565b600061419d84846138d9565b90507fffffffffffffffffffffffffffffffffffffffffffffffffffffffffffffffff811461421f578181101561420f578281836040517ffb8f41b200000000000000000000000000000000000000000000000000000000815260040161420693929190615dd1565b60405180910390fd5b61421e84848484036000614a42565b5b50505050565b600073ffffffffffffffffffffffffffffffffffffffff168373ffffffffffffffffffffffffffffffffffffffff16036142975760006040517f96c6fd1e00000000000000000000000000000000000000000000000000000000815260040161428e9190615db6565b60405180910390fd5b600073ffffffffffffffffffffffffffffffffffffffff168273ffffffffffffffffffffffffffffffffffffffff16036143095760006040517fec442f050000000000000000000000000000000000000000000000000000000081526004016143009190615db6565b60405180910390fd5b614314838383614319565b505050565b600073ffffffffffffffffffffffffffffffffffffffff168373ffffffffffffffffffffffffffffffffffffffff160361436b57806019600082825461435f9190615d73565b92505081905550614440565b6000600160008573ffffffffffffffffffffffffffffffffffffffff1673ffffffffffffffffffffffffffffffffffffffff168152602001908152602001600020549050818110156143f8578381836040517fe450d38c0000000000000000000000000000000000000000000000000000000081526004016143ef93929190615dd1565b60405180910390fd5b818103600160008673ffffffffffffffffffffffffffffffffffffffff1673ffffffffffffffffffffffffffffffffffffffff16815260200190815260200160002081905550505b600073ffffffffffffffffffffffffffffffffffffffff168273ffffffffffffffffffffffffffffffffffffffff160361448957806019600082825403925050819055506144d7565b80600160008473ffffffffffffffffffffffffffffffffffffffff1673ffffffffffffffffffffffffffffffffffffffff168152602001908152602001600020600082825401925050819055505b8173ffffffffffffffffffffffffffffffffffffffff168373ffffffffffffffffffffffffffffffffffffffff167fddf252ad1be2c89b69c2b068fc378daa952ba7f163c4a11628f55a4df523b3ef836040516145349190614f81565b60405180910390a3505050565b600360003373ffffffffffffffffffffffffffffffffffffffff1673ffffffffffffffffffffffffffffffffffffffff16815260200190815260200160002060009054906101000a900460ff166145c4576040517f4755657900000000000000000000000000000000000000000000000000000000815260040160405180910390fd5b601360003373ffffffffffffffffffffffffffffffffffffffff1673ffffffffffffffffffffffffffffffffffffffff16815260200190815260200160002060009054906101000a900460ff1615614648576040517fad69852600000000000000000000000000000000000000000000000000000000815260040160405180910390fd5b600360008273ffffffffffffffffffffffffffffffffffffffff1673ffffffffffffffffffffffffffffffffffffffff16815260200190815260200160002060009054906101000a900460ff16156146cc576040517f2478fb0400000000000000000000000000000000000000000000000000000000815260040160405180910390fd5b6001600360008373ffffffffffffffffffffffffffffffffffffffff1673ffffffffffffffffffffffffffffffffffffffff16815260200190815260200160002060006101000a81548160ff0219169083151502179055508060046000602054815260200190815260200160002060006101000a81548173ffffffffffffffffffffffffffffffffffffffff021916908373ffffffffffffffffffffffffffffffffffffffff160217905550601d60008154809291906001019190505550602060008154809291906001019190505550601e54601d54116147b4576002601f819055506147d2565b60016002601d54816147c9576147c8615e08565b5b0401601f819055505b50565b600360003373ffffffffffffffffffffffffffffffffffffffff1673ffffffffffffffffffffffffffffffffffffffff16815260200190815260200160002060009054906101000a900460ff16614858576040517f4755657900000000000000000000000000000000000000000000000000000000815260040160405180910390fd5b601360003373ffffffffffffffffffffffffffffffffffffffff1673ffffffffffffffffffffffffffffffffffffffff16815260200190815260200160002060009054906101000a900460ff16156148dc576040517fad69852600000000000000000000000000000000000000000000000000000000815260040160405180910390fd5b601e54601d54101561491a576040517fff7e6cf800000000000000000000000000000000000000000000000000000000815260040160405180910390fd5b600360008273ffffffffffffffffffffffffffffffffffffffff1673ffffffffffffffffffffffffffffffffffffffff16815260200190815260200160002060009054906101000a900460ff1661499d576040517f920432b400000000000000000000000000000000000000000000000000000000815260040160405180910390fd5b6000600360008373ffffffffffffffffffffffffffffffffffffffff1673ffffffffffffffffffffffffffffffffffffffff16815260200190815260200160002060006101000a81548160ff021916908315150217905550601d6000815480929190600190039190505550601e54601d541015614a21576002601f81905550614a3f565b60016002601d5481614a3657614a35615e08565b5b0401601f819055505b50565b600073ffffffffffffffffffffffffffffffffffffffff168473ffffffffffffffffffffffffffffffffffffffff1603614ab45760006040517fe602df05000000000000000000000000000000000000000000000000000000008152600401614aab9190615db6565b60405180910390fd5b600073ffffffffffffffffffffffffffffffffffffffff168373ffffffffffffffffffffffffffffffffffffffff1603614b265760006040517f94280d62000000000000000000000000000000000000000000000000000000008152600401614b1d9190615db6565b60405180910390fd5b81600260008673ffffffffffffffffffffffffffffffffffffffff1673ffffffffffffffffffffffffffffffffffffffff16815260200190815260200160002060008573ffffffffffffffffffffffffffffffffffffffff1673ffffffffffffffffffffffffffffffffffffffff168152602001908152602001600020819055508015614c13578273ffffffffffffffffffffffffffffffffffffffff168473ffffffffffffffffffffffffffffffffffffffff167f8c5be1e5ebec7d5bd14f71427d1e84f3dd0314c0f7b2291e5b200ac8c7c3b92584604051614c0a9190614f81565b60405180910390a35b50505050565b6040518060a00160405280600073ffffffffffffffffffffffffffffffffffffffff168152602001600073ffffffffffffffffffffffffffffffffffffffff1681526020016000815260200160008152602001600081525090565b6040518060a00160405280600073ffffffffffffffffffffffffffffffffffffffff168152602001600073ffffffffffffffffffffffffffffffffffffffff1681526020016000815260200160008152602001600081525090565b6040518060a0016040528060608152602001600073ffffffffffffffffffffffffffffffffffffffff1681526020016000815260200160008152602001600081525090565b6040518060a00160405280600073ffffffffffffffffffffffffffffffffffffffff168152602001600073ffffffffffffffffffffffffffffffffffffffff1681526020016000815260200160008152602001600081525090565b6040518060a0016040528060008152602001600073ffffffffffffffffffffffffffffffffffffffff1681526020016000815260200160008152602001600081525090565b6040518060a00160405280600073ffffffffffffffffffffffffffffffffffffffff168152602001600073ffffffffffffffffffffffffffffffffffffffff1681526020016000815260200160008152602001600081525090565b6040518060a0016040528060608152602001600073ffffffffffffffffffffffffffffffffffffffff1681526020016000815260200160008152602001600081525090565b6000604051905090565b600080fd5b600080fd5b600073ffffffffffffffffffffffffffffffffffffffff82169050919050565b6000614e9382614e68565b9050919050565b614ea381614e88565b8114614eae57600080fd5b50565b600081359050614ec081614e9a565b92915050565b6000819050919050565b614ed981614ec6565b8114614ee457600080fd5b50565b600081359050614ef681614ed0565b92915050565b60008060408385031215614f1357614f12614e5e565b5b6000614f2185828601614eb1565b9250506020614f3285828601614ee7565b9150509250929050565b60008115159050919050565b614f5181614f3c565b82525050565b6000602082019050614f6c6000830184614f48565b92915050565b614f7b81614ec6565b82525050565b6000602082019050614f966000830184614f72565b92915050565b600080600060608486031215614fb557614fb4614e5e565b5b6000614fc386828701614eb1565b9350506020614fd486828701614eb1565b9250506040614fe586828701614ee7565b9150509250925092565b60006020828403121561500557615004614e5e565b5b600061501384828501614eb1565b91505092915050565b600080fd5b600080fd5b6000601f19601f8301169050919050565b7f4e487b7100000000000000000000000000000000000000000000000000000000600052604160045260246000fd5b61506f82615026565b810181811067ffffffffffffffff8211171561508e5761508d615037565b5b80604052505050565b60006150a1614e54565b90506150ad8282615066565b919050565b600067ffffffffffffffff8211156150cd576150cc615037565b5b6150d682615026565b9050602081019050919050565b82818337600083830152505050565b6000615105615100846150b2565b615097565b90508281526020810184848401111561512157615120615021565b5b61512c8482856150e3565b509392505050565b600082601f8301126151495761514861501c565b5b81356151598482602086016150f2565b91505092915050565b60006020828403121561517857615177614e5e565b5b600082013567ffffffffffffffff81111561519657615195614e63565b5b6151a284828501615134565b91505092915050565b6000602082840312156151c1576151c0614e5e565b5b60006151cf84828501614ee7565b91505092915050565b6151e181614f3c565b81146151ec57600080fd5b50565b6000813590506151fe816151d8565b92915050565b60008060006060848603121561521d5761521c614e5e565b5b600061522b86828701614ee7565b935050602061523c868287016151ef565b925050604061524d86828701614ee7565b9150509250925092565b61526081614e88565b82525050565b61526f81614ec6565b82525050565b60a08201600082015161528b6000850182615257565b50602082015161529e6020850182615257565b5060408201516152b16040850182615266565b5060608201516152c46060850182615266565b5060808201516152d76080850182615266565b50505050565b600060a0820190506152f26000830184615275565b92915050565b60a08201600082015161530e6000850182615257565b5060208201516153216020850182615257565b5060408201516153346040850182615266565b5060608201516153476060850182615266565b50608082015161535a6080850182615266565b50505050565b600060a08201905061537560008301846152f8565b92915050565b600081519050919050565b600082825260208201905092915050565b60005b838110156153b557808201518184015260208101905061539a565b60008484015250505050565b60006153cc8261537b565b6153d68185615386565b93506153e6818560208601615397565b6153ef81615026565b840191505092915050565b600060a083016000830151848203600086015261541782826153c1565b915050602083015161542c6020860182615257565b50604083015161543f6040860182615266565b5060608301516154526060860182615266565b5060808301516154656080860182615266565b508091505092915050565b6000602082019050818103600083015261548a81846153fa565b905092915050565b60a0820160008201516154a86000850182615257565b5060208201516154bb6020850182615257565b5060408201516154ce6040850182615266565b5060608201516154e16060850182615266565b5060808201516154f46080850182615266565b50505050565b600060a08201905061550f6000830184615492565b92915050565b60a08201600082015161552b6000850182615266565b50602082015161553e6020850182615257565b5060408201516155516040850182615266565b5060608201516155646060850182615266565b5060808201516155776080850182615266565b50505050565b600060a0820190506155926000830184615515565b92915050565b600080604083850312156155af576155ae614e5e565b5b600083013567ffffffffffffffff8111156155cd576155cc614e63565b5b6155d985828601615134565b92505060206155ea85828601614ee7565b9150509250929050565b6000806040838503121561560b5761560a614e5e565b5b600061561985828601614eb1565b925050602061562a85828601614eb1565b9150509250929050565b60a08201600082015161564a6000850182615257565b50602082015161565d6020850182615257565b5060408201516156706040850182615266565b5060608201516156836060850182615266565b5060808201516156966080850182615266565b50505050565b600060a0820190506156b16000830184615634565b92915050565b600060a08301600083015184820360008601526156d482826153c1565b91505060208301516156e96020860182615257565b5060408301516156fc6040860182615266565b50606083015161570f6060860182615266565b5060808301516157226080860182615266565b508091505092915050565b6000602082019050818103600083015261574781846156b7565b905092915050565b6000806040838503121561576657615765614e5e565b5b600061577485828601614ee7565b9250506020615785858286016151ef565b9150509250929050565b7f4e487b7100000000000000000000000000000000000000000000000000000000600052602260045260246000fd5b600060028204905060018216806157d657607f821691505b6020821081036157e9576157e861578f565b5b50919050565b600082825260208201905092915050565b60008190508160005260206000209050919050565b60008154615822816157be565b61582c81866157ef565b94506001821660008114615847576001811461585d57615890565b60ff198316865281151560200286019350615890565b61586685615800565b60005b8381101561588857815481890152600182019150602081019050615869565b808801955050505b50505092915050565b600060208201905081810360008301526158b38184615815565b905092915050565b6000815190506158ca81614ed0565b92915050565b6000602082840312156158e6576158e5614e5e565b5b60006158f4848285016158bb565b91505092915050565b600081905092915050565b60008154615915816157be565b61591f81866158fd565b9450600182166000811461593a576001811461594f57615982565b60ff1983168652811515820286019350615982565b61595885615800565b60005b8381101561597a5781548189015260018201915060208101905061595b565b838801955050505b50505092915050565b60006159978284615908565b915081905092915050565b60006159ad8261537b565b6159b781856158fd565b93506159c7818560208601615397565b80840191505092915050565b60006159df82846159a2565b915081905092915050565b60006020601f8301049050919050565b600082821b905092915050565b600060088302615a377fffffffffffffffffffffffffffffffffffffffffffffffffffffffffffffffff826159fa565b615a4186836159fa565b95508019841693508086168417925050509392505050565b6000819050919050565b6000615a7e615a79615a7484614ec6565b615a59565b614ec6565b9050919050565b6000819050919050565b615a9883615a63565b615aac615aa482615a85565b848454615a07565b825550505050565b600090565b615ac1615ab4565b615acc818484615a8f565b505050565b5b81811015615af057615ae5600082615ab9565b600181019050615ad2565b5050565b601f821115615b3557615b0681615800565b615b0f846159ea565b81016020851015615b1e578190505b615b32615b2a856159ea565b830182615ad1565b50505b505050565b600082821c905092915050565b6000615b5860001984600802615b3a565b1980831691505092915050565b6000615b718383615b47565b9150826002028217905092915050565b615b8a8261537b565b67ffffffffffffffff811115615ba357615ba2615037565b5b615bad82546157be565b615bb8828285615af4565b600060209050601f831160018114615beb5760008415615bd9578287015190505b615be38582615b65565b865550615c4b565b601f198416615bf986615800565b60005b82811015615c2157848901518255600182019150602085019450602081019050615bfc565b86831015615c3e5784890151615c3a601f891682615b47565b8355505b6001600288020188555050505b505050505050565b6000615c5e8261537b565b615c6881856157ef565b9350615c78818560208601615397565b615c8181615026565b840191505092915050565b60006020820190508181036000830152615ca68184615c53565b905092915050565b600080fd5b600060608284031215615cc957615cc8615cae565b5b615cd36060615097565b90506000615ce3848285016158bb565b6000830152506020615cf7848285016158bb565b6020830152506040615d0b848285016158bb565b60408301525092915050565b600060608284031215615d2d57615d2c614e5e565b5b6000615d3b84828501615cb3565b91505092915050565b7f4e487b7100000000000000000000000000000000000000000000000000000000600052601160045260246000fd5b6000615d7e82614ec6565b9150615d8983614ec6565b9250828201905080821115615da157615da0615d44565b5b92915050565b615db081614e88565b82525050565b6000602082019050615dcb6000830184615da7565b92915050565b6000606082019050615de66000830186615da7565b615df36020830185614f72565b615e006040830184614f72565b949350505050565b7f4e487b7100000000000000000000000000000000000000000000000000000000600052601260045260246000fdfea2646970667358221220676ebdd6a6d5d70e56a866007c1a78066b48ecc6b69502231008f357860d4ae364736f6c63430008180033",
  "linkReferences": {},
  "deployedLinkReferences": {}
}