{
  "_format": "hh-sol-artifact-1",
  "contractName": "JPYN",
  "sourceName": "contracts/JPYN.sol",
  "abi": [
    {
      "inputs": [
        {
          "internalType": "address",
          "name": "admin1",
          "type": "address"
        },
        {
          "internalType": "address",
          "name": "admin2",
          "type": "address"
        },
        {
          "internalType": "address",
          "name": "admin3",
          "type": "address"
        },
        {
          "internalType": "address",
          "name": "_jpynOracleAddress",
          "type": "address"
        }
      ],
      "stateMutability": "nonpayable",
      "type": "constructor"
    },
    {
      "inputs": [],
      "name": "AlreadyRegistered",
      "type": "error"
    },
    {
      "inputs": [],
      "name": "AlreadyVotedProposedAdmin",
      "type": "error"
    },
    {
      "inputs": [],
      "name": "AlreadyVotedProposedBankBlackList",
      "type": "error"
    },
    {
      "inputs": [],
      "name": "AlreadyVotedProposedBlackListAddress",
      "type": "error"
    },
    {
      "inputs": [],
      "name": "AlreadyVotedProposedRemoveBankBlackList",
      "type": "error"
    },
    {
      "inputs": [],
      "name": "AlreadyVotedProposedRemoveBlackListAddress",
      "type": "error"
    },
    {
      "inputs": [],
      "name": "AlreadyVotedProposedRemovedAdmin",
      "type": "error"
    },
    {
      "inputs": [],
      "name": "AlreadyVotedProposedTransferFee",
      "type": "error"
    },
    {
      "inputs": [],
      "name": "BankAccountFalse",
      "type": "error"
    },
    {
      "inputs": [],
      "name": "BankBlackList",
      "type": "error"
    },
    {
      "inputs": [],
      "name": "BlackListAddress",
      "type": "error"
    },
    {
      "inputs": [
        {
          "internalType": "address",
          "name": "spender",
          "type": "address"
        },
        {
          "internalType": "uint256",
          "name": "allowance",
          "type": "uint256"
        },
        {
          "internalType": "uint256",
          "name": "needed",
          "type": "uint256"
        }
      ],
      "name": "ERC20InsufficientAllowance",
      "type": "error"
    },
    {
      "inputs": [
        {
          "internalType": "address",
          "name": "sender",
          "type": "address"
        },
        {
          "internalType": "uint256",
          "name": "balance",
          "type": "uint256"
        },
        {
          "internalType": "uint256",
          "name": "needed",
          "type": "uint256"
        }
      ],
      "name": "ERC20InsufficientBalance",
      "type": "error"
    },
    {
      "inputs": [
        {
          "internalType": "address",
          "name": "approver",
          "type": "address"
        }
      ],
      "name": "ERC20InvalidApprover",
      "type": "error"
    },
    {
      "inputs": [
        {
          "internalType": "address",
          "name": "receiver",
          "type": "address"
        }
      ],
      "name": "ERC20InvalidReceiver",
      "type": "error"
    },
    {
      "inputs": [
        {
          "internalType": "address",
          "name": "sender",
          "type": "address"
        }
      ],
      "name": "ERC20InvalidSender",
      "type": "error"
    },
    {
      "inputs": [
        {
          "internalType": "address",
          "name": "spender",
          "type": "address"
        }
      ],
      "name": "ERC20InvalidSpender",
      "type": "error"
    },
    {
      "inputs": [],
      "name": "ExistingAdmin",
      "type": "error"
    },
    {
      "inputs": [],
      "name": "NotEnoughAdmins",
      "type": "error"
    },
    {
      "inputs": [],
      "name": "NotExistingAdmin",
      "type": "error"
    },
    {
      "inputs": [],
      "name": "NotRegistered",
      "type": "error"
    },
    {
      "inputs": [],
      "name": "NotYourAddress",
      "type": "error"
    },
    {
      "inputs": [],
      "name": "OnlyAdmin",
      "type": "error"
    },
    {
      "anonymous": false,
      "inputs": [
        {
          "indexed": true,
          "internalType": "address",
          "name": "owner",
          "type": "address"
        },
        {
          "indexed": true,
          "internalType": "address",
          "name": "spender",
          "type": "address"
        },
        {
          "indexed": false,
          "internalType": "uint256",
          "name": "value",
          "type": "uint256"
        }
      ],
      "name": "Approval",
      "type": "event"
    },
    {
      "anonymous": false,
      "inputs": [
        {
          "indexed": true,
          "internalType": "address",
          "name": "from",
          "type": "address"
        },
        {
          "indexed": true,
          "internalType": "address",
          "name": "to",
          "type": "address"
        },
        {
          "indexed": false,
          "internalType": "uint256",
          "name": "value",
          "type": "uint256"
        }
      ],
      "name": "Transfer",
      "type": "event"
    },
    {
      "anonymous": false,
      "inputs": [
        {
          "indexed": false,
          "internalType": "bool",
          "name": "isSafe",
          "type": "bool"
        }
      ],
      "name": "isSafe",
      "type": "event"
    },
    {
      "inputs": [
        {
          "internalType": "address",
          "name": "owner",
          "type": "address"
        },
        {
          "internalType": "address",
          "name": "spender",
          "type": "address"
        }
      ],
      "name": "allowance",
      "outputs": [
        {
          "internalType": "uint256",
          "name": "",
          "type": "uint256"
        }
      ],
      "stateMutability": "view",
      "type": "function"
    },
    {
      "inputs": [
        {
          "internalType": "address",
          "name": "spender",
          "type": "address"
        },
        {
          "internalType": "uint256",
          "name": "value",
          "type": "uint256"
        }
      ],
      "name": "approve",
      "outputs": [
        {
          "internalType": "bool",
          "name": "",
          "type": "bool"
        }
      ],
      "stateMutability": "nonpayable",
      "type": "function"
    },
    {
      "inputs": [
        {
          "internalType": "address",
          "name": "account",
          "type": "address"
        }
      ],
      "name": "balanceOf",
      "outputs": [
        {
          "internalType": "uint256",
          "name": "",
          "type": "uint256"
        }
      ],
      "stateMutability": "view",
      "type": "function"
    },
    {
      "inputs": [
        {
          "internalType": "uint256",
          "name": "value",
          "type": "uint256"
        }
      ],
      "name": "burn",
      "outputs": [],
      "stateMutability": "nonpayable",
      "type": "function"
    },
    {
      "inputs": [
        {
          "internalType": "uint256",
          "name": "_type",
          "type": "uint256"
        }
      ],
      "name": "getCurrentBankBlackListId",
      "outputs": [
        {
          "internalType": "uint256",
          "name": "",
          "type": "uint256"
        }
      ],
      "stateMutability": "view",
      "type": "function"
    },
    {
      "inputs": [
        {
          "internalType": "uint256",
          "name": "_type",
          "type": "uint256"
        }
      ],
      "name": "getCurrentBlackListAddressId",
      "outputs": [
        {
          "internalType": "uint256",
          "name": "",
          "type": "uint256"
        }
      ],
      "stateMutability": "view",
      "type": "function"
    },
    {
      "inputs": [
        {
          "internalType": "uint256",
          "name": "_type",
          "type": "uint256"
        }
      ],
      "name": "getCurrentProposedAdminId",
      "outputs": [
        {
          "internalType": "uint256",
          "name": "",
          "type": "uint256"
        }
      ],
      "stateMutability": "view",
      "type": "function"
    },
    {
      "inputs": [],
      "name": "getCurrentProposedTransferFeeId",
      "outputs": [
        {
          "internalType": "uint256",
          "name": "",
          "type": "uint256"
        }
      ],
      "stateMutability": "view",
      "type": "function"
    },
    {
      "inputs": [
        {
          "internalType": "uint256",
          "name": "_id",
          "type": "uint256"
        }
      ],
      "name": "getProposedAdmin",
      "outputs": [
        {
          "components": [
            {
              "internalType": "address",
              "name": "proposedAdmin",
              "type": "address"
            },
            {
              "internalType": "address",
              "name": "proposer",
              "type": "address"
            },
            {
              "internalType": "uint256",
              "name": "approvalCount",
              "type": "uint256"
            },
            {
              "internalType": "uint256",
              "name": "rejectCount",
              "type": "uint256"
            },
            {
              "internalType": "uint256",
              "name": "status",
              "type": "uint256"
            }
          ],
          "internalType": "struct JPYN.ReturnProposedAdmin",
          "name": "",
          "type": "tuple"
        }
      ],
      "stateMutability": "view",
      "type": "function"
    },
    {
      "inputs": [
        {
          "internalType": "uint256",
          "name": "_id",
          "type": "uint256"
        }
      ],
      "name": "getProposedBankBlackList",
      "outputs": [
        {
          "components": [
            {
              "internalType": "string",
              "name": "proposedBankBlackList",
              "type": "string"
            },
            {
              "internalType": "address",
              "name": "proposer",
              "type": "address"
            },
            {
              "internalType": "uint256",
              "name": "approvalCount",
              "type": "uint256"
            },
            {
              "internalType": "uint256",
              "name": "rejectCount",
              "type": "uint256"
            },
            {
              "internalType": "uint256",
              "name": "status",
              "type": "uint256"
            }
          ],
          "internalType": "struct JPYN.ReturnBankBlackList",
          "name": "",
          "type": "tuple"
        }
      ],
      "stateMutability": "view",
      "type": "function"
    },
    {
      "inputs": [
        {
          "internalType": "uint256",
          "name": "_id",
          "type": "uint256"
        }
      ],
      "name": "getProposedBlackListAddress",
      "outputs": [
        {
          "components": [
            {
              "internalType": "address",
              "name": "proposedBlackListAddress",
              "type": "address"
            },
            {
              "internalType": "address",
              "name": "proposer",
              "type": "address"
            },
            {
              "internalType": "uint256",
              "name": "approvalCount",
              "type": "uint256"
            },
            {
              "internalType": "uint256",
              "name": "rejectCount",
              "type": "uint256"
            },
            {
              "internalType": "uint256",
              "name": "status",
              "type": "uint256"
            }
          ],
          "internalType": "struct JPYN.ReturnBlackListAddress",
          "name": "",
          "type": "tuple"
        }
      ],
      "stateMutability": "view",
      "type": "function"
    },
    {
      "inputs": [
        {
          "internalType": "uint256",
          "name": "_id",
          "type": "uint256"
        }
      ],
      "name": "getProposedRemoveBankBlackList",
      "outputs": [
        {
          "components": [
            {
              "internalType": "string",
              "name": "proposedRemoveBankBlackList",
              "type": "string"
            },
            {
              "internalType": "address",
              "name": "proposer",
              "type": "address"
            },
            {
              "internalType": "uint256",
              "name": "approvalCount",
              "type": "uint256"
            },
            {
              "internalType": "uint256",
              "name": "rejectCount",
              "type": "uint256"
            },
            {
              "internalType": "uint256",
              "name": "status",
              "type": "uint256"
            }
          ],
          "internalType": "struct JPYN.ReturnRemoveBankBlackList",
          "name": "",
          "type": "tuple"
        }
      ],
      "stateMutability": "view",
      "type": "function"
    },
    {
      "inputs": [
        {
          "internalType": "uint256",
          "name": "_id",
          "type": "uint256"
        }
      ],
      "name": "getProposedRemoveBlackListAddress",
      "outputs": [
        {
          "components": [
            {
              "internalType": "address",
              "name": "proposedRemoveBlackListAddress",
              "type": "address"
            },
            {
              "internalType": "address",
              "name": "proposer",
              "type": "address"
            },
            {
              "internalType": "uint256",
              "name": "approvalCount",
              "type": "uint256"
            },
            {
              "internalType": "uint256",
              "name": "rejectCount",
              "type": "uint256"
            },
            {
              "internalType": "uint256",
              "name": "status",
              "type": "uint256"
            }
          ],
          "internalType": "struct JPYN.ReturnRemoveBlackListAddress",
          "name": "",
          "type": "tuple"
        }
      ],
      "stateMutability": "view",
      "type": "function"
    },
    {
      "inputs": [
        {
          "internalType": "uint256",
          "name": "_id",
          "type": "uint256"
        }
      ],
      "name": "getProposedRemovedAdmin",
      "outputs": [
        {
          "components": [
            {
              "internalType": "address",
              "name": "proposedRemovedAdmin",
              "type": "address"
            },
            {
              "internalType": "address",
              "name": "proposer",
              "type": "address"
            },
            {
              "internalType": "uint256",
              "name": "approvalCount",
              "type": "uint256"
            },
            {
              "internalType": "uint256",
              "name": "rejectCount",
              "type": "uint256"
            },
            {
              "internalType": "uint256",
              "name": "status",
              "type": "uint256"
            }
          ],
          "internalType": "struct JPYN.ReturnProposedRemovedAdmin",
          "name": "",
          "type": "tuple"
        }
      ],
      "stateMutability": "view",
      "type": "function"
    },
    {
      "inputs": [
        {
          "internalType": "uint256",
          "name": "_id",
          "type": "uint256"
        }
      ],
      "name": "getProposedTransferFee",
      "outputs": [
        {
          "components": [
            {
              "internalType": "uint256",
              "name": "proposedTransferFee",
              "type": "uint256"
            },
            {
              "internalType": "address",
              "name": "proposer",
              "type": "address"
            },
            {
              "internalType": "uint256",
              "name": "approvalCount",
              "type": "uint256"
            },
            {
              "internalType": "uint256",
              "name": "rejectCount",
              "type": "uint256"
            },
            {
              "internalType": "uint256",
              "name": "status",
              "type": "uint256"
            }
          ],
          "internalType": "struct JPYN.ReturnProposedTransferFee",
          "name": "",
          "type": "tuple"
        }
      ],
      "stateMutability": "view",
      "type": "function"
    },
    {
      "inputs": [],
      "name": "getTransferFee",
      "outputs": [
        {
          "internalType": "uint256",
          "name": "",
          "type": "uint256"
        }
      ],
      "stateMutability": "view",
      "type": "function"
    },
    {
      "inputs": [
        {
          "internalType": "address",
          "name": "sender",
          "type": "address"
        }
      ],
      "name": "isAdmin",
      "outputs": [
        {
          "internalType": "bool",
          "name": "",
          "type": "bool"
        }
      ],
      "stateMutability": "view",
      "type": "function"
    },
    {
      "inputs": [],
      "name": "isSafeTotalSupply",
      "outputs": [],
      "stateMutability": "nonpayable",
      "type": "function"
    },
    {
      "inputs": [
        {
          "internalType": "string",
          "name": "_hashedBankAccount",
          "type": "string"
        }
      ],
      "name": "mint",
      "outputs": [],
      "stateMutability": "nonpayable",
      "type": "function"
    },
    {
      "inputs": [
        {
          "internalType": "address",
          "name": "_address",
          "type": "address"
        },
        {
          "internalType": "uint256",
          "name": "_type",
          "type": "uint256"
        }
      ],
      "name": "proposeAdmin",
      "outputs": [],
      "stateMutability": "nonpayable",
      "type": "function"
    },
    {
      "inputs": [
        {
          "internalType": "string",
          "name": "_pBankBlackList",
          "type": "string"
        },
        {
          "internalType": "uint256",
          "name": "_type",
          "type": "uint256"
        }
      ],
      "name": "proposeBankBlackList",
      "outputs": [],
      "stateMutability": "nonpayable",
      "type": "function"
    },
    {
      "inputs": [
        {
          "internalType": "address",
          "name": "_blackListAddress",
          "type": "address"
        },
        {
          "internalType": "uint256",
          "name": "_type",
          "type": "uint256"
        }
      ],
      "name": "proposeBlackListAddress",
      "outputs": [],
      "stateMutability": "nonpayable",
      "type": "function"
    },
    {
      "inputs": [
        {
          "internalType": "uint256",
          "name": "_newTransferFee",
          "type": "uint256"
        }
      ],
      "name": "proposeTransferFee",
      "outputs": [],
      "stateMutability": "nonpayable",
      "type": "function"
    },
    {
      "inputs": [
        {
          "internalType": "string",
          "name": "_hashedBankAccount",
          "type": "string"
        }
      ],
      "name": "registerAddressToBank",
      "outputs": [],
      "stateMutability": "nonpayable",
      "type": "function"
    },
    {
      "inputs": [],
      "name": "requestIsSafeTotalSupply",
      "outputs": [],
      "stateMutability": "nonpayable",
      "type": "function"
    },
    {
      "inputs": [],
      "name": "totalSupply",
      "outputs": [
        {
          "internalType": "uint256",
          "name": "",
          "type": "uint256"
        }
      ],
      "stateMutability": "view",
      "type": "function"
    },
    {
      "inputs": [
        {
          "internalType": "address",
          "name": "to",
          "type": "address"
        },
        {
          "internalType": "uint256",
          "name": "value",
          "type": "uint256"
        }
      ],
      "name": "transfer",
      "outputs": [
        {
          "internalType": "bool",
          "name": "",
          "type": "bool"
        }
      ],
      "stateMutability": "nonpayable",
      "type": "function"
    },
    {
      "inputs": [
        {
          "internalType": "address",
          "name": "from",
          "type": "address"
        },
        {
          "internalType": "address",
          "name": "to",
          "type": "address"
        },
        {
          "internalType": "uint256",
          "name": "value",
          "type": "uint256"
        }
      ],
      "name": "transferFrom",
      "outputs": [
        {
          "internalType": "bool",
          "name": "",
          "type": "bool"
        }
      ],
      "stateMutability": "nonpayable",
      "type": "function"
    },
    {
      "inputs": [
        {
          "internalType": "uint256",
          "name": "_id",
          "type": "uint256"
        },
        {
          "internalType": "bool",
          "name": "_vote",
          "type": "bool"
        },
        {
          "internalType": "uint256",
          "name": "_type",
          "type": "uint256"
        }
      ],
      "name": "voteProposedAdmin",
      "outputs": [],
      "stateMutability": "nonpayable",
      "type": "function"
    },
    {
      "inputs": [
        {
          "internalType": "uint256",
          "name": "_id",
          "type": "uint256"
        },
        {
          "internalType": "bool",
          "name": "_vote",
          "type": "bool"
        },
        {
          "internalType": "uint256",
          "name": "_type",
          "type": "uint256"
        }
      ],
      "name": "voteProposedBankBlackList",
      "outputs": [],
      "stateMutability": "nonpayable",
      "type": "function"
    },
    {
      "inputs": [
        {
          "internalType": "uint256",
          "name": "_id",
          "type": "uint256"
        },
        {
          "internalType": "bool",
          "name": "_vote",
          "type": "bool"
        },
        {
          "internalType": "uint256",
          "name": "_type",
          "type": "uint256"
        }
      ],
      "name": "voteProposedBlackListAddress",
      "outputs": [],
      "stateMutability": "nonpayable",
      "type": "function"
    },
    {
      "inputs": [
        {
          "internalType": "uint256",
          "name": "_id",
          "type": "uint256"
        },
        {
          "internalType": "bool",
          "name": "_vote",
          "type": "bool"
        }
      ],
      "name": "voteProposedTransferFee",
      "outputs": [],
      "stateMutability": "nonpayable",
      "type": "function"
    }
  ],
  "bytecode": "0x60806040523480156200001157600080fd5b5060405162005fd938038062005fd98339818101604052810190620000379190620003cd565b6040518060400160405280600481526020017f4a50594e00000000000000000000000000000000000000000000000000000000815250601990816200007d9190620006b9565b506040518060400160405280600481526020017f4a50594e00000000000000000000000000000000000000000000000000000000815250601a9081620000c49190620006b9565b506003601b60006101000a81548160ff021916908360ff1602179055506003601c819055506003601d819055506002601e819055506003601f81905550600a60228190555060006023819055506001600360008673ffffffffffffffffffffffffffffffffffffffff1673ffffffffffffffffffffffffffffffffffffffff16815260200190815260200160002060006101000a81548160ff0219169083151502179055506001600360008573ffffffffffffffffffffffffffffffffffffffff1673ffffffffffffffffffffffffffffffffffffffff16815260200190815260200160002060006101000a81548160ff0219169083151502179055506001600360008473ffffffffffffffffffffffffffffffffffffffff1673ffffffffffffffffffffffffffffffffffffffff16815260200190815260200160002060006101000a81548160ff021916908315150217905550836004600080815260200190815260200160002060006101000a81548173ffffffffffffffffffffffffffffffffffffffff021916908373ffffffffffffffffffffffffffffffffffffffff16021790555082600460006001815260200190815260200160002060006101000a81548173ffffffffffffffffffffffffffffffffffffffff021916908373ffffffffffffffffffffffffffffffffffffffff16021790555081600460006002815260200190815260200160002060006101000a81548173ffffffffffffffffffffffffffffffffffffffff021916908373ffffffffffffffffffffffffffffffffffffffff1602179055506000602181905550806000806101000a81548173ffffffffffffffffffffffffffffffffffffffff021916908373ffffffffffffffffffffffffffffffffffffffff16021790555050505050620007a0565b600080fd5b600073ffffffffffffffffffffffffffffffffffffffff82169050919050565b6000620003958262000368565b9050919050565b620003a78162000388565b8114620003b357600080fd5b50565b600081519050620003c7816200039c565b92915050565b60008060008060808587031215620003ea57620003e962000363565b5b6000620003fa87828801620003b6565b94505060206200040d87828801620003b6565b93505060406200042087828801620003b6565b92505060606200043387828801620003b6565b91505092959194509250565b600081519050919050565b7f4e487b7100000000000000000000000000000000000000000000000000000000600052604160045260246000fd5b7f4e487b7100000000000000000000000000000000000000000000000000000000600052602260045260246000fd5b60006002820490506001821680620004c157607f821691505b602082108103620004d757620004d662000479565b5b50919050565b60008190508160005260206000209050919050565b60006020601f8301049050919050565b600082821b905092915050565b600060088302620005417fffffffffffffffffffffffffffffffffffffffffffffffffffffffffffffffff8262000502565b6200054d868362000502565b95508019841693508086168417925050509392505050565b6000819050919050565b6000819050919050565b60006200059a620005946200058e8462000565565b6200056f565b62000565565b9050919050565b6000819050919050565b620005b68362000579565b620005ce620005c582620005a1565b8484546200050f565b825550505050565b600090565b620005e5620005d6565b620005f2818484620005ab565b505050565b5b818110156200061a576200060e600082620005db565b600181019050620005f8565b5050565b601f82111562000669576200063381620004dd565b6200063e84620004f2565b810160208510156200064e578190505b620006666200065d85620004f2565b830182620005f7565b50505b505050565b600082821c905092915050565b60006200068e600019846008026200066e565b1980831691505092915050565b6000620006a983836200067b565b9150826002028217905092915050565b620006c4826200043f565b67ffffffffffffffff811115620006e057620006df6200044a565b5b620006ec8254620004a8565b620006f98282856200061e565b600060209050601f8311600181146200073157600084156200071c578287015190505b6200072885826200069b565b86555062000798565b601f1984166200074186620004dd565b60005b828110156200076b5784890151825560018201915060208501945060208101905062000744565b868310156200078b578489015162000787601f8916826200067b565b8355505b6001600288020188555050505b505050505050565b61582980620007b06000396000f3fe608060405234801561001057600080fd5b50600436106101f05760003560e01c8063a3f70e5d1161010f578063d69e0119116100a2578063dd62ed3e11610071578063dd62ed3e146105eb578063e41f23581461061b578063f00f809b1461064b578063f573da121461067b576101f0565b8063d69e011914610553578063d85d3d2714610583578063da13313d1461059f578063dd28597f146105bb576101f0565b8063ba0ffef1116100de578063ba0ffef1146104b9578063c635f2d3146104d7578063ccd72e8114610507578063cdf8f8da14610537576101f0565b8063a3f70e5d14610421578063a9059cbb1461043d578063a9bc2fd81461046d578063ad25919014610489576101f0565b80634d43f8351161018757806383dce72a1161015657806383dce72a146103875780638f46c720146103b75780639a17d8c1146103e7578063a16511e614610405576101f0565b80634d43f835146102ef57806353d516da1461030b57806367e1d2ec1461033b57806370a0823114610357576101f0565b806324d7806c116101c357806324d7806c1461027d57806331601d4a146102ad57806342966c68146102c95780634cbd61aa146102e5576101f0565b80630824791c146101f5578063095ea7b3146101ff57806318160ddd1461022f57806323b872dd1461024d575b600080fd5b6101fd610697565b005b610219600480360381019061021491906148b8565b610821565b6040516102269190614913565b60405180910390f35b61023761083d565b604051610244919061493d565b60405180910390f35b61026760048036038101906102629190614958565b610847565b6040516102749190614913565b60405180910390f35b610297600480360381019061029291906149ab565b6108e6565b6040516102a49190614913565b60405180910390f35b6102c760048036038101906102c29190614b1e565b6109c0565b005b6102e360048036038101906102de9190614b67565b610ca5565b005b6102ed610cb4565b005b61030960048036038101906103049190614bc0565b610ebb565b005b61032560048036038101906103209190614b67565b6113cd565b6040516103329190614c99565b60405180910390f35b610355600480360381019061035091906148b8565b61151f565b005b610371600480360381019061036c91906149ab565b6117da565b60405161037e919061493d565b60405180910390f35b6103a1600480360381019061039c9190614b67565b611823565b6040516103ae9190614d1c565b60405180910390f35b6103d160048036038101906103cc9190614b67565b611975565b6040516103de919061493d565b60405180910390f35b6103ef611a18565b6040516103fc919061493d565b60405180910390f35b61041f600480360381019061041a91906148b8565b611aa6565b005b61043b60048036038101906104369190614bc0565b611de5565b005b610457600480360381019061045291906148b8565b612259565b6040516104649190614913565b60405180910390f35b61048760048036038101906104829190614b67565b61236d565b005b6104a3600480360381019061049e9190614b67565b61252d565b6040516104b09190614e2c565b60405180910390f35b6104c16126d1565b6040516104ce919061493d565b60405180910390f35b6104f160048036038101906104ec9190614b67565b61275f565b6040516104fe919061493d565b60405180910390f35b610521600480360381019061051c9190614b67565b612802565b60405161052e9190614eb6565b60405180910390f35b610551600480360381019061054c9190614bc0565b612954565b005b61056d60048036038101906105689190614b67565b612de2565b60405161057a9190614f39565b60405180910390f35b61059d60048036038101906105989190614b1e565b612efe565b005b6105b960048036038101906105b49190614f54565b61320d565b005b6105d560048036038101906105d09190614b67565b613466565b6040516105e2919061493d565b60405180910390f35b61060560048036038101906106009190614fb0565b613509565b604051610612919061493d565b60405180910390f35b61063560048036038101906106309190614b67565b613590565b6040516106429190615058565b60405180910390f35b61066560048036038101906106609190614b67565b6136e2565b60405161067291906150e9565b60405180910390f35b6106956004803603810190610690919061510b565b613886565b005b601360003373ffffffffffffffffffffffffffffffffffffffff1673ffffffffffffffffffffffffffffffffffffffff16815260200190815260200160002060009054906101000a900460ff161561071b576040517fad69852600000000000000000000000000000000000000000000000000000000815260040160405180910390fd5b60005b60205481101561081e5760008060009054906101000a900473ffffffffffffffffffffffffffffffffffffffff1673ffffffffffffffffffffffffffffffffffffffff16631b146ecf601760008581526020019081526020016000206040518263ffffffff1660e01b81526004016107969190615255565b6020604051808303816000875af11580156107b5573d6000803e3d6000fd5b505050506040513d601f19601f820116820180604052508101906107d9919061528c565b9050806016601760008581526020019081526020016000206040516107fe9190615347565b90815260200160405180910390208190555050808060010191505061071e565b50565b600080339050610832818585613b3b565b600191505092915050565b6000601854905090565b60008033905061085c85826022548601613b4d565b6000602254146108cf576108a88160046000602154815260200190815260200160002060009054906101000a900473ffffffffffffffffffffffffffffffffffffffff16602254613be1565b602160008154809291906001019190505550601f54602154036108ce5760006021819055505b5b6108da858585613be1565b60019150509392505050565b6000601360003373ffffffffffffffffffffffffffffffffffffffff1673ffffffffffffffffffffffffffffffffffffffff16815260200190815260200160002060009054906101000a900460ff161561096c576040517fad69852600000000000000000000000000000000000000000000000000000000815260040160405180910390fd5b600360008373ffffffffffffffffffffffffffffffffffffffff1673ffffffffffffffffffffffffffffffffffffffff16815260200190815260200160002060009054906101000a900460ff169050919050565b601360003373ffffffffffffffffffffffffffffffffffffffff1673ffffffffffffffffffffffffffffffffffffffff16815260200190815260200160002060009054906101000a900460ff1615610a44576040517fad69852600000000000000000000000000000000000000000000000000000000815260040160405180910390fd5b601481604051610a54919061538f565b908152602001604051809103902060009054906101000a900460ff1615610aa7576040517fafcd147f00000000000000000000000000000000000000000000000000000000815260040160405180910390fd5b600073ffffffffffffffffffffffffffffffffffffffff16601582604051610acf919061538f565b908152602001604051809103902060009054906101000a900473ffffffffffffffffffffffffffffffffffffffff1673ffffffffffffffffffffffffffffffffffffffff1614610b4b576040517f3a81d6fc00000000000000000000000000000000000000000000000000000000815260040160405180910390fd5b33601582604051610b5c919061538f565b908152602001604051809103902060006101000a81548173ffffffffffffffffffffffffffffffffffffffff021916908373ffffffffffffffffffffffffffffffffffffffff160217905550806017600060205481526020019081526020016000209081610bca919061553d565b5060206000815480929190600101919050555060008060009054906101000a900473ffffffffffffffffffffffffffffffffffffffff1673ffffffffffffffffffffffffffffffffffffffff16631b146ecf836040518263ffffffff1660e01b8152600401610c399190615648565b6020604051808303816000875af1158015610c58573d6000803e3d6000fd5b505050506040513d601f19601f82011682018060405250810190610c7c919061528c565b905080601683604051610c8f919061538f565b9081526020016040518091039020819055505050565b610cb133600083613cd5565b50565b601360003373ffffffffffffffffffffffffffffffffffffffff1673ffffffffffffffffffffffffffffffffffffffff16815260200190815260200160002060009054906101000a900460ff1615610d38576040517fad69852600000000000000000000000000000000000000000000000000000000815260040160405180910390fd5b6000805b602054811015610e375760008060009054906101000a900473ffffffffffffffffffffffffffffffffffffffff1673ffffffffffffffffffffffffffffffffffffffff1663c58343ef601660176000868152602001908152602001600020604051610da79190615347565b9081526020016040518091039020546040518263ffffffff1660e01b8152600401610dd2919061493d565b6060604051808303816000875af1158015610df1573d6000803e3d6000fd5b505050506040513d601f19601f82011682018060405250810190610e1591906156d3565b9050806040015183610e27919061572f565b9250508080600101915050610d3c565b50601854811015610e7f577f9c059596d01d852c29f0ac7e96c767201380785bfe760c293ebab95a4832da6b6000604051610e729190614913565b60405180910390a1610eb8565b7f9c059596d01d852c29f0ac7e96c767201380785bfe760c293ebab95a4832da6b6001604051610eaf9190614913565b60405180910390a15b50565b600360003373ffffffffffffffffffffffffffffffffffffffff1673ffffffffffffffffffffffffffffffffffffffff16815260200190815260200160002060009054906101000a900460ff16610f3e576040517f4755657900000000000000000000000000000000000000000000000000000000815260040160405180910390fd5b601360003373ffffffffffffffffffffffffffffffffffffffff1673ffffffffffffffffffffffffffffffffffffffff16815260200190815260200160002060009054906101000a900460ff1615610fc2576040517fad69852600000000000000000000000000000000000000000000000000000000815260040160405180910390fd5b601d54601c541015611000576040517fff7e6cf800000000000000000000000000000000000000000000000000000000815260040160405180910390fd5b600081036111ea5760006007600085815260200190815260200160002090508060050160003373ffffffffffffffffffffffffffffffffffffffff1673ffffffffffffffffffffffffffffffffffffffff16815260200190815260200160002060009054906101000a900460ff16156110a5576040517f1c24747300000000000000000000000000000000000000000000000000000000815260040160405180910390fd5b82156110c45780600201600081548092919060010191905055506110d9565b80600301600081548092919060010191905055505b60018160050160003373ffffffffffffffffffffffffffffffffffffffff1673ffffffffffffffffffffffffffffffffffffffff16815260200190815260200160002060006101000a81548160ff021916908315150217905550601e548160020154106111cb576001601360008360000160009054906101000a900473ffffffffffffffffffffffffffffffffffffffff1673ffffffffffffffffffffffffffffffffffffffff1673ffffffffffffffffffffffffffffffffffffffff16815260200190815260200160002060006101000a81548160ff021916908315150217905550600181600401819055506111e4565b601e548160030154106111e357600281600401819055505b5b506113c8565b60006009600085815260200190815260200160002090508060050160003373ffffffffffffffffffffffffffffffffffffffff1673ffffffffffffffffffffffffffffffffffffffff16815260200190815260200160002060009054906101000a900460ff1615611287576040517fc8518c6b00000000000000000000000000000000000000000000000000000000815260040160405180910390fd5b82156112a65780600201600081548092919060010191905055506112bb565b80600301600081548092919060010191905055505b60018160050160003373ffffffffffffffffffffffffffffffffffffffff1673ffffffffffffffffffffffffffffffffffffffff16815260200190815260200160002060006101000a81548160ff021916908315150217905550601e548160020154106113ad576000601360008360000160009054906101000a900473ffffffffffffffffffffffffffffffffffffffff1673ffffffffffffffffffffffffffffffffffffffff1673ffffffffffffffffffffffffffffffffffffffff16815260200190815260200160002060006101000a81548160ff021916908315150217905550600181600401819055506113c6565b601e548160030154106113c557600281600401819055505b5b505b505050565b6113d56145d5565b601360003373ffffffffffffffffffffffffffffffffffffffff1673ffffffffffffffffffffffffffffffffffffffff16815260200190815260200160002060009054906101000a900460ff1615611459576040517fad69852600000000000000000000000000000000000000000000000000000000815260040160405180910390fd5b60006009600084815260200190815260200160002090506040518060a001604052808260000160009054906101000a900473ffffffffffffffffffffffffffffffffffffffff1673ffffffffffffffffffffffffffffffffffffffff1681526020018260010160009054906101000a900473ffffffffffffffffffffffffffffffffffffffff1673ffffffffffffffffffffffffffffffffffffffff16815260200182600201548152602001826003015481526020018260040154815250915050919050565b600360003373ffffffffffffffffffffffffffffffffffffffff1673ffffffffffffffffffffffffffffffffffffffff16815260200190815260200160002060009054906101000a900460ff166115a2576040517f4755657900000000000000000000000000000000000000000000000000000000815260040160405180910390fd5b601360003373ffffffffffffffffffffffffffffffffffffffff1673ffffffffffffffffffffffffffffffffffffffff16815260200190815260200160002060009054906101000a900460ff1615611626576040517fad69852600000000000000000000000000000000000000000000000000000000815260040160405180910390fd5b601d54601c541015611664576040517fff7e6cf800000000000000000000000000000000000000000000000000000000815260040160405180910390fd5b600081036117235760006007600060085481526020019081526020016000209050828160000160006101000a81548173ffffffffffffffffffffffffffffffffffffffff021916908373ffffffffffffffffffffffffffffffffffffffff160217905550338160010160006101000a81548173ffffffffffffffffffffffffffffffffffffffff021916908373ffffffffffffffffffffffffffffffffffffffff160217905550600860008154809291906001019190505550506117d6565b600060096000600a5481526020019081526020016000209050828160000160006101000a81548173ffffffffffffffffffffffffffffffffffffffff021916908373ffffffffffffffffffffffffffffffffffffffff160217905550338160010160006101000a81548173ffffffffffffffffffffffffffffffffffffffff021916908373ffffffffffffffffffffffffffffffffffffffff160217905550600a60008154809291906001019190505550505b5050565b6000600160008373ffffffffffffffffffffffffffffffffffffffff1673ffffffffffffffffffffffffffffffffffffffff168152602001908152602001600020549050919050565b61182b614630565b601360003373ffffffffffffffffffffffffffffffffffffffff1673ffffffffffffffffffffffffffffffffffffffff16815260200190815260200160002060009054906101000a900460ff16156118af576040517fad69852600000000000000000000000000000000000000000000000000000000815260040160405180910390fd5b60006007600084815260200190815260200160002090506040518060a001604052808260000160009054906101000a900473ffffffffffffffffffffffffffffffffffffffff1673ffffffffffffffffffffffffffffffffffffffff1681526020018260010160009054906101000a900473ffffffffffffffffffffffffffffffffffffffff1673ffffffffffffffffffffffffffffffffffffffff16815260200182600201548152602001826003015481526020018260040154815250915050919050565b6000601360003373ffffffffffffffffffffffffffffffffffffffff1673ffffffffffffffffffffffffffffffffffffffff16815260200190815260200160002060009054906101000a900460ff16156119fb576040517fad69852600000000000000000000000000000000000000000000000000000000815260040160405180910390fd5b60008203611a0d57600c549050611a13565b600e5490505b919050565b6000601360003373ffffffffffffffffffffffffffffffffffffffff1673ffffffffffffffffffffffffffffffffffffffff16815260200190815260200160002060009054906101000a900460ff1615611a9e576040517fad69852600000000000000000000000000000000000000000000000000000000815260040160405180910390fd5b602254905090565b600360003373ffffffffffffffffffffffffffffffffffffffff1673ffffffffffffffffffffffffffffffffffffffff16815260200190815260200160002060009054906101000a900460ff16611b29576040517f4755657900000000000000000000000000000000000000000000000000000000815260040160405180910390fd5b601360003373ffffffffffffffffffffffffffffffffffffffff1673ffffffffffffffffffffffffffffffffffffffff16815260200190815260200160002060009054906101000a900460ff1615611bad576040517fad69852600000000000000000000000000000000000000000000000000000000815260040160405180910390fd5b601d54601c541015611beb576040517fff7e6cf800000000000000000000000000000000000000000000000000000000815260040160405180910390fd5b60008103611d2e57600360008373ffffffffffffffffffffffffffffffffffffffff1673ffffffffffffffffffffffffffffffffffffffff16815260200190815260200160002060009054906101000a900460ff1615611c77576040517f2478fb0400000000000000000000000000000000000000000000000000000000815260040160405180910390fd5b6000600f600060105481526020019081526020016000209050828160000160006101000a81548173ffffffffffffffffffffffffffffffffffffffff021916908373ffffffffffffffffffffffffffffffffffffffff160217905550338160010160006101000a81548173ffffffffffffffffffffffffffffffffffffffff021916908373ffffffffffffffffffffffffffffffffffffffff16021790555060106000815480929190600101919050555050611de1565b60006011600060125481526020019081526020016000209050828160000160006101000a81548173ffffffffffffffffffffffffffffffffffffffff021916908373ffffffffffffffffffffffffffffffffffffffff160217905550338160010160006101000a81548173ffffffffffffffffffffffffffffffffffffffff021916908373ffffffffffffffffffffffffffffffffffffffff160217905550601260008154809291906001019190505550505b5050565b600360003373ffffffffffffffffffffffffffffffffffffffff1673ffffffffffffffffffffffffffffffffffffffff16815260200190815260200160002060009054906101000a900460ff16611e68576040517f4755657900000000000000000000000000000000000000000000000000000000815260040160405180910390fd5b601360003373ffffffffffffffffffffffffffffffffffffffff1673ffffffffffffffffffffffffffffffffffffffff16815260200190815260200160002060009054906101000a900460ff1615611eec576040517fad69852600000000000000000000000000000000000000000000000000000000815260040160405180910390fd5b601d54601c541015611f2a576040517fff7e6cf800000000000000000000000000000000000000000000000000000000815260040160405180910390fd5b600081036120c5576000600f600085815260200190815260200160002090508060050160003373ffffffffffffffffffffffffffffffffffffffff1673ffffffffffffffffffffffffffffffffffffffff16815260200190815260200160002060009054906101000a900460ff1615611fcf576040517fea35ba7900000000000000000000000000000000000000000000000000000000815260040160405180910390fd5b8215611fee578060020160008154809291906001019190505550612003565b80600301600081548092919060010191905055505b60018160050160003373ffffffffffffffffffffffffffffffffffffffff1673ffffffffffffffffffffffffffffffffffffffff16815260200190815260200160002060006101000a81548160ff021916908315150217905550601e548160020154106120a6576120978160000160009054906101000a900473ffffffffffffffffffffffffffffffffffffffff16613efd565b600181600401819055506120bf565b601e548160030154106120be57600281600401819055505b5b50612254565b60006011600085815260200190815260200160002090508060050160003373ffffffffffffffffffffffffffffffffffffffff1673ffffffffffffffffffffffffffffffffffffffff16815260200190815260200160002060009054906101000a900460ff1615612162576040517f7fae296600000000000000000000000000000000000000000000000000000000815260040160405180910390fd5b8215612181578060020160008154809291906001019190505550612196565b80600301600081548092919060010191905055505b60018160050160003373ffffffffffffffffffffffffffffffffffffffff1673ffffffffffffffffffffffffffffffffffffffff16815260200190815260200160002060006101000a81548160ff021916908315150217905550601e548160020154106122395761222a8160000160009054906101000a900473ffffffffffffffffffffffffffffffffffffffff16614191565b60018160040181905550612252565b601e5481600301541061225157600281600401819055505b5b505b505050565b6000601360003373ffffffffffffffffffffffffffffffffffffffff1673ffffffffffffffffffffffffffffffffffffffff16815260200190815260200160002060009054906101000a900460ff16156122df576040517fad69852600000000000000000000000000000000000000000000000000000000815260040160405180910390fd5b6000339050600060225414612357576123308160046000602154815260200190815260200160002060009054906101000a900473ffffffffffffffffffffffffffffffffffffffff16602254613be1565b602160008154809291906001019190505550601f54602154036123565760006021819055505b5b612362818585613be1565b600191505092915050565b600360003373ffffffffffffffffffffffffffffffffffffffff1673ffffffffffffffffffffffffffffffffffffffff16815260200190815260200160002060009054906101000a900460ff166123f0576040517f4755657900000000000000000000000000000000000000000000000000000000815260040160405180910390fd5b601360003373ffffffffffffffffffffffffffffffffffffffff1673ffffffffffffffffffffffffffffffffffffffff16815260200190815260200160002060009054906101000a900460ff1615612474576040517fad69852600000000000000000000000000000000000000000000000000000000815260040160405180910390fd5b601d54601c5410156124b2576040517fff7e6cf800000000000000000000000000000000000000000000000000000000815260040160405180910390fd5b60006005600060065481526020019081526020016000209050818160000181905550338160010160006101000a81548173ffffffffffffffffffffffffffffffffffffffff021916908373ffffffffffffffffffffffffffffffffffffffff1602179055506006600081548092919060010191905055505050565b61253561468b565b601360003373ffffffffffffffffffffffffffffffffffffffff1673ffffffffffffffffffffffffffffffffffffffff16815260200190815260200160002060009054906101000a900460ff16156125b9576040517fad69852600000000000000000000000000000000000000000000000000000000815260040160405180910390fd5b6000600b600084815260200190815260200160002090506040518060a001604052808260000180546125ea9061517a565b80601f01602080910402602001604051908101604052809291908181526020018280546126169061517a565b80156126635780601f1061263857610100808354040283529160200191612663565b820191906000526020600020905b81548152906001019060200180831161264657829003601f168201915b505050505081526020018260010160009054906101000a900473ffffffffffffffffffffffffffffffffffffffff1673ffffffffffffffffffffffffffffffffffffffff16815260200182600201548152602001826003015481526020018260040154815250915050919050565b6000601360003373ffffffffffffffffffffffffffffffffffffffff1673ffffffffffffffffffffffffffffffffffffffff16815260200190815260200160002060009054906101000a900460ff1615612757576040517fad69852600000000000000000000000000000000000000000000000000000000815260040160405180910390fd5b600654905090565b6000601360003373ffffffffffffffffffffffffffffffffffffffff1673ffffffffffffffffffffffffffffffffffffffff16815260200190815260200160002060009054906101000a900460ff16156127e5576040517fad69852600000000000000000000000000000000000000000000000000000000815260040160405180910390fd5b600082036127f75760105490506127fd565b60125490505b919050565b61280a6146d0565b601360003373ffffffffffffffffffffffffffffffffffffffff1673ffffffffffffffffffffffffffffffffffffffff16815260200190815260200160002060009054906101000a900460ff161561288e576040517fad69852600000000000000000000000000000000000000000000000000000000815260040160405180910390fd5b60006011600084815260200190815260200160002090506040518060a001604052808260000160009054906101000a900473ffffffffffffffffffffffffffffffffffffffff1673ffffffffffffffffffffffffffffffffffffffff1681526020018260010160009054906101000a900473ffffffffffffffffffffffffffffffffffffffff1673ffffffffffffffffffffffffffffffffffffffff16815260200182600201548152602001826003015481526020018260040154815250915050919050565b600360003373ffffffffffffffffffffffffffffffffffffffff1673ffffffffffffffffffffffffffffffffffffffff16815260200190815260200160002060009054906101000a900460ff166129d7576040517f4755657900000000000000000000000000000000000000000000000000000000815260040160405180910390fd5b601360003373ffffffffffffffffffffffffffffffffffffffff1673ffffffffffffffffffffffffffffffffffffffff16815260200190815260200160002060009054906101000a900460ff1615612a5b576040517fad69852600000000000000000000000000000000000000000000000000000000815260040160405180910390fd5b601d54601c541015612a99576040517fff7e6cf800000000000000000000000000000000000000000000000000000000815260040160405180910390fd5b60008103612c41576000600b600085815260200190815260200160002090508060050160003373ffffffffffffffffffffffffffffffffffffffff1673ffffffffffffffffffffffffffffffffffffffff16815260200190815260200160002060009054906101000a900460ff1615612b3e576040517fa9590e5300000000000000000000000000000000000000000000000000000000815260040160405180910390fd5b8215612b5d578060020160008154809291906001019190505550612b72565b80600301600081548092919060010191905055505b60018160050160003373ffffffffffffffffffffffffffffffffffffffff1673ffffffffffffffffffffffffffffffffffffffff16815260200190815260200160002060006101000a81548160ff021916908315150217905550601e54816002015410612c22576001601482600001604051612bee9190615347565b908152602001604051809103902060006101000a81548160ff02191690831515021790555060018160040181905550612c3b565b601e54816003015410612c3a57600281600401819055505b5b50612ddd565b6000600d600085815260200190815260200160002090508060050160003373ffffffffffffffffffffffffffffffffffffffff1673ffffffffffffffffffffffffffffffffffffffff16815260200190815260200160002060009054906101000a900460ff1615612cde576040517f7e6c0ae200000000000000000000000000000000000000000000000000000000815260040160405180910390fd5b8215612cfd578060020160008154809291906001019190505550612d12565b80600301600081548092919060010191905055505b60018160050160003373ffffffffffffffffffffffffffffffffffffffff1673ffffffffffffffffffffffffffffffffffffffff16815260200190815260200160002060006101000a81548160ff021916908315150217905550601e54816002015410612dc2576000601482600001604051612d8e9190615347565b908152602001604051809103902060006101000a81548160ff02191690831515021790555060018160040181905550612ddb565b601e54816003015410612dda57600281600401819055505b5b505b505050565b612dea61472b565b601360003373ffffffffffffffffffffffffffffffffffffffff1673ffffffffffffffffffffffffffffffffffffffff16815260200190815260200160002060009054906101000a900460ff1615612e6e576040517fad69852600000000000000000000000000000000000000000000000000000000815260040160405180910390fd5b60006005600084815260200190815260200160002090506040518060a00160405280826000015481526020018260010160009054906101000a900473ffffffffffffffffffffffffffffffffffffffff1673ffffffffffffffffffffffffffffffffffffffff16815260200182600201548152602001826003015481526020018260040154815250915050919050565b601481604051612f0e919061538f565b908152602001604051809103902060009054906101000a900460ff1615612f61576040517fafcd147f00000000000000000000000000000000000000000000000000000000815260040160405180910390fd5b600073ffffffffffffffffffffffffffffffffffffffff16601582604051612f89919061538f565b908152602001604051809103902060009054906101000a900473ffffffffffffffffffffffffffffffffffffffff1673ffffffffffffffffffffffffffffffffffffffff1603613005576040517faba4733900000000000000000000000000000000000000000000000000000000815260040160405180910390fd5b3373ffffffffffffffffffffffffffffffffffffffff1660158260405161302c919061538f565b908152602001604051809103902060009054906101000a900473ffffffffffffffffffffffffffffffffffffffff1673ffffffffffffffffffffffffffffffffffffffff16146130a8576040517f42bb320900000000000000000000000000000000000000000000000000000000815260040160405180910390fd5b60006016826040516130ba919061538f565b908152602001604051809103902054905060008060009054906101000a900473ffffffffffffffffffffffffffffffffffffffff1673ffffffffffffffffffffffffffffffffffffffff1663c58343ef836040518263ffffffff1660e01b8152600401613127919061493d565b6060604051808303816000875af1158015613146573d6000803e3d6000fd5b505050506040513d601f19601f8201168201806040525081019061316a91906156d3565b9050600081602001511480613183575060028160200151145b156131ba576040517f48a6529400000000000000000000000000000000000000000000000000000000815260040160405180910390fd5b61320860006015856040516131cf919061538f565b908152602001604051809103902060009054906101000a900473ffffffffffffffffffffffffffffffffffffffff168360400151613cd5565b505050565b600360003373ffffffffffffffffffffffffffffffffffffffff1673ffffffffffffffffffffffffffffffffffffffff16815260200190815260200160002060009054906101000a900460ff16613290576040517f4755657900000000000000000000000000000000000000000000000000000000815260040160405180910390fd5b601360003373ffffffffffffffffffffffffffffffffffffffff1673ffffffffffffffffffffffffffffffffffffffff16815260200190815260200160002060009054906101000a900460ff1615613314576040517fad69852600000000000000000000000000000000000000000000000000000000815260040160405180910390fd5b601d54601c541015613352576040517fff7e6cf800000000000000000000000000000000000000000000000000000000815260040160405180910390fd5b600081036133e0576000600b6000600c548152602001908152602001600020905082816000019081613384919061553d565b50338160010160006101000a81548173ffffffffffffffffffffffffffffffffffffffff021916908373ffffffffffffffffffffffffffffffffffffffff160217905550600c6000815480929190600101919050555050613462565b6000600d6000600e54815260200190815260200160002090508281600001908161340a919061553d565b50338160010160006101000a81548173ffffffffffffffffffffffffffffffffffffffff021916908373ffffffffffffffffffffffffffffffffffffffff160217905550600e60008154809291906001019190505550505b5050565b6000601360003373ffffffffffffffffffffffffffffffffffffffff1673ffffffffffffffffffffffffffffffffffffffff16815260200190815260200160002060009054906101000a900460ff16156134ec576040517fad69852600000000000000000000000000000000000000000000000000000000815260040160405180910390fd5b600082036134fe576008549050613504565b600a5490505b919050565b6000600260008473ffffffffffffffffffffffffffffffffffffffff1673ffffffffffffffffffffffffffffffffffffffff16815260200190815260200160002060008373ffffffffffffffffffffffffffffffffffffffff1673ffffffffffffffffffffffffffffffffffffffff16815260200190815260200160002054905092915050565b613598614770565b601360003373ffffffffffffffffffffffffffffffffffffffff1673ffffffffffffffffffffffffffffffffffffffff16815260200190815260200160002060009054906101000a900460ff161561361c576040517fad69852600000000000000000000000000000000000000000000000000000000815260040160405180910390fd5b6000600f600084815260200190815260200160002090506040518060a001604052808260000160009054906101000a900473ffffffffffffffffffffffffffffffffffffffff1673ffffffffffffffffffffffffffffffffffffffff1681526020018260010160009054906101000a900473ffffffffffffffffffffffffffffffffffffffff1673ffffffffffffffffffffffffffffffffffffffff16815260200182600201548152602001826003015481526020018260040154815250915050919050565b6136ea6147cb565b601360003373ffffffffffffffffffffffffffffffffffffffff1673ffffffffffffffffffffffffffffffffffffffff16815260200190815260200160002060009054906101000a900460ff161561376e576040517fad69852600000000000000000000000000000000000000000000000000000000815260040160405180910390fd5b6000600d600084815260200190815260200160002090506040518060a0016040528082600001805461379f9061517a565b80601f01602080910402602001604051908101604052809291908181526020018280546137cb9061517a565b80156138185780601f106137ed57610100808354040283529160200191613818565b820191906000526020600020905b8154815290600101906020018083116137fb57829003601f168201915b505050505081526020018260010160009054906101000a900473ffffffffffffffffffffffffffffffffffffffff1673ffffffffffffffffffffffffffffffffffffffff16815260200182600201548152602001826003015481526020018260040154815250915050919050565b600360003373ffffffffffffffffffffffffffffffffffffffff1673ffffffffffffffffffffffffffffffffffffffff16815260200190815260200160002060009054906101000a900460ff16613909576040517f4755657900000000000000000000000000000000000000000000000000000000815260040160405180910390fd5b601360003373ffffffffffffffffffffffffffffffffffffffff1673ffffffffffffffffffffffffffffffffffffffff16815260200190815260200160002060009054906101000a900460ff161561398d576040517fad69852600000000000000000000000000000000000000000000000000000000815260040160405180910390fd5b601d54601c5410156139cb576040517fff7e6cf800000000000000000000000000000000000000000000000000000000815260040160405180910390fd5b60006005600084815260200190815260200160002090508060050160003373ffffffffffffffffffffffffffffffffffffffff1673ffffffffffffffffffffffffffffffffffffffff16815260200190815260200160002060009054906101000a900460ff1615613a68576040517f1c4be5a700000000000000000000000000000000000000000000000000000000815260040160405180910390fd5b8115613a87578060020160008154809291906001019190505550613a9c565b80600301600081548092919060010191905055505b60018160050160003373ffffffffffffffffffffffffffffffffffffffff1673ffffffffffffffffffffffffffffffffffffffff16815260200190815260200160002060006101000a81548160ff021916908315150217905550601e54816002015410613b1d57806000015460228190555060018160040181905550613b36565b601e54816003015410613b3557600281600401819055505b5b505050565b613b4883838360016143fe565b505050565b6000613b598484613509565b90507fffffffffffffffffffffffffffffffffffffffffffffffffffffffffffffffff8114613bdb5781811015613bcb578281836040517ffb8f41b2000000000000000000000000000000000000000000000000000000008152600401613bc293929190615772565b60405180910390fd5b613bda848484840360006143fe565b5b50505050565b600073ffffffffffffffffffffffffffffffffffffffff168373ffffffffffffffffffffffffffffffffffffffff1603613c535760006040517f96c6fd1e000000000000000000000000000000000000000000000000000000008152600401613c4a91906157a9565b60405180910390fd5b600073ffffffffffffffffffffffffffffffffffffffff168273ffffffffffffffffffffffffffffffffffffffff1603613cc55760006040517fec442f05000000000000000000000000000000000000000000000000000000008152600401613cbc91906157a9565b60405180910390fd5b613cd0838383613cd5565b505050565b600073ffffffffffffffffffffffffffffffffffffffff168373ffffffffffffffffffffffffffffffffffffffff1603613d27578060186000828254613d1b919061572f565b92505081905550613dfc565b6000600160008573ffffffffffffffffffffffffffffffffffffffff1673ffffffffffffffffffffffffffffffffffffffff16815260200190815260200160002054905081811015613db4578381836040517fe450d38c000000000000000000000000000000000000000000000000000000008152600401613dab93929190615772565b60405180910390fd5b818103600160008673ffffffffffffffffffffffffffffffffffffffff1673ffffffffffffffffffffffffffffffffffffffff16815260200190815260200160002081905550505b600073ffffffffffffffffffffffffffffffffffffffff168273ffffffffffffffffffffffffffffffffffffffff1603613e455780601860008282540392505081905550613e93565b80600160008473ffffffffffffffffffffffffffffffffffffffff1673ffffffffffffffffffffffffffffffffffffffff168152602001908152602001600020600082825401925050819055505b8173ffffffffffffffffffffffffffffffffffffffff168373ffffffffffffffffffffffffffffffffffffffff167fddf252ad1be2c89b69c2b068fc378daa952ba7f163c4a11628f55a4df523b3ef83604051613ef0919061493d565b60405180910390a3505050565b600360003373ffffffffffffffffffffffffffffffffffffffff1673ffffffffffffffffffffffffffffffffffffffff16815260200190815260200160002060009054906101000a900460ff16613f80576040517f4755657900000000000000000000000000000000000000000000000000000000815260040160405180910390fd5b601360003373ffffffffffffffffffffffffffffffffffffffff1673ffffffffffffffffffffffffffffffffffffffff16815260200190815260200160002060009054906101000a900460ff1615614004576040517fad69852600000000000000000000000000000000000000000000000000000000815260040160405180910390fd5b600360008273ffffffffffffffffffffffffffffffffffffffff1673ffffffffffffffffffffffffffffffffffffffff16815260200190815260200160002060009054906101000a900460ff1615614088576040517f2478fb0400000000000000000000000000000000000000000000000000000000815260040160405180910390fd5b6001600360008373ffffffffffffffffffffffffffffffffffffffff1673ffffffffffffffffffffffffffffffffffffffff16815260200190815260200160002060006101000a81548160ff0219169083151502179055508060046000601f54815260200190815260200160002060006101000a81548173ffffffffffffffffffffffffffffffffffffffff021916908373ffffffffffffffffffffffffffffffffffffffff160217905550601c60008154809291906001019190505550601f60008154809291906001019190505550601d54601c5411614170576002601e8190555061418e565b60016002601c5481614185576141846157c4565b5b0401601e819055505b50565b600360003373ffffffffffffffffffffffffffffffffffffffff1673ffffffffffffffffffffffffffffffffffffffff16815260200190815260200160002060009054906101000a900460ff16614214576040517f4755657900000000000000000000000000000000000000000000000000000000815260040160405180910390fd5b601360003373ffffffffffffffffffffffffffffffffffffffff1673ffffffffffffffffffffffffffffffffffffffff16815260200190815260200160002060009054906101000a900460ff1615614298576040517fad69852600000000000000000000000000000000000000000000000000000000815260040160405180910390fd5b601d54601c5410156142d6576040517fff7e6cf800000000000000000000000000000000000000000000000000000000815260040160405180910390fd5b600360008273ffffffffffffffffffffffffffffffffffffffff1673ffffffffffffffffffffffffffffffffffffffff16815260200190815260200160002060009054906101000a900460ff16614359576040517f920432b400000000000000000000000000000000000000000000000000000000815260040160405180910390fd5b6000600360008373ffffffffffffffffffffffffffffffffffffffff1673ffffffffffffffffffffffffffffffffffffffff16815260200190815260200160002060006101000a81548160ff021916908315150217905550601c6000815480929190600190039190505550601d54601c5410156143dd576002601e819055506143fb565b60016002601c54816143f2576143f16157c4565b5b0401601e819055505b50565b600073ffffffffffffffffffffffffffffffffffffffff168473ffffffffffffffffffffffffffffffffffffffff16036144705760006040517fe602df0500000000000000000000000000000000000000000000000000000000815260040161446791906157a9565b60405180910390fd5b600073ffffffffffffffffffffffffffffffffffffffff168373ffffffffffffffffffffffffffffffffffffffff16036144e25760006040517f94280d620000000000000000000000000000000000000000000000000000000081526004016144d991906157a9565b60405180910390fd5b81600260008673ffffffffffffffffffffffffffffffffffffffff1673ffffffffffffffffffffffffffffffffffffffff16815260200190815260200160002060008573ffffffffffffffffffffffffffffffffffffffff1673ffffffffffffffffffffffffffffffffffffffff1681526020019081526020016000208190555080156145cf578273ffffffffffffffffffffffffffffffffffffffff168473ffffffffffffffffffffffffffffffffffffffff167f8c5be1e5ebec7d5bd14f71427d1e84f3dd0314c0f7b2291e5b200ac8c7c3b925846040516145c6919061493d565b60405180910390a35b50505050565b6040518060a00160405280600073ffffffffffffffffffffffffffffffffffffffff168152602001600073ffffffffffffffffffffffffffffffffffffffff1681526020016000815260200160008152602001600081525090565b6040518060a00160405280600073ffffffffffffffffffffffffffffffffffffffff168152602001600073ffffffffffffffffffffffffffffffffffffffff1681526020016000815260200160008152602001600081525090565b6040518060a0016040528060608152602001600073ffffffffffffffffffffffffffffffffffffffff1681526020016000815260200160008152602001600081525090565b6040518060a00160405280600073ffffffffffffffffffffffffffffffffffffffff168152602001600073ffffffffffffffffffffffffffffffffffffffff1681526020016000815260200160008152602001600081525090565b6040518060a0016040528060008152602001600073ffffffffffffffffffffffffffffffffffffffff1681526020016000815260200160008152602001600081525090565b6040518060a00160405280600073ffffffffffffffffffffffffffffffffffffffff168152602001600073ffffffffffffffffffffffffffffffffffffffff1681526020016000815260200160008152602001600081525090565b6040518060a0016040528060608152602001600073ffffffffffffffffffffffffffffffffffffffff1681526020016000815260200160008152602001600081525090565b6000604051905090565b600080fd5b600080fd5b600073ffffffffffffffffffffffffffffffffffffffff82169050919050565b600061484f82614824565b9050919050565b61485f81614844565b811461486a57600080fd5b50565b60008135905061487c81614856565b92915050565b6000819050919050565b61489581614882565b81146148a057600080fd5b50565b6000813590506148b28161488c565b92915050565b600080604083850312156148cf576148ce61481a565b5b60006148dd8582860161486d565b92505060206148ee858286016148a3565b9150509250929050565b60008115159050919050565b61490d816148f8565b82525050565b60006020820190506149286000830184614904565b92915050565b61493781614882565b82525050565b6000602082019050614952600083018461492e565b92915050565b6000806000606084860312156149715761497061481a565b5b600061497f8682870161486d565b93505060206149908682870161486d565b92505060406149a1868287016148a3565b9150509250925092565b6000602082840312156149c1576149c061481a565b5b60006149cf8482850161486d565b91505092915050565b600080fd5b600080fd5b6000601f19601f8301169050919050565b7f4e487b7100000000000000000000000000000000000000000000000000000000600052604160045260246000fd5b614a2b826149e2565b810181811067ffffffffffffffff82111715614a4a57614a496149f3565b5b80604052505050565b6000614a5d614810565b9050614a698282614a22565b919050565b600067ffffffffffffffff821115614a8957614a886149f3565b5b614a92826149e2565b9050602081019050919050565b82818337600083830152505050565b6000614ac1614abc84614a6e565b614a53565b905082815260208101848484011115614add57614adc6149dd565b5b614ae8848285614a9f565b509392505050565b600082601f830112614b0557614b046149d8565b5b8135614b15848260208601614aae565b91505092915050565b600060208284031215614b3457614b3361481a565b5b600082013567ffffffffffffffff811115614b5257614b5161481f565b5b614b5e84828501614af0565b91505092915050565b600060208284031215614b7d57614b7c61481a565b5b6000614b8b848285016148a3565b91505092915050565b614b9d816148f8565b8114614ba857600080fd5b50565b600081359050614bba81614b94565b92915050565b600080600060608486031215614bd957614bd861481a565b5b6000614be7868287016148a3565b9350506020614bf886828701614bab565b9250506040614c09868287016148a3565b9150509250925092565b614c1c81614844565b82525050565b614c2b81614882565b82525050565b60a082016000820151614c476000850182614c13565b506020820151614c5a6020850182614c13565b506040820151614c6d6040850182614c22565b506060820151614c806060850182614c22565b506080820151614c936080850182614c22565b50505050565b600060a082019050614cae6000830184614c31565b92915050565b60a082016000820151614cca6000850182614c13565b506020820151614cdd6020850182614c13565b506040820151614cf06040850182614c22565b506060820151614d036060850182614c22565b506080820151614d166080850182614c22565b50505050565b600060a082019050614d316000830184614cb4565b92915050565b600081519050919050565b600082825260208201905092915050565b60005b83811015614d71578082015181840152602081019050614d56565b60008484015250505050565b6000614d8882614d37565b614d928185614d42565b9350614da2818560208601614d53565b614dab816149e2565b840191505092915050565b600060a0830160008301518482036000860152614dd38282614d7d565b9150506020830151614de86020860182614c13565b506040830151614dfb6040860182614c22565b506060830151614e0e6060860182614c22565b506080830151614e216080860182614c22565b508091505092915050565b60006020820190508181036000830152614e468184614db6565b905092915050565b60a082016000820151614e646000850182614c13565b506020820151614e776020850182614c13565b506040820151614e8a6040850182614c22565b506060820151614e9d6060850182614c22565b506080820151614eb06080850182614c22565b50505050565b600060a082019050614ecb6000830184614e4e565b92915050565b60a082016000820151614ee76000850182614c22565b506020820151614efa6020850182614c13565b506040820151614f0d6040850182614c22565b506060820151614f206060850182614c22565b506080820151614f336080850182614c22565b50505050565b600060a082019050614f4e6000830184614ed1565b92915050565b60008060408385031215614f6b57614f6a61481a565b5b600083013567ffffffffffffffff811115614f8957614f8861481f565b5b614f9585828601614af0565b9250506020614fa6858286016148a3565b9150509250929050565b60008060408385031215614fc757614fc661481a565b5b6000614fd58582860161486d565b9250506020614fe68582860161486d565b9150509250929050565b60a0820160008201516150066000850182614c13565b5060208201516150196020850182614c13565b50604082015161502c6040850182614c22565b50606082015161503f6060850182614c22565b5060808201516150526080850182614c22565b50505050565b600060a08201905061506d6000830184614ff0565b92915050565b600060a08301600083015184820360008601526150908282614d7d565b91505060208301516150a56020860182614c13565b5060408301516150b86040860182614c22565b5060608301516150cb6060860182614c22565b5060808301516150de6080860182614c22565b508091505092915050565b600060208201905081810360008301526151038184615073565b905092915050565b600080604083850312156151225761512161481a565b5b6000615130858286016148a3565b925050602061514185828601614bab565b9150509250929050565b7f4e487b7100000000000000000000000000000000000000000000000000000000600052602260045260246000fd5b6000600282049050600182168061519257607f821691505b6020821081036151a5576151a461514b565b5b50919050565b600082825260208201905092915050565b60008190508160005260206000209050919050565b600081546151de8161517a565b6151e881866151ab565b9450600182166000811461520357600181146152195761524c565b60ff19831686528115156020028601935061524c565b615222856151bc565b60005b8381101561524457815481890152600182019150602081019050615225565b808801955050505b50505092915050565b6000602082019050818103600083015261526f81846151d1565b905092915050565b6000815190506152868161488c565b92915050565b6000602082840312156152a2576152a161481a565b5b60006152b084828501615277565b91505092915050565b600081905092915050565b600081546152d18161517a565b6152db81866152b9565b945060018216600081146152f6576001811461530b5761533e565b60ff198316865281151582028601935061533e565b615314856151bc565b60005b8381101561533657815481890152600182019150602081019050615317565b838801955050505b50505092915050565b600061535382846152c4565b915081905092915050565b600061536982614d37565b61537381856152b9565b9350615383818560208601614d53565b80840191505092915050565b600061539b828461535e565b915081905092915050565b60006020601f8301049050919050565b600082821b905092915050565b6000600883026153f37fffffffffffffffffffffffffffffffffffffffffffffffffffffffffffffffff826153b6565b6153fd86836153b6565b95508019841693508086168417925050509392505050565b6000819050919050565b600061543a61543561543084614882565b615415565b614882565b9050919050565b6000819050919050565b6154548361541f565b61546861546082615441565b8484546153c3565b825550505050565b600090565b61547d615470565b61548881848461544b565b505050565b5b818110156154ac576154a1600082615475565b60018101905061548e565b5050565b601f8211156154f1576154c2816151bc565b6154cb846153a6565b810160208510156154da578190505b6154ee6154e6856153a6565b83018261548d565b50505b505050565b600082821c905092915050565b6000615514600019846008026154f6565b1980831691505092915050565b600061552d8383615503565b9150826002028217905092915050565b61554682614d37565b67ffffffffffffffff81111561555f5761555e6149f3565b5b615569825461517a565b6155748282856154b0565b600060209050601f8311600181146155a75760008415615595578287015190505b61559f8582615521565b865550615607565b601f1984166155b5866151bc565b60005b828110156155dd578489015182556001820191506020850194506020810190506155b8565b868310156155fa57848901516155f6601f891682615503565b8355505b6001600288020188555050505b505050505050565b600061561a82614d37565b61562481856151ab565b9350615634818560208601614d53565b61563d816149e2565b840191505092915050565b60006020820190508181036000830152615662818461560f565b905092915050565b600080fd5b6000606082840312156156855761568461566a565b5b61568f6060614a53565b9050600061569f84828501615277565b60008301525060206156b384828501615277565b60208301525060406156c784828501615277565b60408301525092915050565b6000606082840312156156e9576156e861481a565b5b60006156f78482850161566f565b91505092915050565b7f4e487b7100000000000000000000000000000000000000000000000000000000600052601160045260246000fd5b600061573a82614882565b915061574583614882565b925082820190508082111561575d5761575c615700565b5b92915050565b61576c81614844565b82525050565b60006060820190506157876000830186615763565b615794602083018561492e565b6157a1604083018461492e565b949350505050565b60006020820190506157be6000830184615763565b92915050565b7f4e487b7100000000000000000000000000000000000000000000000000000000600052601260045260246000fdfea264697066735822122025bb199c9050d17eba377a0c4385588673a92af72b1d6f545aa82244078c895564736f6c63430008180033",
  "linkReferences": {},
  "deployedLinkReferences": {}
}