{
  "_format": "hh-sol-artifact-1",
  "contractName": "JpynOracle",
  "sourceName": "contracts/JpynOracle.sol",
  "abi": [
    {
      "inputs": [],
      "stateMutability": "nonpayable",
      "type": "constructor"
    },
    {
      "inputs": [
        {
          "internalType": "address",
          "name": "sender",
          "type": "address"
        }
      ],
      "name": "ExistingAdmin",
      "type": "error"
    },
    {
      "inputs": [
        {
          "internalType": "address",
          "name": "sender",
          "type": "address"
        }
      ],
      "name": "ExistingOracle",
      "type": "error"
    },
    {
      "inputs": [
        {
          "internalType": "uint256",
          "name": "totalAdminCount",
          "type": "uint256"
        },
        {
          "internalType": "uint256",
          "name": "minAdminCount",
          "type": "uint256"
        },
        {
          "internalType": "address",
          "name": "sender",
          "type": "address"
        }
      ],
      "name": "NotEnoughAdmins",
      "type": "error"
    },
    {
      "inputs": [
        {
          "internalType": "uint256",
          "name": "totalOracleCount",
          "type": "uint256"
        },
        {
          "internalType": "uint256",
          "name": "minOracleCount",
          "type": "uint256"
        },
        {
          "internalType": "address",
          "name": "sender",
          "type": "address"
        }
      ],
      "name": "NotEnoughOracles",
      "type": "error"
    },
    {
      "inputs": [
        {
          "internalType": "address",
          "name": "sender",
          "type": "address"
        }
      ],
      "name": "NotExistingAdmin",
      "type": "error"
    },
    {
      "inputs": [
        {
          "internalType": "address",
          "name": "sender",
          "type": "address"
        }
      ],
      "name": "NotExistingOrracle",
      "type": "error"
    },
    {
      "inputs": [
        {
          "internalType": "address",
          "name": "sender",
          "type": "address"
        }
      ],
      "name": "OnlyAdmin",
      "type": "error"
    },
    {
      "inputs": [
        {
          "internalType": "address",
          "name": "sender",
          "type": "address"
        }
      ],
      "name": "OnlyOracle",
      "type": "error"
    },
    {
      "inputs": [],
      "name": "Requested",
      "type": "error"
    },
    {
      "anonymous": false,
      "inputs": [
        {
          "indexed": false,
          "internalType": "uint256",
          "name": "id",
          "type": "uint256"
        },
        {
          "indexed": false,
          "internalType": "string",
          "name": "hashedAccount",
          "type": "string"
        }
      ],
      "name": "NewRequest",
      "type": "event"
    },
    {
      "anonymous": false,
      "inputs": [
        {
          "indexed": false,
          "internalType": "uint256",
          "name": "id",
          "type": "uint256"
        },
        {
          "indexed": false,
          "internalType": "string",
          "name": "hashedAccount",
          "type": "string"
        },
        {
          "indexed": false,
          "internalType": "uint256",
          "name": "agreedAccountStatus",
          "type": "uint256"
        },
        {
          "indexed": false,
          "internalType": "uint256",
          "name": "agreedAccountBalance",
          "type": "uint256"
        }
      ],
      "name": "UpdatedRequest",
      "type": "event"
    },
    {
      "inputs": [
        {
          "internalType": "address",
          "name": "sender",
          "type": "address"
        }
      ],
      "name": "addAdmin",
      "outputs": [],
      "stateMutability": "nonpayable",
      "type": "function"
    },
    {
      "inputs": [
        {
          "internalType": "address",
          "name": "sender",
          "type": "address"
        }
      ],
      "name": "addOracle",
      "outputs": [],
      "stateMutability": "nonpayable",
      "type": "function"
    },
    {
      "inputs": [
        {
          "internalType": "string",
          "name": "_hashedAccount",
          "type": "string"
        }
      ],
      "name": "createRequest",
      "outputs": [
        {
          "internalType": "uint256",
          "name": "",
          "type": "uint256"
        }
      ],
      "stateMutability": "nonpayable",
      "type": "function"
    },
    {
      "inputs": [],
      "name": "getCurrentOracleId",
      "outputs": [
        {
          "internalType": "uint256",
          "name": "",
          "type": "uint256"
        }
      ],
      "stateMutability": "view",
      "type": "function"
    },
    {
      "inputs": [],
      "name": "getCurrentRequestId",
      "outputs": [
        {
          "internalType": "uint256",
          "name": "",
          "type": "uint256"
        }
      ],
      "stateMutability": "view",
      "type": "function"
    },
    {
      "inputs": [],
      "name": "getMinQuorum",
      "outputs": [
        {
          "internalType": "uint256",
          "name": "",
          "type": "uint256"
        }
      ],
      "stateMutability": "view",
      "type": "function"
    },
    {
      "inputs": [
        {
          "internalType": "uint256",
          "name": "_id",
          "type": "uint256"
        }
      ],
      "name": "getRequest",
      "outputs": [
        {
          "components": [
            {
              "internalType": "uint256",
              "name": "id",
              "type": "uint256"
            },
            {
              "internalType": "uint256",
              "name": "accountStatus",
              "type": "uint256"
            },
            {
              "internalType": "uint256",
              "name": "accountBalance",
              "type": "uint256"
            }
          ],
          "internalType": "struct JpynOracle.GetRequest",
          "name": "",
          "type": "tuple"
        }
      ],
      "stateMutability": "view",
      "type": "function"
    },
    {
      "inputs": [],
      "name": "getTotalOracleCount",
      "outputs": [
        {
          "internalType": "uint256",
          "name": "",
          "type": "uint256"
        }
      ],
      "stateMutability": "view",
      "type": "function"
    },
    {
      "inputs": [
        {
          "internalType": "address",
          "name": "_sender",
          "type": "address"
        }
      ],
      "name": "isAdmin",
      "outputs": [
        {
          "internalType": "bool",
          "name": "",
          "type": "bool"
        }
      ],
      "stateMutability": "view",
      "type": "function"
    },
    {
      "inputs": [
        {
          "internalType": "address",
          "name": "_sender",
          "type": "address"
        }
      ],
      "name": "isOracle",
      "outputs": [
        {
          "internalType": "bool",
          "name": "",
          "type": "bool"
        }
      ],
      "stateMutability": "view",
      "type": "function"
    },
    {
      "inputs": [
        {
          "internalType": "address",
          "name": "sender",
          "type": "address"
        }
      ],
      "name": "removeAdmin",
      "outputs": [],
      "stateMutability": "nonpayable",
      "type": "function"
    },
    {
      "inputs": [
        {
          "internalType": "address",
          "name": "sender",
          "type": "address"
        }
      ],
      "name": "removeOracle",
      "outputs": [],
      "stateMutability": "nonpayable",
      "type": "function"
    },
    {
      "inputs": [
        {
          "internalType": "uint256",
          "name": "_id",
          "type": "uint256"
        },
        {
          "internalType": "uint256",
          "name": "_valueAccountStatus",
          "type": "uint256"
        },
        {
          "internalType": "uint256",
          "name": "_valueAccountBalance",
          "type": "uint256"
        }
      ],
      "name": "updateRequest",
      "outputs": [],
      "stateMutability": "nonpayable",
      "type": "function"
    },
    {
      "inputs": [
        {
          "internalType": "uint256",
          "name": "_id",
          "type": "uint256"
        }
      ],
      "name": "updateRequested",
      "outputs": [],
      "stateMutability": "nonpayable",
      "type": "function"
    }
  ],
  "bytecode": "0x608060405234801561001057600080fd5b506001600360006100256100b360201b60201c565b73ffffffffffffffffffffffffffffffffffffffff1673ffffffffffffffffffffffffffffffffffffffff16815260200190815260200160002060006101000a81548160ff0219169083151502179055506000600681905550600060078190555060006008819055506000600981905550600060048190555060036005819055506003600a819055506100bb565b600033905090565b611e3e806100ca6000396000f3fe608060405234801561001057600080fd5b50600436106100ea5760003560e01c8063704802751161008c578063ab49c77411610066578063ab49c7741461024b578063c58343ef14610267578063df5dd1a514610297578063fdc85fc4146102b3576100ea565b806370480275146101e1578063a97e5c93146101fd578063a9b3bfa91461022d576100ea565b806324d7806c116100c857806324d7806c146101595780632e523421146101895780636478cf93146101a55780636cd17d6e146101c3576100ea565b806315cd1841146100ef5780631785f53c1461010d5780631b146ecf14610129575b600080fd5b6100f76102cf565b60405161010491906114d9565b60405180910390f35b61012760048036038101906101229190611566565b6102d9565b005b610143600480360381019061013e91906116d9565b6104b6565b60405161015091906114d9565b60405180910390f35b610173600480360381019061016e9190611566565b6106e0565b604051610180919061173d565b60405180910390f35b6101a3600480360381019061019e9190611784565b610736565b005b6101ad61076d565b6040516101ba91906114d9565b60405180910390f35b6101cb610777565b6040516101d891906114d9565b60405180910390f35b6101fb60048036038101906101f69190611566565b610781565b005b61021760048036038101906102129190611566565b61090f565b604051610224919061173d565b60405180910390f35b610235610965565b60405161024291906114d9565b60405180910390f35b610265600480360381019061026091906117b1565b61096f565b005b610281600480360381019061027c9190611784565b610c2b565b60405161028e9190611855565b60405180910390f35b6102b160048036038101906102ac9190611566565b610c80565b005b6102cd60048036038101906102c89190611566565b610e71565b005b6000600654905090565b600360006102e5611056565b73ffffffffffffffffffffffffffffffffffffffff1673ffffffffffffffffffffffffffffffffffffffff16815260200190815260200160002060009054906101000a900460ff1661037557610339611056565b6040517f02e286cf00000000000000000000000000000000000000000000000000000000815260040161036c919061187f565b60405180910390fd5b600554600454116103c557600454600554826040517f160d717b0000000000000000000000000000000000000000000000000000000081526004016103bc9392919061189a565b60405180910390fd5b600360008273ffffffffffffffffffffffffffffffffffffffff1673ffffffffffffffffffffffffffffffffffffffff16815260200190815260200160002060009054906101000a900460ff1661045357806040517ff0850cc900000000000000000000000000000000000000000000000000000000815260040161044a919061187f565b60405180910390fd5b6000600360008373ffffffffffffffffffffffffffffffffffffffff1673ffffffffffffffffffffffffffffffffffffffff16815260200190815260200160002060006101000a81548160ff0219169083151502179055506104b361105e565b50565b6000600a54600954101561051057600954600a546104d2611056565b6040517f9ef88eb20000000000000000000000000000000000000000000000000000000081526004016105079392919061189a565b60405180910390fd5b600080600060065481526020019081526020016000209050828160000190816105399190611ae8565b50600081600101819055506000816002018190555060008160060160006101000a81548160ff02191690831515021790555060005b60075481101561068557600160006002600084815260200190815260200160002060009054906101000a900473ffffffffffffffffffffffffffffffffffffffff1673ffffffffffffffffffffffffffffffffffffffff1673ffffffffffffffffffffffffffffffffffffffff16815260200190815260200160002060009054906101000a900460ff16156106785760018260050160006002600085815260200190815260200160002060009054906101000a900473ffffffffffffffffffffffffffffffffffffffff1673ffffffffffffffffffffffffffffffffffffffff1673ffffffffffffffffffffffffffffffffffffffff168152602001908152602001600020819055505b808060010191505061056e565b507f85808ba6b61b3e11f7dba026341d5ff5603fab7df37b176ebfa0f296264cd12e600654846040516106b9929190611c2e565b60405180910390a16106c961110f565b60016006546106d89190611c8d565b915050919050565b6000600360008373ffffffffffffffffffffffffffffffffffffffff1673ffffffffffffffffffffffffffffffffffffffff16815260200190815260200160002060009054906101000a900460ff169050919050565b6000806000838152602001908152602001600020905060018160060160006101000a81548160ff0219169083151502179055505050565b6000600954905090565b6000600754905090565b6003600061078d611056565b73ffffffffffffffffffffffffffffffffffffffff1673ffffffffffffffffffffffffffffffffffffffff16815260200190815260200160002060009054906101000a900460ff1661081d576107e1611056565b6040517f02e286cf000000000000000000000000000000000000000000000000000000008152600401610814919061187f565b60405180910390fd5b600360008273ffffffffffffffffffffffffffffffffffffffff1673ffffffffffffffffffffffffffffffffffffffff16815260200190815260200160002060009054906101000a900460ff16156108ac57806040517f53a473c40000000000000000000000000000000000000000000000000000000081526004016108a3919061187f565b60405180910390fd5b6001600360008373ffffffffffffffffffffffffffffffffffffffff1673ffffffffffffffffffffffffffffffffffffffff16815260200190815260200160002060006101000a81548160ff02191690831515021790555061090c611123565b50565b6000600160008373ffffffffffffffffffffffffffffffffffffffff1673ffffffffffffffffffffffffffffffffffffffff16815260200190815260200160002060009054906101000a900460ff169050919050565b6000600854905090565b6001600061097b611056565b73ffffffffffffffffffffffffffffffffffffffff1673ffffffffffffffffffffffffffffffffffffffff16815260200190815260200160002060009054906101000a900460ff16610a0b576109cf611056565b6040517ff432bce9000000000000000000000000000000000000000000000000000000008152600401610a02919061187f565b60405180910390fd5b600080600085815260200190815260200160002090506001816005016000610a31611056565b73ffffffffffffffffffffffffffffffffffffffff1673ffffffffffffffffffffffffffffffffffffffff1681526020019081526020016000205403610c25576002816005016000610a81611056565b73ffffffffffffffffffffffffffffffffffffffff1673ffffffffffffffffffffffffffffffffffffffff168152602001908152602001600020819055506000805b80610b5357600083600301600084815260200190815260200160002054148015610b025750600083600401600084815260200190815260200160002054145b15610b405760019050848360030160008481526020019081526020016000208190555083836004016000848152602001908152602001600020819055505b8180610b4b90611cc1565b925050610ac3565b6000805b600954811015610c20578685600301600083815260200190815260200160002054148015610b9957508585600401600083815260200190815260200160002054145b15610c13578180610ba990611cc1565b9250506008548210610c12578685600101819055508585600201819055507f16537abc3ef9eae48878292cc428593b6d0c63ab7b8ae57d6f689429af0554616006548660000187600101548860020154604051610c099493929190611d8d565b60405180910390a15b5b8080600101915050610b57565b505050505b50505050565b610c3361149f565b600080600084815260200190815260200160002090506000816001015490506000826002015490506040518060600160405280868152602001838152602001828152509350505050919050565b60036000610c8c611056565b73ffffffffffffffffffffffffffffffffffffffff1673ffffffffffffffffffffffffffffffffffffffff16815260200190815260200160002060009054906101000a900460ff16610d1c57610ce0611056565b6040517f02e286cf000000000000000000000000000000000000000000000000000000008152600401610d13919061187f565b60405180910390fd5b600160008273ffffffffffffffffffffffffffffffffffffffff1673ffffffffffffffffffffffffffffffffffffffff16815260200190815260200160002060009054906101000a900460ff1615610dab57806040517f8bc38120000000000000000000000000000000000000000000000000000000008152600401610da2919061187f565b60405180910390fd5b60018060008373ffffffffffffffffffffffffffffffffffffffff1673ffffffffffffffffffffffffffffffffffffffff16815260200190815260200160002060006101000a81548160ff0219169083151502179055508060026000600754815260200190815260200160002060006101000a81548173ffffffffffffffffffffffffffffffffffffffff021916908373ffffffffffffffffffffffffffffffffffffffff160217905550610e5e6111d3565b610e66611283565b610e6e611333565b50565b60036000610e7d611056565b73ffffffffffffffffffffffffffffffffffffffff1673ffffffffffffffffffffffffffffffffffffffff16815260200190815260200160002060009054906101000a900460ff16610f0d57610ed1611056565b6040517f02e286cf000000000000000000000000000000000000000000000000000000008152600401610f04919061187f565b60405180910390fd5b600a5460095411610f5d57600954600a54826040517f9ef88eb2000000000000000000000000000000000000000000000000000000008152600401610f549392919061189a565b60405180910390fd5b600160008273ffffffffffffffffffffffffffffffffffffffff1673ffffffffffffffffffffffffffffffffffffffff16815260200190815260200160002060009054906101000a900460ff16610feb57806040517f64c32691000000000000000000000000000000000000000000000000000000008152600401610fe2919061187f565b60405180910390fd5b6000600160008373ffffffffffffffffffffffffffffffffffffffff1673ffffffffffffffffffffffffffffffffffffffff16815260200190815260200160002060006101000a81548160ff02191690831515021790555061104b6113ee565b611053611333565b50565b600033905090565b6003600061106a611056565b73ffffffffffffffffffffffffffffffffffffffff1673ffffffffffffffffffffffffffffffffffffffff16815260200190815260200160002060009054906101000a900460ff166110fa576110be611056565b6040517f02e286cf0000000000000000000000000000000000000000000000000000000081526004016110f1919061187f565b60405180910390fd5b60046000815480929190600190039190505550565b600660008154809291906001019190505550565b6003600061112f611056565b73ffffffffffffffffffffffffffffffffffffffff1673ffffffffffffffffffffffffffffffffffffffff16815260200190815260200160002060009054906101000a900460ff166111bf57611183611056565b6040517f02e286cf0000000000000000000000000000000000000000000000000000000081526004016111b6919061187f565b60405180910390fd5b600460008154809291906001019190505550565b600360006111df611056565b73ffffffffffffffffffffffffffffffffffffffff1673ffffffffffffffffffffffffffffffffffffffff16815260200190815260200160002060009054906101000a900460ff1661126f57611233611056565b6040517f02e286cf000000000000000000000000000000000000000000000000000000008152600401611266919061187f565b60405180910390fd5b600760008154809291906001019190505550565b6003600061128f611056565b73ffffffffffffffffffffffffffffffffffffffff1673ffffffffffffffffffffffffffffffffffffffff16815260200190815260200160002060009054906101000a900460ff1661131f576112e3611056565b6040517f02e286cf000000000000000000000000000000000000000000000000000000008152600401611316919061187f565b60405180910390fd5b600960008154809291906001019190505550565b6003600061133f611056565b73ffffffffffffffffffffffffffffffffffffffff1673ffffffffffffffffffffffffffffffffffffffff16815260200190815260200160002060009054906101000a900460ff166113cf57611393611056565b6040517f02e286cf0000000000000000000000000000000000000000000000000000000081526004016113c6919061187f565b60405180910390fd5b60016002600954816113e4576113e3611dd9565b5b0401600881905550565b600360006113fa611056565b73ffffffffffffffffffffffffffffffffffffffff1673ffffffffffffffffffffffffffffffffffffffff16815260200190815260200160002060009054906101000a900460ff1661148a5761144e611056565b6040517f02e286cf000000000000000000000000000000000000000000000000000000008152600401611481919061187f565b60405180910390fd5b60096000815480929190600190039190505550565b60405180606001604052806000815260200160008152602001600081525090565b6000819050919050565b6114d3816114c0565b82525050565b60006020820190506114ee60008301846114ca565b92915050565b6000604051905090565b600080fd5b600080fd5b600073ffffffffffffffffffffffffffffffffffffffff82169050919050565b600061153382611508565b9050919050565b61154381611528565b811461154e57600080fd5b50565b6000813590506115608161153a565b92915050565b60006020828403121561157c5761157b6114fe565b5b600061158a84828501611551565b91505092915050565b600080fd5b600080fd5b6000601f19601f8301169050919050565b7f4e487b7100000000000000000000000000000000000000000000000000000000600052604160045260246000fd5b6115e68261159d565b810181811067ffffffffffffffff82111715611605576116046115ae565b5b80604052505050565b60006116186114f4565b905061162482826115dd565b919050565b600067ffffffffffffffff821115611644576116436115ae565b5b61164d8261159d565b9050602081019050919050565b82818337600083830152505050565b600061167c61167784611629565b61160e565b90508281526020810184848401111561169857611697611598565b5b6116a384828561165a565b509392505050565b600082601f8301126116c0576116bf611593565b5b81356116d0848260208601611669565b91505092915050565b6000602082840312156116ef576116ee6114fe565b5b600082013567ffffffffffffffff81111561170d5761170c611503565b5b611719848285016116ab565b91505092915050565b60008115159050919050565b61173781611722565b82525050565b6000602082019050611752600083018461172e565b92915050565b611761816114c0565b811461176c57600080fd5b50565b60008135905061177e81611758565b92915050565b60006020828403121561179a576117996114fe565b5b60006117a88482850161176f565b91505092915050565b6000806000606084860312156117ca576117c96114fe565b5b60006117d88682870161176f565b93505060206117e98682870161176f565b92505060406117fa8682870161176f565b9150509250925092565b61180d816114c0565b82525050565b6060820160008201516118296000850182611804565b50602082015161183c6020850182611804565b50604082015161184f6040850182611804565b50505050565b600060608201905061186a6000830184611813565b92915050565b61187981611528565b82525050565b60006020820190506118946000830184611870565b92915050565b60006060820190506118af60008301866114ca565b6118bc60208301856114ca565b6118c96040830184611870565b949350505050565b600081519050919050565b7f4e487b7100000000000000000000000000000000000000000000000000000000600052602260045260246000fd5b6000600282049050600182168061192357607f821691505b602082108103611936576119356118dc565b5b50919050565b60008190508160005260206000209050919050565b60006020601f8301049050919050565b600082821b905092915050565b60006008830261199e7fffffffffffffffffffffffffffffffffffffffffffffffffffffffffffffffff82611961565b6119a88683611961565b95508019841693508086168417925050509392505050565b6000819050919050565b60006119e56119e06119db846114c0565b6119c0565b6114c0565b9050919050565b6000819050919050565b6119ff836119ca565b611a13611a0b826119ec565b84845461196e565b825550505050565b600090565b611a28611a1b565b611a338184846119f6565b505050565b5b81811015611a5757611a4c600082611a20565b600181019050611a39565b5050565b601f821115611a9c57611a6d8161193c565b611a7684611951565b81016020851015611a85578190505b611a99611a9185611951565b830182611a38565b50505b505050565b600082821c905092915050565b6000611abf60001984600802611aa1565b1980831691505092915050565b6000611ad88383611aae565b9150826002028217905092915050565b611af1826118d1565b67ffffffffffffffff811115611b0a57611b096115ae565b5b611b14825461190b565b611b1f828285611a5b565b600060209050601f831160018114611b525760008415611b40578287015190505b611b4a8582611acc565b865550611bb2565b601f198416611b608661193c565b60005b82811015611b8857848901518255600182019150602085019450602081019050611b63565b86831015611ba55784890151611ba1601f891682611aae565b8355505b6001600288020188555050505b505050505050565b600082825260208201905092915050565b60005b83811015611be9578082015181840152602081019050611bce565b60008484015250505050565b6000611c00826118d1565b611c0a8185611bba565b9350611c1a818560208601611bcb565b611c238161159d565b840191505092915050565b6000604082019050611c4360008301856114ca565b8181036020830152611c558184611bf5565b90509392505050565b7f4e487b7100000000000000000000000000000000000000000000000000000000600052601160045260246000fd5b6000611c98826114c0565b9150611ca3836114c0565b9250828203905081811115611cbb57611cba611c5e565b5b92915050565b6000611ccc826114c0565b91507fffffffffffffffffffffffffffffffffffffffffffffffffffffffffffffffff8203611cfe57611cfd611c5e565b5b600182019050919050565b60008154611d168161190b565b611d208186611bba565b94506001821660008114611d3b5760018114611d5157611d84565b60ff198316865281151560200286019350611d84565b611d5a8561193c565b60005b83811015611d7c57815481890152600182019150602081019050611d5d565b808801955050505b50505092915050565b6000608082019050611da260008301876114ca565b8181036020830152611db48186611d09565b9050611dc360408301856114ca565b611dd060608301846114ca565b95945050505050565b7f4e487b7100000000000000000000000000000000000000000000000000000000600052601260045260246000fdfea2646970667358221220b15ae1e6c402e450c01d016528a8747c6444a05a440fae90eb30820ad695ac6464736f6c63430008180033",
  "linkReferences": {},
  "deployedLinkReferences": {}
}