{
  "_format": "hh-sol-artifact-1",
  "contractName": "Oracle",
  "sourceName": "contracts/Oracle.sol",
  "abi": [
    {
      "anonymous": false,
      "inputs": [
        {
          "indexed": false,
          "internalType": "uint256",
          "name": "id",
          "type": "uint256"
        },
        {
          "indexed": false,
          "internalType": "string",
          "name": "hashedAccount",
          "type": "string"
        }
      ],
      "name": "NewRequest",
      "type": "event"
    },
    {
      "anonymous": false,
      "inputs": [
        {
          "indexed": false,
          "internalType": "uint256",
          "name": "id",
          "type": "uint256"
        },
        {
          "indexed": false,
          "internalType": "string",
          "name": "hashedAccount",
          "type": "string"
        },
        {
          "indexed": false,
          "internalType": "uint256",
          "name": "agreedAccountStatus",
          "type": "uint256"
        },
        {
          "indexed": false,
          "internalType": "uint256",
          "name": "agreedAccountBalance",
          "type": "uint256"
        }
      ],
      "name": "UpdatedRequest",
      "type": "event"
    },
    {
      "inputs": [
        {
          "internalType": "string",
          "name": "_hashedAccount",
          "type": "string"
        }
      ],
      "name": "createRequest",
      "outputs": [],
      "stateMutability": "nonpayable",
      "type": "function"
    },
    {
      "inputs": [
        {
          "internalType": "uint256",
          "name": "_id",
          "type": "uint256"
        },
        {
          "internalType": "uint256",
          "name": "_valueAccountStatus",
          "type": "uint256"
        },
        {
          "internalType": "uint256",
          "name": "_valueAccountBalance",
          "type": "uint256"
        }
      ],
      "name": "updateRequest",
      "outputs": [],
      "stateMutability": "nonpayable",
      "type": "function"
    }
  ],
  "bytecode": "0x608060405260006001556001600255600260035534801561001f57600080fd5b50610b6b8061002f6000396000f3fe608060405234801561001057600080fd5b50600436106100365760003560e01c80631b146ecf1461003b578063ab49c77414610057575b600080fd5b61005560048036038101906100509190610551565b610073565b005b610071600480360381019061006c91906105d0565b6101d4565b005b60008060018160018154018082558091505003906000526020600020906007020190506001548160000181905550818160010190816100b2919061083a565b506000816002018190555060008160030181905550600181600601600073ee8b59794ee3a6aeece9aa09a118bb6ba1029e3c73ffffffffffffffffffffffffffffffffffffffff1673ffffffffffffffffffffffffffffffffffffffff1681526020019081526020016000208190555060018160060160007370997970c51812dc3a010c7d01b50e0d17dc79c873ffffffffffffffffffffffffffffffffffffffff1673ffffffffffffffffffffffffffffffffffffffff168152602001908152602001600020819055507f85808ba6b61b3e11f7dba026341d5ff5603fab7df37b176ebfa0f296264cd12e600154836040516101b092919061098f565b60405180910390a1600160008154809291906101cb906109ee565b91905055505050565b60008084815481106101e9576101e8610a36565b5b9060005260206000209060070201905060018160060160003373ffffffffffffffffffffffffffffffffffffffff1673ffffffffffffffffffffffffffffffffffffffff16815260200190815260200160002054036103f15760028160060160003373ffffffffffffffffffffffffffffffffffffffff1673ffffffffffffffffffffffffffffffffffffffff168152602001908152602001600020819055506000805b8061031d576000836004016000848152602001908152602001600020541480156102cc5750600083600501600084815260200190815260200160002054145b1561030a5760019050848360040160008481526020019081526020016000208190555083836005016000848152602001908152602001600020819055505b8180610315906109ee565b92505061028d565b6000805b6003548110156103ec57868560040160008381526020019081526020016000205414801561036357508585600501600083815260200190815260200160002054145b156103df578180610373906109ee565b92505060025482106103de578685600201819055508585600301819055507f16537abc3ef9eae48878292cc428593b6d0c63ab7b8ae57d6f689429af055461856000015486600101876002015488600301546040516103d59493929190610ae9565b60405180910390a15b5b8080600101915050610321565b505050505b50505050565b6000604051905090565b600080fd5b600080fd5b600080fd5b600080fd5b6000601f19601f8301169050919050565b7f4e487b7100000000000000000000000000000000000000000000000000000000600052604160045260246000fd5b61045e82610415565b810181811067ffffffffffffffff8211171561047d5761047c610426565b5b80604052505050565b60006104906103f7565b905061049c8282610455565b919050565b600067ffffffffffffffff8211156104bc576104bb610426565b5b6104c582610415565b9050602081019050919050565b82818337600083830152505050565b60006104f46104ef846104a1565b610486565b9050828152602081018484840111156105105761050f610410565b5b61051b8482856104d2565b509392505050565b600082601f8301126105385761053761040b565b5b81356105488482602086016104e1565b91505092915050565b60006020828403121561056757610566610401565b5b600082013567ffffffffffffffff81111561058557610584610406565b5b61059184828501610523565b91505092915050565b6000819050919050565b6105ad8161059a565b81146105b857600080fd5b50565b6000813590506105ca816105a4565b92915050565b6000806000606084860312156105e9576105e8610401565b5b60006105f7868287016105bb565b9350506020610608868287016105bb565b9250506040610619868287016105bb565b9150509250925092565b600081519050919050565b7f4e487b7100000000000000000000000000000000000000000000000000000000600052602260045260246000fd5b6000600282049050600182168061067557607f821691505b6020821081036106885761068761062e565b5b50919050565b60008190508160005260206000209050919050565b60006020601f8301049050919050565b600082821b905092915050565b6000600883026106f07fffffffffffffffffffffffffffffffffffffffffffffffffffffffffffffffff826106b3565b6106fa86836106b3565b95508019841693508086168417925050509392505050565b6000819050919050565b600061073761073261072d8461059a565b610712565b61059a565b9050919050565b6000819050919050565b6107518361071c565b61076561075d8261073e565b8484546106c0565b825550505050565b600090565b61077a61076d565b610785818484610748565b505050565b5b818110156107a95761079e600082610772565b60018101905061078b565b5050565b601f8211156107ee576107bf8161068e565b6107c8846106a3565b810160208510156107d7578190505b6107eb6107e3856106a3565b83018261078a565b50505b505050565b600082821c905092915050565b6000610811600019846008026107f3565b1980831691505092915050565b600061082a8383610800565b9150826002028217905092915050565b61084382610623565b67ffffffffffffffff81111561085c5761085b610426565b5b610866825461065d565b6108718282856107ad565b600060209050601f8311600181146108a45760008415610892578287015190505b61089c858261081e565b865550610904565b601f1984166108b28661068e565b60005b828110156108da578489015182556001820191506020850194506020810190506108b5565b868310156108f757848901516108f3601f891682610800565b8355505b6001600288020188555050505b505050505050565b6109158161059a565b82525050565b600082825260208201905092915050565b60005b8381101561094a57808201518184015260208101905061092f565b60008484015250505050565b600061096182610623565b61096b818561091b565b935061097b81856020860161092c565b61098481610415565b840191505092915050565b60006040820190506109a4600083018561090c565b81810360208301526109b68184610956565b90509392505050565b7f4e487b7100000000000000000000000000000000000000000000000000000000600052601160045260246000fd5b60006109f98261059a565b91507fffffffffffffffffffffffffffffffffffffffffffffffffffffffffffffffff8203610a2b57610a2a6109bf565b5b600182019050919050565b7f4e487b7100000000000000000000000000000000000000000000000000000000600052603260045260246000fd5b60008154610a728161065d565b610a7c818661091b565b94506001821660008114610a975760018114610aad57610ae0565b60ff198316865281151560200286019350610ae0565b610ab68561068e565b60005b83811015610ad857815481890152600182019150602081019050610ab9565b808801955050505b50505092915050565b6000608082019050610afe600083018761090c565b8181036020830152610b108186610a65565b9050610b1f604083018561090c565b610b2c606083018461090c565b9594505050505056fea26469706673582212209c0940d90f06480d8309f2ddadb1fa29ef25c49c23017a32d2277fd09b3aa7b664736f6c63430008180033",
  "linkReferences": {},
  "deployedLinkReferences": {}
}