{"contracts/JpynOracle.sol":{"JpynOracle":{"abi":[{"inputs":[],"stateMutability":"nonpayable","type":"constructor"},{"inputs":[{"internalType":"address","name":"sender","type":"address"}],"name":"ExistingAdmin","type":"error"},{"inputs":[{"internalType":"address","name":"sender","type":"address"}],"name":"ExistingOracle","type":"error"},{"inputs":[{"internalType":"uint256","name":"totalAdminCount","type":"uint256"},{"internalType":"uint256","name":"minAdminCount","type":"uint256"},{"internalType":"address","name":"sender","type":"address"}],"name":"NotEnoughAdmins","type":"error"},{"inputs":[{"internalType":"uint256","name":"totalOracleCount","type":"uint256"},{"internalType":"uint256","name":"minOracleCount","type":"uint256"},{"internalType":"address","name":"sender","type":"address"}],"name":"NotEnoughOracles","type":"error"},{"inputs":[{"internalType":"address","name":"sender","type":"address"}],"name":"NotExistingAdmin","type":"error"},{"inputs":[{"internalType":"address","name":"sender","type":"address"}],"name":"NotExistingOrracle","type":"error"},{"inputs":[{"internalType":"address","name":"sender","type":"address"}],"name":"OnlyAdmin","type":"error"},{"inputs":[{"internalType":"address","name":"sender","type":"address"}],"name":"OnlyOracle","type":"error"},{"anonymous":false,"inputs":[{"indexed":false,"internalType":"uint256","name":"id","type":"uint256"},{"indexed":false,"internalType":"string","name":"hashedAccount","type":"string"}],"name":"NewRequest","type":"event"},{"anonymous":false,"inputs":[{"indexed":false,"internalType":"uint256","name":"id","type":"uint256"},{"indexed":false,"internalType":"string","name":"hashedAccount","type":"string"},{"indexed":false,"internalType":"uint256","name":"agreedAccountStatus","type":"uint256"},{"indexed":false,"internalType":"uint256","name":"agreedAccountBalance","type":"uint256"}],"name":"UpdatedRequest","type":"event"},{"inputs":[{"internalType":"address","name":"sender","type":"address"}],"name":"addOracle","outputs":[],"stateMutability":"nonpayable","type":"function"},{"inputs":[],"name":"checkAndPenalizeExpiredRequests","outputs":[],"stateMutability":"nonpayable","type":"function"},{"inputs":[{"internalType":"string","name":"_hashedAccount","type":"string"}],"name":"createRequest","outputs":[{"internalType":"uint256","name":"","type":"uint256"}],"stateMutability":"nonpayable","type":"function"},{"inputs":[],"name":"getCurrentOracleId","outputs":[{"internalType":"uint256","name":"","type":"uint256"}],"stateMutability":"view","type":"function"},{"inputs":[],"name":"getCurrentRequestId","outputs":[{"internalType":"uint256","name":"","type":"uint256"}],"stateMutability":"view","type":"function"},{"inputs":[],"name":"getMinQuorum","outputs":[{"internalType":"uint256","name":"","type":"uint256"}],"stateMutability":"view","type":"function"},{"inputs":[{"internalType":"uint256","name":"_id","type":"uint256"}],"name":"getRequest","outputs":[{"components":[{"internalType":"uint256","name":"id","type":"uint256"},{"internalType":"uint256","name":"accountStatus","type":"uint256"},{"internalType":"uint256","name":"accountBalance","type":"uint256"}],"internalType":"struct JpynOracle.GetRequest","name":"","type":"tuple"}],"stateMutability":"view","type":"function"},{"inputs":[],"name":"getTotalOracleCount","outputs":[{"internalType":"uint256","name":"","type":"uint256"}],"stateMutability":"view","type":"function"},{"inputs":[{"internalType":"address","name":"_sender","type":"address"}],"name":"isOracle","outputs":[{"internalType":"bool","name":"","type":"bool"}],"stateMutability":"view","type":"function"},{"inputs":[{"internalType":"address","name":"sender","type":"address"}],"name":"removeOracle","outputs":[],"stateMutability":"nonpayable","type":"function"},{"inputs":[{"internalType":"uint256","name":"_id","type":"uint256"},{"internalType":"uint256","name":"_valueAccountStatus","type":"uint256"},{"internalType":"uint256","name":"_valueAccountBalance","type":"uint256"}],"name":"updateRequest","outputs":[],"stateMutability":"nonpayable","type":"function"}],"evm":{"bytecode":{"linkReferences":{},"object":"608060405234801561001057600080fd5b5060006005819055506000600681905550600060078190555060006008819055506003600981905550611e96806100486000396000f3fe608060405234801561001057600080fd5b50600436106100a95760003560e01c8063a97e5c9311610071578063a97e5c9314610142578063a9b3bfa914610172578063ab49c77414610190578063c58343ef146101ac578063df5dd1a5146101dc578063fdc85fc4146101f8576100a9565b806315cd1841146100ae5780631b146ecf146100cc57806360469011146100fc5780636478cf93146101065780636cd17d6e14610124575b600080fd5b6100b6610214565b6040516100c3919061146f565b60405180910390f35b6100e660048036038101906100e191906115e4565b61021e565b6040516100f3919061146f565b60405180910390f35b61010461047e565b005b61010e610873565b60405161011b919061146f565b60405180910390f35b61012c61087d565b604051610139919061146f565b60405180910390f35b61015c6004803603810190610157919061168b565b610887565b60405161016991906116d3565b60405180910390f35b61017a6108dd565b604051610187919061146f565b60405180910390f35b6101aa60048036038101906101a5919061171a565b6108e7565b005b6101c660048036038101906101c1919061176d565b610cd2565b6040516101d391906117eb565b60405180910390f35b6101f660048036038101906101f1919061168b565b610d27565b005b610212600480360381019061020d919061168b565b610e7c565b005b6000600554905090565b600060095460085410156102785760085460095461023a610fc5565b6040517f9ef88eb200000000000000000000000000000000000000000000000000000000815260040161026f93929190611815565b60405180910390fd5b600080600060055481526020019081526020016000209050828160000190816102a19190611a63565b506000816001018190555060008160020181905550428160060160006101000a81548163ffffffff021916908363ffffffff16021790555061012c426102e79190611b64565b8160060160046101000a81548163ffffffff021916908363ffffffff16021790555060005b60065481101561042357600160006002600084815260200190815260200160002060009054906101000a900473ffffffffffffffffffffffffffffffffffffffff1673ffffffffffffffffffffffffffffffffffffffff1673ffffffffffffffffffffffffffffffffffffffff16815260200190815260200160002060009054906101000a900460ff16156104165760018260050160006002600085815260200190815260200160002060009054906101000a900473ffffffffffffffffffffffffffffffffffffffff1673ffffffffffffffffffffffffffffffffffffffff1673ffffffffffffffffffffffffffffffffffffffff168152602001908152602001600020819055505b808060010191505061030c565b507f85808ba6b61b3e11f7dba026341d5ff5603fab7df37b176ebfa0f296264cd12e60055484604051610457929190611c0c565b60405180910390a1610467610fcd565b60016005546104769190611c3c565b915050919050565b60005b60055481101561087057600080600083815260200190815260200160002090508060060160049054906101000a900463ffffffff1663ffffffff164211156108625760005b60065481101561086057600160006002600084815260200190815260200160002060009054906101000a900473ffffffffffffffffffffffffffffffffffffffff1673ffffffffffffffffffffffffffffffffffffffff1673ffffffffffffffffffffffffffffffffffffffff16815260200190815260200160002060009054906101000a900460ff1680156106945750610693600360006002600085815260200190815260200160002060009054906101000a900473ffffffffffffffffffffffffffffffffffffffff1673ffffffffffffffffffffffffffffffffffffffff1673ffffffffffffffffffffffffffffffffffffffff16815260200190815260200160002060008581526020019081526020016000206040518060600160405290816000820180546105f890611886565b80601f016020809104026020016040519081016040528092919081815260200182805461062490611886565b80156106715780601f1061064657610100808354040283529160200191610671565b820191906000526020600020905b81548152906001019060200180831161065457829003601f168201915b5050505050815260200160018201548152602001600282015481525050610fe1565b5b15610853576001600460006002600085815260200190815260200160002060009054906101000a900473ffffffffffffffffffffffffffffffffffffffff1673ffffffffffffffffffffffffffffffffffffffff1673ffffffffffffffffffffffffffffffffffffffff168152602001908152602001600020600082825461071c9190611b64565b925050819055506003600460006002600087815260200190815260200160002060009054906101000a900473ffffffffffffffffffffffffffffffffffffffff1673ffffffffffffffffffffffffffffffffffffffff1673ffffffffffffffffffffffffffffffffffffffff1681526020019081526020016000205403610852576107d96002600085815260200190815260200160002060009054906101000a900473ffffffffffffffffffffffffffffffffffffffff16610e7c565b6000600460006002600087815260200190815260200160002060009054906101000a900473ffffffffffffffffffffffffffffffffffffffff1673ffffffffffffffffffffffffffffffffffffffff1673ffffffffffffffffffffffffffffffffffffffff168152602001908152602001600020819055505b5b80806001019150506104c6565b505b508080600101915050610481565b50565b6000600854905090565b6000600654905090565b6000600160008373ffffffffffffffffffffffffffffffffffffffff1673ffffffffffffffffffffffffffffffffffffffff16815260200190815260200160002060009054906101000a900460ff169050919050565b6000600754905090565b600160006108f3610fc5565b73ffffffffffffffffffffffffffffffffffffffff1673ffffffffffffffffffffffffffffffffffffffff16815260200190815260200160002060009054906101000a900460ff1661098357610947610fc5565b6040517ff432bce900000000000000000000000000000000000000000000000000000000815260040161097a9190611c70565b60405180910390fd5b6000806000858152602001908152602001600020905060405180606001604052808260000180546109b390611886565b80601f01602080910402602001604051908101604052809291908181526020018280546109df90611886565b8015610a2c5780601f10610a0157610100808354040283529160200191610a2c565b820191906000526020600020905b815481529060010190602001808311610a0f57829003601f168201915b5050505050815260200184815260200183815250600360003373ffffffffffffffffffffffffffffffffffffffff1673ffffffffffffffffffffffffffffffffffffffff16815260200190815260200160002060008681526020019081526020016000206000820151816000019081610aa59190611a63565b5060208201518160010155604082015181600201559050506001816005016000610acd610fc5565b73ffffffffffffffffffffffffffffffffffffffff1673ffffffffffffffffffffffffffffffffffffffff1681526020019081526020016000205403610ccc576002816005016000610b1d610fc5565b73ffffffffffffffffffffffffffffffffffffffff1673ffffffffffffffffffffffffffffffffffffffff168152602001908152602001600020819055506000805b80610bef57600083600301600084815260200190815260200160002054148015610b9e5750600083600401600084815260200190815260200160002054145b15610bdc5760019050848360030160008481526020019081526020016000208190555083836004016000848152602001908152602001600020819055505b8180610be790611c8b565b925050610b5f565b6000805b600854811015610cc7578685600301600083815260200190815260200160002054148015610c3557508585600401600083815260200190815260200160002054145b15610cba578180610c4590611c8b565b9250506007548210610cb9578685600101819055508585600201819055507f16537abc3ef9eae48878292cc428593b6d0c63ab7b8ae57d6f689429af0554616005548660000187600101548860020154604051610ca59493929190611d57565b60405180910390a1610cb888888861105b565b5b5b8080600101915050610bf3565b505050505b50505050565b610cda611435565b600080600084815260200190815260200160002090506000816001015490506000826002015490506040518060600160405280868152602001838152602001828152509350505050919050565b600160008273ffffffffffffffffffffffffffffffffffffffff1673ffffffffffffffffffffffffffffffffffffffff16815260200190815260200160002060009054906101000a900460ff1615610db657806040517f8bc38120000000000000000000000000000000000000000000000000000000008152600401610dad9190611c70565b60405180910390fd5b60018060008373ffffffffffffffffffffffffffffffffffffffff1673ffffffffffffffffffffffffffffffffffffffff16815260200190815260200160002060006101000a81548160ff0219169083151502179055508060026000600654815260200190815260200160002060006101000a81548173ffffffffffffffffffffffffffffffffffffffff021916908373ffffffffffffffffffffffffffffffffffffffff160217905550610e696113d9565b610e716113ed565b610e79611401565b50565b60095460085411610ecc57600854600954826040517f9ef88eb2000000000000000000000000000000000000000000000000000000008152600401610ec393929190611815565b60405180910390fd5b600160008273ffffffffffffffffffffffffffffffffffffffff1673ffffffffffffffffffffffffffffffffffffffff16815260200190815260200160002060009054906101000a900460ff16610f5a57806040517f64c32691000000000000000000000000000000000000000000000000000000008152600401610f519190611c70565b60405180910390fd5b6000600160008373ffffffffffffffffffffffffffffffffffffffff1673ffffffffffffffffffffffffffffffffffffffff16815260200190815260200160002060006101000a81548160ff021916908315150217905550610fba611420565b610fc2611401565b50565b600033905090565b600560008154809291906001019190505550565b6000604051602001610ff290611dd4565b60405160208183030381529060405280519060200120826000015160405160200161101d9190611e1a565b60405160208183030381529060405280519060200120148015611044575060008260200151145b8015611054575060008260400151145b9050919050565b60005b6008548110156113d357600160006002600084815260200190815260200160002060009054906101000a900473ffffffffffffffffffffffffffffffffffffffff1673ffffffffffffffffffffffffffffffffffffffff1673ffffffffffffffffffffffffffffffffffffffff16815260200190815260200160002060009054906101000a900460ff16156113c65782600360006002600085815260200190815260200160002060009054906101000a900473ffffffffffffffffffffffffffffffffffffffff1673ffffffffffffffffffffffffffffffffffffffff1673ffffffffffffffffffffffffffffffffffffffff168152602001908152602001600020600086815260200190815260200160002060010154141580611208575081600360006002600085815260200190815260200160002060009054906101000a900473ffffffffffffffffffffffffffffffffffffffff1673ffffffffffffffffffffffffffffffffffffffff1673ffffffffffffffffffffffffffffffffffffffff16815260200190815260200160002060008681526020019081526020016000206002015414155b156113c557600460006002600084815260200190815260200160002060009054906101000a900473ffffffffffffffffffffffffffffffffffffffff1673ffffffffffffffffffffffffffffffffffffffff1673ffffffffffffffffffffffffffffffffffffffff168152602001908152602001600020600081548092919061129090611c8b565b91905055506003600460006002600085815260200190815260200160002060009054906101000a900473ffffffffffffffffffffffffffffffffffffffff1673ffffffffffffffffffffffffffffffffffffffff1673ffffffffffffffffffffffffffffffffffffffff16815260200190815260200160002054036113c45761134b6002600083815260200190815260200160002060009054906101000a900473ffffffffffffffffffffffffffffffffffffffff16610e7c565b6000600460006002600085815260200190815260200160002060009054906101000a900473ffffffffffffffffffffffffffffffffffffffff1673ffffffffffffffffffffffffffffffffffffffff1673ffffffffffffffffffffffffffffffffffffffff168152602001908152602001600020819055505b5b5b808060010191505061105e565b50505050565b600660008154809291906001019190505550565b600860008154809291906001019190505550565b600160026008548161141657611415611e31565b5b0401600781905550565b60086000815480929190600190039190505550565b60405180606001604052806000815260200160008152602001600081525090565b6000819050919050565b61146981611456565b82525050565b60006020820190506114846000830184611460565b92915050565b6000604051905090565b600080fd5b600080fd5b600080fd5b600080fd5b6000601f19601f8301169050919050565b7f4e487b7100000000000000000000000000000000000000000000000000000000600052604160045260246000fd5b6114f1826114a8565b810181811067ffffffffffffffff821117156115105761150f6114b9565b5b80604052505050565b600061152361148a565b905061152f82826114e8565b919050565b600067ffffffffffffffff82111561154f5761154e6114b9565b5b611558826114a8565b9050602081019050919050565b82818337600083830152505050565b600061158761158284611534565b611519565b9050828152602081018484840111156115a3576115a26114a3565b5b6115ae848285611565565b509392505050565b600082601f8301126115cb576115ca61149e565b5b81356115db848260208601611574565b91505092915050565b6000602082840312156115fa576115f9611494565b5b600082013567ffffffffffffffff81111561161857611617611499565b5b611624848285016115b6565b91505092915050565b600073ffffffffffffffffffffffffffffffffffffffff82169050919050565b60006116588261162d565b9050919050565b6116688161164d565b811461167357600080fd5b50565b6000813590506116858161165f565b92915050565b6000602082840312156116a1576116a0611494565b5b60006116af84828501611676565b91505092915050565b60008115159050919050565b6116cd816116b8565b82525050565b60006020820190506116e860008301846116c4565b92915050565b6116f781611456565b811461170257600080fd5b50565b600081359050611714816116ee565b92915050565b60008060006060848603121561173357611732611494565b5b600061174186828701611705565b935050602061175286828701611705565b925050604061176386828701611705565b9150509250925092565b60006020828403121561178357611782611494565b5b600061179184828501611705565b91505092915050565b6117a381611456565b82525050565b6060820160008201516117bf600085018261179a565b5060208201516117d2602085018261179a565b5060408201516117e5604085018261179a565b50505050565b600060608201905061180060008301846117a9565b92915050565b61180f8161164d565b82525050565b600060608201905061182a6000830186611460565b6118376020830185611460565b6118446040830184611806565b949350505050565b600081519050919050565b7f4e487b7100000000000000000000000000000000000000000000000000000000600052602260045260246000fd5b6000600282049050600182168061189e57607f821691505b6020821081036118b1576118b0611857565b5b50919050565b60008190508160005260206000209050919050565b60006020601f8301049050919050565b600082821b905092915050565b6000600883026119197fffffffffffffffffffffffffffffffffffffffffffffffffffffffffffffffff826118dc565b61192386836118dc565b95508019841693508086168417925050509392505050565b6000819050919050565b600061196061195b61195684611456565b61193b565b611456565b9050919050565b6000819050919050565b61197a83611945565b61198e61198682611967565b8484546118e9565b825550505050565b600090565b6119a3611996565b6119ae818484611971565b505050565b5b818110156119d2576119c760008261199b565b6001810190506119b4565b5050565b601f821115611a17576119e8816118b7565b6119f1846118cc565b81016020851015611a00578190505b611a14611a0c856118cc565b8301826119b3565b50505b505050565b600082821c905092915050565b6000611a3a60001984600802611a1c565b1980831691505092915050565b6000611a538383611a29565b9150826002028217905092915050565b611a6c8261184c565b67ffffffffffffffff811115611a8557611a846114b9565b5b611a8f8254611886565b611a9a8282856119d6565b600060209050601f831160018114611acd5760008415611abb578287015190505b611ac58582611a47565b865550611b2d565b601f198416611adb866118b7565b60005b82811015611b0357848901518255600182019150602085019450602081019050611ade565b86831015611b205784890151611b1c601f891682611a29565b8355505b6001600288020188555050505b505050505050565b7f4e487b7100000000000000000000000000000000000000000000000000000000600052601160045260246000fd5b6000611b6f82611456565b9150611b7a83611456565b9250828201905080821115611b9257611b91611b35565b5b92915050565b600082825260208201905092915050565b60005b83811015611bc7578082015181840152602081019050611bac565b60008484015250505050565b6000611bde8261184c565b611be88185611b98565b9350611bf8818560208601611ba9565b611c01816114a8565b840191505092915050565b6000604082019050611c216000830185611460565b8181036020830152611c338184611bd3565b90509392505050565b6000611c4782611456565b9150611c5283611456565b9250828203905081811115611c6a57611c69611b35565b5b92915050565b6000602082019050611c856000830184611806565b92915050565b6000611c9682611456565b91507fffffffffffffffffffffffffffffffffffffffffffffffffffffffffffffffff8203611cc857611cc7611b35565b5b600182019050919050565b60008154611ce081611886565b611cea8186611b98565b94506001821660008114611d055760018114611d1b57611d4e565b60ff198316865281151560200286019350611d4e565b611d24856118b7565b60005b83811015611d4657815481890152600182019150602081019050611d27565b808801955050505b50505092915050565b6000608082019050611d6c6000830187611460565b8181036020830152611d7e8186611cd3565b9050611d8d6040830185611460565b611d9a6060830184611460565b95945050505050565b600081905092915050565b50565b6000611dbe600083611da3565b9150611dc982611dae565b600082019050919050565b6000611ddf82611db1565b9150819050919050565b6000611df48261184c565b611dfe8185611da3565b9350611e0e818560208601611ba9565b80840191505092915050565b6000611e268284611de9565b915081905092915050565b7f4e487b7100000000000000000000000000000000000000000000000000000000600052601260045260246000fdfea26469706673582212207cef78024a9c85d69b7d27df9ceba5f9e1782bec57aca33d2d8fc9a03fbda55064736f6c63430008180033","opcodes":"PUSH1 0x80 PUSH1 0x40 MSTORE CALLVALUE DUP1 ISZERO PUSH2 0x10 JUMPI PUSH1 0x0 DUP1 REVERT JUMPDEST POP PUSH1 0x0 PUSH1 0x5 DUP2 SWAP1 SSTORE POP PUSH1 0x0 PUSH1 0x6 DUP2 SWAP1 SSTORE POP PUSH1 0x0 PUSH1 0x7 DUP2 SWAP1 SSTORE POP PUSH1 0x0 PUSH1 0x8 DUP2 SWAP1 SSTORE POP PUSH1 0x3 PUSH1 0x9 DUP2 SWAP1 SSTORE POP PUSH2 0x1E96 DUP1 PUSH2 0x48 PUSH1 0x0 CODECOPY PUSH1 0x0 RETURN INVALID PUSH1 0x80 PUSH1 0x40 MSTORE CALLVALUE DUP1 ISZERO PUSH2 0x10 JUMPI PUSH1 0x0 DUP1 REVERT JUMPDEST POP PUSH1 0x4 CALLDATASIZE LT PUSH2 0xA9 JUMPI PUSH1 0x0 CALLDATALOAD PUSH1 0xE0 SHR DUP1 PUSH4 0xA97E5C93 GT PUSH2 0x71 JUMPI DUP1 PUSH4 0xA97E5C93 EQ PUSH2 0x142 JUMPI DUP1 PUSH4 0xA9B3BFA9 EQ PUSH2 0x172 JUMPI DUP1 PUSH4 0xAB49C774 EQ PUSH2 0x190 JUMPI DUP1 PUSH4 0xC58343EF EQ PUSH2 0x1AC JUMPI DUP1 PUSH4 0xDF5DD1A5 EQ PUSH2 0x1DC JUMPI DUP1 PUSH4 0xFDC85FC4 EQ PUSH2 0x1F8 JUMPI PUSH2 0xA9 JUMP JUMPDEST DUP1 PUSH4 0x15CD1841 EQ PUSH2 0xAE JUMPI DUP1 PUSH4 0x1B146ECF EQ PUSH2 0xCC JUMPI DUP1 PUSH4 0x60469011 EQ PUSH2 0xFC JUMPI DUP1 PUSH4 0x6478CF93 EQ PUSH2 0x106 JUMPI DUP1 PUSH4 0x6CD17D6E EQ PUSH2 0x124 JUMPI JUMPDEST PUSH1 0x0 DUP1 REVERT JUMPDEST PUSH2 0xB6 PUSH2 0x214 JUMP JUMPDEST PUSH1 0x40 MLOAD PUSH2 0xC3 SWAP2 SWAP1 PUSH2 0x146F JUMP JUMPDEST PUSH1 0x40 MLOAD DUP1 SWAP2 SUB SWAP1 RETURN JUMPDEST PUSH2 0xE6 PUSH1 0x4 DUP1 CALLDATASIZE SUB DUP2 ADD SWAP1 PUSH2 0xE1 SWAP2 SWAP1 PUSH2 0x15E4 JUMP JUMPDEST PUSH2 0x21E JUMP JUMPDEST PUSH1 0x40 MLOAD PUSH2 0xF3 SWAP2 SWAP1 PUSH2 0x146F JUMP JUMPDEST PUSH1 0x40 MLOAD DUP1 SWAP2 SUB SWAP1 RETURN JUMPDEST PUSH2 0x104 PUSH2 0x47E JUMP JUMPDEST STOP JUMPDEST PUSH2 0x10E PUSH2 0x873 JUMP JUMPDEST PUSH1 0x40 MLOAD PUSH2 0x11B SWAP2 SWAP1 PUSH2 0x146F JUMP JUMPDEST PUSH1 0x40 MLOAD DUP1 SWAP2 SUB SWAP1 RETURN JUMPDEST PUSH2 0x12C PUSH2 0x87D JUMP JUMPDEST PUSH1 0x40 MLOAD PUSH2 0x139 SWAP2 SWAP1 PUSH2 0x146F JUMP JUMPDEST PUSH1 0x40 MLOAD DUP1 SWAP2 SUB SWAP1 RETURN JUMPDEST PUSH2 0x15C PUSH1 0x4 DUP1 CALLDATASIZE SUB DUP2 ADD SWAP1 PUSH2 0x157 SWAP2 SWAP1 PUSH2 0x168B JUMP JUMPDEST PUSH2 0x887 JUMP JUMPDEST PUSH1 0x40 MLOAD PUSH2 0x169 SWAP2 SWAP1 PUSH2 0x16D3 JUMP JUMPDEST PUSH1 0x40 MLOAD DUP1 SWAP2 SUB SWAP1 RETURN JUMPDEST PUSH2 0x17A PUSH2 0x8DD JUMP JUMPDEST PUSH1 0x40 MLOAD PUSH2 0x187 SWAP2 SWAP1 PUSH2 0x146F JUMP JUMPDEST PUSH1 0x40 MLOAD DUP1 SWAP2 SUB SWAP1 RETURN JUMPDEST PUSH2 0x1AA PUSH1 0x4 DUP1 CALLDATASIZE SUB DUP2 ADD SWAP1 PUSH2 0x1A5 SWAP2 SWAP1 PUSH2 0x171A JUMP JUMPDEST PUSH2 0x8E7 JUMP JUMPDEST STOP JUMPDEST PUSH2 0x1C6 PUSH1 0x4 DUP1 CALLDATASIZE SUB DUP2 ADD SWAP1 PUSH2 0x1C1 SWAP2 SWAP1 PUSH2 0x176D JUMP JUMPDEST PUSH2 0xCD2 JUMP JUMPDEST PUSH1 0x40 MLOAD PUSH2 0x1D3 SWAP2 SWAP1 PUSH2 0x17EB JUMP JUMPDEST PUSH1 0x40 MLOAD DUP1 SWAP2 SUB SWAP1 RETURN JUMPDEST PUSH2 0x1F6 PUSH1 0x4 DUP1 CALLDATASIZE SUB DUP2 ADD SWAP1 PUSH2 0x1F1 SWAP2 SWAP1 PUSH2 0x168B JUMP JUMPDEST PUSH2 0xD27 JUMP JUMPDEST STOP JUMPDEST PUSH2 0x212 PUSH1 0x4 DUP1 CALLDATASIZE SUB DUP2 ADD SWAP1 PUSH2 0x20D SWAP2 SWAP1 PUSH2 0x168B JUMP JUMPDEST PUSH2 0xE7C JUMP JUMPDEST STOP JUMPDEST PUSH1 0x0 PUSH1 0x5 SLOAD SWAP1 POP SWAP1 JUMP JUMPDEST PUSH1 0x0 PUSH1 0x9 SLOAD PUSH1 0x8 SLOAD LT ISZERO PUSH2 0x278 JUMPI PUSH1 0x8 SLOAD PUSH1 0x9 SLOAD PUSH2 0x23A PUSH2 0xFC5 JUMP JUMPDEST PUSH1 0x40 MLOAD PUSH32 0x9EF88EB200000000000000000000000000000000000000000000000000000000 DUP2 MSTORE PUSH1 0x4 ADD PUSH2 0x26F SWAP4 SWAP3 SWAP2 SWAP1 PUSH2 0x1815 JUMP JUMPDEST PUSH1 0x40 MLOAD DUP1 SWAP2 SUB SWAP1 REVERT JUMPDEST PUSH1 0x0 DUP1 PUSH1 0x0 PUSH1 0x5 SLOAD DUP2 MSTORE PUSH1 0x20 ADD SWAP1 DUP2 MSTORE PUSH1 0x20 ADD PUSH1 0x0 KECCAK256 SWAP1 POP DUP3 DUP2 PUSH1 0x0 ADD SWAP1 DUP2 PUSH2 0x2A1 SWAP2 SWAP1 PUSH2 0x1A63 JUMP JUMPDEST POP PUSH1 0x0 DUP2 PUSH1 0x1 ADD DUP2 SWAP1 SSTORE POP PUSH1 0x0 DUP2 PUSH1 0x2 ADD DUP2 SWAP1 SSTORE POP TIMESTAMP DUP2 PUSH1 0x6 ADD PUSH1 0x0 PUSH2 0x100 EXP DUP2 SLOAD DUP2 PUSH4 0xFFFFFFFF MUL NOT AND SWAP1 DUP4 PUSH4 0xFFFFFFFF AND MUL OR SWAP1 SSTORE POP PUSH2 0x12C TIMESTAMP PUSH2 0x2E7 SWAP2 SWAP1 PUSH2 0x1B64 JUMP JUMPDEST DUP2 PUSH1 0x6 ADD PUSH1 0x4 PUSH2 0x100 EXP DUP2 SLOAD DUP2 PUSH4 0xFFFFFFFF MUL NOT AND SWAP1 DUP4 PUSH4 0xFFFFFFFF AND MUL OR SWAP1 SSTORE POP PUSH1 0x0 JUMPDEST PUSH1 0x6 SLOAD DUP2 LT ISZERO PUSH2 0x423 JUMPI PUSH1 0x1 PUSH1 0x0 PUSH1 0x2 PUSH1 0x0 DUP5 DUP2 MSTORE PUSH1 0x20 ADD SWAP1 DUP2 MSTORE PUSH1 0x20 ADD PUSH1 0x0 KECCAK256 PUSH1 0x0 SWAP1 SLOAD SWAP1 PUSH2 0x100 EXP SWAP1 DIV PUSH20 0xFFFFFFFFFFFFFFFFFFFFFFFFFFFFFFFFFFFFFFFF AND PUSH20 0xFFFFFFFFFFFFFFFFFFFFFFFFFFFFFFFFFFFFFFFF AND PUSH20 0xFFFFFFFFFFFFFFFFFFFFFFFFFFFFFFFFFFFFFFFF AND DUP2 MSTORE PUSH1 0x20 ADD SWAP1 DUP2 MSTORE PUSH1 0x20 ADD PUSH1 0x0 KECCAK256 PUSH1 0x0 SWAP1 SLOAD SWAP1 PUSH2 0x100 EXP SWAP1 DIV PUSH1 0xFF AND ISZERO PUSH2 0x416 JUMPI PUSH1 0x1 DUP3 PUSH1 0x5 ADD PUSH1 0x0 PUSH1 0x2 PUSH1 0x0 DUP6 DUP2 MSTORE PUSH1 0x20 ADD SWAP1 DUP2 MSTORE PUSH1 0x20 ADD PUSH1 0x0 KECCAK256 PUSH1 0x0 SWAP1 SLOAD SWAP1 PUSH2 0x100 EXP SWAP1 DIV PUSH20 0xFFFFFFFFFFFFFFFFFFFFFFFFFFFFFFFFFFFFFFFF AND PUSH20 0xFFFFFFFFFFFFFFFFFFFFFFFFFFFFFFFFFFFFFFFF AND PUSH20 0xFFFFFFFFFFFFFFFFFFFFFFFFFFFFFFFFFFFFFFFF AND DUP2 MSTORE PUSH1 0x20 ADD SWAP1 DUP2 MSTORE PUSH1 0x20 ADD PUSH1 0x0 KECCAK256 DUP2 SWAP1 SSTORE POP JUMPDEST DUP1 DUP1 PUSH1 0x1 ADD SWAP2 POP POP PUSH2 0x30C JUMP JUMPDEST POP PUSH32 0x85808BA6B61B3E11F7DBA026341D5FF5603FAB7DF37B176EBFA0F296264CD12E PUSH1 0x5 SLOAD DUP5 PUSH1 0x40 MLOAD PUSH2 0x457 SWAP3 SWAP2 SWAP1 PUSH2 0x1C0C JUMP JUMPDEST PUSH1 0x40 MLOAD DUP1 SWAP2 SUB SWAP1 LOG1 PUSH2 0x467 PUSH2 0xFCD JUMP JUMPDEST PUSH1 0x1 PUSH1 0x5 SLOAD PUSH2 0x476 SWAP2 SWAP1 PUSH2 0x1C3C JUMP JUMPDEST SWAP2 POP POP SWAP2 SWAP1 POP JUMP JUMPDEST PUSH1 0x0 JUMPDEST PUSH1 0x5 SLOAD DUP2 LT ISZERO PUSH2 0x870 JUMPI PUSH1 0x0 DUP1 PUSH1 0x0 DUP4 DUP2 MSTORE PUSH1 0x20 ADD SWAP1 DUP2 MSTORE PUSH1 0x20 ADD PUSH1 0x0 KECCAK256 SWAP1 POP DUP1 PUSH1 0x6 ADD PUSH1 0x4 SWAP1 SLOAD SWAP1 PUSH2 0x100 EXP SWAP1 DIV PUSH4 0xFFFFFFFF AND PUSH4 0xFFFFFFFF AND TIMESTAMP GT ISZERO PUSH2 0x862 JUMPI PUSH1 0x0 JUMPDEST PUSH1 0x6 SLOAD DUP2 LT ISZERO PUSH2 0x860 JUMPI PUSH1 0x1 PUSH1 0x0 PUSH1 0x2 PUSH1 0x0 DUP5 DUP2 MSTORE PUSH1 0x20 ADD SWAP1 DUP2 MSTORE PUSH1 0x20 ADD PUSH1 0x0 KECCAK256 PUSH1 0x0 SWAP1 SLOAD SWAP1 PUSH2 0x100 EXP SWAP1 DIV PUSH20 0xFFFFFFFFFFFFFFFFFFFFFFFFFFFFFFFFFFFFFFFF AND PUSH20 0xFFFFFFFFFFFFFFFFFFFFFFFFFFFFFFFFFFFFFFFF AND PUSH20 0xFFFFFFFFFFFFFFFFFFFFFFFFFFFFFFFFFFFFFFFF AND DUP2 MSTORE PUSH1 0x20 ADD SWAP1 DUP2 MSTORE PUSH1 0x20 ADD PUSH1 0x0 KECCAK256 PUSH1 0x0 SWAP1 SLOAD SWAP1 PUSH2 0x100 EXP SWAP1 DIV PUSH1 0xFF AND DUP1 ISZERO PUSH2 0x694 JUMPI POP PUSH2 0x693 PUSH1 0x3 PUSH1 0x0 PUSH1 0x2 PUSH1 0x0 DUP6 DUP2 MSTORE PUSH1 0x20 ADD SWAP1 DUP2 MSTORE PUSH1 0x20 ADD PUSH1 0x0 KECCAK256 PUSH1 0x0 SWAP1 SLOAD SWAP1 PUSH2 0x100 EXP SWAP1 DIV PUSH20 0xFFFFFFFFFFFFFFFFFFFFFFFFFFFFFFFFFFFFFFFF AND PUSH20 0xFFFFFFFFFFFFFFFFFFFFFFFFFFFFFFFFFFFFFFFF AND PUSH20 0xFFFFFFFFFFFFFFFFFFFFFFFFFFFFFFFFFFFFFFFF AND DUP2 MSTORE PUSH1 0x20 ADD SWAP1 DUP2 MSTORE PUSH1 0x20 ADD PUSH1 0x0 KECCAK256 PUSH1 0x0 DUP6 DUP2 MSTORE PUSH1 0x20 ADD SWAP1 DUP2 MSTORE PUSH1 0x20 ADD PUSH1 0x0 KECCAK256 PUSH1 0x40 MLOAD DUP1 PUSH1 0x60 ADD PUSH1 0x40 MSTORE SWAP1 DUP2 PUSH1 0x0 DUP3 ADD DUP1 SLOAD PUSH2 0x5F8 SWAP1 PUSH2 0x1886 JUMP JUMPDEST DUP1 PUSH1 0x1F ADD PUSH1 0x20 DUP1 SWAP2 DIV MUL PUSH1 0x20 ADD PUSH1 0x40 MLOAD SWAP1 DUP2 ADD PUSH1 0x40 MSTORE DUP1 SWAP3 SWAP2 SWAP1 DUP2 DUP2 MSTORE PUSH1 0x20 ADD DUP3 DUP1 SLOAD PUSH2 0x624 SWAP1 PUSH2 0x1886 JUMP JUMPDEST DUP1 ISZERO PUSH2 0x671 JUMPI DUP1 PUSH1 0x1F LT PUSH2 0x646 JUMPI PUSH2 0x100 DUP1 DUP4 SLOAD DIV MUL DUP4 MSTORE SWAP2 PUSH1 0x20 ADD SWAP2 PUSH2 0x671 JUMP JUMPDEST DUP3 ADD SWAP2 SWAP1 PUSH1 0x0 MSTORE PUSH1 0x20 PUSH1 0x0 KECCAK256 SWAP1 JUMPDEST DUP2 SLOAD DUP2 MSTORE SWAP1 PUSH1 0x1 ADD SWAP1 PUSH1 0x20 ADD DUP1 DUP4 GT PUSH2 0x654 JUMPI DUP3 SWAP1 SUB PUSH1 0x1F AND DUP3 ADD SWAP2 JUMPDEST POP POP POP POP POP DUP2 MSTORE PUSH1 0x20 ADD PUSH1 0x1 DUP3 ADD SLOAD DUP2 MSTORE PUSH1 0x20 ADD PUSH1 0x2 DUP3 ADD SLOAD DUP2 MSTORE POP POP PUSH2 0xFE1 JUMP JUMPDEST JUMPDEST ISZERO PUSH2 0x853 JUMPI PUSH1 0x1 PUSH1 0x4 PUSH1 0x0 PUSH1 0x2 PUSH1 0x0 DUP6 DUP2 MSTORE PUSH1 0x20 ADD SWAP1 DUP2 MSTORE PUSH1 0x20 ADD PUSH1 0x0 KECCAK256 PUSH1 0x0 SWAP1 SLOAD SWAP1 PUSH2 0x100 EXP SWAP1 DIV PUSH20 0xFFFFFFFFFFFFFFFFFFFFFFFFFFFFFFFFFFFFFFFF AND PUSH20 0xFFFFFFFFFFFFFFFFFFFFFFFFFFFFFFFFFFFFFFFF AND PUSH20 0xFFFFFFFFFFFFFFFFFFFFFFFFFFFFFFFFFFFFFFFF AND DUP2 MSTORE PUSH1 0x20 ADD SWAP1 DUP2 MSTORE PUSH1 0x20 ADD PUSH1 0x0 KECCAK256 PUSH1 0x0 DUP3 DUP3 SLOAD PUSH2 0x71C SWAP2 SWAP1 PUSH2 0x1B64 JUMP JUMPDEST SWAP3 POP POP DUP2 SWAP1 SSTORE POP PUSH1 0x3 PUSH1 0x4 PUSH1 0x0 PUSH1 0x2 PUSH1 0x0 DUP8 DUP2 MSTORE PUSH1 0x20 ADD SWAP1 DUP2 MSTORE PUSH1 0x20 ADD PUSH1 0x0 KECCAK256 PUSH1 0x0 SWAP1 SLOAD SWAP1 PUSH2 0x100 EXP SWAP1 DIV PUSH20 0xFFFFFFFFFFFFFFFFFFFFFFFFFFFFFFFFFFFFFFFF AND PUSH20 0xFFFFFFFFFFFFFFFFFFFFFFFFFFFFFFFFFFFFFFFF AND PUSH20 0xFFFFFFFFFFFFFFFFFFFFFFFFFFFFFFFFFFFFFFFF AND DUP2 MSTORE PUSH1 0x20 ADD SWAP1 DUP2 MSTORE PUSH1 0x20 ADD PUSH1 0x0 KECCAK256 SLOAD SUB PUSH2 0x852 JUMPI PUSH2 0x7D9 PUSH1 0x2 PUSH1 0x0 DUP6 DUP2 MSTORE PUSH1 0x20 ADD SWAP1 DUP2 MSTORE PUSH1 0x20 ADD PUSH1 0x0 KECCAK256 PUSH1 0x0 SWAP1 SLOAD SWAP1 PUSH2 0x100 EXP SWAP1 DIV PUSH20 0xFFFFFFFFFFFFFFFFFFFFFFFFFFFFFFFFFFFFFFFF AND PUSH2 0xE7C JUMP JUMPDEST PUSH1 0x0 PUSH1 0x4 PUSH1 0x0 PUSH1 0x2 PUSH1 0x0 DUP8 DUP2 MSTORE PUSH1 0x20 ADD SWAP1 DUP2 MSTORE PUSH1 0x20 ADD PUSH1 0x0 KECCAK256 PUSH1 0x0 SWAP1 SLOAD SWAP1 PUSH2 0x100 EXP SWAP1 DIV PUSH20 0xFFFFFFFFFFFFFFFFFFFFFFFFFFFFFFFFFFFFFFFF AND PUSH20 0xFFFFFFFFFFFFFFFFFFFFFFFFFFFFFFFFFFFFFFFF AND PUSH20 0xFFFFFFFFFFFFFFFFFFFFFFFFFFFFFFFFFFFFFFFF AND DUP2 MSTORE PUSH1 0x20 ADD SWAP1 DUP2 MSTORE PUSH1 0x20 ADD PUSH1 0x0 KECCAK256 DUP2 SWAP1 SSTORE POP JUMPDEST JUMPDEST DUP1 DUP1 PUSH1 0x1 ADD SWAP2 POP POP PUSH2 0x4C6 JUMP JUMPDEST POP JUMPDEST POP DUP1 DUP1 PUSH1 0x1 ADD SWAP2 POP POP PUSH2 0x481 JUMP JUMPDEST POP JUMP JUMPDEST PUSH1 0x0 PUSH1 0x8 SLOAD SWAP1 POP SWAP1 JUMP JUMPDEST PUSH1 0x0 PUSH1 0x6 SLOAD SWAP1 POP SWAP1 JUMP JUMPDEST PUSH1 0x0 PUSH1 0x1 PUSH1 0x0 DUP4 PUSH20 0xFFFFFFFFFFFFFFFFFFFFFFFFFFFFFFFFFFFFFFFF AND PUSH20 0xFFFFFFFFFFFFFFFFFFFFFFFFFFFFFFFFFFFFFFFF AND DUP2 MSTORE PUSH1 0x20 ADD SWAP1 DUP2 MSTORE PUSH1 0x20 ADD PUSH1 0x0 KECCAK256 PUSH1 0x0 SWAP1 SLOAD SWAP1 PUSH2 0x100 EXP SWAP1 DIV PUSH1 0xFF AND SWAP1 POP SWAP2 SWAP1 POP JUMP JUMPDEST PUSH1 0x0 PUSH1 0x7 SLOAD SWAP1 POP SWAP1 JUMP JUMPDEST PUSH1 0x1 PUSH1 0x0 PUSH2 0x8F3 PUSH2 0xFC5 JUMP JUMPDEST PUSH20 0xFFFFFFFFFFFFFFFFFFFFFFFFFFFFFFFFFFFFFFFF AND PUSH20 0xFFFFFFFFFFFFFFFFFFFFFFFFFFFFFFFFFFFFFFFF AND DUP2 MSTORE PUSH1 0x20 ADD SWAP1 DUP2 MSTORE PUSH1 0x20 ADD PUSH1 0x0 KECCAK256 PUSH1 0x0 SWAP1 SLOAD SWAP1 PUSH2 0x100 EXP SWAP1 DIV PUSH1 0xFF AND PUSH2 0x983 JUMPI PUSH2 0x947 PUSH2 0xFC5 JUMP JUMPDEST PUSH1 0x40 MLOAD PUSH32 0xF432BCE900000000000000000000000000000000000000000000000000000000 DUP2 MSTORE PUSH1 0x4 ADD PUSH2 0x97A SWAP2 SWAP1 PUSH2 0x1C70 JUMP JUMPDEST PUSH1 0x40 MLOAD DUP1 SWAP2 SUB SWAP1 REVERT JUMPDEST PUSH1 0x0 DUP1 PUSH1 0x0 DUP6 DUP2 MSTORE PUSH1 0x20 ADD SWAP1 DUP2 MSTORE PUSH1 0x20 ADD PUSH1 0x0 KECCAK256 SWAP1 POP PUSH1 0x40 MLOAD DUP1 PUSH1 0x60 ADD PUSH1 0x40 MSTORE DUP1 DUP3 PUSH1 0x0 ADD DUP1 SLOAD PUSH2 0x9B3 SWAP1 PUSH2 0x1886 JUMP JUMPDEST DUP1 PUSH1 0x1F ADD PUSH1 0x20 DUP1 SWAP2 DIV MUL PUSH1 0x20 ADD PUSH1 0x40 MLOAD SWAP1 DUP2 ADD PUSH1 0x40 MSTORE DUP1 SWAP3 SWAP2 SWAP1 DUP2 DUP2 MSTORE PUSH1 0x20 ADD DUP3 DUP1 SLOAD PUSH2 0x9DF SWAP1 PUSH2 0x1886 JUMP JUMPDEST DUP1 ISZERO PUSH2 0xA2C JUMPI DUP1 PUSH1 0x1F LT PUSH2 0xA01 JUMPI PUSH2 0x100 DUP1 DUP4 SLOAD DIV MUL DUP4 MSTORE SWAP2 PUSH1 0x20 ADD SWAP2 PUSH2 0xA2C JUMP JUMPDEST DUP3 ADD SWAP2 SWAP1 PUSH1 0x0 MSTORE PUSH1 0x20 PUSH1 0x0 KECCAK256 SWAP1 JUMPDEST DUP2 SLOAD DUP2 MSTORE SWAP1 PUSH1 0x1 ADD SWAP1 PUSH1 0x20 ADD DUP1 DUP4 GT PUSH2 0xA0F JUMPI DUP3 SWAP1 SUB PUSH1 0x1F AND DUP3 ADD SWAP2 JUMPDEST POP POP POP POP POP DUP2 MSTORE PUSH1 0x20 ADD DUP5 DUP2 MSTORE PUSH1 0x20 ADD DUP4 DUP2 MSTORE POP PUSH1 0x3 PUSH1 0x0 CALLER PUSH20 0xFFFFFFFFFFFFFFFFFFFFFFFFFFFFFFFFFFFFFFFF AND PUSH20 0xFFFFFFFFFFFFFFFFFFFFFFFFFFFFFFFFFFFFFFFF AND DUP2 MSTORE PUSH1 0x20 ADD SWAP1 DUP2 MSTORE PUSH1 0x20 ADD PUSH1 0x0 KECCAK256 PUSH1 0x0 DUP7 DUP2 MSTORE PUSH1 0x20 ADD SWAP1 DUP2 MSTORE PUSH1 0x20 ADD PUSH1 0x0 KECCAK256 PUSH1 0x0 DUP3 ADD MLOAD DUP2 PUSH1 0x0 ADD SWAP1 DUP2 PUSH2 0xAA5 SWAP2 SWAP1 PUSH2 0x1A63 JUMP JUMPDEST POP PUSH1 0x20 DUP3 ADD MLOAD DUP2 PUSH1 0x1 ADD SSTORE PUSH1 0x40 DUP3 ADD MLOAD DUP2 PUSH1 0x2 ADD SSTORE SWAP1 POP POP PUSH1 0x1 DUP2 PUSH1 0x5 ADD PUSH1 0x0 PUSH2 0xACD PUSH2 0xFC5 JUMP JUMPDEST PUSH20 0xFFFFFFFFFFFFFFFFFFFFFFFFFFFFFFFFFFFFFFFF AND PUSH20 0xFFFFFFFFFFFFFFFFFFFFFFFFFFFFFFFFFFFFFFFF AND DUP2 MSTORE PUSH1 0x20 ADD SWAP1 DUP2 MSTORE PUSH1 0x20 ADD PUSH1 0x0 KECCAK256 SLOAD SUB PUSH2 0xCCC JUMPI PUSH1 0x2 DUP2 PUSH1 0x5 ADD PUSH1 0x0 PUSH2 0xB1D PUSH2 0xFC5 JUMP JUMPDEST PUSH20 0xFFFFFFFFFFFFFFFFFFFFFFFFFFFFFFFFFFFFFFFF AND PUSH20 0xFFFFFFFFFFFFFFFFFFFFFFFFFFFFFFFFFFFFFFFF AND DUP2 MSTORE PUSH1 0x20 ADD SWAP1 DUP2 MSTORE PUSH1 0x20 ADD PUSH1 0x0 KECCAK256 DUP2 SWAP1 SSTORE POP PUSH1 0x0 DUP1 JUMPDEST DUP1 PUSH2 0xBEF JUMPI PUSH1 0x0 DUP4 PUSH1 0x3 ADD PUSH1 0x0 DUP5 DUP2 MSTORE PUSH1 0x20 ADD SWAP1 DUP2 MSTORE PUSH1 0x20 ADD PUSH1 0x0 KECCAK256 SLOAD EQ DUP1 ISZERO PUSH2 0xB9E JUMPI POP PUSH1 0x0 DUP4 PUSH1 0x4 ADD PUSH1 0x0 DUP5 DUP2 MSTORE PUSH1 0x20 ADD SWAP1 DUP2 MSTORE PUSH1 0x20 ADD PUSH1 0x0 KECCAK256 SLOAD EQ JUMPDEST ISZERO PUSH2 0xBDC JUMPI PUSH1 0x1 SWAP1 POP DUP5 DUP4 PUSH1 0x3 ADD PUSH1 0x0 DUP5 DUP2 MSTORE PUSH1 0x20 ADD SWAP1 DUP2 MSTORE PUSH1 0x20 ADD PUSH1 0x0 KECCAK256 DUP2 SWAP1 SSTORE POP DUP4 DUP4 PUSH1 0x4 ADD PUSH1 0x0 DUP5 DUP2 MSTORE PUSH1 0x20 ADD SWAP1 DUP2 MSTORE PUSH1 0x20 ADD PUSH1 0x0 KECCAK256 DUP2 SWAP1 SSTORE POP JUMPDEST DUP2 DUP1 PUSH2 0xBE7 SWAP1 PUSH2 0x1C8B JUMP JUMPDEST SWAP3 POP POP PUSH2 0xB5F JUMP JUMPDEST PUSH1 0x0 DUP1 JUMPDEST PUSH1 0x8 SLOAD DUP2 LT ISZERO PUSH2 0xCC7 JUMPI DUP7 DUP6 PUSH1 0x3 ADD PUSH1 0x0 DUP4 DUP2 MSTORE PUSH1 0x20 ADD SWAP1 DUP2 MSTORE PUSH1 0x20 ADD PUSH1 0x0 KECCAK256 SLOAD EQ DUP1 ISZERO PUSH2 0xC35 JUMPI POP DUP6 DUP6 PUSH1 0x4 ADD PUSH1 0x0 DUP4 DUP2 MSTORE PUSH1 0x20 ADD SWAP1 DUP2 MSTORE PUSH1 0x20 ADD PUSH1 0x0 KECCAK256 SLOAD EQ JUMPDEST ISZERO PUSH2 0xCBA JUMPI DUP2 DUP1 PUSH2 0xC45 SWAP1 PUSH2 0x1C8B JUMP JUMPDEST SWAP3 POP POP PUSH1 0x7 SLOAD DUP3 LT PUSH2 0xCB9 JUMPI DUP7 DUP6 PUSH1 0x1 ADD DUP2 SWAP1 SSTORE POP DUP6 DUP6 PUSH1 0x2 ADD DUP2 SWAP1 SSTORE POP PUSH32 0x16537ABC3EF9EAE48878292CC428593B6D0C63AB7B8AE57D6F689429AF055461 PUSH1 0x5 SLOAD DUP7 PUSH1 0x0 ADD DUP8 PUSH1 0x1 ADD SLOAD DUP9 PUSH1 0x2 ADD SLOAD PUSH1 0x40 MLOAD PUSH2 0xCA5 SWAP5 SWAP4 SWAP3 SWAP2 SWAP1 PUSH2 0x1D57 JUMP JUMPDEST PUSH1 0x40 MLOAD DUP1 SWAP2 SUB SWAP1 LOG1 PUSH2 0xCB8 DUP9 DUP9 DUP9 PUSH2 0x105B JUMP JUMPDEST JUMPDEST JUMPDEST DUP1 DUP1 PUSH1 0x1 ADD SWAP2 POP POP PUSH2 0xBF3 JUMP JUMPDEST POP POP POP POP JUMPDEST POP POP POP POP JUMP JUMPDEST PUSH2 0xCDA PUSH2 0x1435 JUMP JUMPDEST PUSH1 0x0 DUP1 PUSH1 0x0 DUP5 DUP2 MSTORE PUSH1 0x20 ADD SWAP1 DUP2 MSTORE PUSH1 0x20 ADD PUSH1 0x0 KECCAK256 SWAP1 POP PUSH1 0x0 DUP2 PUSH1 0x1 ADD SLOAD SWAP1 POP PUSH1 0x0 DUP3 PUSH1 0x2 ADD SLOAD SWAP1 POP PUSH1 0x40 MLOAD DUP1 PUSH1 0x60 ADD PUSH1 0x40 MSTORE DUP1 DUP7 DUP2 MSTORE PUSH1 0x20 ADD DUP4 DUP2 MSTORE PUSH1 0x20 ADD DUP3 DUP2 MSTORE POP SWAP4 POP POP POP POP SWAP2 SWAP1 POP JUMP JUMPDEST PUSH1 0x1 PUSH1 0x0 DUP3 PUSH20 0xFFFFFFFFFFFFFFFFFFFFFFFFFFFFFFFFFFFFFFFF AND PUSH20 0xFFFFFFFFFFFFFFFFFFFFFFFFFFFFFFFFFFFFFFFF AND DUP2 MSTORE PUSH1 0x20 ADD SWAP1 DUP2 MSTORE PUSH1 0x20 ADD PUSH1 0x0 KECCAK256 PUSH1 0x0 SWAP1 SLOAD SWAP1 PUSH2 0x100 EXP SWAP1 DIV PUSH1 0xFF AND ISZERO PUSH2 0xDB6 JUMPI DUP1 PUSH1 0x40 MLOAD PUSH32 0x8BC3812000000000000000000000000000000000000000000000000000000000 DUP2 MSTORE PUSH1 0x4 ADD PUSH2 0xDAD SWAP2 SWAP1 PUSH2 0x1C70 JUMP JUMPDEST PUSH1 0x40 MLOAD DUP1 SWAP2 SUB SWAP1 REVERT JUMPDEST PUSH1 0x1 DUP1 PUSH1 0x0 DUP4 PUSH20 0xFFFFFFFFFFFFFFFFFFFFFFFFFFFFFFFFFFFFFFFF AND PUSH20 0xFFFFFFFFFFFFFFFFFFFFFFFFFFFFFFFFFFFFFFFF AND DUP2 MSTORE PUSH1 0x20 ADD SWAP1 DUP2 MSTORE PUSH1 0x20 ADD PUSH1 0x0 KECCAK256 PUSH1 0x0 PUSH2 0x100 EXP DUP2 SLOAD DUP2 PUSH1 0xFF MUL NOT AND SWAP1 DUP4 ISZERO ISZERO MUL OR SWAP1 SSTORE POP DUP1 PUSH1 0x2 PUSH1 0x0 PUSH1 0x6 SLOAD DUP2 MSTORE PUSH1 0x20 ADD SWAP1 DUP2 MSTORE PUSH1 0x20 ADD PUSH1 0x0 KECCAK256 PUSH1 0x0 PUSH2 0x100 EXP DUP2 SLOAD DUP2 PUSH20 0xFFFFFFFFFFFFFFFFFFFFFFFFFFFFFFFFFFFFFFFF MUL NOT AND SWAP1 DUP4 PUSH20 0xFFFFFFFFFFFFFFFFFFFFFFFFFFFFFFFFFFFFFFFF AND MUL OR SWAP1 SSTORE POP PUSH2 0xE69 PUSH2 0x13D9 JUMP JUMPDEST PUSH2 0xE71 PUSH2 0x13ED JUMP JUMPDEST PUSH2 0xE79 PUSH2 0x1401 JUMP JUMPDEST POP JUMP JUMPDEST PUSH1 0x9 SLOAD PUSH1 0x8 SLOAD GT PUSH2 0xECC JUMPI PUSH1 0x8 SLOAD PUSH1 0x9 SLOAD DUP3 PUSH1 0x40 MLOAD PUSH32 0x9EF88EB200000000000000000000000000000000000000000000000000000000 DUP2 MSTORE PUSH1 0x4 ADD PUSH2 0xEC3 SWAP4 SWAP3 SWAP2 SWAP1 PUSH2 0x1815 JUMP JUMPDEST PUSH1 0x40 MLOAD DUP1 SWAP2 SUB SWAP1 REVERT JUMPDEST PUSH1 0x1 PUSH1 0x0 DUP3 PUSH20 0xFFFFFFFFFFFFFFFFFFFFFFFFFFFFFFFFFFFFFFFF AND PUSH20 0xFFFFFFFFFFFFFFFFFFFFFFFFFFFFFFFFFFFFFFFF AND DUP2 MSTORE PUSH1 0x20 ADD SWAP1 DUP2 MSTORE PUSH1 0x20 ADD PUSH1 0x0 KECCAK256 PUSH1 0x0 SWAP1 SLOAD SWAP1 PUSH2 0x100 EXP SWAP1 DIV PUSH1 0xFF AND PUSH2 0xF5A JUMPI DUP1 PUSH1 0x40 MLOAD PUSH32 0x64C3269100000000000000000000000000000000000000000000000000000000 DUP2 MSTORE PUSH1 0x4 ADD PUSH2 0xF51 SWAP2 SWAP1 PUSH2 0x1C70 JUMP JUMPDEST PUSH1 0x40 MLOAD DUP1 SWAP2 SUB SWAP1 REVERT JUMPDEST PUSH1 0x0 PUSH1 0x1 PUSH1 0x0 DUP4 PUSH20 0xFFFFFFFFFFFFFFFFFFFFFFFFFFFFFFFFFFFFFFFF AND PUSH20 0xFFFFFFFFFFFFFFFFFFFFFFFFFFFFFFFFFFFFFFFF AND DUP2 MSTORE PUSH1 0x20 ADD SWAP1 DUP2 MSTORE PUSH1 0x20 ADD PUSH1 0x0 KECCAK256 PUSH1 0x0 PUSH2 0x100 EXP DUP2 SLOAD DUP2 PUSH1 0xFF MUL NOT AND SWAP1 DUP4 ISZERO ISZERO MUL OR SWAP1 SSTORE POP PUSH2 0xFBA PUSH2 0x1420 JUMP JUMPDEST PUSH2 0xFC2 PUSH2 0x1401 JUMP JUMPDEST POP JUMP JUMPDEST PUSH1 0x0 CALLER SWAP1 POP SWAP1 JUMP JUMPDEST PUSH1 0x5 PUSH1 0x0 DUP2 SLOAD DUP1 SWAP3 SWAP2 SWAP1 PUSH1 0x1 ADD SWAP2 SWAP1 POP SSTORE POP JUMP JUMPDEST PUSH1 0x0 PUSH1 0x40 MLOAD PUSH1 0x20 ADD PUSH2 0xFF2 SWAP1 PUSH2 0x1DD4 JUMP JUMPDEST PUSH1 0x40 MLOAD PUSH1 0x20 DUP2 DUP4 SUB SUB DUP2 MSTORE SWAP1 PUSH1 0x40 MSTORE DUP1 MLOAD SWAP1 PUSH1 0x20 ADD KECCAK256 DUP3 PUSH1 0x0 ADD MLOAD PUSH1 0x40 MLOAD PUSH1 0x20 ADD PUSH2 0x101D SWAP2 SWAP1 PUSH2 0x1E1A JUMP JUMPDEST PUSH1 0x40 MLOAD PUSH1 0x20 DUP2 DUP4 SUB SUB DUP2 MSTORE SWAP1 PUSH1 0x40 MSTORE DUP1 MLOAD SWAP1 PUSH1 0x20 ADD KECCAK256 EQ DUP1 ISZERO PUSH2 0x1044 JUMPI POP PUSH1 0x0 DUP3 PUSH1 0x20 ADD MLOAD EQ JUMPDEST DUP1 ISZERO PUSH2 0x1054 JUMPI POP PUSH1 0x0 DUP3 PUSH1 0x40 ADD MLOAD EQ JUMPDEST SWAP1 POP SWAP2 SWAP1 POP JUMP JUMPDEST PUSH1 0x0 JUMPDEST PUSH1 0x8 SLOAD DUP2 LT ISZERO PUSH2 0x13D3 JUMPI PUSH1 0x1 PUSH1 0x0 PUSH1 0x2 PUSH1 0x0 DUP5 DUP2 MSTORE PUSH1 0x20 ADD SWAP1 DUP2 MSTORE PUSH1 0x20 ADD PUSH1 0x0 KECCAK256 PUSH1 0x0 SWAP1 SLOAD SWAP1 PUSH2 0x100 EXP SWAP1 DIV PUSH20 0xFFFFFFFFFFFFFFFFFFFFFFFFFFFFFFFFFFFFFFFF AND PUSH20 0xFFFFFFFFFFFFFFFFFFFFFFFFFFFFFFFFFFFFFFFF AND PUSH20 0xFFFFFFFFFFFFFFFFFFFFFFFFFFFFFFFFFFFFFFFF AND DUP2 MSTORE PUSH1 0x20 ADD SWAP1 DUP2 MSTORE PUSH1 0x20 ADD PUSH1 0x0 KECCAK256 PUSH1 0x0 SWAP1 SLOAD SWAP1 PUSH2 0x100 EXP SWAP1 DIV PUSH1 0xFF AND ISZERO PUSH2 0x13C6 JUMPI DUP3 PUSH1 0x3 PUSH1 0x0 PUSH1 0x2 PUSH1 0x0 DUP6 DUP2 MSTORE PUSH1 0x20 ADD SWAP1 DUP2 MSTORE PUSH1 0x20 ADD PUSH1 0x0 KECCAK256 PUSH1 0x0 SWAP1 SLOAD SWAP1 PUSH2 0x100 EXP SWAP1 DIV PUSH20 0xFFFFFFFFFFFFFFFFFFFFFFFFFFFFFFFFFFFFFFFF AND PUSH20 0xFFFFFFFFFFFFFFFFFFFFFFFFFFFFFFFFFFFFFFFF AND PUSH20 0xFFFFFFFFFFFFFFFFFFFFFFFFFFFFFFFFFFFFFFFF AND DUP2 MSTORE PUSH1 0x20 ADD SWAP1 DUP2 MSTORE PUSH1 0x20 ADD PUSH1 0x0 KECCAK256 PUSH1 0x0 DUP7 DUP2 MSTORE PUSH1 0x20 ADD SWAP1 DUP2 MSTORE PUSH1 0x20 ADD PUSH1 0x0 KECCAK256 PUSH1 0x1 ADD SLOAD EQ ISZERO DUP1 PUSH2 0x1208 JUMPI POP DUP2 PUSH1 0x3 PUSH1 0x0 PUSH1 0x2 PUSH1 0x0 DUP6 DUP2 MSTORE PUSH1 0x20 ADD SWAP1 DUP2 MSTORE PUSH1 0x20 ADD PUSH1 0x0 KECCAK256 PUSH1 0x0 SWAP1 SLOAD SWAP1 PUSH2 0x100 EXP SWAP1 DIV PUSH20 0xFFFFFFFFFFFFFFFFFFFFFFFFFFFFFFFFFFFFFFFF AND PUSH20 0xFFFFFFFFFFFFFFFFFFFFFFFFFFFFFFFFFFFFFFFF AND PUSH20 0xFFFFFFFFFFFFFFFFFFFFFFFFFFFFFFFFFFFFFFFF AND DUP2 MSTORE PUSH1 0x20 ADD SWAP1 DUP2 MSTORE PUSH1 0x20 ADD PUSH1 0x0 KECCAK256 PUSH1 0x0 DUP7 DUP2 MSTORE PUSH1 0x20 ADD SWAP1 DUP2 MSTORE PUSH1 0x20 ADD PUSH1 0x0 KECCAK256 PUSH1 0x2 ADD SLOAD EQ ISZERO JUMPDEST ISZERO PUSH2 0x13C5 JUMPI PUSH1 0x4 PUSH1 0x0 PUSH1 0x2 PUSH1 0x0 DUP5 DUP2 MSTORE PUSH1 0x20 ADD SWAP1 DUP2 MSTORE PUSH1 0x20 ADD PUSH1 0x0 KECCAK256 PUSH1 0x0 SWAP1 SLOAD SWAP1 PUSH2 0x100 EXP SWAP1 DIV PUSH20 0xFFFFFFFFFFFFFFFFFFFFFFFFFFFFFFFFFFFFFFFF AND PUSH20 0xFFFFFFFFFFFFFFFFFFFFFFFFFFFFFFFFFFFFFFFF AND PUSH20 0xFFFFFFFFFFFFFFFFFFFFFFFFFFFFFFFFFFFFFFFF AND DUP2 MSTORE PUSH1 0x20 ADD SWAP1 DUP2 MSTORE PUSH1 0x20 ADD PUSH1 0x0 KECCAK256 PUSH1 0x0 DUP2 SLOAD DUP1 SWAP3 SWAP2 SWAP1 PUSH2 0x1290 SWAP1 PUSH2 0x1C8B JUMP JUMPDEST SWAP2 SWAP1 POP SSTORE POP PUSH1 0x3 PUSH1 0x4 PUSH1 0x0 PUSH1 0x2 PUSH1 0x0 DUP6 DUP2 MSTORE PUSH1 0x20 ADD SWAP1 DUP2 MSTORE PUSH1 0x20 ADD PUSH1 0x0 KECCAK256 PUSH1 0x0 SWAP1 SLOAD SWAP1 PUSH2 0x100 EXP SWAP1 DIV PUSH20 0xFFFFFFFFFFFFFFFFFFFFFFFFFFFFFFFFFFFFFFFF AND PUSH20 0xFFFFFFFFFFFFFFFFFFFFFFFFFFFFFFFFFFFFFFFF AND PUSH20 0xFFFFFFFFFFFFFFFFFFFFFFFFFFFFFFFFFFFFFFFF AND DUP2 MSTORE PUSH1 0x20 ADD SWAP1 DUP2 MSTORE PUSH1 0x20 ADD PUSH1 0x0 KECCAK256 SLOAD SUB PUSH2 0x13C4 JUMPI PUSH2 0x134B PUSH1 0x2 PUSH1 0x0 DUP4 DUP2 MSTORE PUSH1 0x20 ADD SWAP1 DUP2 MSTORE PUSH1 0x20 ADD PUSH1 0x0 KECCAK256 PUSH1 0x0 SWAP1 SLOAD SWAP1 PUSH2 0x100 EXP SWAP1 DIV PUSH20 0xFFFFFFFFFFFFFFFFFFFFFFFFFFFFFFFFFFFFFFFF AND PUSH2 0xE7C JUMP JUMPDEST PUSH1 0x0 PUSH1 0x4 PUSH1 0x0 PUSH1 0x2 PUSH1 0x0 DUP6 DUP2 MSTORE PUSH1 0x20 ADD SWAP1 DUP2 MSTORE PUSH1 0x20 ADD PUSH1 0x0 KECCAK256 PUSH1 0x0 SWAP1 SLOAD SWAP1 PUSH2 0x100 EXP SWAP1 DIV PUSH20 0xFFFFFFFFFFFFFFFFFFFFFFFFFFFFFFFFFFFFFFFF AND PUSH20 0xFFFFFFFFFFFFFFFFFFFFFFFFFFFFFFFFFFFFFFFF AND PUSH20 0xFFFFFFFFFFFFFFFFFFFFFFFFFFFFFFFFFFFFFFFF AND DUP2 MSTORE PUSH1 0x20 ADD SWAP1 DUP2 MSTORE PUSH1 0x20 ADD PUSH1 0x0 KECCAK256 DUP2 SWAP1 SSTORE POP JUMPDEST JUMPDEST JUMPDEST DUP1 DUP1 PUSH1 0x1 ADD SWAP2 POP POP PUSH2 0x105E JUMP JUMPDEST POP POP POP POP JUMP JUMPDEST PUSH1 0x6 PUSH1 0x0 DUP2 SLOAD DUP1 SWAP3 SWAP2 SWAP1 PUSH1 0x1 ADD SWAP2 SWAP1 POP SSTORE POP JUMP JUMPDEST PUSH1 0x8 PUSH1 0x0 DUP2 SLOAD DUP1 SWAP3 SWAP2 SWAP1 PUSH1 0x1 ADD SWAP2 SWAP1 POP SSTORE POP JUMP JUMPDEST PUSH1 0x1 PUSH1 0x2 PUSH1 0x8 SLOAD DUP2 PUSH2 0x1416 JUMPI PUSH2 0x1415 PUSH2 0x1E31 JUMP JUMPDEST JUMPDEST DIV ADD PUSH1 0x7 DUP2 SWAP1 SSTORE POP JUMP JUMPDEST PUSH1 0x8 PUSH1 0x0 DUP2 SLOAD DUP1 SWAP3 SWAP2 SWAP1 PUSH1 0x1 SWAP1 SUB SWAP2 SWAP1 POP SSTORE POP JUMP JUMPDEST PUSH1 0x40 MLOAD DUP1 PUSH1 0x60 ADD PUSH1 0x40 MSTORE DUP1 PUSH1 0x0 DUP2 MSTORE PUSH1 0x20 ADD PUSH1 0x0 DUP2 MSTORE PUSH1 0x20 ADD PUSH1 0x0 DUP2 MSTORE POP SWAP1 JUMP JUMPDEST PUSH1 0x0 DUP2 SWAP1 POP SWAP2 SWAP1 POP JUMP JUMPDEST PUSH2 0x1469 DUP2 PUSH2 0x1456 JUMP JUMPDEST DUP3 MSTORE POP POP JUMP JUMPDEST PUSH1 0x0 PUSH1 0x20 DUP3 ADD SWAP1 POP PUSH2 0x1484 PUSH1 0x0 DUP4 ADD DUP5 PUSH2 0x1460 JUMP JUMPDEST SWAP3 SWAP2 POP POP JUMP JUMPDEST PUSH1 0x0 PUSH1 0x40 MLOAD SWAP1 POP SWAP1 JUMP JUMPDEST PUSH1 0x0 DUP1 REVERT JUMPDEST PUSH1 0x0 DUP1 REVERT JUMPDEST PUSH1 0x0 DUP1 REVERT JUMPDEST PUSH1 0x0 DUP1 REVERT JUMPDEST PUSH1 0x0 PUSH1 0x1F NOT PUSH1 0x1F DUP4 ADD AND SWAP1 POP SWAP2 SWAP1 POP JUMP JUMPDEST PUSH32 0x4E487B7100000000000000000000000000000000000000000000000000000000 PUSH1 0x0 MSTORE PUSH1 0x41 PUSH1 0x4 MSTORE PUSH1 0x24 PUSH1 0x0 REVERT JUMPDEST PUSH2 0x14F1 DUP3 PUSH2 0x14A8 JUMP JUMPDEST DUP2 ADD DUP2 DUP2 LT PUSH8 0xFFFFFFFFFFFFFFFF DUP3 GT OR ISZERO PUSH2 0x1510 JUMPI PUSH2 0x150F PUSH2 0x14B9 JUMP JUMPDEST JUMPDEST DUP1 PUSH1 0x40 MSTORE POP POP POP JUMP JUMPDEST PUSH1 0x0 PUSH2 0x1523 PUSH2 0x148A JUMP JUMPDEST SWAP1 POP PUSH2 0x152F DUP3 DUP3 PUSH2 0x14E8 JUMP JUMPDEST SWAP2 SWAP1 POP JUMP JUMPDEST PUSH1 0x0 PUSH8 0xFFFFFFFFFFFFFFFF DUP3 GT ISZERO PUSH2 0x154F JUMPI PUSH2 0x154E PUSH2 0x14B9 JUMP JUMPDEST JUMPDEST PUSH2 0x1558 DUP3 PUSH2 0x14A8 JUMP JUMPDEST SWAP1 POP PUSH1 0x20 DUP2 ADD SWAP1 POP SWAP2 SWAP1 POP JUMP JUMPDEST DUP3 DUP2 DUP4 CALLDATACOPY PUSH1 0x0 DUP4 DUP4 ADD MSTORE POP POP POP JUMP JUMPDEST PUSH1 0x0 PUSH2 0x1587 PUSH2 0x1582 DUP5 PUSH2 0x1534 JUMP JUMPDEST PUSH2 0x1519 JUMP JUMPDEST SWAP1 POP DUP3 DUP2 MSTORE PUSH1 0x20 DUP2 ADD DUP5 DUP5 DUP5 ADD GT ISZERO PUSH2 0x15A3 JUMPI PUSH2 0x15A2 PUSH2 0x14A3 JUMP JUMPDEST JUMPDEST PUSH2 0x15AE DUP5 DUP3 DUP6 PUSH2 0x1565 JUMP JUMPDEST POP SWAP4 SWAP3 POP POP POP JUMP JUMPDEST PUSH1 0x0 DUP3 PUSH1 0x1F DUP4 ADD SLT PUSH2 0x15CB JUMPI PUSH2 0x15CA PUSH2 0x149E JUMP JUMPDEST JUMPDEST DUP2 CALLDATALOAD PUSH2 0x15DB DUP5 DUP3 PUSH1 0x20 DUP7 ADD PUSH2 0x1574 JUMP JUMPDEST SWAP2 POP POP SWAP3 SWAP2 POP POP JUMP JUMPDEST PUSH1 0x0 PUSH1 0x20 DUP3 DUP5 SUB SLT ISZERO PUSH2 0x15FA JUMPI PUSH2 0x15F9 PUSH2 0x1494 JUMP JUMPDEST JUMPDEST PUSH1 0x0 DUP3 ADD CALLDATALOAD PUSH8 0xFFFFFFFFFFFFFFFF DUP2 GT ISZERO PUSH2 0x1618 JUMPI PUSH2 0x1617 PUSH2 0x1499 JUMP JUMPDEST JUMPDEST PUSH2 0x1624 DUP5 DUP3 DUP6 ADD PUSH2 0x15B6 JUMP JUMPDEST SWAP2 POP POP SWAP3 SWAP2 POP POP JUMP JUMPDEST PUSH1 0x0 PUSH20 0xFFFFFFFFFFFFFFFFFFFFFFFFFFFFFFFFFFFFFFFF DUP3 AND SWAP1 POP SWAP2 SWAP1 POP JUMP JUMPDEST PUSH1 0x0 PUSH2 0x1658 DUP3 PUSH2 0x162D JUMP JUMPDEST SWAP1 POP SWAP2 SWAP1 POP JUMP JUMPDEST PUSH2 0x1668 DUP2 PUSH2 0x164D JUMP JUMPDEST DUP2 EQ PUSH2 0x1673 JUMPI PUSH1 0x0 DUP1 REVERT JUMPDEST POP JUMP JUMPDEST PUSH1 0x0 DUP2 CALLDATALOAD SWAP1 POP PUSH2 0x1685 DUP2 PUSH2 0x165F JUMP JUMPDEST SWAP3 SWAP2 POP POP JUMP JUMPDEST PUSH1 0x0 PUSH1 0x20 DUP3 DUP5 SUB SLT ISZERO PUSH2 0x16A1 JUMPI PUSH2 0x16A0 PUSH2 0x1494 JUMP JUMPDEST JUMPDEST PUSH1 0x0 PUSH2 0x16AF DUP5 DUP3 DUP6 ADD PUSH2 0x1676 JUMP JUMPDEST SWAP2 POP POP SWAP3 SWAP2 POP POP JUMP JUMPDEST PUSH1 0x0 DUP2 ISZERO ISZERO SWAP1 POP SWAP2 SWAP1 POP JUMP JUMPDEST PUSH2 0x16CD DUP2 PUSH2 0x16B8 JUMP JUMPDEST DUP3 MSTORE POP POP JUMP JUMPDEST PUSH1 0x0 PUSH1 0x20 DUP3 ADD SWAP1 POP PUSH2 0x16E8 PUSH1 0x0 DUP4 ADD DUP5 PUSH2 0x16C4 JUMP JUMPDEST SWAP3 SWAP2 POP POP JUMP JUMPDEST PUSH2 0x16F7 DUP2 PUSH2 0x1456 JUMP JUMPDEST DUP2 EQ PUSH2 0x1702 JUMPI PUSH1 0x0 DUP1 REVERT JUMPDEST POP JUMP JUMPDEST PUSH1 0x0 DUP2 CALLDATALOAD SWAP1 POP PUSH2 0x1714 DUP2 PUSH2 0x16EE JUMP JUMPDEST SWAP3 SWAP2 POP POP JUMP JUMPDEST PUSH1 0x0 DUP1 PUSH1 0x0 PUSH1 0x60 DUP5 DUP7 SUB SLT ISZERO PUSH2 0x1733 JUMPI PUSH2 0x1732 PUSH2 0x1494 JUMP JUMPDEST JUMPDEST PUSH1 0x0 PUSH2 0x1741 DUP7 DUP3 DUP8 ADD PUSH2 0x1705 JUMP JUMPDEST SWAP4 POP POP PUSH1 0x20 PUSH2 0x1752 DUP7 DUP3 DUP8 ADD PUSH2 0x1705 JUMP JUMPDEST SWAP3 POP POP PUSH1 0x40 PUSH2 0x1763 DUP7 DUP3 DUP8 ADD PUSH2 0x1705 JUMP JUMPDEST SWAP2 POP POP SWAP3 POP SWAP3 POP SWAP3 JUMP JUMPDEST PUSH1 0x0 PUSH1 0x20 DUP3 DUP5 SUB SLT ISZERO PUSH2 0x1783 JUMPI PUSH2 0x1782 PUSH2 0x1494 JUMP JUMPDEST JUMPDEST PUSH1 0x0 PUSH2 0x1791 DUP5 DUP3 DUP6 ADD PUSH2 0x1705 JUMP JUMPDEST SWAP2 POP POP SWAP3 SWAP2 POP POP JUMP JUMPDEST PUSH2 0x17A3 DUP2 PUSH2 0x1456 JUMP JUMPDEST DUP3 MSTORE POP POP JUMP JUMPDEST PUSH1 0x60 DUP3 ADD PUSH1 0x0 DUP3 ADD MLOAD PUSH2 0x17BF PUSH1 0x0 DUP6 ADD DUP3 PUSH2 0x179A JUMP JUMPDEST POP PUSH1 0x20 DUP3 ADD MLOAD PUSH2 0x17D2 PUSH1 0x20 DUP6 ADD DUP3 PUSH2 0x179A JUMP JUMPDEST POP PUSH1 0x40 DUP3 ADD MLOAD PUSH2 0x17E5 PUSH1 0x40 DUP6 ADD DUP3 PUSH2 0x179A JUMP JUMPDEST POP POP POP POP JUMP JUMPDEST PUSH1 0x0 PUSH1 0x60 DUP3 ADD SWAP1 POP PUSH2 0x1800 PUSH1 0x0 DUP4 ADD DUP5 PUSH2 0x17A9 JUMP JUMPDEST SWAP3 SWAP2 POP POP JUMP JUMPDEST PUSH2 0x180F DUP2 PUSH2 0x164D JUMP JUMPDEST DUP3 MSTORE POP POP JUMP JUMPDEST PUSH1 0x0 PUSH1 0x60 DUP3 ADD SWAP1 POP PUSH2 0x182A PUSH1 0x0 DUP4 ADD DUP7 PUSH2 0x1460 JUMP JUMPDEST PUSH2 0x1837 PUSH1 0x20 DUP4 ADD DUP6 PUSH2 0x1460 JUMP JUMPDEST PUSH2 0x1844 PUSH1 0x40 DUP4 ADD DUP5 PUSH2 0x1806 JUMP JUMPDEST SWAP5 SWAP4 POP POP POP POP JUMP JUMPDEST PUSH1 0x0 DUP2 MLOAD SWAP1 POP SWAP2 SWAP1 POP JUMP JUMPDEST PUSH32 0x4E487B7100000000000000000000000000000000000000000000000000000000 PUSH1 0x0 MSTORE PUSH1 0x22 PUSH1 0x4 MSTORE PUSH1 0x24 PUSH1 0x0 REVERT JUMPDEST PUSH1 0x0 PUSH1 0x2 DUP3 DIV SWAP1 POP PUSH1 0x1 DUP3 AND DUP1 PUSH2 0x189E JUMPI PUSH1 0x7F DUP3 AND SWAP2 POP JUMPDEST PUSH1 0x20 DUP3 LT DUP2 SUB PUSH2 0x18B1 JUMPI PUSH2 0x18B0 PUSH2 0x1857 JUMP JUMPDEST JUMPDEST POP SWAP2 SWAP1 POP JUMP JUMPDEST PUSH1 0x0 DUP2 SWAP1 POP DUP2 PUSH1 0x0 MSTORE PUSH1 0x20 PUSH1 0x0 KECCAK256 SWAP1 POP SWAP2 SWAP1 POP JUMP JUMPDEST PUSH1 0x0 PUSH1 0x20 PUSH1 0x1F DUP4 ADD DIV SWAP1 POP SWAP2 SWAP1 POP JUMP JUMPDEST PUSH1 0x0 DUP3 DUP3 SHL SWAP1 POP SWAP3 SWAP2 POP POP JUMP JUMPDEST PUSH1 0x0 PUSH1 0x8 DUP4 MUL PUSH2 0x1919 PUSH32 0xFFFFFFFFFFFFFFFFFFFFFFFFFFFFFFFFFFFFFFFFFFFFFFFFFFFFFFFFFFFFFFFF DUP3 PUSH2 0x18DC JUMP JUMPDEST PUSH2 0x1923 DUP7 DUP4 PUSH2 0x18DC JUMP JUMPDEST SWAP6 POP DUP1 NOT DUP5 AND SWAP4 POP DUP1 DUP7 AND DUP5 OR SWAP3 POP POP POP SWAP4 SWAP3 POP POP POP JUMP JUMPDEST PUSH1 0x0 DUP2 SWAP1 POP SWAP2 SWAP1 POP JUMP JUMPDEST PUSH1 0x0 PUSH2 0x1960 PUSH2 0x195B PUSH2 0x1956 DUP5 PUSH2 0x1456 JUMP JUMPDEST PUSH2 0x193B JUMP JUMPDEST PUSH2 0x1456 JUMP JUMPDEST SWAP1 POP SWAP2 SWAP1 POP JUMP JUMPDEST PUSH1 0x0 DUP2 SWAP1 POP SWAP2 SWAP1 POP JUMP JUMPDEST PUSH2 0x197A DUP4 PUSH2 0x1945 JUMP JUMPDEST PUSH2 0x198E PUSH2 0x1986 DUP3 PUSH2 0x1967 JUMP JUMPDEST DUP5 DUP5 SLOAD PUSH2 0x18E9 JUMP JUMPDEST DUP3 SSTORE POP POP POP POP JUMP JUMPDEST PUSH1 0x0 SWAP1 JUMP JUMPDEST PUSH2 0x19A3 PUSH2 0x1996 JUMP JUMPDEST PUSH2 0x19AE DUP2 DUP5 DUP5 PUSH2 0x1971 JUMP JUMPDEST POP POP POP JUMP JUMPDEST JUMPDEST DUP2 DUP2 LT ISZERO PUSH2 0x19D2 JUMPI PUSH2 0x19C7 PUSH1 0x0 DUP3 PUSH2 0x199B JUMP JUMPDEST PUSH1 0x1 DUP2 ADD SWAP1 POP PUSH2 0x19B4 JUMP JUMPDEST POP POP JUMP JUMPDEST PUSH1 0x1F DUP3 GT ISZERO PUSH2 0x1A17 JUMPI PUSH2 0x19E8 DUP2 PUSH2 0x18B7 JUMP JUMPDEST PUSH2 0x19F1 DUP5 PUSH2 0x18CC JUMP JUMPDEST DUP2 ADD PUSH1 0x20 DUP6 LT ISZERO PUSH2 0x1A00 JUMPI DUP2 SWAP1 POP JUMPDEST PUSH2 0x1A14 PUSH2 0x1A0C DUP6 PUSH2 0x18CC JUMP JUMPDEST DUP4 ADD DUP3 PUSH2 0x19B3 JUMP JUMPDEST POP POP JUMPDEST POP POP POP JUMP JUMPDEST PUSH1 0x0 DUP3 DUP3 SHR SWAP1 POP SWAP3 SWAP2 POP POP JUMP JUMPDEST PUSH1 0x0 PUSH2 0x1A3A PUSH1 0x0 NOT DUP5 PUSH1 0x8 MUL PUSH2 0x1A1C JUMP JUMPDEST NOT DUP1 DUP4 AND SWAP2 POP POP SWAP3 SWAP2 POP POP JUMP JUMPDEST PUSH1 0x0 PUSH2 0x1A53 DUP4 DUP4 PUSH2 0x1A29 JUMP JUMPDEST SWAP2 POP DUP3 PUSH1 0x2 MUL DUP3 OR SWAP1 POP SWAP3 SWAP2 POP POP JUMP JUMPDEST PUSH2 0x1A6C DUP3 PUSH2 0x184C JUMP JUMPDEST PUSH8 0xFFFFFFFFFFFFFFFF DUP2 GT ISZERO PUSH2 0x1A85 JUMPI PUSH2 0x1A84 PUSH2 0x14B9 JUMP JUMPDEST JUMPDEST PUSH2 0x1A8F DUP3 SLOAD PUSH2 0x1886 JUMP JUMPDEST PUSH2 0x1A9A DUP3 DUP3 DUP6 PUSH2 0x19D6 JUMP JUMPDEST PUSH1 0x0 PUSH1 0x20 SWAP1 POP PUSH1 0x1F DUP4 GT PUSH1 0x1 DUP2 EQ PUSH2 0x1ACD JUMPI PUSH1 0x0 DUP5 ISZERO PUSH2 0x1ABB JUMPI DUP3 DUP8 ADD MLOAD SWAP1 POP JUMPDEST PUSH2 0x1AC5 DUP6 DUP3 PUSH2 0x1A47 JUMP JUMPDEST DUP7 SSTORE POP PUSH2 0x1B2D JUMP JUMPDEST PUSH1 0x1F NOT DUP5 AND PUSH2 0x1ADB DUP7 PUSH2 0x18B7 JUMP JUMPDEST PUSH1 0x0 JUMPDEST DUP3 DUP2 LT ISZERO PUSH2 0x1B03 JUMPI DUP5 DUP10 ADD MLOAD DUP3 SSTORE PUSH1 0x1 DUP3 ADD SWAP2 POP PUSH1 0x20 DUP6 ADD SWAP5 POP PUSH1 0x20 DUP2 ADD SWAP1 POP PUSH2 0x1ADE JUMP JUMPDEST DUP7 DUP4 LT ISZERO PUSH2 0x1B20 JUMPI DUP5 DUP10 ADD MLOAD PUSH2 0x1B1C PUSH1 0x1F DUP10 AND DUP3 PUSH2 0x1A29 JUMP JUMPDEST DUP4 SSTORE POP JUMPDEST PUSH1 0x1 PUSH1 0x2 DUP9 MUL ADD DUP9 SSTORE POP POP POP JUMPDEST POP POP POP POP POP POP JUMP JUMPDEST PUSH32 0x4E487B7100000000000000000000000000000000000000000000000000000000 PUSH1 0x0 MSTORE PUSH1 0x11 PUSH1 0x4 MSTORE PUSH1 0x24 PUSH1 0x0 REVERT JUMPDEST PUSH1 0x0 PUSH2 0x1B6F DUP3 PUSH2 0x1456 JUMP JUMPDEST SWAP2 POP PUSH2 0x1B7A DUP4 PUSH2 0x1456 JUMP JUMPDEST SWAP3 POP DUP3 DUP3 ADD SWAP1 POP DUP1 DUP3 GT ISZERO PUSH2 0x1B92 JUMPI PUSH2 0x1B91 PUSH2 0x1B35 JUMP JUMPDEST JUMPDEST SWAP3 SWAP2 POP POP JUMP JUMPDEST PUSH1 0x0 DUP3 DUP3 MSTORE PUSH1 0x20 DUP3 ADD SWAP1 POP SWAP3 SWAP2 POP POP JUMP JUMPDEST PUSH1 0x0 JUMPDEST DUP4 DUP2 LT ISZERO PUSH2 0x1BC7 JUMPI DUP1 DUP3 ADD MLOAD DUP2 DUP5 ADD MSTORE PUSH1 0x20 DUP2 ADD SWAP1 POP PUSH2 0x1BAC JUMP JUMPDEST PUSH1 0x0 DUP5 DUP5 ADD MSTORE POP POP POP POP JUMP JUMPDEST PUSH1 0x0 PUSH2 0x1BDE DUP3 PUSH2 0x184C JUMP JUMPDEST PUSH2 0x1BE8 DUP2 DUP6 PUSH2 0x1B98 JUMP JUMPDEST SWAP4 POP PUSH2 0x1BF8 DUP2 DUP6 PUSH1 0x20 DUP7 ADD PUSH2 0x1BA9 JUMP JUMPDEST PUSH2 0x1C01 DUP2 PUSH2 0x14A8 JUMP JUMPDEST DUP5 ADD SWAP2 POP POP SWAP3 SWAP2 POP POP JUMP JUMPDEST PUSH1 0x0 PUSH1 0x40 DUP3 ADD SWAP1 POP PUSH2 0x1C21 PUSH1 0x0 DUP4 ADD DUP6 PUSH2 0x1460 JUMP JUMPDEST DUP2 DUP2 SUB PUSH1 0x20 DUP4 ADD MSTORE PUSH2 0x1C33 DUP2 DUP5 PUSH2 0x1BD3 JUMP JUMPDEST SWAP1 POP SWAP4 SWAP3 POP POP POP JUMP JUMPDEST PUSH1 0x0 PUSH2 0x1C47 DUP3 PUSH2 0x1456 JUMP JUMPDEST SWAP2 POP PUSH2 0x1C52 DUP4 PUSH2 0x1456 JUMP JUMPDEST SWAP3 POP DUP3 DUP3 SUB SWAP1 POP DUP2 DUP2 GT ISZERO PUSH2 0x1C6A JUMPI PUSH2 0x1C69 PUSH2 0x1B35 JUMP JUMPDEST JUMPDEST SWAP3 SWAP2 POP POP JUMP JUMPDEST PUSH1 0x0 PUSH1 0x20 DUP3 ADD SWAP1 POP PUSH2 0x1C85 PUSH1 0x0 DUP4 ADD DUP5 PUSH2 0x1806 JUMP JUMPDEST SWAP3 SWAP2 POP POP JUMP JUMPDEST PUSH1 0x0 PUSH2 0x1C96 DUP3 PUSH2 0x1456 JUMP JUMPDEST SWAP2 POP PUSH32 0xFFFFFFFFFFFFFFFFFFFFFFFFFFFFFFFFFFFFFFFFFFFFFFFFFFFFFFFFFFFFFFFF DUP3 SUB PUSH2 0x1CC8 JUMPI PUSH2 0x1CC7 PUSH2 0x1B35 JUMP JUMPDEST JUMPDEST PUSH1 0x1 DUP3 ADD SWAP1 POP SWAP2 SWAP1 POP JUMP JUMPDEST PUSH1 0x0 DUP2 SLOAD PUSH2 0x1CE0 DUP2 PUSH2 0x1886 JUMP JUMPDEST PUSH2 0x1CEA DUP2 DUP7 PUSH2 0x1B98 JUMP JUMPDEST SWAP5 POP PUSH1 0x1 DUP3 AND PUSH1 0x0 DUP2 EQ PUSH2 0x1D05 JUMPI PUSH1 0x1 DUP2 EQ PUSH2 0x1D1B JUMPI PUSH2 0x1D4E JUMP JUMPDEST PUSH1 0xFF NOT DUP4 AND DUP7 MSTORE DUP2 ISZERO ISZERO PUSH1 0x20 MUL DUP7 ADD SWAP4 POP PUSH2 0x1D4E JUMP JUMPDEST PUSH2 0x1D24 DUP6 PUSH2 0x18B7 JUMP JUMPDEST PUSH1 0x0 JUMPDEST DUP4 DUP2 LT ISZERO PUSH2 0x1D46 JUMPI DUP2 SLOAD DUP2 DUP10 ADD MSTORE PUSH1 0x1 DUP3 ADD SWAP2 POP PUSH1 0x20 DUP2 ADD SWAP1 POP PUSH2 0x1D27 JUMP JUMPDEST DUP1 DUP9 ADD SWAP6 POP POP POP JUMPDEST POP POP POP SWAP3 SWAP2 POP POP JUMP JUMPDEST PUSH1 0x0 PUSH1 0x80 DUP3 ADD SWAP1 POP PUSH2 0x1D6C PUSH1 0x0 DUP4 ADD DUP8 PUSH2 0x1460 JUMP JUMPDEST DUP2 DUP2 SUB PUSH1 0x20 DUP4 ADD MSTORE PUSH2 0x1D7E DUP2 DUP7 PUSH2 0x1CD3 JUMP JUMPDEST SWAP1 POP PUSH2 0x1D8D PUSH1 0x40 DUP4 ADD DUP6 PUSH2 0x1460 JUMP JUMPDEST PUSH2 0x1D9A PUSH1 0x60 DUP4 ADD DUP5 PUSH2 0x1460 JUMP JUMPDEST SWAP6 SWAP5 POP POP POP POP POP JUMP JUMPDEST PUSH1 0x0 DUP2 SWAP1 POP SWAP3 SWAP2 POP POP JUMP JUMPDEST POP JUMP JUMPDEST PUSH1 0x0 PUSH2 0x1DBE PUSH1 0x0 DUP4 PUSH2 0x1DA3 JUMP JUMPDEST SWAP2 POP PUSH2 0x1DC9 DUP3 PUSH2 0x1DAE JUMP JUMPDEST PUSH1 0x0 DUP3 ADD SWAP1 POP SWAP2 SWAP1 POP JUMP JUMPDEST PUSH1 0x0 PUSH2 0x1DDF DUP3 PUSH2 0x1DB1 JUMP JUMPDEST SWAP2 POP DUP2 SWAP1 POP SWAP2 SWAP1 POP JUMP JUMPDEST PUSH1 0x0 PUSH2 0x1DF4 DUP3 PUSH2 0x184C JUMP JUMPDEST PUSH2 0x1DFE DUP2 DUP6 PUSH2 0x1DA3 JUMP JUMPDEST SWAP4 POP PUSH2 0x1E0E DUP2 DUP6 PUSH1 0x20 DUP7 ADD PUSH2 0x1BA9 JUMP JUMPDEST DUP1 DUP5 ADD SWAP2 POP POP SWAP3 SWAP2 POP POP JUMP JUMPDEST PUSH1 0x0 PUSH2 0x1E26 DUP3 DUP5 PUSH2 0x1DE9 JUMP JUMPDEST SWAP2 POP DUP2 SWAP1 POP SWAP3 SWAP2 POP POP JUMP JUMPDEST PUSH32 0x4E487B7100000000000000000000000000000000000000000000000000000000 PUSH1 0x0 MSTORE PUSH1 0x12 PUSH1 0x4 MSTORE PUSH1 0x24 PUSH1 0x0 REVERT INVALID LOG2 PUSH5 0x6970667358 0x22 SLT KECCAK256 PUSH29 0xEF78024A9C85D69B7D27DF9CEBA5F9E1782BEC57ACA33D2D8FC9A03FBD 0xA5 POP PUSH5 0x736F6C6343 STOP ADDMOD XOR STOP CALLER "},"methodIdentifiers":{"addOracle(address)":"df5dd1a5","checkAndPenalizeExpiredRequests()":"60469011","createRequest(string)":"1b146ecf","getCurrentOracleId()":"6cd17d6e","getCurrentRequestId()":"15cd1841","getMinQuorum()":"a9b3bfa9","getRequest(uint256)":"c58343ef","getTotalOracleCount()":"6478cf93","isOracle(address)":"a97e5c93","removeOracle(address)":"fdc85fc4","updateRequest(uint256,uint256,uint256)":"ab49c774"}}}}}