{"contracts/JpynOracle.sol":{"JpynOracle":{"abi":[{"inputs":[],"stateMutability":"nonpayable","type":"constructor"},{"inputs":[{"internalType":"address","name":"sender","type":"address"}],"name":"ExistingAdmin","type":"error"},{"inputs":[{"internalType":"address","name":"sender","type":"address"}],"name":"ExistingOracle","type":"error"},{"inputs":[{"internalType":"uint256","name":"totalAdminCount","type":"uint256"},{"internalType":"uint256","name":"minAdminCount","type":"uint256"},{"internalType":"address","name":"sender","type":"address"}],"name":"NotEnoughAdmins","type":"error"},{"inputs":[{"internalType":"uint256","name":"totalOracleCount","type":"uint256"},{"internalType":"uint256","name":"minOracleCount","type":"uint256"},{"internalType":"address","name":"sender","type":"address"}],"name":"NotEnoughOracles","type":"error"},{"inputs":[{"internalType":"address","name":"sender","type":"address"}],"name":"NotExistingAdmin","type":"error"},{"inputs":[{"internalType":"address","name":"sender","type":"address"}],"name":"NotExistingOrracle","type":"error"},{"inputs":[{"internalType":"address","name":"sender","type":"address"}],"name":"OnlyAdmin","type":"error"},{"inputs":[{"internalType":"address","name":"sender","type":"address"}],"name":"OnlyOracle","type":"error"},{"inputs":[],"name":"Requested","type":"error"},{"anonymous":false,"inputs":[{"indexed":false,"internalType":"uint256","name":"id","type":"uint256"},{"indexed":false,"internalType":"string","name":"hashedAccount","type":"string"}],"name":"NewRequest","type":"event"},{"anonymous":false,"inputs":[{"indexed":false,"internalType":"uint256","name":"id","type":"uint256"},{"indexed":false,"internalType":"string","name":"hashedAccount","type":"string"},{"indexed":false,"internalType":"uint256","name":"agreedAccountStatus","type":"uint256"},{"indexed":false,"internalType":"uint256","name":"agreedAccountBalance","type":"uint256"}],"name":"UpdatedRequest","type":"event"},{"inputs":[{"internalType":"address","name":"sender","type":"address"}],"name":"addAdmin","outputs":[],"stateMutability":"nonpayable","type":"function"},{"inputs":[{"internalType":"address","name":"sender","type":"address"}],"name":"addOracle","outputs":[],"stateMutability":"nonpayable","type":"function"},{"inputs":[{"internalType":"string","name":"_hashedAccount","type":"string"}],"name":"createRequest","outputs":[{"internalType":"uint256","name":"","type":"uint256"}],"stateMutability":"nonpayable","type":"function"},{"inputs":[],"name":"getCurrentOracleId","outputs":[{"internalType":"uint256","name":"","type":"uint256"}],"stateMutability":"view","type":"function"},{"inputs":[],"name":"getCurrentRequestId","outputs":[{"internalType":"uint256","name":"","type":"uint256"}],"stateMutability":"view","type":"function"},{"inputs":[],"name":"getMinQuorum","outputs":[{"internalType":"uint256","name":"","type":"uint256"}],"stateMutability":"view","type":"function"},{"inputs":[{"internalType":"uint256","name":"_id","type":"uint256"}],"name":"getRequest","outputs":[{"components":[{"internalType":"uint256","name":"id","type":"uint256"},{"internalType":"uint256","name":"accountStatus","type":"uint256"},{"internalType":"uint256","name":"accountBalance","type":"uint256"}],"internalType":"struct JpynOracle.GetRequest","name":"","type":"tuple"}],"stateMutability":"view","type":"function"},{"inputs":[],"name":"getTotalOracleCount","outputs":[{"internalType":"uint256","name":"","type":"uint256"}],"stateMutability":"view","type":"function"},{"inputs":[{"internalType":"address","name":"_sender","type":"address"}],"name":"isAdmin","outputs":[{"internalType":"bool","name":"","type":"bool"}],"stateMutability":"view","type":"function"},{"inputs":[{"internalType":"address","name":"_sender","type":"address"}],"name":"isOracle","outputs":[{"internalType":"bool","name":"","type":"bool"}],"stateMutability":"view","type":"function"},{"inputs":[{"internalType":"address","name":"sender","type":"address"}],"name":"removeAdmin","outputs":[],"stateMutability":"nonpayable","type":"function"},{"inputs":[{"internalType":"address","name":"sender","type":"address"}],"name":"removeOracle","outputs":[],"stateMutability":"nonpayable","type":"function"},{"inputs":[{"internalType":"uint256","name":"_id","type":"uint256"},{"internalType":"uint256","name":"_valueAccountStatus","type":"uint256"},{"internalType":"uint256","name":"_valueAccountBalance","type":"uint256"}],"name":"updateRequest","outputs":[],"stateMutability":"nonpayable","type":"function"},{"inputs":[{"internalType":"uint256","name":"_id","type":"uint256"}],"name":"updateRequested","outputs":[],"stateMutability":"nonpayable","type":"function"}],"evm":{"bytecode":{"linkReferences":{},"object":"608060405234801561001057600080fd5b506001600360006100256100b360201b60201c565b73ffffffffffffffffffffffffffffffffffffffff1673ffffffffffffffffffffffffffffffffffffffff16815260200190815260200160002060006101000a81548160ff0219169083151502179055506000600681905550600060078190555060006008819055506000600981905550600060048190555060036005819055506003600a819055506100bb565b600033905090565b611e3e806100ca6000396000f3fe608060405234801561001057600080fd5b50600436106100ea5760003560e01c8063704802751161008c578063ab49c77411610066578063ab49c7741461024b578063c58343ef14610267578063df5dd1a514610297578063fdc85fc4146102b3576100ea565b806370480275146101e1578063a97e5c93146101fd578063a9b3bfa91461022d576100ea565b806324d7806c116100c857806324d7806c146101595780632e523421146101895780636478cf93146101a55780636cd17d6e146101c3576100ea565b806315cd1841146100ef5780631785f53c1461010d5780631b146ecf14610129575b600080fd5b6100f76102cf565b60405161010491906114d9565b60405180910390f35b61012760048036038101906101229190611566565b6102d9565b005b610143600480360381019061013e91906116d9565b6104b6565b60405161015091906114d9565b60405180910390f35b610173600480360381019061016e9190611566565b6106e0565b604051610180919061173d565b60405180910390f35b6101a3600480360381019061019e9190611784565b610736565b005b6101ad61076d565b6040516101ba91906114d9565b60405180910390f35b6101cb610777565b6040516101d891906114d9565b60405180910390f35b6101fb60048036038101906101f69190611566565b610781565b005b61021760048036038101906102129190611566565b61090f565b604051610224919061173d565b60405180910390f35b610235610965565b60405161024291906114d9565b60405180910390f35b610265600480360381019061026091906117b1565b61096f565b005b610281600480360381019061027c9190611784565b610c2b565b60405161028e9190611855565b60405180910390f35b6102b160048036038101906102ac9190611566565b610c80565b005b6102cd60048036038101906102c89190611566565b610e71565b005b6000600654905090565b600360006102e5611056565b73ffffffffffffffffffffffffffffffffffffffff1673ffffffffffffffffffffffffffffffffffffffff16815260200190815260200160002060009054906101000a900460ff1661037557610339611056565b6040517f02e286cf00000000000000000000000000000000000000000000000000000000815260040161036c919061187f565b60405180910390fd5b600554600454116103c557600454600554826040517f160d717b0000000000000000000000000000000000000000000000000000000081526004016103bc9392919061189a565b60405180910390fd5b600360008273ffffffffffffffffffffffffffffffffffffffff1673ffffffffffffffffffffffffffffffffffffffff16815260200190815260200160002060009054906101000a900460ff1661045357806040517ff0850cc900000000000000000000000000000000000000000000000000000000815260040161044a919061187f565b60405180910390fd5b6000600360008373ffffffffffffffffffffffffffffffffffffffff1673ffffffffffffffffffffffffffffffffffffffff16815260200190815260200160002060006101000a81548160ff0219169083151502179055506104b361105e565b50565b6000600a54600954101561051057600954600a546104d2611056565b6040517f9ef88eb20000000000000000000000000000000000000000000000000000000081526004016105079392919061189a565b60405180910390fd5b600080600060065481526020019081526020016000209050828160000190816105399190611ae8565b50600081600101819055506000816002018190555060008160060160006101000a81548160ff02191690831515021790555060005b60075481101561068557600160006002600084815260200190815260200160002060009054906101000a900473ffffffffffffffffffffffffffffffffffffffff1673ffffffffffffffffffffffffffffffffffffffff1673ffffffffffffffffffffffffffffffffffffffff16815260200190815260200160002060009054906101000a900460ff16156106785760018260050160006002600085815260200190815260200160002060009054906101000a900473ffffffffffffffffffffffffffffffffffffffff1673ffffffffffffffffffffffffffffffffffffffff1673ffffffffffffffffffffffffffffffffffffffff168152602001908152602001600020819055505b808060010191505061056e565b507f85808ba6b61b3e11f7dba026341d5ff5603fab7df37b176ebfa0f296264cd12e600654846040516106b9929190611c2e565b60405180910390a16106c961110f565b60016006546106d89190611c8d565b915050919050565b6000600360008373ffffffffffffffffffffffffffffffffffffffff1673ffffffffffffffffffffffffffffffffffffffff16815260200190815260200160002060009054906101000a900460ff169050919050565b6000806000838152602001908152602001600020905060018160060160006101000a81548160ff0219169083151502179055505050565b6000600954905090565b6000600754905090565b6003600061078d611056565b73ffffffffffffffffffffffffffffffffffffffff1673ffffffffffffffffffffffffffffffffffffffff16815260200190815260200160002060009054906101000a900460ff1661081d576107e1611056565b6040517f02e286cf000000000000000000000000000000000000000000000000000000008152600401610814919061187f565b60405180910390fd5b600360008273ffffffffffffffffffffffffffffffffffffffff1673ffffffffffffffffffffffffffffffffffffffff16815260200190815260200160002060009054906101000a900460ff16156108ac57806040517f53a473c40000000000000000000000000000000000000000000000000000000081526004016108a3919061187f565b60405180910390fd5b6001600360008373ffffffffffffffffffffffffffffffffffffffff1673ffffffffffffffffffffffffffffffffffffffff16815260200190815260200160002060006101000a81548160ff02191690831515021790555061090c611123565b50565b6000600160008373ffffffffffffffffffffffffffffffffffffffff1673ffffffffffffffffffffffffffffffffffffffff16815260200190815260200160002060009054906101000a900460ff169050919050565b6000600854905090565b6001600061097b611056565b73ffffffffffffffffffffffffffffffffffffffff1673ffffffffffffffffffffffffffffffffffffffff16815260200190815260200160002060009054906101000a900460ff16610a0b576109cf611056565b6040517ff432bce9000000000000000000000000000000000000000000000000000000008152600401610a02919061187f565b60405180910390fd5b600080600085815260200190815260200160002090506001816005016000610a31611056565b73ffffffffffffffffffffffffffffffffffffffff1673ffffffffffffffffffffffffffffffffffffffff1681526020019081526020016000205403610c25576002816005016000610a81611056565b73ffffffffffffffffffffffffffffffffffffffff1673ffffffffffffffffffffffffffffffffffffffff168152602001908152602001600020819055506000805b80610b5357600083600301600084815260200190815260200160002054148015610b025750600083600401600084815260200190815260200160002054145b15610b405760019050848360030160008481526020019081526020016000208190555083836004016000848152602001908152602001600020819055505b8180610b4b90611cc1565b925050610ac3565b6000805b600954811015610c20578685600301600083815260200190815260200160002054148015610b9957508585600401600083815260200190815260200160002054145b15610c13578180610ba990611cc1565b9250506008548210610c12578685600101819055508585600201819055507f16537abc3ef9eae48878292cc428593b6d0c63ab7b8ae57d6f689429af0554616006548660000187600101548860020154604051610c099493929190611d8d565b60405180910390a15b5b8080600101915050610b57565b505050505b50505050565b610c3361149f565b600080600084815260200190815260200160002090506000816001015490506000826002015490506040518060600160405280868152602001838152602001828152509350505050919050565b60036000610c8c611056565b73ffffffffffffffffffffffffffffffffffffffff1673ffffffffffffffffffffffffffffffffffffffff16815260200190815260200160002060009054906101000a900460ff16610d1c57610ce0611056565b6040517f02e286cf000000000000000000000000000000000000000000000000000000008152600401610d13919061187f565b60405180910390fd5b600160008273ffffffffffffffffffffffffffffffffffffffff1673ffffffffffffffffffffffffffffffffffffffff16815260200190815260200160002060009054906101000a900460ff1615610dab57806040517f8bc38120000000000000000000000000000000000000000000000000000000008152600401610da2919061187f565b60405180910390fd5b60018060008373ffffffffffffffffffffffffffffffffffffffff1673ffffffffffffffffffffffffffffffffffffffff16815260200190815260200160002060006101000a81548160ff0219169083151502179055508060026000600754815260200190815260200160002060006101000a81548173ffffffffffffffffffffffffffffffffffffffff021916908373ffffffffffffffffffffffffffffffffffffffff160217905550610e5e6111d3565b610e66611283565b610e6e611333565b50565b60036000610e7d611056565b73ffffffffffffffffffffffffffffffffffffffff1673ffffffffffffffffffffffffffffffffffffffff16815260200190815260200160002060009054906101000a900460ff16610f0d57610ed1611056565b6040517f02e286cf000000000000000000000000000000000000000000000000000000008152600401610f04919061187f565b60405180910390fd5b600a5460095411610f5d57600954600a54826040517f9ef88eb2000000000000000000000000000000000000000000000000000000008152600401610f549392919061189a565b60405180910390fd5b600160008273ffffffffffffffffffffffffffffffffffffffff1673ffffffffffffffffffffffffffffffffffffffff16815260200190815260200160002060009054906101000a900460ff16610feb57806040517f64c32691000000000000000000000000000000000000000000000000000000008152600401610fe2919061187f565b60405180910390fd5b6000600160008373ffffffffffffffffffffffffffffffffffffffff1673ffffffffffffffffffffffffffffffffffffffff16815260200190815260200160002060006101000a81548160ff02191690831515021790555061104b6113ee565b611053611333565b50565b600033905090565b6003600061106a611056565b73ffffffffffffffffffffffffffffffffffffffff1673ffffffffffffffffffffffffffffffffffffffff16815260200190815260200160002060009054906101000a900460ff166110fa576110be611056565b6040517f02e286cf0000000000000000000000000000000000000000000000000000000081526004016110f1919061187f565b60405180910390fd5b60046000815480929190600190039190505550565b600660008154809291906001019190505550565b6003600061112f611056565b73ffffffffffffffffffffffffffffffffffffffff1673ffffffffffffffffffffffffffffffffffffffff16815260200190815260200160002060009054906101000a900460ff166111bf57611183611056565b6040517f02e286cf0000000000000000000000000000000000000000000000000000000081526004016111b6919061187f565b60405180910390fd5b600460008154809291906001019190505550565b600360006111df611056565b73ffffffffffffffffffffffffffffffffffffffff1673ffffffffffffffffffffffffffffffffffffffff16815260200190815260200160002060009054906101000a900460ff1661126f57611233611056565b6040517f02e286cf000000000000000000000000000000000000000000000000000000008152600401611266919061187f565b60405180910390fd5b600760008154809291906001019190505550565b6003600061128f611056565b73ffffffffffffffffffffffffffffffffffffffff1673ffffffffffffffffffffffffffffffffffffffff16815260200190815260200160002060009054906101000a900460ff1661131f576112e3611056565b6040517f02e286cf000000000000000000000000000000000000000000000000000000008152600401611316919061187f565b60405180910390fd5b600960008154809291906001019190505550565b6003600061133f611056565b73ffffffffffffffffffffffffffffffffffffffff1673ffffffffffffffffffffffffffffffffffffffff16815260200190815260200160002060009054906101000a900460ff166113cf57611393611056565b6040517f02e286cf0000000000000000000000000000000000000000000000000000000081526004016113c6919061187f565b60405180910390fd5b60016002600954816113e4576113e3611dd9565b5b0401600881905550565b600360006113fa611056565b73ffffffffffffffffffffffffffffffffffffffff1673ffffffffffffffffffffffffffffffffffffffff16815260200190815260200160002060009054906101000a900460ff1661148a5761144e611056565b6040517f02e286cf000000000000000000000000000000000000000000000000000000008152600401611481919061187f565b60405180910390fd5b60096000815480929190600190039190505550565b60405180606001604052806000815260200160008152602001600081525090565b6000819050919050565b6114d3816114c0565b82525050565b60006020820190506114ee60008301846114ca565b92915050565b6000604051905090565b600080fd5b600080fd5b600073ffffffffffffffffffffffffffffffffffffffff82169050919050565b600061153382611508565b9050919050565b61154381611528565b811461154e57600080fd5b50565b6000813590506115608161153a565b92915050565b60006020828403121561157c5761157b6114fe565b5b600061158a84828501611551565b91505092915050565b600080fd5b600080fd5b6000601f19601f8301169050919050565b7f4e487b7100000000000000000000000000000000000000000000000000000000600052604160045260246000fd5b6115e68261159d565b810181811067ffffffffffffffff82111715611605576116046115ae565b5b80604052505050565b60006116186114f4565b905061162482826115dd565b919050565b600067ffffffffffffffff821115611644576116436115ae565b5b61164d8261159d565b9050602081019050919050565b82818337600083830152505050565b600061167c61167784611629565b61160e565b90508281526020810184848401111561169857611697611598565b5b6116a384828561165a565b509392505050565b600082601f8301126116c0576116bf611593565b5b81356116d0848260208601611669565b91505092915050565b6000602082840312156116ef576116ee6114fe565b5b600082013567ffffffffffffffff81111561170d5761170c611503565b5b611719848285016116ab565b91505092915050565b60008115159050919050565b61173781611722565b82525050565b6000602082019050611752600083018461172e565b92915050565b611761816114c0565b811461176c57600080fd5b50565b60008135905061177e81611758565b92915050565b60006020828403121561179a576117996114fe565b5b60006117a88482850161176f565b91505092915050565b6000806000606084860312156117ca576117c96114fe565b5b60006117d88682870161176f565b93505060206117e98682870161176f565b92505060406117fa8682870161176f565b9150509250925092565b61180d816114c0565b82525050565b6060820160008201516118296000850182611804565b50602082015161183c6020850182611804565b50604082015161184f6040850182611804565b50505050565b600060608201905061186a6000830184611813565b92915050565b61187981611528565b82525050565b60006020820190506118946000830184611870565b92915050565b60006060820190506118af60008301866114ca565b6118bc60208301856114ca565b6118c96040830184611870565b949350505050565b600081519050919050565b7f4e487b7100000000000000000000000000000000000000000000000000000000600052602260045260246000fd5b6000600282049050600182168061192357607f821691505b602082108103611936576119356118dc565b5b50919050565b60008190508160005260206000209050919050565b60006020601f8301049050919050565b600082821b905092915050565b60006008830261199e7fffffffffffffffffffffffffffffffffffffffffffffffffffffffffffffffff82611961565b6119a88683611961565b95508019841693508086168417925050509392505050565b6000819050919050565b60006119e56119e06119db846114c0565b6119c0565b6114c0565b9050919050565b6000819050919050565b6119ff836119ca565b611a13611a0b826119ec565b84845461196e565b825550505050565b600090565b611a28611a1b565b611a338184846119f6565b505050565b5b81811015611a5757611a4c600082611a20565b600181019050611a39565b5050565b601f821115611a9c57611a6d8161193c565b611a7684611951565b81016020851015611a85578190505b611a99611a9185611951565b830182611a38565b50505b505050565b600082821c905092915050565b6000611abf60001984600802611aa1565b1980831691505092915050565b6000611ad88383611aae565b9150826002028217905092915050565b611af1826118d1565b67ffffffffffffffff811115611b0a57611b096115ae565b5b611b14825461190b565b611b1f828285611a5b565b600060209050601f831160018114611b525760008415611b40578287015190505b611b4a8582611acc565b865550611bb2565b601f198416611b608661193c565b60005b82811015611b8857848901518255600182019150602085019450602081019050611b63565b86831015611ba55784890151611ba1601f891682611aae565b8355505b6001600288020188555050505b505050505050565b600082825260208201905092915050565b60005b83811015611be9578082015181840152602081019050611bce565b60008484015250505050565b6000611c00826118d1565b611c0a8185611bba565b9350611c1a818560208601611bcb565b611c238161159d565b840191505092915050565b6000604082019050611c4360008301856114ca565b8181036020830152611c558184611bf5565b90509392505050565b7f4e487b7100000000000000000000000000000000000000000000000000000000600052601160045260246000fd5b6000611c98826114c0565b9150611ca3836114c0565b9250828203905081811115611cbb57611cba611c5e565b5b92915050565b6000611ccc826114c0565b91507fffffffffffffffffffffffffffffffffffffffffffffffffffffffffffffffff8203611cfe57611cfd611c5e565b5b600182019050919050565b60008154611d168161190b565b611d208186611bba565b94506001821660008114611d3b5760018114611d5157611d84565b60ff198316865281151560200286019350611d84565b611d5a8561193c565b60005b83811015611d7c57815481890152600182019150602081019050611d5d565b808801955050505b50505092915050565b6000608082019050611da260008301876114ca565b8181036020830152611db48186611d09565b9050611dc360408301856114ca565b611dd060608301846114ca565b95945050505050565b7f4e487b7100000000000000000000000000000000000000000000000000000000600052601260045260246000fdfea2646970667358221220b15ae1e6c402e450c01d016528a8747c6444a05a440fae90eb30820ad695ac6464736f6c63430008180033","opcodes":"PUSH1 0x80 PUSH1 0x40 MSTORE CALLVALUE DUP1 ISZERO PUSH2 0x10 JUMPI PUSH1 0x0 DUP1 REVERT JUMPDEST POP PUSH1 0x1 PUSH1 0x3 PUSH1 0x0 PUSH2 0x25 PUSH2 0xB3 PUSH1 0x20 SHL PUSH1 0x20 SHR JUMP JUMPDEST PUSH20 0xFFFFFFFFFFFFFFFFFFFFFFFFFFFFFFFFFFFFFFFF AND PUSH20 0xFFFFFFFFFFFFFFFFFFFFFFFFFFFFFFFFFFFFFFFF AND DUP2 MSTORE PUSH1 0x20 ADD SWAP1 DUP2 MSTORE PUSH1 0x20 ADD PUSH1 0x0 KECCAK256 PUSH1 0x0 PUSH2 0x100 EXP DUP2 SLOAD DUP2 PUSH1 0xFF MUL NOT AND SWAP1 DUP4 ISZERO ISZERO MUL OR SWAP1 SSTORE POP PUSH1 0x0 PUSH1 0x6 DUP2 SWAP1 SSTORE POP PUSH1 0x0 PUSH1 0x7 DUP2 SWAP1 SSTORE POP PUSH1 0x0 PUSH1 0x8 DUP2 SWAP1 SSTORE POP PUSH1 0x0 PUSH1 0x9 DUP2 SWAP1 SSTORE POP PUSH1 0x0 PUSH1 0x4 DUP2 SWAP1 SSTORE POP PUSH1 0x3 PUSH1 0x5 DUP2 SWAP1 SSTORE POP PUSH1 0x3 PUSH1 0xA DUP2 SWAP1 SSTORE POP PUSH2 0xBB JUMP JUMPDEST PUSH1 0x0 CALLER SWAP1 POP SWAP1 JUMP JUMPDEST PUSH2 0x1E3E DUP1 PUSH2 0xCA PUSH1 0x0 CODECOPY PUSH1 0x0 RETURN INVALID PUSH1 0x80 PUSH1 0x40 MSTORE CALLVALUE DUP1 ISZERO PUSH2 0x10 JUMPI PUSH1 0x0 DUP1 REVERT JUMPDEST POP PUSH1 0x4 CALLDATASIZE LT PUSH2 0xEA JUMPI PUSH1 0x0 CALLDATALOAD PUSH1 0xE0 SHR DUP1 PUSH4 0x70480275 GT PUSH2 0x8C JUMPI DUP1 PUSH4 0xAB49C774 GT PUSH2 0x66 JUMPI DUP1 PUSH4 0xAB49C774 EQ PUSH2 0x24B JUMPI DUP1 PUSH4 0xC58343EF EQ PUSH2 0x267 JUMPI DUP1 PUSH4 0xDF5DD1A5 EQ PUSH2 0x297 JUMPI DUP1 PUSH4 0xFDC85FC4 EQ PUSH2 0x2B3 JUMPI PUSH2 0xEA JUMP JUMPDEST DUP1 PUSH4 0x70480275 EQ PUSH2 0x1E1 JUMPI DUP1 PUSH4 0xA97E5C93 EQ PUSH2 0x1FD JUMPI DUP1 PUSH4 0xA9B3BFA9 EQ PUSH2 0x22D JUMPI PUSH2 0xEA JUMP JUMPDEST DUP1 PUSH4 0x24D7806C GT PUSH2 0xC8 JUMPI DUP1 PUSH4 0x24D7806C EQ PUSH2 0x159 JUMPI DUP1 PUSH4 0x2E523421 EQ PUSH2 0x189 JUMPI DUP1 PUSH4 0x6478CF93 EQ PUSH2 0x1A5 JUMPI DUP1 PUSH4 0x6CD17D6E EQ PUSH2 0x1C3 JUMPI PUSH2 0xEA JUMP JUMPDEST DUP1 PUSH4 0x15CD1841 EQ PUSH2 0xEF JUMPI DUP1 PUSH4 0x1785F53C EQ PUSH2 0x10D JUMPI DUP1 PUSH4 0x1B146ECF EQ PUSH2 0x129 JUMPI JUMPDEST PUSH1 0x0 DUP1 REVERT JUMPDEST PUSH2 0xF7 PUSH2 0x2CF JUMP JUMPDEST PUSH1 0x40 MLOAD PUSH2 0x104 SWAP2 SWAP1 PUSH2 0x14D9 JUMP JUMPDEST PUSH1 0x40 MLOAD DUP1 SWAP2 SUB SWAP1 RETURN JUMPDEST PUSH2 0x127 PUSH1 0x4 DUP1 CALLDATASIZE SUB DUP2 ADD SWAP1 PUSH2 0x122 SWAP2 SWAP1 PUSH2 0x1566 JUMP JUMPDEST PUSH2 0x2D9 JUMP JUMPDEST STOP JUMPDEST PUSH2 0x143 PUSH1 0x4 DUP1 CALLDATASIZE SUB DUP2 ADD SWAP1 PUSH2 0x13E SWAP2 SWAP1 PUSH2 0x16D9 JUMP JUMPDEST PUSH2 0x4B6 JUMP JUMPDEST PUSH1 0x40 MLOAD PUSH2 0x150 SWAP2 SWAP1 PUSH2 0x14D9 JUMP JUMPDEST PUSH1 0x40 MLOAD DUP1 SWAP2 SUB SWAP1 RETURN JUMPDEST PUSH2 0x173 PUSH1 0x4 DUP1 CALLDATASIZE SUB DUP2 ADD SWAP1 PUSH2 0x16E SWAP2 SWAP1 PUSH2 0x1566 JUMP JUMPDEST PUSH2 0x6E0 JUMP JUMPDEST PUSH1 0x40 MLOAD PUSH2 0x180 SWAP2 SWAP1 PUSH2 0x173D JUMP JUMPDEST PUSH1 0x40 MLOAD DUP1 SWAP2 SUB SWAP1 RETURN JUMPDEST PUSH2 0x1A3 PUSH1 0x4 DUP1 CALLDATASIZE SUB DUP2 ADD SWAP1 PUSH2 0x19E SWAP2 SWAP1 PUSH2 0x1784 JUMP JUMPDEST PUSH2 0x736 JUMP JUMPDEST STOP JUMPDEST PUSH2 0x1AD PUSH2 0x76D JUMP JUMPDEST PUSH1 0x40 MLOAD PUSH2 0x1BA SWAP2 SWAP1 PUSH2 0x14D9 JUMP JUMPDEST PUSH1 0x40 MLOAD DUP1 SWAP2 SUB SWAP1 RETURN JUMPDEST PUSH2 0x1CB PUSH2 0x777 JUMP JUMPDEST PUSH1 0x40 MLOAD PUSH2 0x1D8 SWAP2 SWAP1 PUSH2 0x14D9 JUMP JUMPDEST PUSH1 0x40 MLOAD DUP1 SWAP2 SUB SWAP1 RETURN JUMPDEST PUSH2 0x1FB PUSH1 0x4 DUP1 CALLDATASIZE SUB DUP2 ADD SWAP1 PUSH2 0x1F6 SWAP2 SWAP1 PUSH2 0x1566 JUMP JUMPDEST PUSH2 0x781 JUMP JUMPDEST STOP JUMPDEST PUSH2 0x217 PUSH1 0x4 DUP1 CALLDATASIZE SUB DUP2 ADD SWAP1 PUSH2 0x212 SWAP2 SWAP1 PUSH2 0x1566 JUMP JUMPDEST PUSH2 0x90F JUMP JUMPDEST PUSH1 0x40 MLOAD PUSH2 0x224 SWAP2 SWAP1 PUSH2 0x173D JUMP JUMPDEST PUSH1 0x40 MLOAD DUP1 SWAP2 SUB SWAP1 RETURN JUMPDEST PUSH2 0x235 PUSH2 0x965 JUMP JUMPDEST PUSH1 0x40 MLOAD PUSH2 0x242 SWAP2 SWAP1 PUSH2 0x14D9 JUMP JUMPDEST PUSH1 0x40 MLOAD DUP1 SWAP2 SUB SWAP1 RETURN JUMPDEST PUSH2 0x265 PUSH1 0x4 DUP1 CALLDATASIZE SUB DUP2 ADD SWAP1 PUSH2 0x260 SWAP2 SWAP1 PUSH2 0x17B1 JUMP JUMPDEST PUSH2 0x96F JUMP JUMPDEST STOP JUMPDEST PUSH2 0x281 PUSH1 0x4 DUP1 CALLDATASIZE SUB DUP2 ADD SWAP1 PUSH2 0x27C SWAP2 SWAP1 PUSH2 0x1784 JUMP JUMPDEST PUSH2 0xC2B JUMP JUMPDEST PUSH1 0x40 MLOAD PUSH2 0x28E SWAP2 SWAP1 PUSH2 0x1855 JUMP JUMPDEST PUSH1 0x40 MLOAD DUP1 SWAP2 SUB SWAP1 RETURN JUMPDEST PUSH2 0x2B1 PUSH1 0x4 DUP1 CALLDATASIZE SUB DUP2 ADD SWAP1 PUSH2 0x2AC SWAP2 SWAP1 PUSH2 0x1566 JUMP JUMPDEST PUSH2 0xC80 JUMP JUMPDEST STOP JUMPDEST PUSH2 0x2CD PUSH1 0x4 DUP1 CALLDATASIZE SUB DUP2 ADD SWAP1 PUSH2 0x2C8 SWAP2 SWAP1 PUSH2 0x1566 JUMP JUMPDEST PUSH2 0xE71 JUMP JUMPDEST STOP JUMPDEST PUSH1 0x0 PUSH1 0x6 SLOAD SWAP1 POP SWAP1 JUMP JUMPDEST PUSH1 0x3 PUSH1 0x0 PUSH2 0x2E5 PUSH2 0x1056 JUMP JUMPDEST PUSH20 0xFFFFFFFFFFFFFFFFFFFFFFFFFFFFFFFFFFFFFFFF AND PUSH20 0xFFFFFFFFFFFFFFFFFFFFFFFFFFFFFFFFFFFFFFFF AND DUP2 MSTORE PUSH1 0x20 ADD SWAP1 DUP2 MSTORE PUSH1 0x20 ADD PUSH1 0x0 KECCAK256 PUSH1 0x0 SWAP1 SLOAD SWAP1 PUSH2 0x100 EXP SWAP1 DIV PUSH1 0xFF AND PUSH2 0x375 JUMPI PUSH2 0x339 PUSH2 0x1056 JUMP JUMPDEST PUSH1 0x40 MLOAD PUSH32 0x2E286CF00000000000000000000000000000000000000000000000000000000 DUP2 MSTORE PUSH1 0x4 ADD PUSH2 0x36C SWAP2 SWAP1 PUSH2 0x187F JUMP JUMPDEST PUSH1 0x40 MLOAD DUP1 SWAP2 SUB SWAP1 REVERT JUMPDEST PUSH1 0x5 SLOAD PUSH1 0x4 SLOAD GT PUSH2 0x3C5 JUMPI PUSH1 0x4 SLOAD PUSH1 0x5 SLOAD DUP3 PUSH1 0x40 MLOAD PUSH32 0x160D717B00000000000000000000000000000000000000000000000000000000 DUP2 MSTORE PUSH1 0x4 ADD PUSH2 0x3BC SWAP4 SWAP3 SWAP2 SWAP1 PUSH2 0x189A JUMP JUMPDEST PUSH1 0x40 MLOAD DUP1 SWAP2 SUB SWAP1 REVERT JUMPDEST PUSH1 0x3 PUSH1 0x0 DUP3 PUSH20 0xFFFFFFFFFFFFFFFFFFFFFFFFFFFFFFFFFFFFFFFF AND PUSH20 0xFFFFFFFFFFFFFFFFFFFFFFFFFFFFFFFFFFFFFFFF AND DUP2 MSTORE PUSH1 0x20 ADD SWAP1 DUP2 MSTORE PUSH1 0x20 ADD PUSH1 0x0 KECCAK256 PUSH1 0x0 SWAP1 SLOAD SWAP1 PUSH2 0x100 EXP SWAP1 DIV PUSH1 0xFF AND PUSH2 0x453 JUMPI DUP1 PUSH1 0x40 MLOAD PUSH32 0xF0850CC900000000000000000000000000000000000000000000000000000000 DUP2 MSTORE PUSH1 0x4 ADD PUSH2 0x44A SWAP2 SWAP1 PUSH2 0x187F JUMP JUMPDEST PUSH1 0x40 MLOAD DUP1 SWAP2 SUB SWAP1 REVERT JUMPDEST PUSH1 0x0 PUSH1 0x3 PUSH1 0x0 DUP4 PUSH20 0xFFFFFFFFFFFFFFFFFFFFFFFFFFFFFFFFFFFFFFFF AND PUSH20 0xFFFFFFFFFFFFFFFFFFFFFFFFFFFFFFFFFFFFFFFF AND DUP2 MSTORE PUSH1 0x20 ADD SWAP1 DUP2 MSTORE PUSH1 0x20 ADD PUSH1 0x0 KECCAK256 PUSH1 0x0 PUSH2 0x100 EXP DUP2 SLOAD DUP2 PUSH1 0xFF MUL NOT AND SWAP1 DUP4 ISZERO ISZERO MUL OR SWAP1 SSTORE POP PUSH2 0x4B3 PUSH2 0x105E JUMP JUMPDEST POP JUMP JUMPDEST PUSH1 0x0 PUSH1 0xA SLOAD PUSH1 0x9 SLOAD LT ISZERO PUSH2 0x510 JUMPI PUSH1 0x9 SLOAD PUSH1 0xA SLOAD PUSH2 0x4D2 PUSH2 0x1056 JUMP JUMPDEST PUSH1 0x40 MLOAD PUSH32 0x9EF88EB200000000000000000000000000000000000000000000000000000000 DUP2 MSTORE PUSH1 0x4 ADD PUSH2 0x507 SWAP4 SWAP3 SWAP2 SWAP1 PUSH2 0x189A JUMP JUMPDEST PUSH1 0x40 MLOAD DUP1 SWAP2 SUB SWAP1 REVERT JUMPDEST PUSH1 0x0 DUP1 PUSH1 0x0 PUSH1 0x6 SLOAD DUP2 MSTORE PUSH1 0x20 ADD SWAP1 DUP2 MSTORE PUSH1 0x20 ADD PUSH1 0x0 KECCAK256 SWAP1 POP DUP3 DUP2 PUSH1 0x0 ADD SWAP1 DUP2 PUSH2 0x539 SWAP2 SWAP1 PUSH2 0x1AE8 JUMP JUMPDEST POP PUSH1 0x0 DUP2 PUSH1 0x1 ADD DUP2 SWAP1 SSTORE POP PUSH1 0x0 DUP2 PUSH1 0x2 ADD DUP2 SWAP1 SSTORE POP PUSH1 0x0 DUP2 PUSH1 0x6 ADD PUSH1 0x0 PUSH2 0x100 EXP DUP2 SLOAD DUP2 PUSH1 0xFF MUL NOT AND SWAP1 DUP4 ISZERO ISZERO MUL OR SWAP1 SSTORE POP PUSH1 0x0 JUMPDEST PUSH1 0x7 SLOAD DUP2 LT ISZERO PUSH2 0x685 JUMPI PUSH1 0x1 PUSH1 0x0 PUSH1 0x2 PUSH1 0x0 DUP5 DUP2 MSTORE PUSH1 0x20 ADD SWAP1 DUP2 MSTORE PUSH1 0x20 ADD PUSH1 0x0 KECCAK256 PUSH1 0x0 SWAP1 SLOAD SWAP1 PUSH2 0x100 EXP SWAP1 DIV PUSH20 0xFFFFFFFFFFFFFFFFFFFFFFFFFFFFFFFFFFFFFFFF AND PUSH20 0xFFFFFFFFFFFFFFFFFFFFFFFFFFFFFFFFFFFFFFFF AND PUSH20 0xFFFFFFFFFFFFFFFFFFFFFFFFFFFFFFFFFFFFFFFF AND DUP2 MSTORE PUSH1 0x20 ADD SWAP1 DUP2 MSTORE PUSH1 0x20 ADD PUSH1 0x0 KECCAK256 PUSH1 0x0 SWAP1 SLOAD SWAP1 PUSH2 0x100 EXP SWAP1 DIV PUSH1 0xFF AND ISZERO PUSH2 0x678 JUMPI PUSH1 0x1 DUP3 PUSH1 0x5 ADD PUSH1 0x0 PUSH1 0x2 PUSH1 0x0 DUP6 DUP2 MSTORE PUSH1 0x20 ADD SWAP1 DUP2 MSTORE PUSH1 0x20 ADD PUSH1 0x0 KECCAK256 PUSH1 0x0 SWAP1 SLOAD SWAP1 PUSH2 0x100 EXP SWAP1 DIV PUSH20 0xFFFFFFFFFFFFFFFFFFFFFFFFFFFFFFFFFFFFFFFF AND PUSH20 0xFFFFFFFFFFFFFFFFFFFFFFFFFFFFFFFFFFFFFFFF AND PUSH20 0xFFFFFFFFFFFFFFFFFFFFFFFFFFFFFFFFFFFFFFFF AND DUP2 MSTORE PUSH1 0x20 ADD SWAP1 DUP2 MSTORE PUSH1 0x20 ADD PUSH1 0x0 KECCAK256 DUP2 SWAP1 SSTORE POP JUMPDEST DUP1 DUP1 PUSH1 0x1 ADD SWAP2 POP POP PUSH2 0x56E JUMP JUMPDEST POP PUSH32 0x85808BA6B61B3E11F7DBA026341D5FF5603FAB7DF37B176EBFA0F296264CD12E PUSH1 0x6 SLOAD DUP5 PUSH1 0x40 MLOAD PUSH2 0x6B9 SWAP3 SWAP2 SWAP1 PUSH2 0x1C2E JUMP JUMPDEST PUSH1 0x40 MLOAD DUP1 SWAP2 SUB SWAP1 LOG1 PUSH2 0x6C9 PUSH2 0x110F JUMP JUMPDEST PUSH1 0x1 PUSH1 0x6 SLOAD PUSH2 0x6D8 SWAP2 SWAP1 PUSH2 0x1C8D JUMP JUMPDEST SWAP2 POP POP SWAP2 SWAP1 POP JUMP JUMPDEST PUSH1 0x0 PUSH1 0x3 PUSH1 0x0 DUP4 PUSH20 0xFFFFFFFFFFFFFFFFFFFFFFFFFFFFFFFFFFFFFFFF AND PUSH20 0xFFFFFFFFFFFFFFFFFFFFFFFFFFFFFFFFFFFFFFFF AND DUP2 MSTORE PUSH1 0x20 ADD SWAP1 DUP2 MSTORE PUSH1 0x20 ADD PUSH1 0x0 KECCAK256 PUSH1 0x0 SWAP1 SLOAD SWAP1 PUSH2 0x100 EXP SWAP1 DIV PUSH1 0xFF AND SWAP1 POP SWAP2 SWAP1 POP JUMP JUMPDEST PUSH1 0x0 DUP1 PUSH1 0x0 DUP4 DUP2 MSTORE PUSH1 0x20 ADD SWAP1 DUP2 MSTORE PUSH1 0x20 ADD PUSH1 0x0 KECCAK256 SWAP1 POP PUSH1 0x1 DUP2 PUSH1 0x6 ADD PUSH1 0x0 PUSH2 0x100 EXP DUP2 SLOAD DUP2 PUSH1 0xFF MUL NOT AND SWAP1 DUP4 ISZERO ISZERO MUL OR SWAP1 SSTORE POP POP POP JUMP JUMPDEST PUSH1 0x0 PUSH1 0x9 SLOAD SWAP1 POP SWAP1 JUMP JUMPDEST PUSH1 0x0 PUSH1 0x7 SLOAD SWAP1 POP SWAP1 JUMP JUMPDEST PUSH1 0x3 PUSH1 0x0 PUSH2 0x78D PUSH2 0x1056 JUMP JUMPDEST PUSH20 0xFFFFFFFFFFFFFFFFFFFFFFFFFFFFFFFFFFFFFFFF AND PUSH20 0xFFFFFFFFFFFFFFFFFFFFFFFFFFFFFFFFFFFFFFFF AND DUP2 MSTORE PUSH1 0x20 ADD SWAP1 DUP2 MSTORE PUSH1 0x20 ADD PUSH1 0x0 KECCAK256 PUSH1 0x0 SWAP1 SLOAD SWAP1 PUSH2 0x100 EXP SWAP1 DIV PUSH1 0xFF AND PUSH2 0x81D JUMPI PUSH2 0x7E1 PUSH2 0x1056 JUMP JUMPDEST PUSH1 0x40 MLOAD PUSH32 0x2E286CF00000000000000000000000000000000000000000000000000000000 DUP2 MSTORE PUSH1 0x4 ADD PUSH2 0x814 SWAP2 SWAP1 PUSH2 0x187F JUMP JUMPDEST PUSH1 0x40 MLOAD DUP1 SWAP2 SUB SWAP1 REVERT JUMPDEST PUSH1 0x3 PUSH1 0x0 DUP3 PUSH20 0xFFFFFFFFFFFFFFFFFFFFFFFFFFFFFFFFFFFFFFFF AND PUSH20 0xFFFFFFFFFFFFFFFFFFFFFFFFFFFFFFFFFFFFFFFF AND DUP2 MSTORE PUSH1 0x20 ADD SWAP1 DUP2 MSTORE PUSH1 0x20 ADD PUSH1 0x0 KECCAK256 PUSH1 0x0 SWAP1 SLOAD SWAP1 PUSH2 0x100 EXP SWAP1 DIV PUSH1 0xFF AND ISZERO PUSH2 0x8AC JUMPI DUP1 PUSH1 0x40 MLOAD PUSH32 0x53A473C400000000000000000000000000000000000000000000000000000000 DUP2 MSTORE PUSH1 0x4 ADD PUSH2 0x8A3 SWAP2 SWAP1 PUSH2 0x187F JUMP JUMPDEST PUSH1 0x40 MLOAD DUP1 SWAP2 SUB SWAP1 REVERT JUMPDEST PUSH1 0x1 PUSH1 0x3 PUSH1 0x0 DUP4 PUSH20 0xFFFFFFFFFFFFFFFFFFFFFFFFFFFFFFFFFFFFFFFF AND PUSH20 0xFFFFFFFFFFFFFFFFFFFFFFFFFFFFFFFFFFFFFFFF AND DUP2 MSTORE PUSH1 0x20 ADD SWAP1 DUP2 MSTORE PUSH1 0x20 ADD PUSH1 0x0 KECCAK256 PUSH1 0x0 PUSH2 0x100 EXP DUP2 SLOAD DUP2 PUSH1 0xFF MUL NOT AND SWAP1 DUP4 ISZERO ISZERO MUL OR SWAP1 SSTORE POP PUSH2 0x90C PUSH2 0x1123 JUMP JUMPDEST POP JUMP JUMPDEST PUSH1 0x0 PUSH1 0x1 PUSH1 0x0 DUP4 PUSH20 0xFFFFFFFFFFFFFFFFFFFFFFFFFFFFFFFFFFFFFFFF AND PUSH20 0xFFFFFFFFFFFFFFFFFFFFFFFFFFFFFFFFFFFFFFFF AND DUP2 MSTORE PUSH1 0x20 ADD SWAP1 DUP2 MSTORE PUSH1 0x20 ADD PUSH1 0x0 KECCAK256 PUSH1 0x0 SWAP1 SLOAD SWAP1 PUSH2 0x100 EXP SWAP1 DIV PUSH1 0xFF AND SWAP1 POP SWAP2 SWAP1 POP JUMP JUMPDEST PUSH1 0x0 PUSH1 0x8 SLOAD SWAP1 POP SWAP1 JUMP JUMPDEST PUSH1 0x1 PUSH1 0x0 PUSH2 0x97B PUSH2 0x1056 JUMP JUMPDEST PUSH20 0xFFFFFFFFFFFFFFFFFFFFFFFFFFFFFFFFFFFFFFFF AND PUSH20 0xFFFFFFFFFFFFFFFFFFFFFFFFFFFFFFFFFFFFFFFF AND DUP2 MSTORE PUSH1 0x20 ADD SWAP1 DUP2 MSTORE PUSH1 0x20 ADD PUSH1 0x0 KECCAK256 PUSH1 0x0 SWAP1 SLOAD SWAP1 PUSH2 0x100 EXP SWAP1 DIV PUSH1 0xFF AND PUSH2 0xA0B JUMPI PUSH2 0x9CF PUSH2 0x1056 JUMP JUMPDEST PUSH1 0x40 MLOAD PUSH32 0xF432BCE900000000000000000000000000000000000000000000000000000000 DUP2 MSTORE PUSH1 0x4 ADD PUSH2 0xA02 SWAP2 SWAP1 PUSH2 0x187F JUMP JUMPDEST PUSH1 0x40 MLOAD DUP1 SWAP2 SUB SWAP1 REVERT JUMPDEST PUSH1 0x0 DUP1 PUSH1 0x0 DUP6 DUP2 MSTORE PUSH1 0x20 ADD SWAP1 DUP2 MSTORE PUSH1 0x20 ADD PUSH1 0x0 KECCAK256 SWAP1 POP PUSH1 0x1 DUP2 PUSH1 0x5 ADD PUSH1 0x0 PUSH2 0xA31 PUSH2 0x1056 JUMP JUMPDEST PUSH20 0xFFFFFFFFFFFFFFFFFFFFFFFFFFFFFFFFFFFFFFFF AND PUSH20 0xFFFFFFFFFFFFFFFFFFFFFFFFFFFFFFFFFFFFFFFF AND DUP2 MSTORE PUSH1 0x20 ADD SWAP1 DUP2 MSTORE PUSH1 0x20 ADD PUSH1 0x0 KECCAK256 SLOAD SUB PUSH2 0xC25 JUMPI PUSH1 0x2 DUP2 PUSH1 0x5 ADD PUSH1 0x0 PUSH2 0xA81 PUSH2 0x1056 JUMP JUMPDEST PUSH20 0xFFFFFFFFFFFFFFFFFFFFFFFFFFFFFFFFFFFFFFFF AND PUSH20 0xFFFFFFFFFFFFFFFFFFFFFFFFFFFFFFFFFFFFFFFF AND DUP2 MSTORE PUSH1 0x20 ADD SWAP1 DUP2 MSTORE PUSH1 0x20 ADD PUSH1 0x0 KECCAK256 DUP2 SWAP1 SSTORE POP PUSH1 0x0 DUP1 JUMPDEST DUP1 PUSH2 0xB53 JUMPI PUSH1 0x0 DUP4 PUSH1 0x3 ADD PUSH1 0x0 DUP5 DUP2 MSTORE PUSH1 0x20 ADD SWAP1 DUP2 MSTORE PUSH1 0x20 ADD PUSH1 0x0 KECCAK256 SLOAD EQ DUP1 ISZERO PUSH2 0xB02 JUMPI POP PUSH1 0x0 DUP4 PUSH1 0x4 ADD PUSH1 0x0 DUP5 DUP2 MSTORE PUSH1 0x20 ADD SWAP1 DUP2 MSTORE PUSH1 0x20 ADD PUSH1 0x0 KECCAK256 SLOAD EQ JUMPDEST ISZERO PUSH2 0xB40 JUMPI PUSH1 0x1 SWAP1 POP DUP5 DUP4 PUSH1 0x3 ADD PUSH1 0x0 DUP5 DUP2 MSTORE PUSH1 0x20 ADD SWAP1 DUP2 MSTORE PUSH1 0x20 ADD PUSH1 0x0 KECCAK256 DUP2 SWAP1 SSTORE POP DUP4 DUP4 PUSH1 0x4 ADD PUSH1 0x0 DUP5 DUP2 MSTORE PUSH1 0x20 ADD SWAP1 DUP2 MSTORE PUSH1 0x20 ADD PUSH1 0x0 KECCAK256 DUP2 SWAP1 SSTORE POP JUMPDEST DUP2 DUP1 PUSH2 0xB4B SWAP1 PUSH2 0x1CC1 JUMP JUMPDEST SWAP3 POP POP PUSH2 0xAC3 JUMP JUMPDEST PUSH1 0x0 DUP1 JUMPDEST PUSH1 0x9 SLOAD DUP2 LT ISZERO PUSH2 0xC20 JUMPI DUP7 DUP6 PUSH1 0x3 ADD PUSH1 0x0 DUP4 DUP2 MSTORE PUSH1 0x20 ADD SWAP1 DUP2 MSTORE PUSH1 0x20 ADD PUSH1 0x0 KECCAK256 SLOAD EQ DUP1 ISZERO PUSH2 0xB99 JUMPI POP DUP6 DUP6 PUSH1 0x4 ADD PUSH1 0x0 DUP4 DUP2 MSTORE PUSH1 0x20 ADD SWAP1 DUP2 MSTORE PUSH1 0x20 ADD PUSH1 0x0 KECCAK256 SLOAD EQ JUMPDEST ISZERO PUSH2 0xC13 JUMPI DUP2 DUP1 PUSH2 0xBA9 SWAP1 PUSH2 0x1CC1 JUMP JUMPDEST SWAP3 POP POP PUSH1 0x8 SLOAD DUP3 LT PUSH2 0xC12 JUMPI DUP7 DUP6 PUSH1 0x1 ADD DUP2 SWAP1 SSTORE POP DUP6 DUP6 PUSH1 0x2 ADD DUP2 SWAP1 SSTORE POP PUSH32 0x16537ABC3EF9EAE48878292CC428593B6D0C63AB7B8AE57D6F689429AF055461 PUSH1 0x6 SLOAD DUP7 PUSH1 0x0 ADD DUP8 PUSH1 0x1 ADD SLOAD DUP9 PUSH1 0x2 ADD SLOAD PUSH1 0x40 MLOAD PUSH2 0xC09 SWAP5 SWAP4 SWAP3 SWAP2 SWAP1 PUSH2 0x1D8D JUMP JUMPDEST PUSH1 0x40 MLOAD DUP1 SWAP2 SUB SWAP1 LOG1 JUMPDEST JUMPDEST DUP1 DUP1 PUSH1 0x1 ADD SWAP2 POP POP PUSH2 0xB57 JUMP JUMPDEST POP POP POP POP JUMPDEST POP POP POP POP JUMP JUMPDEST PUSH2 0xC33 PUSH2 0x149F JUMP JUMPDEST PUSH1 0x0 DUP1 PUSH1 0x0 DUP5 DUP2 MSTORE PUSH1 0x20 ADD SWAP1 DUP2 MSTORE PUSH1 0x20 ADD PUSH1 0x0 KECCAK256 SWAP1 POP PUSH1 0x0 DUP2 PUSH1 0x1 ADD SLOAD SWAP1 POP PUSH1 0x0 DUP3 PUSH1 0x2 ADD SLOAD SWAP1 POP PUSH1 0x40 MLOAD DUP1 PUSH1 0x60 ADD PUSH1 0x40 MSTORE DUP1 DUP7 DUP2 MSTORE PUSH1 0x20 ADD DUP4 DUP2 MSTORE PUSH1 0x20 ADD DUP3 DUP2 MSTORE POP SWAP4 POP POP POP POP SWAP2 SWAP1 POP JUMP JUMPDEST PUSH1 0x3 PUSH1 0x0 PUSH2 0xC8C PUSH2 0x1056 JUMP JUMPDEST PUSH20 0xFFFFFFFFFFFFFFFFFFFFFFFFFFFFFFFFFFFFFFFF AND PUSH20 0xFFFFFFFFFFFFFFFFFFFFFFFFFFFFFFFFFFFFFFFF AND DUP2 MSTORE PUSH1 0x20 ADD SWAP1 DUP2 MSTORE PUSH1 0x20 ADD PUSH1 0x0 KECCAK256 PUSH1 0x0 SWAP1 SLOAD SWAP1 PUSH2 0x100 EXP SWAP1 DIV PUSH1 0xFF AND PUSH2 0xD1C JUMPI PUSH2 0xCE0 PUSH2 0x1056 JUMP JUMPDEST PUSH1 0x40 MLOAD PUSH32 0x2E286CF00000000000000000000000000000000000000000000000000000000 DUP2 MSTORE PUSH1 0x4 ADD PUSH2 0xD13 SWAP2 SWAP1 PUSH2 0x187F JUMP JUMPDEST PUSH1 0x40 MLOAD DUP1 SWAP2 SUB SWAP1 REVERT JUMPDEST PUSH1 0x1 PUSH1 0x0 DUP3 PUSH20 0xFFFFFFFFFFFFFFFFFFFFFFFFFFFFFFFFFFFFFFFF AND PUSH20 0xFFFFFFFFFFFFFFFFFFFFFFFFFFFFFFFFFFFFFFFF AND DUP2 MSTORE PUSH1 0x20 ADD SWAP1 DUP2 MSTORE PUSH1 0x20 ADD PUSH1 0x0 KECCAK256 PUSH1 0x0 SWAP1 SLOAD SWAP1 PUSH2 0x100 EXP SWAP1 DIV PUSH1 0xFF AND ISZERO PUSH2 0xDAB JUMPI DUP1 PUSH1 0x40 MLOAD PUSH32 0x8BC3812000000000000000000000000000000000000000000000000000000000 DUP2 MSTORE PUSH1 0x4 ADD PUSH2 0xDA2 SWAP2 SWAP1 PUSH2 0x187F JUMP JUMPDEST PUSH1 0x40 MLOAD DUP1 SWAP2 SUB SWAP1 REVERT JUMPDEST PUSH1 0x1 DUP1 PUSH1 0x0 DUP4 PUSH20 0xFFFFFFFFFFFFFFFFFFFFFFFFFFFFFFFFFFFFFFFF AND PUSH20 0xFFFFFFFFFFFFFFFFFFFFFFFFFFFFFFFFFFFFFFFF AND DUP2 MSTORE PUSH1 0x20 ADD SWAP1 DUP2 MSTORE PUSH1 0x20 ADD PUSH1 0x0 KECCAK256 PUSH1 0x0 PUSH2 0x100 EXP DUP2 SLOAD DUP2 PUSH1 0xFF MUL NOT AND SWAP1 DUP4 ISZERO ISZERO MUL OR SWAP1 SSTORE POP DUP1 PUSH1 0x2 PUSH1 0x0 PUSH1 0x7 SLOAD DUP2 MSTORE PUSH1 0x20 ADD SWAP1 DUP2 MSTORE PUSH1 0x20 ADD PUSH1 0x0 KECCAK256 PUSH1 0x0 PUSH2 0x100 EXP DUP2 SLOAD DUP2 PUSH20 0xFFFFFFFFFFFFFFFFFFFFFFFFFFFFFFFFFFFFFFFF MUL NOT AND SWAP1 DUP4 PUSH20 0xFFFFFFFFFFFFFFFFFFFFFFFFFFFFFFFFFFFFFFFF AND MUL OR SWAP1 SSTORE POP PUSH2 0xE5E PUSH2 0x11D3 JUMP JUMPDEST PUSH2 0xE66 PUSH2 0x1283 JUMP JUMPDEST PUSH2 0xE6E PUSH2 0x1333 JUMP JUMPDEST POP JUMP JUMPDEST PUSH1 0x3 PUSH1 0x0 PUSH2 0xE7D PUSH2 0x1056 JUMP JUMPDEST PUSH20 0xFFFFFFFFFFFFFFFFFFFFFFFFFFFFFFFFFFFFFFFF AND PUSH20 0xFFFFFFFFFFFFFFFFFFFFFFFFFFFFFFFFFFFFFFFF AND DUP2 MSTORE PUSH1 0x20 ADD SWAP1 DUP2 MSTORE PUSH1 0x20 ADD PUSH1 0x0 KECCAK256 PUSH1 0x0 SWAP1 SLOAD SWAP1 PUSH2 0x100 EXP SWAP1 DIV PUSH1 0xFF AND PUSH2 0xF0D JUMPI PUSH2 0xED1 PUSH2 0x1056 JUMP JUMPDEST PUSH1 0x40 MLOAD PUSH32 0x2E286CF00000000000000000000000000000000000000000000000000000000 DUP2 MSTORE PUSH1 0x4 ADD PUSH2 0xF04 SWAP2 SWAP1 PUSH2 0x187F JUMP JUMPDEST PUSH1 0x40 MLOAD DUP1 SWAP2 SUB SWAP1 REVERT JUMPDEST PUSH1 0xA SLOAD PUSH1 0x9 SLOAD GT PUSH2 0xF5D JUMPI PUSH1 0x9 SLOAD PUSH1 0xA SLOAD DUP3 PUSH1 0x40 MLOAD PUSH32 0x9EF88EB200000000000000000000000000000000000000000000000000000000 DUP2 MSTORE PUSH1 0x4 ADD PUSH2 0xF54 SWAP4 SWAP3 SWAP2 SWAP1 PUSH2 0x189A JUMP JUMPDEST PUSH1 0x40 MLOAD DUP1 SWAP2 SUB SWAP1 REVERT JUMPDEST PUSH1 0x1 PUSH1 0x0 DUP3 PUSH20 0xFFFFFFFFFFFFFFFFFFFFFFFFFFFFFFFFFFFFFFFF AND PUSH20 0xFFFFFFFFFFFFFFFFFFFFFFFFFFFFFFFFFFFFFFFF AND DUP2 MSTORE PUSH1 0x20 ADD SWAP1 DUP2 MSTORE PUSH1 0x20 ADD PUSH1 0x0 KECCAK256 PUSH1 0x0 SWAP1 SLOAD SWAP1 PUSH2 0x100 EXP SWAP1 DIV PUSH1 0xFF AND PUSH2 0xFEB JUMPI DUP1 PUSH1 0x40 MLOAD PUSH32 0x64C3269100000000000000000000000000000000000000000000000000000000 DUP2 MSTORE PUSH1 0x4 ADD PUSH2 0xFE2 SWAP2 SWAP1 PUSH2 0x187F JUMP JUMPDEST PUSH1 0x40 MLOAD DUP1 SWAP2 SUB SWAP1 REVERT JUMPDEST PUSH1 0x0 PUSH1 0x1 PUSH1 0x0 DUP4 PUSH20 0xFFFFFFFFFFFFFFFFFFFFFFFFFFFFFFFFFFFFFFFF AND PUSH20 0xFFFFFFFFFFFFFFFFFFFFFFFFFFFFFFFFFFFFFFFF AND DUP2 MSTORE PUSH1 0x20 ADD SWAP1 DUP2 MSTORE PUSH1 0x20 ADD PUSH1 0x0 KECCAK256 PUSH1 0x0 PUSH2 0x100 EXP DUP2 SLOAD DUP2 PUSH1 0xFF MUL NOT AND SWAP1 DUP4 ISZERO ISZERO MUL OR SWAP1 SSTORE POP PUSH2 0x104B PUSH2 0x13EE JUMP JUMPDEST PUSH2 0x1053 PUSH2 0x1333 JUMP JUMPDEST POP JUMP JUMPDEST PUSH1 0x0 CALLER SWAP1 POP SWAP1 JUMP JUMPDEST PUSH1 0x3 PUSH1 0x0 PUSH2 0x106A PUSH2 0x1056 JUMP JUMPDEST PUSH20 0xFFFFFFFFFFFFFFFFFFFFFFFFFFFFFFFFFFFFFFFF AND PUSH20 0xFFFFFFFFFFFFFFFFFFFFFFFFFFFFFFFFFFFFFFFF AND DUP2 MSTORE PUSH1 0x20 ADD SWAP1 DUP2 MSTORE PUSH1 0x20 ADD PUSH1 0x0 KECCAK256 PUSH1 0x0 SWAP1 SLOAD SWAP1 PUSH2 0x100 EXP SWAP1 DIV PUSH1 0xFF AND PUSH2 0x10FA JUMPI PUSH2 0x10BE PUSH2 0x1056 JUMP JUMPDEST PUSH1 0x40 MLOAD PUSH32 0x2E286CF00000000000000000000000000000000000000000000000000000000 DUP2 MSTORE PUSH1 0x4 ADD PUSH2 0x10F1 SWAP2 SWAP1 PUSH2 0x187F JUMP JUMPDEST PUSH1 0x40 MLOAD DUP1 SWAP2 SUB SWAP1 REVERT JUMPDEST PUSH1 0x4 PUSH1 0x0 DUP2 SLOAD DUP1 SWAP3 SWAP2 SWAP1 PUSH1 0x1 SWAP1 SUB SWAP2 SWAP1 POP SSTORE POP JUMP JUMPDEST PUSH1 0x6 PUSH1 0x0 DUP2 SLOAD DUP1 SWAP3 SWAP2 SWAP1 PUSH1 0x1 ADD SWAP2 SWAP1 POP SSTORE POP JUMP JUMPDEST PUSH1 0x3 PUSH1 0x0 PUSH2 0x112F PUSH2 0x1056 JUMP JUMPDEST PUSH20 0xFFFFFFFFFFFFFFFFFFFFFFFFFFFFFFFFFFFFFFFF AND PUSH20 0xFFFFFFFFFFFFFFFFFFFFFFFFFFFFFFFFFFFFFFFF AND DUP2 MSTORE PUSH1 0x20 ADD SWAP1 DUP2 MSTORE PUSH1 0x20 ADD PUSH1 0x0 KECCAK256 PUSH1 0x0 SWAP1 SLOAD SWAP1 PUSH2 0x100 EXP SWAP1 DIV PUSH1 0xFF AND PUSH2 0x11BF JUMPI PUSH2 0x1183 PUSH2 0x1056 JUMP JUMPDEST PUSH1 0x40 MLOAD PUSH32 0x2E286CF00000000000000000000000000000000000000000000000000000000 DUP2 MSTORE PUSH1 0x4 ADD PUSH2 0x11B6 SWAP2 SWAP1 PUSH2 0x187F JUMP JUMPDEST PUSH1 0x40 MLOAD DUP1 SWAP2 SUB SWAP1 REVERT JUMPDEST PUSH1 0x4 PUSH1 0x0 DUP2 SLOAD DUP1 SWAP3 SWAP2 SWAP1 PUSH1 0x1 ADD SWAP2 SWAP1 POP SSTORE POP JUMP JUMPDEST PUSH1 0x3 PUSH1 0x0 PUSH2 0x11DF PUSH2 0x1056 JUMP JUMPDEST PUSH20 0xFFFFFFFFFFFFFFFFFFFFFFFFFFFFFFFFFFFFFFFF AND PUSH20 0xFFFFFFFFFFFFFFFFFFFFFFFFFFFFFFFFFFFFFFFF AND DUP2 MSTORE PUSH1 0x20 ADD SWAP1 DUP2 MSTORE PUSH1 0x20 ADD PUSH1 0x0 KECCAK256 PUSH1 0x0 SWAP1 SLOAD SWAP1 PUSH2 0x100 EXP SWAP1 DIV PUSH1 0xFF AND PUSH2 0x126F JUMPI PUSH2 0x1233 PUSH2 0x1056 JUMP JUMPDEST PUSH1 0x40 MLOAD PUSH32 0x2E286CF00000000000000000000000000000000000000000000000000000000 DUP2 MSTORE PUSH1 0x4 ADD PUSH2 0x1266 SWAP2 SWAP1 PUSH2 0x187F JUMP JUMPDEST PUSH1 0x40 MLOAD DUP1 SWAP2 SUB SWAP1 REVERT JUMPDEST PUSH1 0x7 PUSH1 0x0 DUP2 SLOAD DUP1 SWAP3 SWAP2 SWAP1 PUSH1 0x1 ADD SWAP2 SWAP1 POP SSTORE POP JUMP JUMPDEST PUSH1 0x3 PUSH1 0x0 PUSH2 0x128F PUSH2 0x1056 JUMP JUMPDEST PUSH20 0xFFFFFFFFFFFFFFFFFFFFFFFFFFFFFFFFFFFFFFFF AND PUSH20 0xFFFFFFFFFFFFFFFFFFFFFFFFFFFFFFFFFFFFFFFF AND DUP2 MSTORE PUSH1 0x20 ADD SWAP1 DUP2 MSTORE PUSH1 0x20 ADD PUSH1 0x0 KECCAK256 PUSH1 0x0 SWAP1 SLOAD SWAP1 PUSH2 0x100 EXP SWAP1 DIV PUSH1 0xFF AND PUSH2 0x131F JUMPI PUSH2 0x12E3 PUSH2 0x1056 JUMP JUMPDEST PUSH1 0x40 MLOAD PUSH32 0x2E286CF00000000000000000000000000000000000000000000000000000000 DUP2 MSTORE PUSH1 0x4 ADD PUSH2 0x1316 SWAP2 SWAP1 PUSH2 0x187F JUMP JUMPDEST PUSH1 0x40 MLOAD DUP1 SWAP2 SUB SWAP1 REVERT JUMPDEST PUSH1 0x9 PUSH1 0x0 DUP2 SLOAD DUP1 SWAP3 SWAP2 SWAP1 PUSH1 0x1 ADD SWAP2 SWAP1 POP SSTORE POP JUMP JUMPDEST PUSH1 0x3 PUSH1 0x0 PUSH2 0x133F PUSH2 0x1056 JUMP JUMPDEST PUSH20 0xFFFFFFFFFFFFFFFFFFFFFFFFFFFFFFFFFFFFFFFF AND PUSH20 0xFFFFFFFFFFFFFFFFFFFFFFFFFFFFFFFFFFFFFFFF AND DUP2 MSTORE PUSH1 0x20 ADD SWAP1 DUP2 MSTORE PUSH1 0x20 ADD PUSH1 0x0 KECCAK256 PUSH1 0x0 SWAP1 SLOAD SWAP1 PUSH2 0x100 EXP SWAP1 DIV PUSH1 0xFF AND PUSH2 0x13CF JUMPI PUSH2 0x1393 PUSH2 0x1056 JUMP JUMPDEST PUSH1 0x40 MLOAD PUSH32 0x2E286CF00000000000000000000000000000000000000000000000000000000 DUP2 MSTORE PUSH1 0x4 ADD PUSH2 0x13C6 SWAP2 SWAP1 PUSH2 0x187F JUMP JUMPDEST PUSH1 0x40 MLOAD DUP1 SWAP2 SUB SWAP1 REVERT JUMPDEST PUSH1 0x1 PUSH1 0x2 PUSH1 0x9 SLOAD DUP2 PUSH2 0x13E4 JUMPI PUSH2 0x13E3 PUSH2 0x1DD9 JUMP JUMPDEST JUMPDEST DIV ADD PUSH1 0x8 DUP2 SWAP1 SSTORE POP JUMP JUMPDEST PUSH1 0x3 PUSH1 0x0 PUSH2 0x13FA PUSH2 0x1056 JUMP JUMPDEST PUSH20 0xFFFFFFFFFFFFFFFFFFFFFFFFFFFFFFFFFFFFFFFF AND PUSH20 0xFFFFFFFFFFFFFFFFFFFFFFFFFFFFFFFFFFFFFFFF AND DUP2 MSTORE PUSH1 0x20 ADD SWAP1 DUP2 MSTORE PUSH1 0x20 ADD PUSH1 0x0 KECCAK256 PUSH1 0x0 SWAP1 SLOAD SWAP1 PUSH2 0x100 EXP SWAP1 DIV PUSH1 0xFF AND PUSH2 0x148A JUMPI PUSH2 0x144E PUSH2 0x1056 JUMP JUMPDEST PUSH1 0x40 MLOAD PUSH32 0x2E286CF00000000000000000000000000000000000000000000000000000000 DUP2 MSTORE PUSH1 0x4 ADD PUSH2 0x1481 SWAP2 SWAP1 PUSH2 0x187F JUMP JUMPDEST PUSH1 0x40 MLOAD DUP1 SWAP2 SUB SWAP1 REVERT JUMPDEST PUSH1 0x9 PUSH1 0x0 DUP2 SLOAD DUP1 SWAP3 SWAP2 SWAP1 PUSH1 0x1 SWAP1 SUB SWAP2 SWAP1 POP SSTORE POP JUMP JUMPDEST PUSH1 0x40 MLOAD DUP1 PUSH1 0x60 ADD PUSH1 0x40 MSTORE DUP1 PUSH1 0x0 DUP2 MSTORE PUSH1 0x20 ADD PUSH1 0x0 DUP2 MSTORE PUSH1 0x20 ADD PUSH1 0x0 DUP2 MSTORE POP SWAP1 JUMP JUMPDEST PUSH1 0x0 DUP2 SWAP1 POP SWAP2 SWAP1 POP JUMP JUMPDEST PUSH2 0x14D3 DUP2 PUSH2 0x14C0 JUMP JUMPDEST DUP3 MSTORE POP POP JUMP JUMPDEST PUSH1 0x0 PUSH1 0x20 DUP3 ADD SWAP1 POP PUSH2 0x14EE PUSH1 0x0 DUP4 ADD DUP5 PUSH2 0x14CA JUMP JUMPDEST SWAP3 SWAP2 POP POP JUMP JUMPDEST PUSH1 0x0 PUSH1 0x40 MLOAD SWAP1 POP SWAP1 JUMP JUMPDEST PUSH1 0x0 DUP1 REVERT JUMPDEST PUSH1 0x0 DUP1 REVERT JUMPDEST PUSH1 0x0 PUSH20 0xFFFFFFFFFFFFFFFFFFFFFFFFFFFFFFFFFFFFFFFF DUP3 AND SWAP1 POP SWAP2 SWAP1 POP JUMP JUMPDEST PUSH1 0x0 PUSH2 0x1533 DUP3 PUSH2 0x1508 JUMP JUMPDEST SWAP1 POP SWAP2 SWAP1 POP JUMP JUMPDEST PUSH2 0x1543 DUP2 PUSH2 0x1528 JUMP JUMPDEST DUP2 EQ PUSH2 0x154E JUMPI PUSH1 0x0 DUP1 REVERT JUMPDEST POP JUMP JUMPDEST PUSH1 0x0 DUP2 CALLDATALOAD SWAP1 POP PUSH2 0x1560 DUP2 PUSH2 0x153A JUMP JUMPDEST SWAP3 SWAP2 POP POP JUMP JUMPDEST PUSH1 0x0 PUSH1 0x20 DUP3 DUP5 SUB SLT ISZERO PUSH2 0x157C JUMPI PUSH2 0x157B PUSH2 0x14FE JUMP JUMPDEST JUMPDEST PUSH1 0x0 PUSH2 0x158A DUP5 DUP3 DUP6 ADD PUSH2 0x1551 JUMP JUMPDEST SWAP2 POP POP SWAP3 SWAP2 POP POP JUMP JUMPDEST PUSH1 0x0 DUP1 REVERT JUMPDEST PUSH1 0x0 DUP1 REVERT JUMPDEST PUSH1 0x0 PUSH1 0x1F NOT PUSH1 0x1F DUP4 ADD AND SWAP1 POP SWAP2 SWAP1 POP JUMP JUMPDEST PUSH32 0x4E487B7100000000000000000000000000000000000000000000000000000000 PUSH1 0x0 MSTORE PUSH1 0x41 PUSH1 0x4 MSTORE PUSH1 0x24 PUSH1 0x0 REVERT JUMPDEST PUSH2 0x15E6 DUP3 PUSH2 0x159D JUMP JUMPDEST DUP2 ADD DUP2 DUP2 LT PUSH8 0xFFFFFFFFFFFFFFFF DUP3 GT OR ISZERO PUSH2 0x1605 JUMPI PUSH2 0x1604 PUSH2 0x15AE JUMP JUMPDEST JUMPDEST DUP1 PUSH1 0x40 MSTORE POP POP POP JUMP JUMPDEST PUSH1 0x0 PUSH2 0x1618 PUSH2 0x14F4 JUMP JUMPDEST SWAP1 POP PUSH2 0x1624 DUP3 DUP3 PUSH2 0x15DD JUMP JUMPDEST SWAP2 SWAP1 POP JUMP JUMPDEST PUSH1 0x0 PUSH8 0xFFFFFFFFFFFFFFFF DUP3 GT ISZERO PUSH2 0x1644 JUMPI PUSH2 0x1643 PUSH2 0x15AE JUMP JUMPDEST JUMPDEST PUSH2 0x164D DUP3 PUSH2 0x159D JUMP JUMPDEST SWAP1 POP PUSH1 0x20 DUP2 ADD SWAP1 POP SWAP2 SWAP1 POP JUMP JUMPDEST DUP3 DUP2 DUP4 CALLDATACOPY PUSH1 0x0 DUP4 DUP4 ADD MSTORE POP POP POP JUMP JUMPDEST PUSH1 0x0 PUSH2 0x167C PUSH2 0x1677 DUP5 PUSH2 0x1629 JUMP JUMPDEST PUSH2 0x160E JUMP JUMPDEST SWAP1 POP DUP3 DUP2 MSTORE PUSH1 0x20 DUP2 ADD DUP5 DUP5 DUP5 ADD GT ISZERO PUSH2 0x1698 JUMPI PUSH2 0x1697 PUSH2 0x1598 JUMP JUMPDEST JUMPDEST PUSH2 0x16A3 DUP5 DUP3 DUP6 PUSH2 0x165A JUMP JUMPDEST POP SWAP4 SWAP3 POP POP POP JUMP JUMPDEST PUSH1 0x0 DUP3 PUSH1 0x1F DUP4 ADD SLT PUSH2 0x16C0 JUMPI PUSH2 0x16BF PUSH2 0x1593 JUMP JUMPDEST JUMPDEST DUP2 CALLDATALOAD PUSH2 0x16D0 DUP5 DUP3 PUSH1 0x20 DUP7 ADD PUSH2 0x1669 JUMP JUMPDEST SWAP2 POP POP SWAP3 SWAP2 POP POP JUMP JUMPDEST PUSH1 0x0 PUSH1 0x20 DUP3 DUP5 SUB SLT ISZERO PUSH2 0x16EF JUMPI PUSH2 0x16EE PUSH2 0x14FE JUMP JUMPDEST JUMPDEST PUSH1 0x0 DUP3 ADD CALLDATALOAD PUSH8 0xFFFFFFFFFFFFFFFF DUP2 GT ISZERO PUSH2 0x170D JUMPI PUSH2 0x170C PUSH2 0x1503 JUMP JUMPDEST JUMPDEST PUSH2 0x1719 DUP5 DUP3 DUP6 ADD PUSH2 0x16AB JUMP JUMPDEST SWAP2 POP POP SWAP3 SWAP2 POP POP JUMP JUMPDEST PUSH1 0x0 DUP2 ISZERO ISZERO SWAP1 POP SWAP2 SWAP1 POP JUMP JUMPDEST PUSH2 0x1737 DUP2 PUSH2 0x1722 JUMP JUMPDEST DUP3 MSTORE POP POP JUMP JUMPDEST PUSH1 0x0 PUSH1 0x20 DUP3 ADD SWAP1 POP PUSH2 0x1752 PUSH1 0x0 DUP4 ADD DUP5 PUSH2 0x172E JUMP JUMPDEST SWAP3 SWAP2 POP POP JUMP JUMPDEST PUSH2 0x1761 DUP2 PUSH2 0x14C0 JUMP JUMPDEST DUP2 EQ PUSH2 0x176C JUMPI PUSH1 0x0 DUP1 REVERT JUMPDEST POP JUMP JUMPDEST PUSH1 0x0 DUP2 CALLDATALOAD SWAP1 POP PUSH2 0x177E DUP2 PUSH2 0x1758 JUMP JUMPDEST SWAP3 SWAP2 POP POP JUMP JUMPDEST PUSH1 0x0 PUSH1 0x20 DUP3 DUP5 SUB SLT ISZERO PUSH2 0x179A JUMPI PUSH2 0x1799 PUSH2 0x14FE JUMP JUMPDEST JUMPDEST PUSH1 0x0 PUSH2 0x17A8 DUP5 DUP3 DUP6 ADD PUSH2 0x176F JUMP JUMPDEST SWAP2 POP POP SWAP3 SWAP2 POP POP JUMP JUMPDEST PUSH1 0x0 DUP1 PUSH1 0x0 PUSH1 0x60 DUP5 DUP7 SUB SLT ISZERO PUSH2 0x17CA JUMPI PUSH2 0x17C9 PUSH2 0x14FE JUMP JUMPDEST JUMPDEST PUSH1 0x0 PUSH2 0x17D8 DUP7 DUP3 DUP8 ADD PUSH2 0x176F JUMP JUMPDEST SWAP4 POP POP PUSH1 0x20 PUSH2 0x17E9 DUP7 DUP3 DUP8 ADD PUSH2 0x176F JUMP JUMPDEST SWAP3 POP POP PUSH1 0x40 PUSH2 0x17FA DUP7 DUP3 DUP8 ADD PUSH2 0x176F JUMP JUMPDEST SWAP2 POP POP SWAP3 POP SWAP3 POP SWAP3 JUMP JUMPDEST PUSH2 0x180D DUP2 PUSH2 0x14C0 JUMP JUMPDEST DUP3 MSTORE POP POP JUMP JUMPDEST PUSH1 0x60 DUP3 ADD PUSH1 0x0 DUP3 ADD MLOAD PUSH2 0x1829 PUSH1 0x0 DUP6 ADD DUP3 PUSH2 0x1804 JUMP JUMPDEST POP PUSH1 0x20 DUP3 ADD MLOAD PUSH2 0x183C PUSH1 0x20 DUP6 ADD DUP3 PUSH2 0x1804 JUMP JUMPDEST POP PUSH1 0x40 DUP3 ADD MLOAD PUSH2 0x184F PUSH1 0x40 DUP6 ADD DUP3 PUSH2 0x1804 JUMP JUMPDEST POP POP POP POP JUMP JUMPDEST PUSH1 0x0 PUSH1 0x60 DUP3 ADD SWAP1 POP PUSH2 0x186A PUSH1 0x0 DUP4 ADD DUP5 PUSH2 0x1813 JUMP JUMPDEST SWAP3 SWAP2 POP POP JUMP JUMPDEST PUSH2 0x1879 DUP2 PUSH2 0x1528 JUMP JUMPDEST DUP3 MSTORE POP POP JUMP JUMPDEST PUSH1 0x0 PUSH1 0x20 DUP3 ADD SWAP1 POP PUSH2 0x1894 PUSH1 0x0 DUP4 ADD DUP5 PUSH2 0x1870 JUMP JUMPDEST SWAP3 SWAP2 POP POP JUMP JUMPDEST PUSH1 0x0 PUSH1 0x60 DUP3 ADD SWAP1 POP PUSH2 0x18AF PUSH1 0x0 DUP4 ADD DUP7 PUSH2 0x14CA JUMP JUMPDEST PUSH2 0x18BC PUSH1 0x20 DUP4 ADD DUP6 PUSH2 0x14CA JUMP JUMPDEST PUSH2 0x18C9 PUSH1 0x40 DUP4 ADD DUP5 PUSH2 0x1870 JUMP JUMPDEST SWAP5 SWAP4 POP POP POP POP JUMP JUMPDEST PUSH1 0x0 DUP2 MLOAD SWAP1 POP SWAP2 SWAP1 POP JUMP JUMPDEST PUSH32 0x4E487B7100000000000000000000000000000000000000000000000000000000 PUSH1 0x0 MSTORE PUSH1 0x22 PUSH1 0x4 MSTORE PUSH1 0x24 PUSH1 0x0 REVERT JUMPDEST PUSH1 0x0 PUSH1 0x2 DUP3 DIV SWAP1 POP PUSH1 0x1 DUP3 AND DUP1 PUSH2 0x1923 JUMPI PUSH1 0x7F DUP3 AND SWAP2 POP JUMPDEST PUSH1 0x20 DUP3 LT DUP2 SUB PUSH2 0x1936 JUMPI PUSH2 0x1935 PUSH2 0x18DC JUMP JUMPDEST JUMPDEST POP SWAP2 SWAP1 POP JUMP JUMPDEST PUSH1 0x0 DUP2 SWAP1 POP DUP2 PUSH1 0x0 MSTORE PUSH1 0x20 PUSH1 0x0 KECCAK256 SWAP1 POP SWAP2 SWAP1 POP JUMP JUMPDEST PUSH1 0x0 PUSH1 0x20 PUSH1 0x1F DUP4 ADD DIV SWAP1 POP SWAP2 SWAP1 POP JUMP JUMPDEST PUSH1 0x0 DUP3 DUP3 SHL SWAP1 POP SWAP3 SWAP2 POP POP JUMP JUMPDEST PUSH1 0x0 PUSH1 0x8 DUP4 MUL PUSH2 0x199E PUSH32 0xFFFFFFFFFFFFFFFFFFFFFFFFFFFFFFFFFFFFFFFFFFFFFFFFFFFFFFFFFFFFFFFF DUP3 PUSH2 0x1961 JUMP JUMPDEST PUSH2 0x19A8 DUP7 DUP4 PUSH2 0x1961 JUMP JUMPDEST SWAP6 POP DUP1 NOT DUP5 AND SWAP4 POP DUP1 DUP7 AND DUP5 OR SWAP3 POP POP POP SWAP4 SWAP3 POP POP POP JUMP JUMPDEST PUSH1 0x0 DUP2 SWAP1 POP SWAP2 SWAP1 POP JUMP JUMPDEST PUSH1 0x0 PUSH2 0x19E5 PUSH2 0x19E0 PUSH2 0x19DB DUP5 PUSH2 0x14C0 JUMP JUMPDEST PUSH2 0x19C0 JUMP JUMPDEST PUSH2 0x14C0 JUMP JUMPDEST SWAP1 POP SWAP2 SWAP1 POP JUMP JUMPDEST PUSH1 0x0 DUP2 SWAP1 POP SWAP2 SWAP1 POP JUMP JUMPDEST PUSH2 0x19FF DUP4 PUSH2 0x19CA JUMP JUMPDEST PUSH2 0x1A13 PUSH2 0x1A0B DUP3 PUSH2 0x19EC JUMP JUMPDEST DUP5 DUP5 SLOAD PUSH2 0x196E JUMP JUMPDEST DUP3 SSTORE POP POP POP POP JUMP JUMPDEST PUSH1 0x0 SWAP1 JUMP JUMPDEST PUSH2 0x1A28 PUSH2 0x1A1B JUMP JUMPDEST PUSH2 0x1A33 DUP2 DUP5 DUP5 PUSH2 0x19F6 JUMP JUMPDEST POP POP POP JUMP JUMPDEST JUMPDEST DUP2 DUP2 LT ISZERO PUSH2 0x1A57 JUMPI PUSH2 0x1A4C PUSH1 0x0 DUP3 PUSH2 0x1A20 JUMP JUMPDEST PUSH1 0x1 DUP2 ADD SWAP1 POP PUSH2 0x1A39 JUMP JUMPDEST POP POP JUMP JUMPDEST PUSH1 0x1F DUP3 GT ISZERO PUSH2 0x1A9C JUMPI PUSH2 0x1A6D DUP2 PUSH2 0x193C JUMP JUMPDEST PUSH2 0x1A76 DUP5 PUSH2 0x1951 JUMP JUMPDEST DUP2 ADD PUSH1 0x20 DUP6 LT ISZERO PUSH2 0x1A85 JUMPI DUP2 SWAP1 POP JUMPDEST PUSH2 0x1A99 PUSH2 0x1A91 DUP6 PUSH2 0x1951 JUMP JUMPDEST DUP4 ADD DUP3 PUSH2 0x1A38 JUMP JUMPDEST POP POP JUMPDEST POP POP POP JUMP JUMPDEST PUSH1 0x0 DUP3 DUP3 SHR SWAP1 POP SWAP3 SWAP2 POP POP JUMP JUMPDEST PUSH1 0x0 PUSH2 0x1ABF PUSH1 0x0 NOT DUP5 PUSH1 0x8 MUL PUSH2 0x1AA1 JUMP JUMPDEST NOT DUP1 DUP4 AND SWAP2 POP POP SWAP3 SWAP2 POP POP JUMP JUMPDEST PUSH1 0x0 PUSH2 0x1AD8 DUP4 DUP4 PUSH2 0x1AAE JUMP JUMPDEST SWAP2 POP DUP3 PUSH1 0x2 MUL DUP3 OR SWAP1 POP SWAP3 SWAP2 POP POP JUMP JUMPDEST PUSH2 0x1AF1 DUP3 PUSH2 0x18D1 JUMP JUMPDEST PUSH8 0xFFFFFFFFFFFFFFFF DUP2 GT ISZERO PUSH2 0x1B0A JUMPI PUSH2 0x1B09 PUSH2 0x15AE JUMP JUMPDEST JUMPDEST PUSH2 0x1B14 DUP3 SLOAD PUSH2 0x190B JUMP JUMPDEST PUSH2 0x1B1F DUP3 DUP3 DUP6 PUSH2 0x1A5B JUMP JUMPDEST PUSH1 0x0 PUSH1 0x20 SWAP1 POP PUSH1 0x1F DUP4 GT PUSH1 0x1 DUP2 EQ PUSH2 0x1B52 JUMPI PUSH1 0x0 DUP5 ISZERO PUSH2 0x1B40 JUMPI DUP3 DUP8 ADD MLOAD SWAP1 POP JUMPDEST PUSH2 0x1B4A DUP6 DUP3 PUSH2 0x1ACC JUMP JUMPDEST DUP7 SSTORE POP PUSH2 0x1BB2 JUMP JUMPDEST PUSH1 0x1F NOT DUP5 AND PUSH2 0x1B60 DUP7 PUSH2 0x193C JUMP JUMPDEST PUSH1 0x0 JUMPDEST DUP3 DUP2 LT ISZERO PUSH2 0x1B88 JUMPI DUP5 DUP10 ADD MLOAD DUP3 SSTORE PUSH1 0x1 DUP3 ADD SWAP2 POP PUSH1 0x20 DUP6 ADD SWAP5 POP PUSH1 0x20 DUP2 ADD SWAP1 POP PUSH2 0x1B63 JUMP JUMPDEST DUP7 DUP4 LT ISZERO PUSH2 0x1BA5 JUMPI DUP5 DUP10 ADD MLOAD PUSH2 0x1BA1 PUSH1 0x1F DUP10 AND DUP3 PUSH2 0x1AAE JUMP JUMPDEST DUP4 SSTORE POP JUMPDEST PUSH1 0x1 PUSH1 0x2 DUP9 MUL ADD DUP9 SSTORE POP POP POP JUMPDEST POP POP POP POP POP POP JUMP JUMPDEST PUSH1 0x0 DUP3 DUP3 MSTORE PUSH1 0x20 DUP3 ADD SWAP1 POP SWAP3 SWAP2 POP POP JUMP JUMPDEST PUSH1 0x0 JUMPDEST DUP4 DUP2 LT ISZERO PUSH2 0x1BE9 JUMPI DUP1 DUP3 ADD MLOAD DUP2 DUP5 ADD MSTORE PUSH1 0x20 DUP2 ADD SWAP1 POP PUSH2 0x1BCE JUMP JUMPDEST PUSH1 0x0 DUP5 DUP5 ADD MSTORE POP POP POP POP JUMP JUMPDEST PUSH1 0x0 PUSH2 0x1C00 DUP3 PUSH2 0x18D1 JUMP JUMPDEST PUSH2 0x1C0A DUP2 DUP6 PUSH2 0x1BBA JUMP JUMPDEST SWAP4 POP PUSH2 0x1C1A DUP2 DUP6 PUSH1 0x20 DUP7 ADD PUSH2 0x1BCB JUMP JUMPDEST PUSH2 0x1C23 DUP2 PUSH2 0x159D JUMP JUMPDEST DUP5 ADD SWAP2 POP POP SWAP3 SWAP2 POP POP JUMP JUMPDEST PUSH1 0x0 PUSH1 0x40 DUP3 ADD SWAP1 POP PUSH2 0x1C43 PUSH1 0x0 DUP4 ADD DUP6 PUSH2 0x14CA JUMP JUMPDEST DUP2 DUP2 SUB PUSH1 0x20 DUP4 ADD MSTORE PUSH2 0x1C55 DUP2 DUP5 PUSH2 0x1BF5 JUMP JUMPDEST SWAP1 POP SWAP4 SWAP3 POP POP POP JUMP JUMPDEST PUSH32 0x4E487B7100000000000000000000000000000000000000000000000000000000 PUSH1 0x0 MSTORE PUSH1 0x11 PUSH1 0x4 MSTORE PUSH1 0x24 PUSH1 0x0 REVERT JUMPDEST PUSH1 0x0 PUSH2 0x1C98 DUP3 PUSH2 0x14C0 JUMP JUMPDEST SWAP2 POP PUSH2 0x1CA3 DUP4 PUSH2 0x14C0 JUMP JUMPDEST SWAP3 POP DUP3 DUP3 SUB SWAP1 POP DUP2 DUP2 GT ISZERO PUSH2 0x1CBB JUMPI PUSH2 0x1CBA PUSH2 0x1C5E JUMP JUMPDEST JUMPDEST SWAP3 SWAP2 POP POP JUMP JUMPDEST PUSH1 0x0 PUSH2 0x1CCC DUP3 PUSH2 0x14C0 JUMP JUMPDEST SWAP2 POP PUSH32 0xFFFFFFFFFFFFFFFFFFFFFFFFFFFFFFFFFFFFFFFFFFFFFFFFFFFFFFFFFFFFFFFF DUP3 SUB PUSH2 0x1CFE JUMPI PUSH2 0x1CFD PUSH2 0x1C5E JUMP JUMPDEST JUMPDEST PUSH1 0x1 DUP3 ADD SWAP1 POP SWAP2 SWAP1 POP JUMP JUMPDEST PUSH1 0x0 DUP2 SLOAD PUSH2 0x1D16 DUP2 PUSH2 0x190B JUMP JUMPDEST PUSH2 0x1D20 DUP2 DUP7 PUSH2 0x1BBA JUMP JUMPDEST SWAP5 POP PUSH1 0x1 DUP3 AND PUSH1 0x0 DUP2 EQ PUSH2 0x1D3B JUMPI PUSH1 0x1 DUP2 EQ PUSH2 0x1D51 JUMPI PUSH2 0x1D84 JUMP JUMPDEST PUSH1 0xFF NOT DUP4 AND DUP7 MSTORE DUP2 ISZERO ISZERO PUSH1 0x20 MUL DUP7 ADD SWAP4 POP PUSH2 0x1D84 JUMP JUMPDEST PUSH2 0x1D5A DUP6 PUSH2 0x193C JUMP JUMPDEST PUSH1 0x0 JUMPDEST DUP4 DUP2 LT ISZERO PUSH2 0x1D7C JUMPI DUP2 SLOAD DUP2 DUP10 ADD MSTORE PUSH1 0x1 DUP3 ADD SWAP2 POP PUSH1 0x20 DUP2 ADD SWAP1 POP PUSH2 0x1D5D JUMP JUMPDEST DUP1 DUP9 ADD SWAP6 POP POP POP JUMPDEST POP POP POP SWAP3 SWAP2 POP POP JUMP JUMPDEST PUSH1 0x0 PUSH1 0x80 DUP3 ADD SWAP1 POP PUSH2 0x1DA2 PUSH1 0x0 DUP4 ADD DUP8 PUSH2 0x14CA JUMP JUMPDEST DUP2 DUP2 SUB PUSH1 0x20 DUP4 ADD MSTORE PUSH2 0x1DB4 DUP2 DUP7 PUSH2 0x1D09 JUMP JUMPDEST SWAP1 POP PUSH2 0x1DC3 PUSH1 0x40 DUP4 ADD DUP6 PUSH2 0x14CA JUMP JUMPDEST PUSH2 0x1DD0 PUSH1 0x60 DUP4 ADD DUP5 PUSH2 0x14CA JUMP JUMPDEST SWAP6 SWAP5 POP POP POP POP POP JUMP JUMPDEST PUSH32 0x4E487B7100000000000000000000000000000000000000000000000000000000 PUSH1 0x0 MSTORE PUSH1 0x12 PUSH1 0x4 MSTORE PUSH1 0x24 PUSH1 0x0 REVERT INVALID LOG2 PUSH5 0x6970667358 0x22 SLT KECCAK256 0xB1 GAS 0xE1 0xE6 0xC4 MUL 0xE4 POP 0xC0 SAR ADD PUSH6 0x28A8747C6444 LOG0 GAS PREVRANDAO 0xF 0xAE SWAP1 0xEB ADDRESS DUP3 EXP 0xD6 SWAP6 0xAC PUSH5 0x64736F6C63 NUMBER STOP ADDMOD XOR STOP CALLER "},"methodIdentifiers":{"addAdmin(address)":"70480275","addOracle(address)":"df5dd1a5","createRequest(string)":"1b146ecf","getCurrentOracleId()":"6cd17d6e","getCurrentRequestId()":"15cd1841","getMinQuorum()":"a9b3bfa9","getRequest(uint256)":"c58343ef","getTotalOracleCount()":"6478cf93","isAdmin(address)":"24d7806c","isOracle(address)":"a97e5c93","removeAdmin(address)":"1785f53c","removeOracle(address)":"fdc85fc4","updateRequest(uint256,uint256,uint256)":"ab49c774","updateRequested(uint256)":"2e523421"}}}}}