{"contracts/JpynOracle.sol":{"JpynOracle":{"abi":[{"inputs":[],"stateMutability":"nonpayable","type":"constructor"},{"inputs":[{"internalType":"address","name":"sender","type":"address"}],"name":"ExistingAdmin","type":"error"},{"inputs":[{"internalType":"address","name":"sender","type":"address"}],"name":"ExistingOracle","type":"error"},{"inputs":[{"internalType":"uint256","name":"totalAdminCount","type":"uint256"},{"internalType":"uint256","name":"minAdminCount","type":"uint256"},{"internalType":"address","name":"sender","type":"address"}],"name":"NotEnoughAdmins","type":"error"},{"inputs":[{"internalType":"uint256","name":"totalOracleCount","type":"uint256"},{"internalType":"uint256","name":"minOracleCount","type":"uint256"},{"internalType":"address","name":"sender","type":"address"}],"name":"NotEnoughOracles","type":"error"},{"inputs":[{"internalType":"address","name":"sender","type":"address"}],"name":"NotExistingAdmin","type":"error"},{"inputs":[{"internalType":"address","name":"sender","type":"address"}],"name":"NotExistingOrracle","type":"error"},{"inputs":[{"internalType":"address","name":"sender","type":"address"}],"name":"OnlyAdmin","type":"error"},{"inputs":[{"internalType":"address","name":"sender","type":"address"}],"name":"OnlyOracle","type":"error"},{"anonymous":false,"inputs":[{"indexed":false,"internalType":"uint256","name":"id","type":"uint256"},{"indexed":false,"internalType":"string","name":"hashedAccount","type":"string"}],"name":"NewRequest","type":"event"},{"anonymous":false,"inputs":[{"indexed":false,"internalType":"uint256","name":"id","type":"uint256"},{"indexed":false,"internalType":"string","name":"hashedAccount","type":"string"},{"indexed":false,"internalType":"uint256","name":"agreedAccountStatus","type":"uint256"},{"indexed":false,"internalType":"uint256","name":"agreedAccountBalance","type":"uint256"}],"name":"UpdatedRequest","type":"event"},{"inputs":[{"internalType":"address","name":"sender","type":"address"}],"name":"addOracle","outputs":[],"stateMutability":"nonpayable","type":"function"},{"inputs":[{"internalType":"string","name":"_hashedAccount","type":"string"}],"name":"createRequest","outputs":[{"internalType":"uint256","name":"","type":"uint256"}],"stateMutability":"nonpayable","type":"function"},{"inputs":[],"name":"getCurrentOracleId","outputs":[{"internalType":"uint256","name":"","type":"uint256"}],"stateMutability":"view","type":"function"},{"inputs":[],"name":"getCurrentRequestId","outputs":[{"internalType":"uint256","name":"","type":"uint256"}],"stateMutability":"view","type":"function"},{"inputs":[],"name":"getMinQuorum","outputs":[{"internalType":"uint256","name":"","type":"uint256"}],"stateMutability":"view","type":"function"},{"inputs":[{"internalType":"uint256","name":"_id","type":"uint256"}],"name":"getRequest","outputs":[{"components":[{"internalType":"uint256","name":"id","type":"uint256"},{"internalType":"uint256","name":"accountStatus","type":"uint256"},{"internalType":"uint256","name":"accountBalance","type":"uint256"}],"internalType":"struct JpynOracle.GetRequest","name":"","type":"tuple"}],"stateMutability":"view","type":"function"},{"inputs":[],"name":"getTotalOracleCount","outputs":[{"internalType":"uint256","name":"","type":"uint256"}],"stateMutability":"view","type":"function"},{"inputs":[{"internalType":"address","name":"_sender","type":"address"}],"name":"isOracle","outputs":[{"internalType":"bool","name":"","type":"bool"}],"stateMutability":"view","type":"function"},{"inputs":[{"internalType":"address","name":"sender","type":"address"}],"name":"removeOracle","outputs":[],"stateMutability":"nonpayable","type":"function"},{"inputs":[{"internalType":"uint256","name":"_id","type":"uint256"},{"internalType":"uint256","name":"_valueAccountStatus","type":"uint256"},{"internalType":"uint256","name":"_valueAccountBalance","type":"uint256"}],"name":"updateRequest","outputs":[],"stateMutability":"nonpayable","type":"function"}],"evm":{"bytecode":{"linkReferences":{},"object":"608060405234801561001057600080fd5b5060006003819055506000600481905550600060058190555060006006819055506003600781905550611450806100486000396000f3fe608060405234801561001057600080fd5b506004361061009e5760003560e01c8063a9b3bfa911610066578063a9b3bfa91461015d578063ab49c7741461017b578063c58343ef14610197578063df5dd1a5146101c7578063fdc85fc4146101e35761009e565b806315cd1841146100a35780631b146ecf146100c15780636478cf93146100f15780636cd17d6e1461010f578063a97e5c931461012d575b600080fd5b6100ab6101ff565b6040516100b89190610aeb565b60405180910390f35b6100db60048036038101906100d69190610c60565b610209565b6040516100e89190610aeb565b60405180910390f35b6100f9610416565b6040516101069190610aeb565b60405180910390f35b610117610420565b6040516101249190610aeb565b60405180910390f35b61014760048036038101906101429190610d07565b61042a565b6040516101549190610d4f565b60405180910390f35b610165610480565b6040516101729190610aeb565b60405180910390f35b61019560048036038101906101909190610d96565b61048a565b005b6101b160048036038101906101ac9190610de9565b610746565b6040516101be9190610e67565b60405180910390f35b6101e160048036038101906101dc9190610d07565b61079b565b005b6101fd60048036038101906101f89190610d07565b6108f0565b005b6000600354905090565b6000600754600654101561026357600654600754610225610a39565b6040517f9ef88eb200000000000000000000000000000000000000000000000000000000815260040161025a93929190610e91565b60405180910390fd5b6000806000600354815260200190815260200160002090508281600001908161028c91906110df565b50600081600101819055506000816002018190555060005b6004548110156103bb57600160006002600084815260200190815260200160002060009054906101000a900473ffffffffffffffffffffffffffffffffffffffff1673ffffffffffffffffffffffffffffffffffffffff1673ffffffffffffffffffffffffffffffffffffffff16815260200190815260200160002060009054906101000a900460ff16156103ae5760018260050160006002600085815260200190815260200160002060009054906101000a900473ffffffffffffffffffffffffffffffffffffffff1673ffffffffffffffffffffffffffffffffffffffff1673ffffffffffffffffffffffffffffffffffffffff168152602001908152602001600020819055505b80806001019150506102a4565b507f85808ba6b61b3e11f7dba026341d5ff5603fab7df37b176ebfa0f296264cd12e600354846040516103ef929190611225565b60405180910390a16103ff610a41565b600160035461040e9190611284565b915050919050565b6000600654905090565b6000600454905090565b6000600160008373ffffffffffffffffffffffffffffffffffffffff1673ffffffffffffffffffffffffffffffffffffffff16815260200190815260200160002060009054906101000a900460ff169050919050565b6000600554905090565b60016000610496610a39565b73ffffffffffffffffffffffffffffffffffffffff1673ffffffffffffffffffffffffffffffffffffffff16815260200190815260200160002060009054906101000a900460ff16610526576104ea610a39565b6040517ff432bce900000000000000000000000000000000000000000000000000000000815260040161051d91906112b8565b60405180910390fd5b60008060008581526020019081526020016000209050600181600501600061054c610a39565b73ffffffffffffffffffffffffffffffffffffffff1673ffffffffffffffffffffffffffffffffffffffff168152602001908152602001600020540361074057600281600501600061059c610a39565b73ffffffffffffffffffffffffffffffffffffffff1673ffffffffffffffffffffffffffffffffffffffff168152602001908152602001600020819055506000805b8061066e5760008360030160008481526020019081526020016000205414801561061d5750600083600401600084815260200190815260200160002054145b1561065b5760019050848360030160008481526020019081526020016000208190555083836004016000848152602001908152602001600020819055505b8180610666906112d3565b9250506105de565b6000805b60065481101561073b5786856003016000838152602001908152602001600020541480156106b457508585600401600083815260200190815260200160002054145b1561072e5781806106c4906112d3565b925050600554821061072d578685600101819055508585600201819055507f16537abc3ef9eae48878292cc428593b6d0c63ab7b8ae57d6f689429af0554616003548660000187600101548860020154604051610724949392919061139f565b60405180910390a15b5b8080600101915050610672565b505050505b50505050565b61074e610ab1565b600080600084815260200190815260200160002090506000816001015490506000826002015490506040518060600160405280868152602001838152602001828152509350505050919050565b600160008273ffffffffffffffffffffffffffffffffffffffff1673ffffffffffffffffffffffffffffffffffffffff16815260200190815260200160002060009054906101000a900460ff161561082a57806040517f8bc3812000000000000000000000000000000000000000000000000000000000815260040161082191906112b8565b60405180910390fd5b60018060008373ffffffffffffffffffffffffffffffffffffffff1673ffffffffffffffffffffffffffffffffffffffff16815260200190815260200160002060006101000a81548160ff0219169083151502179055508060026000600454815260200190815260200160002060006101000a81548173ffffffffffffffffffffffffffffffffffffffff021916908373ffffffffffffffffffffffffffffffffffffffff1602179055506108dd610a55565b6108e5610a69565b6108ed610a7d565b50565b6007546006541161094057600654600754826040517f9ef88eb200000000000000000000000000000000000000000000000000000000815260040161093793929190610e91565b60405180910390fd5b600160008273ffffffffffffffffffffffffffffffffffffffff1673ffffffffffffffffffffffffffffffffffffffff16815260200190815260200160002060009054906101000a900460ff166109ce57806040517f64c326910000000000000000000000000000000000000000000000000000000081526004016109c591906112b8565b60405180910390fd5b6000600160008373ffffffffffffffffffffffffffffffffffffffff1673ffffffffffffffffffffffffffffffffffffffff16815260200190815260200160002060006101000a81548160ff021916908315150217905550610a2e610a9c565b610a36610a7d565b50565b600033905090565b600360008154809291906001019190505550565b600460008154809291906001019190505550565b600660008154809291906001019190505550565b6001600260065481610a9257610a916113eb565b5b0401600581905550565b60066000815480929190600190039190505550565b60405180606001604052806000815260200160008152602001600081525090565b6000819050919050565b610ae581610ad2565b82525050565b6000602082019050610b006000830184610adc565b92915050565b6000604051905090565b600080fd5b600080fd5b600080fd5b600080fd5b6000601f19601f8301169050919050565b7f4e487b7100000000000000000000000000000000000000000000000000000000600052604160045260246000fd5b610b6d82610b24565b810181811067ffffffffffffffff82111715610b8c57610b8b610b35565b5b80604052505050565b6000610b9f610b06565b9050610bab8282610b64565b919050565b600067ffffffffffffffff821115610bcb57610bca610b35565b5b610bd482610b24565b9050602081019050919050565b82818337600083830152505050565b6000610c03610bfe84610bb0565b610b95565b905082815260208101848484011115610c1f57610c1e610b1f565b5b610c2a848285610be1565b509392505050565b600082601f830112610c4757610c46610b1a565b5b8135610c57848260208601610bf0565b91505092915050565b600060208284031215610c7657610c75610b10565b5b600082013567ffffffffffffffff811115610c9457610c93610b15565b5b610ca084828501610c32565b91505092915050565b600073ffffffffffffffffffffffffffffffffffffffff82169050919050565b6000610cd482610ca9565b9050919050565b610ce481610cc9565b8114610cef57600080fd5b50565b600081359050610d0181610cdb565b92915050565b600060208284031215610d1d57610d1c610b10565b5b6000610d2b84828501610cf2565b91505092915050565b60008115159050919050565b610d4981610d34565b82525050565b6000602082019050610d646000830184610d40565b92915050565b610d7381610ad2565b8114610d7e57600080fd5b50565b600081359050610d9081610d6a565b92915050565b600080600060608486031215610daf57610dae610b10565b5b6000610dbd86828701610d81565b9350506020610dce86828701610d81565b9250506040610ddf86828701610d81565b9150509250925092565b600060208284031215610dff57610dfe610b10565b5b6000610e0d84828501610d81565b91505092915050565b610e1f81610ad2565b82525050565b606082016000820151610e3b6000850182610e16565b506020820151610e4e6020850182610e16565b506040820151610e616040850182610e16565b50505050565b6000606082019050610e7c6000830184610e25565b92915050565b610e8b81610cc9565b82525050565b6000606082019050610ea66000830186610adc565b610eb36020830185610adc565b610ec06040830184610e82565b949350505050565b600081519050919050565b7f4e487b7100000000000000000000000000000000000000000000000000000000600052602260045260246000fd5b60006002820490506001821680610f1a57607f821691505b602082108103610f2d57610f2c610ed3565b5b50919050565b60008190508160005260206000209050919050565b60006020601f8301049050919050565b600082821b905092915050565b600060088302610f957fffffffffffffffffffffffffffffffffffffffffffffffffffffffffffffffff82610f58565b610f9f8683610f58565b95508019841693508086168417925050509392505050565b6000819050919050565b6000610fdc610fd7610fd284610ad2565b610fb7565b610ad2565b9050919050565b6000819050919050565b610ff683610fc1565b61100a61100282610fe3565b848454610f65565b825550505050565b600090565b61101f611012565b61102a818484610fed565b505050565b5b8181101561104e57611043600082611017565b600181019050611030565b5050565b601f8211156110935761106481610f33565b61106d84610f48565b8101602085101561107c578190505b61109061108885610f48565b83018261102f565b50505b505050565b600082821c905092915050565b60006110b660001984600802611098565b1980831691505092915050565b60006110cf83836110a5565b9150826002028217905092915050565b6110e882610ec8565b67ffffffffffffffff81111561110157611100610b35565b5b61110b8254610f02565b611116828285611052565b600060209050601f8311600181146111495760008415611137578287015190505b61114185826110c3565b8655506111a9565b601f19841661115786610f33565b60005b8281101561117f5784890151825560018201915060208501945060208101905061115a565b8683101561119c5784890151611198601f8916826110a5565b8355505b6001600288020188555050505b505050505050565b600082825260208201905092915050565b60005b838110156111e05780820151818401526020810190506111c5565b60008484015250505050565b60006111f782610ec8565b61120181856111b1565b93506112118185602086016111c2565b61121a81610b24565b840191505092915050565b600060408201905061123a6000830185610adc565b818103602083015261124c81846111ec565b90509392505050565b7f4e487b7100000000000000000000000000000000000000000000000000000000600052601160045260246000fd5b600061128f82610ad2565b915061129a83610ad2565b92508282039050818111156112b2576112b1611255565b5b92915050565b60006020820190506112cd6000830184610e82565b92915050565b60006112de82610ad2565b91507fffffffffffffffffffffffffffffffffffffffffffffffffffffffffffffffff82036113105761130f611255565b5b600182019050919050565b6000815461132881610f02565b61133281866111b1565b9450600182166000811461134d576001811461136357611396565b60ff198316865281151560200286019350611396565b61136c85610f33565b60005b8381101561138e5781548189015260018201915060208101905061136f565b808801955050505b50505092915050565b60006080820190506113b46000830187610adc565b81810360208301526113c6818661131b565b90506113d56040830185610adc565b6113e26060830184610adc565b95945050505050565b7f4e487b7100000000000000000000000000000000000000000000000000000000600052601260045260246000fdfea2646970667358221220ea0ecc3160226da7dd4466406a6131f04874e870475765861d7e802084d4fc8f64736f6c63430008180033","opcodes":"PUSH1 0x80 PUSH1 0x40 MSTORE CALLVALUE DUP1 ISZERO PUSH2 0x10 JUMPI PUSH1 0x0 DUP1 REVERT JUMPDEST POP PUSH1 0x0 PUSH1 0x3 DUP2 SWAP1 SSTORE POP PUSH1 0x0 PUSH1 0x4 DUP2 SWAP1 SSTORE POP PUSH1 0x0 PUSH1 0x5 DUP2 SWAP1 SSTORE POP PUSH1 0x0 PUSH1 0x6 DUP2 SWAP1 SSTORE POP PUSH1 0x3 PUSH1 0x7 DUP2 SWAP1 SSTORE POP PUSH2 0x1450 DUP1 PUSH2 0x48 PUSH1 0x0 CODECOPY PUSH1 0x0 RETURN INVALID PUSH1 0x80 PUSH1 0x40 MSTORE CALLVALUE DUP1 ISZERO PUSH2 0x10 JUMPI PUSH1 0x0 DUP1 REVERT JUMPDEST POP PUSH1 0x4 CALLDATASIZE LT PUSH2 0x9E JUMPI PUSH1 0x0 CALLDATALOAD PUSH1 0xE0 SHR DUP1 PUSH4 0xA9B3BFA9 GT PUSH2 0x66 JUMPI DUP1 PUSH4 0xA9B3BFA9 EQ PUSH2 0x15D JUMPI DUP1 PUSH4 0xAB49C774 EQ PUSH2 0x17B JUMPI DUP1 PUSH4 0xC58343EF EQ PUSH2 0x197 JUMPI DUP1 PUSH4 0xDF5DD1A5 EQ PUSH2 0x1C7 JUMPI DUP1 PUSH4 0xFDC85FC4 EQ PUSH2 0x1E3 JUMPI PUSH2 0x9E JUMP JUMPDEST DUP1 PUSH4 0x15CD1841 EQ PUSH2 0xA3 JUMPI DUP1 PUSH4 0x1B146ECF EQ PUSH2 0xC1 JUMPI DUP1 PUSH4 0x6478CF93 EQ PUSH2 0xF1 JUMPI DUP1 PUSH4 0x6CD17D6E EQ PUSH2 0x10F JUMPI DUP1 PUSH4 0xA97E5C93 EQ PUSH2 0x12D JUMPI JUMPDEST PUSH1 0x0 DUP1 REVERT JUMPDEST PUSH2 0xAB PUSH2 0x1FF JUMP JUMPDEST PUSH1 0x40 MLOAD PUSH2 0xB8 SWAP2 SWAP1 PUSH2 0xAEB JUMP JUMPDEST PUSH1 0x40 MLOAD DUP1 SWAP2 SUB SWAP1 RETURN JUMPDEST PUSH2 0xDB PUSH1 0x4 DUP1 CALLDATASIZE SUB DUP2 ADD SWAP1 PUSH2 0xD6 SWAP2 SWAP1 PUSH2 0xC60 JUMP JUMPDEST PUSH2 0x209 JUMP JUMPDEST PUSH1 0x40 MLOAD PUSH2 0xE8 SWAP2 SWAP1 PUSH2 0xAEB JUMP JUMPDEST PUSH1 0x40 MLOAD DUP1 SWAP2 SUB SWAP1 RETURN JUMPDEST PUSH2 0xF9 PUSH2 0x416 JUMP JUMPDEST PUSH1 0x40 MLOAD PUSH2 0x106 SWAP2 SWAP1 PUSH2 0xAEB JUMP JUMPDEST PUSH1 0x40 MLOAD DUP1 SWAP2 SUB SWAP1 RETURN JUMPDEST PUSH2 0x117 PUSH2 0x420 JUMP JUMPDEST PUSH1 0x40 MLOAD PUSH2 0x124 SWAP2 SWAP1 PUSH2 0xAEB JUMP JUMPDEST PUSH1 0x40 MLOAD DUP1 SWAP2 SUB SWAP1 RETURN JUMPDEST PUSH2 0x147 PUSH1 0x4 DUP1 CALLDATASIZE SUB DUP2 ADD SWAP1 PUSH2 0x142 SWAP2 SWAP1 PUSH2 0xD07 JUMP JUMPDEST PUSH2 0x42A JUMP JUMPDEST PUSH1 0x40 MLOAD PUSH2 0x154 SWAP2 SWAP1 PUSH2 0xD4F JUMP JUMPDEST PUSH1 0x40 MLOAD DUP1 SWAP2 SUB SWAP1 RETURN JUMPDEST PUSH2 0x165 PUSH2 0x480 JUMP JUMPDEST PUSH1 0x40 MLOAD PUSH2 0x172 SWAP2 SWAP1 PUSH2 0xAEB JUMP JUMPDEST PUSH1 0x40 MLOAD DUP1 SWAP2 SUB SWAP1 RETURN JUMPDEST PUSH2 0x195 PUSH1 0x4 DUP1 CALLDATASIZE SUB DUP2 ADD SWAP1 PUSH2 0x190 SWAP2 SWAP1 PUSH2 0xD96 JUMP JUMPDEST PUSH2 0x48A JUMP JUMPDEST STOP JUMPDEST PUSH2 0x1B1 PUSH1 0x4 DUP1 CALLDATASIZE SUB DUP2 ADD SWAP1 PUSH2 0x1AC SWAP2 SWAP1 PUSH2 0xDE9 JUMP JUMPDEST PUSH2 0x746 JUMP JUMPDEST PUSH1 0x40 MLOAD PUSH2 0x1BE SWAP2 SWAP1 PUSH2 0xE67 JUMP JUMPDEST PUSH1 0x40 MLOAD DUP1 SWAP2 SUB SWAP1 RETURN JUMPDEST PUSH2 0x1E1 PUSH1 0x4 DUP1 CALLDATASIZE SUB DUP2 ADD SWAP1 PUSH2 0x1DC SWAP2 SWAP1 PUSH2 0xD07 JUMP JUMPDEST PUSH2 0x79B JUMP JUMPDEST STOP JUMPDEST PUSH2 0x1FD PUSH1 0x4 DUP1 CALLDATASIZE SUB DUP2 ADD SWAP1 PUSH2 0x1F8 SWAP2 SWAP1 PUSH2 0xD07 JUMP JUMPDEST PUSH2 0x8F0 JUMP JUMPDEST STOP JUMPDEST PUSH1 0x0 PUSH1 0x3 SLOAD SWAP1 POP SWAP1 JUMP JUMPDEST PUSH1 0x0 PUSH1 0x7 SLOAD PUSH1 0x6 SLOAD LT ISZERO PUSH2 0x263 JUMPI PUSH1 0x6 SLOAD PUSH1 0x7 SLOAD PUSH2 0x225 PUSH2 0xA39 JUMP JUMPDEST PUSH1 0x40 MLOAD PUSH32 0x9EF88EB200000000000000000000000000000000000000000000000000000000 DUP2 MSTORE PUSH1 0x4 ADD PUSH2 0x25A SWAP4 SWAP3 SWAP2 SWAP1 PUSH2 0xE91 JUMP JUMPDEST PUSH1 0x40 MLOAD DUP1 SWAP2 SUB SWAP1 REVERT JUMPDEST PUSH1 0x0 DUP1 PUSH1 0x0 PUSH1 0x3 SLOAD DUP2 MSTORE PUSH1 0x20 ADD SWAP1 DUP2 MSTORE PUSH1 0x20 ADD PUSH1 0x0 KECCAK256 SWAP1 POP DUP3 DUP2 PUSH1 0x0 ADD SWAP1 DUP2 PUSH2 0x28C SWAP2 SWAP1 PUSH2 0x10DF JUMP JUMPDEST POP PUSH1 0x0 DUP2 PUSH1 0x1 ADD DUP2 SWAP1 SSTORE POP PUSH1 0x0 DUP2 PUSH1 0x2 ADD DUP2 SWAP1 SSTORE POP PUSH1 0x0 JUMPDEST PUSH1 0x4 SLOAD DUP2 LT ISZERO PUSH2 0x3BB JUMPI PUSH1 0x1 PUSH1 0x0 PUSH1 0x2 PUSH1 0x0 DUP5 DUP2 MSTORE PUSH1 0x20 ADD SWAP1 DUP2 MSTORE PUSH1 0x20 ADD PUSH1 0x0 KECCAK256 PUSH1 0x0 SWAP1 SLOAD SWAP1 PUSH2 0x100 EXP SWAP1 DIV PUSH20 0xFFFFFFFFFFFFFFFFFFFFFFFFFFFFFFFFFFFFFFFF AND PUSH20 0xFFFFFFFFFFFFFFFFFFFFFFFFFFFFFFFFFFFFFFFF AND PUSH20 0xFFFFFFFFFFFFFFFFFFFFFFFFFFFFFFFFFFFFFFFF AND DUP2 MSTORE PUSH1 0x20 ADD SWAP1 DUP2 MSTORE PUSH1 0x20 ADD PUSH1 0x0 KECCAK256 PUSH1 0x0 SWAP1 SLOAD SWAP1 PUSH2 0x100 EXP SWAP1 DIV PUSH1 0xFF AND ISZERO PUSH2 0x3AE JUMPI PUSH1 0x1 DUP3 PUSH1 0x5 ADD PUSH1 0x0 PUSH1 0x2 PUSH1 0x0 DUP6 DUP2 MSTORE PUSH1 0x20 ADD SWAP1 DUP2 MSTORE PUSH1 0x20 ADD PUSH1 0x0 KECCAK256 PUSH1 0x0 SWAP1 SLOAD SWAP1 PUSH2 0x100 EXP SWAP1 DIV PUSH20 0xFFFFFFFFFFFFFFFFFFFFFFFFFFFFFFFFFFFFFFFF AND PUSH20 0xFFFFFFFFFFFFFFFFFFFFFFFFFFFFFFFFFFFFFFFF AND PUSH20 0xFFFFFFFFFFFFFFFFFFFFFFFFFFFFFFFFFFFFFFFF AND DUP2 MSTORE PUSH1 0x20 ADD SWAP1 DUP2 MSTORE PUSH1 0x20 ADD PUSH1 0x0 KECCAK256 DUP2 SWAP1 SSTORE POP JUMPDEST DUP1 DUP1 PUSH1 0x1 ADD SWAP2 POP POP PUSH2 0x2A4 JUMP JUMPDEST POP PUSH32 0x85808BA6B61B3E11F7DBA026341D5FF5603FAB7DF37B176EBFA0F296264CD12E PUSH1 0x3 SLOAD DUP5 PUSH1 0x40 MLOAD PUSH2 0x3EF SWAP3 SWAP2 SWAP1 PUSH2 0x1225 JUMP JUMPDEST PUSH1 0x40 MLOAD DUP1 SWAP2 SUB SWAP1 LOG1 PUSH2 0x3FF PUSH2 0xA41 JUMP JUMPDEST PUSH1 0x1 PUSH1 0x3 SLOAD PUSH2 0x40E SWAP2 SWAP1 PUSH2 0x1284 JUMP JUMPDEST SWAP2 POP POP SWAP2 SWAP1 POP JUMP JUMPDEST PUSH1 0x0 PUSH1 0x6 SLOAD SWAP1 POP SWAP1 JUMP JUMPDEST PUSH1 0x0 PUSH1 0x4 SLOAD SWAP1 POP SWAP1 JUMP JUMPDEST PUSH1 0x0 PUSH1 0x1 PUSH1 0x0 DUP4 PUSH20 0xFFFFFFFFFFFFFFFFFFFFFFFFFFFFFFFFFFFFFFFF AND PUSH20 0xFFFFFFFFFFFFFFFFFFFFFFFFFFFFFFFFFFFFFFFF AND DUP2 MSTORE PUSH1 0x20 ADD SWAP1 DUP2 MSTORE PUSH1 0x20 ADD PUSH1 0x0 KECCAK256 PUSH1 0x0 SWAP1 SLOAD SWAP1 PUSH2 0x100 EXP SWAP1 DIV PUSH1 0xFF AND SWAP1 POP SWAP2 SWAP1 POP JUMP JUMPDEST PUSH1 0x0 PUSH1 0x5 SLOAD SWAP1 POP SWAP1 JUMP JUMPDEST PUSH1 0x1 PUSH1 0x0 PUSH2 0x496 PUSH2 0xA39 JUMP JUMPDEST PUSH20 0xFFFFFFFFFFFFFFFFFFFFFFFFFFFFFFFFFFFFFFFF AND PUSH20 0xFFFFFFFFFFFFFFFFFFFFFFFFFFFFFFFFFFFFFFFF AND DUP2 MSTORE PUSH1 0x20 ADD SWAP1 DUP2 MSTORE PUSH1 0x20 ADD PUSH1 0x0 KECCAK256 PUSH1 0x0 SWAP1 SLOAD SWAP1 PUSH2 0x100 EXP SWAP1 DIV PUSH1 0xFF AND PUSH2 0x526 JUMPI PUSH2 0x4EA PUSH2 0xA39 JUMP JUMPDEST PUSH1 0x40 MLOAD PUSH32 0xF432BCE900000000000000000000000000000000000000000000000000000000 DUP2 MSTORE PUSH1 0x4 ADD PUSH2 0x51D SWAP2 SWAP1 PUSH2 0x12B8 JUMP JUMPDEST PUSH1 0x40 MLOAD DUP1 SWAP2 SUB SWAP1 REVERT JUMPDEST PUSH1 0x0 DUP1 PUSH1 0x0 DUP6 DUP2 MSTORE PUSH1 0x20 ADD SWAP1 DUP2 MSTORE PUSH1 0x20 ADD PUSH1 0x0 KECCAK256 SWAP1 POP PUSH1 0x1 DUP2 PUSH1 0x5 ADD PUSH1 0x0 PUSH2 0x54C PUSH2 0xA39 JUMP JUMPDEST PUSH20 0xFFFFFFFFFFFFFFFFFFFFFFFFFFFFFFFFFFFFFFFF AND PUSH20 0xFFFFFFFFFFFFFFFFFFFFFFFFFFFFFFFFFFFFFFFF AND DUP2 MSTORE PUSH1 0x20 ADD SWAP1 DUP2 MSTORE PUSH1 0x20 ADD PUSH1 0x0 KECCAK256 SLOAD SUB PUSH2 0x740 JUMPI PUSH1 0x2 DUP2 PUSH1 0x5 ADD PUSH1 0x0 PUSH2 0x59C PUSH2 0xA39 JUMP JUMPDEST PUSH20 0xFFFFFFFFFFFFFFFFFFFFFFFFFFFFFFFFFFFFFFFF AND PUSH20 0xFFFFFFFFFFFFFFFFFFFFFFFFFFFFFFFFFFFFFFFF AND DUP2 MSTORE PUSH1 0x20 ADD SWAP1 DUP2 MSTORE PUSH1 0x20 ADD PUSH1 0x0 KECCAK256 DUP2 SWAP1 SSTORE POP PUSH1 0x0 DUP1 JUMPDEST DUP1 PUSH2 0x66E JUMPI PUSH1 0x0 DUP4 PUSH1 0x3 ADD PUSH1 0x0 DUP5 DUP2 MSTORE PUSH1 0x20 ADD SWAP1 DUP2 MSTORE PUSH1 0x20 ADD PUSH1 0x0 KECCAK256 SLOAD EQ DUP1 ISZERO PUSH2 0x61D JUMPI POP PUSH1 0x0 DUP4 PUSH1 0x4 ADD PUSH1 0x0 DUP5 DUP2 MSTORE PUSH1 0x20 ADD SWAP1 DUP2 MSTORE PUSH1 0x20 ADD PUSH1 0x0 KECCAK256 SLOAD EQ JUMPDEST ISZERO PUSH2 0x65B JUMPI PUSH1 0x1 SWAP1 POP DUP5 DUP4 PUSH1 0x3 ADD PUSH1 0x0 DUP5 DUP2 MSTORE PUSH1 0x20 ADD SWAP1 DUP2 MSTORE PUSH1 0x20 ADD PUSH1 0x0 KECCAK256 DUP2 SWAP1 SSTORE POP DUP4 DUP4 PUSH1 0x4 ADD PUSH1 0x0 DUP5 DUP2 MSTORE PUSH1 0x20 ADD SWAP1 DUP2 MSTORE PUSH1 0x20 ADD PUSH1 0x0 KECCAK256 DUP2 SWAP1 SSTORE POP JUMPDEST DUP2 DUP1 PUSH2 0x666 SWAP1 PUSH2 0x12D3 JUMP JUMPDEST SWAP3 POP POP PUSH2 0x5DE JUMP JUMPDEST PUSH1 0x0 DUP1 JUMPDEST PUSH1 0x6 SLOAD DUP2 LT ISZERO PUSH2 0x73B JUMPI DUP7 DUP6 PUSH1 0x3 ADD PUSH1 0x0 DUP4 DUP2 MSTORE PUSH1 0x20 ADD SWAP1 DUP2 MSTORE PUSH1 0x20 ADD PUSH1 0x0 KECCAK256 SLOAD EQ DUP1 ISZERO PUSH2 0x6B4 JUMPI POP DUP6 DUP6 PUSH1 0x4 ADD PUSH1 0x0 DUP4 DUP2 MSTORE PUSH1 0x20 ADD SWAP1 DUP2 MSTORE PUSH1 0x20 ADD PUSH1 0x0 KECCAK256 SLOAD EQ JUMPDEST ISZERO PUSH2 0x72E JUMPI DUP2 DUP1 PUSH2 0x6C4 SWAP1 PUSH2 0x12D3 JUMP JUMPDEST SWAP3 POP POP PUSH1 0x5 SLOAD DUP3 LT PUSH2 0x72D JUMPI DUP7 DUP6 PUSH1 0x1 ADD DUP2 SWAP1 SSTORE POP DUP6 DUP6 PUSH1 0x2 ADD DUP2 SWAP1 SSTORE POP PUSH32 0x16537ABC3EF9EAE48878292CC428593B6D0C63AB7B8AE57D6F689429AF055461 PUSH1 0x3 SLOAD DUP7 PUSH1 0x0 ADD DUP8 PUSH1 0x1 ADD SLOAD DUP9 PUSH1 0x2 ADD SLOAD PUSH1 0x40 MLOAD PUSH2 0x724 SWAP5 SWAP4 SWAP3 SWAP2 SWAP1 PUSH2 0x139F JUMP JUMPDEST PUSH1 0x40 MLOAD DUP1 SWAP2 SUB SWAP1 LOG1 JUMPDEST JUMPDEST DUP1 DUP1 PUSH1 0x1 ADD SWAP2 POP POP PUSH2 0x672 JUMP JUMPDEST POP POP POP POP JUMPDEST POP POP POP POP JUMP JUMPDEST PUSH2 0x74E PUSH2 0xAB1 JUMP JUMPDEST PUSH1 0x0 DUP1 PUSH1 0x0 DUP5 DUP2 MSTORE PUSH1 0x20 ADD SWAP1 DUP2 MSTORE PUSH1 0x20 ADD PUSH1 0x0 KECCAK256 SWAP1 POP PUSH1 0x0 DUP2 PUSH1 0x1 ADD SLOAD SWAP1 POP PUSH1 0x0 DUP3 PUSH1 0x2 ADD SLOAD SWAP1 POP PUSH1 0x40 MLOAD DUP1 PUSH1 0x60 ADD PUSH1 0x40 MSTORE DUP1 DUP7 DUP2 MSTORE PUSH1 0x20 ADD DUP4 DUP2 MSTORE PUSH1 0x20 ADD DUP3 DUP2 MSTORE POP SWAP4 POP POP POP POP SWAP2 SWAP1 POP JUMP JUMPDEST PUSH1 0x1 PUSH1 0x0 DUP3 PUSH20 0xFFFFFFFFFFFFFFFFFFFFFFFFFFFFFFFFFFFFFFFF AND PUSH20 0xFFFFFFFFFFFFFFFFFFFFFFFFFFFFFFFFFFFFFFFF AND DUP2 MSTORE PUSH1 0x20 ADD SWAP1 DUP2 MSTORE PUSH1 0x20 ADD PUSH1 0x0 KECCAK256 PUSH1 0x0 SWAP1 SLOAD SWAP1 PUSH2 0x100 EXP SWAP1 DIV PUSH1 0xFF AND ISZERO PUSH2 0x82A JUMPI DUP1 PUSH1 0x40 MLOAD PUSH32 0x8BC3812000000000000000000000000000000000000000000000000000000000 DUP2 MSTORE PUSH1 0x4 ADD PUSH2 0x821 SWAP2 SWAP1 PUSH2 0x12B8 JUMP JUMPDEST PUSH1 0x40 MLOAD DUP1 SWAP2 SUB SWAP1 REVERT JUMPDEST PUSH1 0x1 DUP1 PUSH1 0x0 DUP4 PUSH20 0xFFFFFFFFFFFFFFFFFFFFFFFFFFFFFFFFFFFFFFFF AND PUSH20 0xFFFFFFFFFFFFFFFFFFFFFFFFFFFFFFFFFFFFFFFF AND DUP2 MSTORE PUSH1 0x20 ADD SWAP1 DUP2 MSTORE PUSH1 0x20 ADD PUSH1 0x0 KECCAK256 PUSH1 0x0 PUSH2 0x100 EXP DUP2 SLOAD DUP2 PUSH1 0xFF MUL NOT AND SWAP1 DUP4 ISZERO ISZERO MUL OR SWAP1 SSTORE POP DUP1 PUSH1 0x2 PUSH1 0x0 PUSH1 0x4 SLOAD DUP2 MSTORE PUSH1 0x20 ADD SWAP1 DUP2 MSTORE PUSH1 0x20 ADD PUSH1 0x0 KECCAK256 PUSH1 0x0 PUSH2 0x100 EXP DUP2 SLOAD DUP2 PUSH20 0xFFFFFFFFFFFFFFFFFFFFFFFFFFFFFFFFFFFFFFFF MUL NOT AND SWAP1 DUP4 PUSH20 0xFFFFFFFFFFFFFFFFFFFFFFFFFFFFFFFFFFFFFFFF AND MUL OR SWAP1 SSTORE POP PUSH2 0x8DD PUSH2 0xA55 JUMP JUMPDEST PUSH2 0x8E5 PUSH2 0xA69 JUMP JUMPDEST PUSH2 0x8ED PUSH2 0xA7D JUMP JUMPDEST POP JUMP JUMPDEST PUSH1 0x7 SLOAD PUSH1 0x6 SLOAD GT PUSH2 0x940 JUMPI PUSH1 0x6 SLOAD PUSH1 0x7 SLOAD DUP3 PUSH1 0x40 MLOAD PUSH32 0x9EF88EB200000000000000000000000000000000000000000000000000000000 DUP2 MSTORE PUSH1 0x4 ADD PUSH2 0x937 SWAP4 SWAP3 SWAP2 SWAP1 PUSH2 0xE91 JUMP JUMPDEST PUSH1 0x40 MLOAD DUP1 SWAP2 SUB SWAP1 REVERT JUMPDEST PUSH1 0x1 PUSH1 0x0 DUP3 PUSH20 0xFFFFFFFFFFFFFFFFFFFFFFFFFFFFFFFFFFFFFFFF AND PUSH20 0xFFFFFFFFFFFFFFFFFFFFFFFFFFFFFFFFFFFFFFFF AND DUP2 MSTORE PUSH1 0x20 ADD SWAP1 DUP2 MSTORE PUSH1 0x20 ADD PUSH1 0x0 KECCAK256 PUSH1 0x0 SWAP1 SLOAD SWAP1 PUSH2 0x100 EXP SWAP1 DIV PUSH1 0xFF AND PUSH2 0x9CE JUMPI DUP1 PUSH1 0x40 MLOAD PUSH32 0x64C3269100000000000000000000000000000000000000000000000000000000 DUP2 MSTORE PUSH1 0x4 ADD PUSH2 0x9C5 SWAP2 SWAP1 PUSH2 0x12B8 JUMP JUMPDEST PUSH1 0x40 MLOAD DUP1 SWAP2 SUB SWAP1 REVERT JUMPDEST PUSH1 0x0 PUSH1 0x1 PUSH1 0x0 DUP4 PUSH20 0xFFFFFFFFFFFFFFFFFFFFFFFFFFFFFFFFFFFFFFFF AND PUSH20 0xFFFFFFFFFFFFFFFFFFFFFFFFFFFFFFFFFFFFFFFF AND DUP2 MSTORE PUSH1 0x20 ADD SWAP1 DUP2 MSTORE PUSH1 0x20 ADD PUSH1 0x0 KECCAK256 PUSH1 0x0 PUSH2 0x100 EXP DUP2 SLOAD DUP2 PUSH1 0xFF MUL NOT AND SWAP1 DUP4 ISZERO ISZERO MUL OR SWAP1 SSTORE POP PUSH2 0xA2E PUSH2 0xA9C JUMP JUMPDEST PUSH2 0xA36 PUSH2 0xA7D JUMP JUMPDEST POP JUMP JUMPDEST PUSH1 0x0 CALLER SWAP1 POP SWAP1 JUMP JUMPDEST PUSH1 0x3 PUSH1 0x0 DUP2 SLOAD DUP1 SWAP3 SWAP2 SWAP1 PUSH1 0x1 ADD SWAP2 SWAP1 POP SSTORE POP JUMP JUMPDEST PUSH1 0x4 PUSH1 0x0 DUP2 SLOAD DUP1 SWAP3 SWAP2 SWAP1 PUSH1 0x1 ADD SWAP2 SWAP1 POP SSTORE POP JUMP JUMPDEST PUSH1 0x6 PUSH1 0x0 DUP2 SLOAD DUP1 SWAP3 SWAP2 SWAP1 PUSH1 0x1 ADD SWAP2 SWAP1 POP SSTORE POP JUMP JUMPDEST PUSH1 0x1 PUSH1 0x2 PUSH1 0x6 SLOAD DUP2 PUSH2 0xA92 JUMPI PUSH2 0xA91 PUSH2 0x13EB JUMP JUMPDEST JUMPDEST DIV ADD PUSH1 0x5 DUP2 SWAP1 SSTORE POP JUMP JUMPDEST PUSH1 0x6 PUSH1 0x0 DUP2 SLOAD DUP1 SWAP3 SWAP2 SWAP1 PUSH1 0x1 SWAP1 SUB SWAP2 SWAP1 POP SSTORE POP JUMP JUMPDEST PUSH1 0x40 MLOAD DUP1 PUSH1 0x60 ADD PUSH1 0x40 MSTORE DUP1 PUSH1 0x0 DUP2 MSTORE PUSH1 0x20 ADD PUSH1 0x0 DUP2 MSTORE PUSH1 0x20 ADD PUSH1 0x0 DUP2 MSTORE POP SWAP1 JUMP JUMPDEST PUSH1 0x0 DUP2 SWAP1 POP SWAP2 SWAP1 POP JUMP JUMPDEST PUSH2 0xAE5 DUP2 PUSH2 0xAD2 JUMP JUMPDEST DUP3 MSTORE POP POP JUMP JUMPDEST PUSH1 0x0 PUSH1 0x20 DUP3 ADD SWAP1 POP PUSH2 0xB00 PUSH1 0x0 DUP4 ADD DUP5 PUSH2 0xADC JUMP JUMPDEST SWAP3 SWAP2 POP POP JUMP JUMPDEST PUSH1 0x0 PUSH1 0x40 MLOAD SWAP1 POP SWAP1 JUMP JUMPDEST PUSH1 0x0 DUP1 REVERT JUMPDEST PUSH1 0x0 DUP1 REVERT JUMPDEST PUSH1 0x0 DUP1 REVERT JUMPDEST PUSH1 0x0 DUP1 REVERT JUMPDEST PUSH1 0x0 PUSH1 0x1F NOT PUSH1 0x1F DUP4 ADD AND SWAP1 POP SWAP2 SWAP1 POP JUMP JUMPDEST PUSH32 0x4E487B7100000000000000000000000000000000000000000000000000000000 PUSH1 0x0 MSTORE PUSH1 0x41 PUSH1 0x4 MSTORE PUSH1 0x24 PUSH1 0x0 REVERT JUMPDEST PUSH2 0xB6D DUP3 PUSH2 0xB24 JUMP JUMPDEST DUP2 ADD DUP2 DUP2 LT PUSH8 0xFFFFFFFFFFFFFFFF DUP3 GT OR ISZERO PUSH2 0xB8C JUMPI PUSH2 0xB8B PUSH2 0xB35 JUMP JUMPDEST JUMPDEST DUP1 PUSH1 0x40 MSTORE POP POP POP JUMP JUMPDEST PUSH1 0x0 PUSH2 0xB9F PUSH2 0xB06 JUMP JUMPDEST SWAP1 POP PUSH2 0xBAB DUP3 DUP3 PUSH2 0xB64 JUMP JUMPDEST SWAP2 SWAP1 POP JUMP JUMPDEST PUSH1 0x0 PUSH8 0xFFFFFFFFFFFFFFFF DUP3 GT ISZERO PUSH2 0xBCB JUMPI PUSH2 0xBCA PUSH2 0xB35 JUMP JUMPDEST JUMPDEST PUSH2 0xBD4 DUP3 PUSH2 0xB24 JUMP JUMPDEST SWAP1 POP PUSH1 0x20 DUP2 ADD SWAP1 POP SWAP2 SWAP1 POP JUMP JUMPDEST DUP3 DUP2 DUP4 CALLDATACOPY PUSH1 0x0 DUP4 DUP4 ADD MSTORE POP POP POP JUMP JUMPDEST PUSH1 0x0 PUSH2 0xC03 PUSH2 0xBFE DUP5 PUSH2 0xBB0 JUMP JUMPDEST PUSH2 0xB95 JUMP JUMPDEST SWAP1 POP DUP3 DUP2 MSTORE PUSH1 0x20 DUP2 ADD DUP5 DUP5 DUP5 ADD GT ISZERO PUSH2 0xC1F JUMPI PUSH2 0xC1E PUSH2 0xB1F JUMP JUMPDEST JUMPDEST PUSH2 0xC2A DUP5 DUP3 DUP6 PUSH2 0xBE1 JUMP JUMPDEST POP SWAP4 SWAP3 POP POP POP JUMP JUMPDEST PUSH1 0x0 DUP3 PUSH1 0x1F DUP4 ADD SLT PUSH2 0xC47 JUMPI PUSH2 0xC46 PUSH2 0xB1A JUMP JUMPDEST JUMPDEST DUP2 CALLDATALOAD PUSH2 0xC57 DUP5 DUP3 PUSH1 0x20 DUP7 ADD PUSH2 0xBF0 JUMP JUMPDEST SWAP2 POP POP SWAP3 SWAP2 POP POP JUMP JUMPDEST PUSH1 0x0 PUSH1 0x20 DUP3 DUP5 SUB SLT ISZERO PUSH2 0xC76 JUMPI PUSH2 0xC75 PUSH2 0xB10 JUMP JUMPDEST JUMPDEST PUSH1 0x0 DUP3 ADD CALLDATALOAD PUSH8 0xFFFFFFFFFFFFFFFF DUP2 GT ISZERO PUSH2 0xC94 JUMPI PUSH2 0xC93 PUSH2 0xB15 JUMP JUMPDEST JUMPDEST PUSH2 0xCA0 DUP5 DUP3 DUP6 ADD PUSH2 0xC32 JUMP JUMPDEST SWAP2 POP POP SWAP3 SWAP2 POP POP JUMP JUMPDEST PUSH1 0x0 PUSH20 0xFFFFFFFFFFFFFFFFFFFFFFFFFFFFFFFFFFFFFFFF DUP3 AND SWAP1 POP SWAP2 SWAP1 POP JUMP JUMPDEST PUSH1 0x0 PUSH2 0xCD4 DUP3 PUSH2 0xCA9 JUMP JUMPDEST SWAP1 POP SWAP2 SWAP1 POP JUMP JUMPDEST PUSH2 0xCE4 DUP2 PUSH2 0xCC9 JUMP JUMPDEST DUP2 EQ PUSH2 0xCEF JUMPI PUSH1 0x0 DUP1 REVERT JUMPDEST POP JUMP JUMPDEST PUSH1 0x0 DUP2 CALLDATALOAD SWAP1 POP PUSH2 0xD01 DUP2 PUSH2 0xCDB JUMP JUMPDEST SWAP3 SWAP2 POP POP JUMP JUMPDEST PUSH1 0x0 PUSH1 0x20 DUP3 DUP5 SUB SLT ISZERO PUSH2 0xD1D JUMPI PUSH2 0xD1C PUSH2 0xB10 JUMP JUMPDEST JUMPDEST PUSH1 0x0 PUSH2 0xD2B DUP5 DUP3 DUP6 ADD PUSH2 0xCF2 JUMP JUMPDEST SWAP2 POP POP SWAP3 SWAP2 POP POP JUMP JUMPDEST PUSH1 0x0 DUP2 ISZERO ISZERO SWAP1 POP SWAP2 SWAP1 POP JUMP JUMPDEST PUSH2 0xD49 DUP2 PUSH2 0xD34 JUMP JUMPDEST DUP3 MSTORE POP POP JUMP JUMPDEST PUSH1 0x0 PUSH1 0x20 DUP3 ADD SWAP1 POP PUSH2 0xD64 PUSH1 0x0 DUP4 ADD DUP5 PUSH2 0xD40 JUMP JUMPDEST SWAP3 SWAP2 POP POP JUMP JUMPDEST PUSH2 0xD73 DUP2 PUSH2 0xAD2 JUMP JUMPDEST DUP2 EQ PUSH2 0xD7E JUMPI PUSH1 0x0 DUP1 REVERT JUMPDEST POP JUMP JUMPDEST PUSH1 0x0 DUP2 CALLDATALOAD SWAP1 POP PUSH2 0xD90 DUP2 PUSH2 0xD6A JUMP JUMPDEST SWAP3 SWAP2 POP POP JUMP JUMPDEST PUSH1 0x0 DUP1 PUSH1 0x0 PUSH1 0x60 DUP5 DUP7 SUB SLT ISZERO PUSH2 0xDAF JUMPI PUSH2 0xDAE PUSH2 0xB10 JUMP JUMPDEST JUMPDEST PUSH1 0x0 PUSH2 0xDBD DUP7 DUP3 DUP8 ADD PUSH2 0xD81 JUMP JUMPDEST SWAP4 POP POP PUSH1 0x20 PUSH2 0xDCE DUP7 DUP3 DUP8 ADD PUSH2 0xD81 JUMP JUMPDEST SWAP3 POP POP PUSH1 0x40 PUSH2 0xDDF DUP7 DUP3 DUP8 ADD PUSH2 0xD81 JUMP JUMPDEST SWAP2 POP POP SWAP3 POP SWAP3 POP SWAP3 JUMP JUMPDEST PUSH1 0x0 PUSH1 0x20 DUP3 DUP5 SUB SLT ISZERO PUSH2 0xDFF JUMPI PUSH2 0xDFE PUSH2 0xB10 JUMP JUMPDEST JUMPDEST PUSH1 0x0 PUSH2 0xE0D DUP5 DUP3 DUP6 ADD PUSH2 0xD81 JUMP JUMPDEST SWAP2 POP POP SWAP3 SWAP2 POP POP JUMP JUMPDEST PUSH2 0xE1F DUP2 PUSH2 0xAD2 JUMP JUMPDEST DUP3 MSTORE POP POP JUMP JUMPDEST PUSH1 0x60 DUP3 ADD PUSH1 0x0 DUP3 ADD MLOAD PUSH2 0xE3B PUSH1 0x0 DUP6 ADD DUP3 PUSH2 0xE16 JUMP JUMPDEST POP PUSH1 0x20 DUP3 ADD MLOAD PUSH2 0xE4E PUSH1 0x20 DUP6 ADD DUP3 PUSH2 0xE16 JUMP JUMPDEST POP PUSH1 0x40 DUP3 ADD MLOAD PUSH2 0xE61 PUSH1 0x40 DUP6 ADD DUP3 PUSH2 0xE16 JUMP JUMPDEST POP POP POP POP JUMP JUMPDEST PUSH1 0x0 PUSH1 0x60 DUP3 ADD SWAP1 POP PUSH2 0xE7C PUSH1 0x0 DUP4 ADD DUP5 PUSH2 0xE25 JUMP JUMPDEST SWAP3 SWAP2 POP POP JUMP JUMPDEST PUSH2 0xE8B DUP2 PUSH2 0xCC9 JUMP JUMPDEST DUP3 MSTORE POP POP JUMP JUMPDEST PUSH1 0x0 PUSH1 0x60 DUP3 ADD SWAP1 POP PUSH2 0xEA6 PUSH1 0x0 DUP4 ADD DUP7 PUSH2 0xADC JUMP JUMPDEST PUSH2 0xEB3 PUSH1 0x20 DUP4 ADD DUP6 PUSH2 0xADC JUMP JUMPDEST PUSH2 0xEC0 PUSH1 0x40 DUP4 ADD DUP5 PUSH2 0xE82 JUMP JUMPDEST SWAP5 SWAP4 POP POP POP POP JUMP JUMPDEST PUSH1 0x0 DUP2 MLOAD SWAP1 POP SWAP2 SWAP1 POP JUMP JUMPDEST PUSH32 0x4E487B7100000000000000000000000000000000000000000000000000000000 PUSH1 0x0 MSTORE PUSH1 0x22 PUSH1 0x4 MSTORE PUSH1 0x24 PUSH1 0x0 REVERT JUMPDEST PUSH1 0x0 PUSH1 0x2 DUP3 DIV SWAP1 POP PUSH1 0x1 DUP3 AND DUP1 PUSH2 0xF1A JUMPI PUSH1 0x7F DUP3 AND SWAP2 POP JUMPDEST PUSH1 0x20 DUP3 LT DUP2 SUB PUSH2 0xF2D JUMPI PUSH2 0xF2C PUSH2 0xED3 JUMP JUMPDEST JUMPDEST POP SWAP2 SWAP1 POP JUMP JUMPDEST PUSH1 0x0 DUP2 SWAP1 POP DUP2 PUSH1 0x0 MSTORE PUSH1 0x20 PUSH1 0x0 KECCAK256 SWAP1 POP SWAP2 SWAP1 POP JUMP JUMPDEST PUSH1 0x0 PUSH1 0x20 PUSH1 0x1F DUP4 ADD DIV SWAP1 POP SWAP2 SWAP1 POP JUMP JUMPDEST PUSH1 0x0 DUP3 DUP3 SHL SWAP1 POP SWAP3 SWAP2 POP POP JUMP JUMPDEST PUSH1 0x0 PUSH1 0x8 DUP4 MUL PUSH2 0xF95 PUSH32 0xFFFFFFFFFFFFFFFFFFFFFFFFFFFFFFFFFFFFFFFFFFFFFFFFFFFFFFFFFFFFFFFF DUP3 PUSH2 0xF58 JUMP JUMPDEST PUSH2 0xF9F DUP7 DUP4 PUSH2 0xF58 JUMP JUMPDEST SWAP6 POP DUP1 NOT DUP5 AND SWAP4 POP DUP1 DUP7 AND DUP5 OR SWAP3 POP POP POP SWAP4 SWAP3 POP POP POP JUMP JUMPDEST PUSH1 0x0 DUP2 SWAP1 POP SWAP2 SWAP1 POP JUMP JUMPDEST PUSH1 0x0 PUSH2 0xFDC PUSH2 0xFD7 PUSH2 0xFD2 DUP5 PUSH2 0xAD2 JUMP JUMPDEST PUSH2 0xFB7 JUMP JUMPDEST PUSH2 0xAD2 JUMP JUMPDEST SWAP1 POP SWAP2 SWAP1 POP JUMP JUMPDEST PUSH1 0x0 DUP2 SWAP1 POP SWAP2 SWAP1 POP JUMP JUMPDEST PUSH2 0xFF6 DUP4 PUSH2 0xFC1 JUMP JUMPDEST PUSH2 0x100A PUSH2 0x1002 DUP3 PUSH2 0xFE3 JUMP JUMPDEST DUP5 DUP5 SLOAD PUSH2 0xF65 JUMP JUMPDEST DUP3 SSTORE POP POP POP POP JUMP JUMPDEST PUSH1 0x0 SWAP1 JUMP JUMPDEST PUSH2 0x101F PUSH2 0x1012 JUMP JUMPDEST PUSH2 0x102A DUP2 DUP5 DUP5 PUSH2 0xFED JUMP JUMPDEST POP POP POP JUMP JUMPDEST JUMPDEST DUP2 DUP2 LT ISZERO PUSH2 0x104E JUMPI PUSH2 0x1043 PUSH1 0x0 DUP3 PUSH2 0x1017 JUMP JUMPDEST PUSH1 0x1 DUP2 ADD SWAP1 POP PUSH2 0x1030 JUMP JUMPDEST POP POP JUMP JUMPDEST PUSH1 0x1F DUP3 GT ISZERO PUSH2 0x1093 JUMPI PUSH2 0x1064 DUP2 PUSH2 0xF33 JUMP JUMPDEST PUSH2 0x106D DUP5 PUSH2 0xF48 JUMP JUMPDEST DUP2 ADD PUSH1 0x20 DUP6 LT ISZERO PUSH2 0x107C JUMPI DUP2 SWAP1 POP JUMPDEST PUSH2 0x1090 PUSH2 0x1088 DUP6 PUSH2 0xF48 JUMP JUMPDEST DUP4 ADD DUP3 PUSH2 0x102F JUMP JUMPDEST POP POP JUMPDEST POP POP POP JUMP JUMPDEST PUSH1 0x0 DUP3 DUP3 SHR SWAP1 POP SWAP3 SWAP2 POP POP JUMP JUMPDEST PUSH1 0x0 PUSH2 0x10B6 PUSH1 0x0 NOT DUP5 PUSH1 0x8 MUL PUSH2 0x1098 JUMP JUMPDEST NOT DUP1 DUP4 AND SWAP2 POP POP SWAP3 SWAP2 POP POP JUMP JUMPDEST PUSH1 0x0 PUSH2 0x10CF DUP4 DUP4 PUSH2 0x10A5 JUMP JUMPDEST SWAP2 POP DUP3 PUSH1 0x2 MUL DUP3 OR SWAP1 POP SWAP3 SWAP2 POP POP JUMP JUMPDEST PUSH2 0x10E8 DUP3 PUSH2 0xEC8 JUMP JUMPDEST PUSH8 0xFFFFFFFFFFFFFFFF DUP2 GT ISZERO PUSH2 0x1101 JUMPI PUSH2 0x1100 PUSH2 0xB35 JUMP JUMPDEST JUMPDEST PUSH2 0x110B DUP3 SLOAD PUSH2 0xF02 JUMP JUMPDEST PUSH2 0x1116 DUP3 DUP3 DUP6 PUSH2 0x1052 JUMP JUMPDEST PUSH1 0x0 PUSH1 0x20 SWAP1 POP PUSH1 0x1F DUP4 GT PUSH1 0x1 DUP2 EQ PUSH2 0x1149 JUMPI PUSH1 0x0 DUP5 ISZERO PUSH2 0x1137 JUMPI DUP3 DUP8 ADD MLOAD SWAP1 POP JUMPDEST PUSH2 0x1141 DUP6 DUP3 PUSH2 0x10C3 JUMP JUMPDEST DUP7 SSTORE POP PUSH2 0x11A9 JUMP JUMPDEST PUSH1 0x1F NOT DUP5 AND PUSH2 0x1157 DUP7 PUSH2 0xF33 JUMP JUMPDEST PUSH1 0x0 JUMPDEST DUP3 DUP2 LT ISZERO PUSH2 0x117F JUMPI DUP5 DUP10 ADD MLOAD DUP3 SSTORE PUSH1 0x1 DUP3 ADD SWAP2 POP PUSH1 0x20 DUP6 ADD SWAP5 POP PUSH1 0x20 DUP2 ADD SWAP1 POP PUSH2 0x115A JUMP JUMPDEST DUP7 DUP4 LT ISZERO PUSH2 0x119C JUMPI DUP5 DUP10 ADD MLOAD PUSH2 0x1198 PUSH1 0x1F DUP10 AND DUP3 PUSH2 0x10A5 JUMP JUMPDEST DUP4 SSTORE POP JUMPDEST PUSH1 0x1 PUSH1 0x2 DUP9 MUL ADD DUP9 SSTORE POP POP POP JUMPDEST POP POP POP POP POP POP JUMP JUMPDEST PUSH1 0x0 DUP3 DUP3 MSTORE PUSH1 0x20 DUP3 ADD SWAP1 POP SWAP3 SWAP2 POP POP JUMP JUMPDEST PUSH1 0x0 JUMPDEST DUP4 DUP2 LT ISZERO PUSH2 0x11E0 JUMPI DUP1 DUP3 ADD MLOAD DUP2 DUP5 ADD MSTORE PUSH1 0x20 DUP2 ADD SWAP1 POP PUSH2 0x11C5 JUMP JUMPDEST PUSH1 0x0 DUP5 DUP5 ADD MSTORE POP POP POP POP JUMP JUMPDEST PUSH1 0x0 PUSH2 0x11F7 DUP3 PUSH2 0xEC8 JUMP JUMPDEST PUSH2 0x1201 DUP2 DUP6 PUSH2 0x11B1 JUMP JUMPDEST SWAP4 POP PUSH2 0x1211 DUP2 DUP6 PUSH1 0x20 DUP7 ADD PUSH2 0x11C2 JUMP JUMPDEST PUSH2 0x121A DUP2 PUSH2 0xB24 JUMP JUMPDEST DUP5 ADD SWAP2 POP POP SWAP3 SWAP2 POP POP JUMP JUMPDEST PUSH1 0x0 PUSH1 0x40 DUP3 ADD SWAP1 POP PUSH2 0x123A PUSH1 0x0 DUP4 ADD DUP6 PUSH2 0xADC JUMP JUMPDEST DUP2 DUP2 SUB PUSH1 0x20 DUP4 ADD MSTORE PUSH2 0x124C DUP2 DUP5 PUSH2 0x11EC JUMP JUMPDEST SWAP1 POP SWAP4 SWAP3 POP POP POP JUMP JUMPDEST PUSH32 0x4E487B7100000000000000000000000000000000000000000000000000000000 PUSH1 0x0 MSTORE PUSH1 0x11 PUSH1 0x4 MSTORE PUSH1 0x24 PUSH1 0x0 REVERT JUMPDEST PUSH1 0x0 PUSH2 0x128F DUP3 PUSH2 0xAD2 JUMP JUMPDEST SWAP2 POP PUSH2 0x129A DUP4 PUSH2 0xAD2 JUMP JUMPDEST SWAP3 POP DUP3 DUP3 SUB SWAP1 POP DUP2 DUP2 GT ISZERO PUSH2 0x12B2 JUMPI PUSH2 0x12B1 PUSH2 0x1255 JUMP JUMPDEST JUMPDEST SWAP3 SWAP2 POP POP JUMP JUMPDEST PUSH1 0x0 PUSH1 0x20 DUP3 ADD SWAP1 POP PUSH2 0x12CD PUSH1 0x0 DUP4 ADD DUP5 PUSH2 0xE82 JUMP JUMPDEST SWAP3 SWAP2 POP POP JUMP JUMPDEST PUSH1 0x0 PUSH2 0x12DE DUP3 PUSH2 0xAD2 JUMP JUMPDEST SWAP2 POP PUSH32 0xFFFFFFFFFFFFFFFFFFFFFFFFFFFFFFFFFFFFFFFFFFFFFFFFFFFFFFFFFFFFFFFF DUP3 SUB PUSH2 0x1310 JUMPI PUSH2 0x130F PUSH2 0x1255 JUMP JUMPDEST JUMPDEST PUSH1 0x1 DUP3 ADD SWAP1 POP SWAP2 SWAP1 POP JUMP JUMPDEST PUSH1 0x0 DUP2 SLOAD PUSH2 0x1328 DUP2 PUSH2 0xF02 JUMP JUMPDEST PUSH2 0x1332 DUP2 DUP7 PUSH2 0x11B1 JUMP JUMPDEST SWAP5 POP PUSH1 0x1 DUP3 AND PUSH1 0x0 DUP2 EQ PUSH2 0x134D JUMPI PUSH1 0x1 DUP2 EQ PUSH2 0x1363 JUMPI PUSH2 0x1396 JUMP JUMPDEST PUSH1 0xFF NOT DUP4 AND DUP7 MSTORE DUP2 ISZERO ISZERO PUSH1 0x20 MUL DUP7 ADD SWAP4 POP PUSH2 0x1396 JUMP JUMPDEST PUSH2 0x136C DUP6 PUSH2 0xF33 JUMP JUMPDEST PUSH1 0x0 JUMPDEST DUP4 DUP2 LT ISZERO PUSH2 0x138E JUMPI DUP2 SLOAD DUP2 DUP10 ADD MSTORE PUSH1 0x1 DUP3 ADD SWAP2 POP PUSH1 0x20 DUP2 ADD SWAP1 POP PUSH2 0x136F JUMP JUMPDEST DUP1 DUP9 ADD SWAP6 POP POP POP JUMPDEST POP POP POP SWAP3 SWAP2 POP POP JUMP JUMPDEST PUSH1 0x0 PUSH1 0x80 DUP3 ADD SWAP1 POP PUSH2 0x13B4 PUSH1 0x0 DUP4 ADD DUP8 PUSH2 0xADC JUMP JUMPDEST DUP2 DUP2 SUB PUSH1 0x20 DUP4 ADD MSTORE PUSH2 0x13C6 DUP2 DUP7 PUSH2 0x131B JUMP JUMPDEST SWAP1 POP PUSH2 0x13D5 PUSH1 0x40 DUP4 ADD DUP6 PUSH2 0xADC JUMP JUMPDEST PUSH2 0x13E2 PUSH1 0x60 DUP4 ADD DUP5 PUSH2 0xADC JUMP JUMPDEST SWAP6 SWAP5 POP POP POP POP POP JUMP JUMPDEST PUSH32 0x4E487B7100000000000000000000000000000000000000000000000000000000 PUSH1 0x0 MSTORE PUSH1 0x12 PUSH1 0x4 MSTORE PUSH1 0x24 PUSH1 0x0 REVERT INVALID LOG2 PUSH5 0x6970667358 0x22 SLT KECCAK256 0xEA 0xE 0xCC BALANCE PUSH1 0x22 PUSH14 0xA7DD4466406A6131F04874E87047 JUMPI PUSH6 0x861D7E802084 0xD4 0xFC DUP16 PUSH5 0x736F6C6343 STOP ADDMOD XOR STOP CALLER "},"methodIdentifiers":{"addOracle(address)":"df5dd1a5","createRequest(string)":"1b146ecf","getCurrentOracleId()":"6cd17d6e","getCurrentRequestId()":"15cd1841","getMinQuorum()":"a9b3bfa9","getRequest(uint256)":"c58343ef","getTotalOracleCount()":"6478cf93","isOracle(address)":"a97e5c93","removeOracle(address)":"fdc85fc4","updateRequest(uint256,uint256,uint256)":"ab49c774"}}}}}